ARM GAS  /tmp/ccxoXs8x.s 			page 1


   1              		.syntax unified
   2              		.cpu cortex-m4
   3              		.fpu softvfp
   4              		.eabi_attribute 20, 1
   5              		.eabi_attribute 21, 1
   6              		.eabi_attribute 23, 3
   7              		.eabi_attribute 24, 1
   8              		.eabi_attribute 25, 1
   9              		.eabi_attribute 26, 1
  10              		.eabi_attribute 30, 2
  11              		.eabi_attribute 34, 1
  12              		.eabi_attribute 18, 4
  13              		.thumb
  14              		.file	"chmempools.c"
  15              		.text
  16              	.Ltext0:
  17              		.cfi_sections	.debug_frame
  18              		.section	.text.chPoolInit,"ax",%progbits
  19              		.align	2
  20              		.p2align 4,,15
  21              		.global	chPoolInit
  22              		.thumb
  23              		.thumb_func
  24              		.type	chPoolInit, %function
  25              	chPoolInit:
  26              	.LFB7:
  27              		.file 1 "../ChibiOS_2.6.7_minified/os/kernel/src/chmempools.c"
  28              		.loc 1 62 0
  29              		.cfi_startproc
  30              		@ args = 0, pretend = 0, frame = 0
  31              		@ frame_needed = 0, uses_anonymous_args = 0
  32              		@ link register save eliminated.
  33              	.LVL0:
  34              		.loc 1 66 0
  35 0000 0023     		movs	r3, #0
  36              		.loc 1 67 0
  37 0002 4160     		str	r1, [r0, #4]
  38              		.loc 1 68 0
  39 0004 8260     		str	r2, [r0, #8]
  40              		.loc 1 66 0
  41 0006 0360     		str	r3, [r0]
  42 0008 7047     		bx	lr
  43              		.cfi_endproc
  44              	.LFE7:
  45              		.size	chPoolInit, .-chPoolInit
  46 000a 00BFAFF3 		.section	.text.chPoolLoadArray,"ax",%progbits
  46      0080
  47              		.align	2
  48              		.p2align 4,,15
  49              		.global	chPoolLoadArray
  50              		.thumb
  51              		.thumb_func
  52              		.type	chPoolLoadArray, %function
  53              	chPoolLoadArray:
  54              	.LFB8:
  55              		.loc 1 84 0
  56              		.cfi_startproc
ARM GAS  /tmp/ccxoXs8x.s 			page 2


  57              		@ args = 0, pretend = 0, frame = 0
  58              		@ frame_needed = 0, uses_anonymous_args = 0
  59              		@ link register save eliminated.
  60              	.LVL1:
  61              		.loc 1 88 0
  62 0000 62B1     		cbz	r2, .L2
  63              	.LVL2:
  64              	.L5:
  65              	.LBB16:
  66              	.LBB17:
  67              		.loc 1 173 0
  68 0002 2023     		movs	r3, #32
  69              	@ 173 "../ChibiOS_2.6.7_minified/os/kernel/src/chmempools.c" 1
  70 0004 83F31188 		msr     BASEPRI, r3
  71              	@ 0 "" 2
  72              	.LVL3:
  73              		.thumb
  74              	.LBE17:
  75              	.LBB18:
  76              	.LBB19:
  77              		.loc 1 155 0
  78 0008 0368     		ldr	r3, [r0]
  79 000a 0B60     		str	r3, [r1]
  80              	.LBE19:
  81              	.LBE18:
  82              	.LBB21:
  83              		.loc 1 175 0
  84 000c 0023     		movs	r3, #0
  85              	.LBE21:
  86              	.LBB22:
  87              	.LBB20:
  88              		.loc 1 156 0
  89 000e 0160     		str	r1, [r0]
  90              	.LBE20:
  91              	.LBE22:
  92              	.LBB23:
  93              		.loc 1 175 0
  94              	@ 175 "../ChibiOS_2.6.7_minified/os/kernel/src/chmempools.c" 1
  95 0010 83F31188 		msr     BASEPRI, r3
  96              	@ 0 "" 2
  97              		.thumb
  98              	.LBE23:
  99              	.LBE16:
 100              		.loc 1 90 0
 101 0014 4368     		ldr	r3, [r0, #4]
 102              		.loc 1 88 0
 103 0016 013A     		subs	r2, r2, #1
 104              	.LVL4:
 105              		.loc 1 90 0
 106 0018 1944     		add	r1, r1, r3
 107              	.LVL5:
 108              		.loc 1 88 0
 109 001a F2D1     		bne	.L5
 110              	.LVL6:
 111              	.L2:
 112 001c 7047     		bx	lr
 113              		.cfi_endproc
ARM GAS  /tmp/ccxoXs8x.s 			page 3


 114              	.LFE8:
 115              		.size	chPoolLoadArray, .-chPoolLoadArray
 116 001e 00BF     		.section	.text.chPoolAllocI,"ax",%progbits
 117              		.align	2
 118              		.p2align 4,,15
 119              		.global	chPoolAllocI
 120              		.thumb
 121              		.thumb_func
 122              		.type	chPoolAllocI, %function
 123              	chPoolAllocI:
 124              	.LFB9:
 125              		.loc 1 105 0
 126              		.cfi_startproc
 127              		@ args = 0, pretend = 0, frame = 0
 128              		@ frame_needed = 0, uses_anonymous_args = 0
 129              	.LVL7:
 130 0000 08B5     		push	{r3, lr}
 131              		.cfi_def_cfa_offset 8
 132              		.cfi_offset 3, -8
 133              		.cfi_offset 14, -4
 134              		.loc 1 105 0
 135 0002 0346     		mov	r3, r0
 136              		.loc 1 111 0
 137 0004 0068     		ldr	r0, [r0]
 138              	.LVL8:
 139 0006 10B1     		cbz	r0, .L12
 140              		.loc 1 112 0
 141 0008 0268     		ldr	r2, [r0]
 142 000a 1A60     		str	r2, [r3]
 143 000c 08BD     		pop	{r3, pc}
 144              	.LVL9:
 145              	.L12:
 146              		.loc 1 113 0
 147 000e 9A68     		ldr	r2, [r3, #8]
 148 0010 0AB1     		cbz	r2, .L13
 149              		.loc 1 114 0
 150 0012 5868     		ldr	r0, [r3, #4]
 151              	.LVL10:
 152 0014 9047     		blx	r2
 153              	.LVL11:
 154              	.L13:
 155              		.loc 1 116 0
 156 0016 08BD     		pop	{r3, pc}
 157              		.cfi_endproc
 158              	.LFE9:
 159              		.size	chPoolAllocI, .-chPoolAllocI
 160 0018 AFF30080 		.section	.text.chPoolAlloc,"ax",%progbits
 160      AFF30080 
 161              		.align	2
 162              		.p2align 4,,15
 163              		.global	chPoolAlloc
 164              		.thumb
 165              		.thumb_func
 166              		.type	chPoolAlloc, %function
 167              	chPoolAlloc:
 168              	.LFB10:
 169              		.loc 1 128 0
ARM GAS  /tmp/ccxoXs8x.s 			page 4


 170              		.cfi_startproc
 171              		@ args = 0, pretend = 0, frame = 0
 172              		@ frame_needed = 0, uses_anonymous_args = 0
 173              	.LVL12:
 174 0000 08B5     		push	{r3, lr}
 175              		.cfi_def_cfa_offset 8
 176              		.cfi_offset 3, -8
 177              		.cfi_offset 14, -4
 178              		.loc 1 128 0
 179 0002 0246     		mov	r2, r0
 180              	.LBB24:
 181              		.loc 1 131 0
 182 0004 2023     		movs	r3, #32
 183              	@ 131 "../ChibiOS_2.6.7_minified/os/kernel/src/chmempools.c" 1
 184 0006 83F31188 		msr     BASEPRI, r3
 185              	@ 0 "" 2
 186              	.LVL13:
 187              		.thumb
 188              	.LBE24:
 189              	.LBB25:
 190              	.LBB26:
 191              		.loc 1 111 0
 192 000a 0068     		ldr	r0, [r0]
 193              	.LVL14:
 194 000c 28B1     		cbz	r0, .L18
 195              		.loc 1 112 0
 196 000e 0368     		ldr	r3, [r0]
 197 0010 1360     		str	r3, [r2]
 198              	.L19:
 199              	.LBE26:
 200              	.LBE25:
 201              	.LBB28:
 202              		.loc 1 133 0
 203 0012 0023     		movs	r3, #0
 204              	@ 133 "../ChibiOS_2.6.7_minified/os/kernel/src/chmempools.c" 1
 205 0014 83F31188 		msr     BASEPRI, r3
 206              	@ 0 "" 2
 207              		.thumb
 208              	.LBE28:
 209              		.loc 1 135 0
 210 0018 08BD     		pop	{r3, pc}
 211              	.L18:
 212              	.LBB29:
 213              	.LBB27:
 214              		.loc 1 113 0
 215 001a 9368     		ldr	r3, [r2, #8]
 216 001c 002B     		cmp	r3, #0
 217 001e F8D0     		beq	.L19
 218              		.loc 1 114 0
 219 0020 5068     		ldr	r0, [r2, #4]
 220              	.LVL15:
 221 0022 9847     		blx	r3
 222              	.LVL16:
 223              	.LBE27:
 224              	.LBE29:
 225              	.LBB30:
 226              		.loc 1 133 0
ARM GAS  /tmp/ccxoXs8x.s 			page 5


 227 0024 0023     		movs	r3, #0
 228              	@ 133 "../ChibiOS_2.6.7_minified/os/kernel/src/chmempools.c" 1
 229 0026 83F31188 		msr     BASEPRI, r3
 230              	@ 0 "" 2
 231              		.thumb
 232              	.LBE30:
 233              		.loc 1 135 0
 234 002a 08BD     		pop	{r3, pc}
 235              		.cfi_endproc
 236              	.LFE10:
 237              		.size	chPoolAlloc, .-chPoolAlloc
 238 002c AFF30080 		.section	.text.chPoolFreeI,"ax",%progbits
 239              		.align	2
 240              		.p2align 4,,15
 241              		.global	chPoolFreeI
 242              		.thumb
 243              		.thumb_func
 244              		.type	chPoolFreeI, %function
 245              	chPoolFreeI:
 246              	.LFB11:
 247              		.loc 1 149 0
 248              		.cfi_startproc
 249              		@ args = 0, pretend = 0, frame = 0
 250              		@ frame_needed = 0, uses_anonymous_args = 0
 251              		@ link register save eliminated.
 252              	.LVL17:
 253              		.loc 1 155 0
 254 0000 0368     		ldr	r3, [r0]
 255 0002 0B60     		str	r3, [r1]
 256              		.loc 1 156 0
 257 0004 0160     		str	r1, [r0]
 258 0006 7047     		bx	lr
 259              		.cfi_endproc
 260              	.LFE11:
 261              		.size	chPoolFreeI, .-chPoolFreeI
 262 0008 AFF30080 		.section	.text.chPoolFree,"ax",%progbits
 262      AFF30080 
 263              		.align	2
 264              		.p2align 4,,15
 265              		.global	chPoolFree
 266              		.thumb
 267              		.thumb_func
 268              		.type	chPoolFree, %function
 269              	chPoolFree:
 270              	.LFB12:
 271              		.loc 1 171 0
 272              		.cfi_startproc
 273              		@ args = 0, pretend = 0, frame = 0
 274              		@ frame_needed = 0, uses_anonymous_args = 0
 275              		@ link register save eliminated.
 276              	.LVL18:
 277              	.LBB31:
 278              		.loc 1 173 0
 279 0000 2023     		movs	r3, #32
 280              	@ 173 "../ChibiOS_2.6.7_minified/os/kernel/src/chmempools.c" 1
 281 0002 83F31188 		msr     BASEPRI, r3
 282              	@ 0 "" 2
ARM GAS  /tmp/ccxoXs8x.s 			page 6


 283              	.LVL19:
 284              		.thumb
 285              	.LBE31:
 286              	.LBB32:
 287              	.LBB33:
 288              		.loc 1 155 0
 289 0006 0368     		ldr	r3, [r0]
 290 0008 0B60     		str	r3, [r1]
 291              	.LBE33:
 292              	.LBE32:
 293              	.LBB35:
 294              		.loc 1 175 0
 295 000a 0023     		movs	r3, #0
 296              	.LBE35:
 297              	.LBB36:
 298              	.LBB34:
 299              		.loc 1 156 0
 300 000c 0160     		str	r1, [r0]
 301              	.LBE34:
 302              	.LBE36:
 303              	.LBB37:
 304              		.loc 1 175 0
 305              	@ 175 "../ChibiOS_2.6.7_minified/os/kernel/src/chmempools.c" 1
 306 000e 83F31188 		msr     BASEPRI, r3
 307              	@ 0 "" 2
 308              		.thumb
 309 0012 7047     		bx	lr
 310              	.LBE37:
 311              		.cfi_endproc
 312              	.LFE12:
 313              		.size	chPoolFree, .-chPoolFree
 314 0014 AFF30080 		.text
 314      AFF30080 
 314      AFF30080 
 315              	.Letext0:
 316              		.file 2 "/usr/lib/gcc/arm-none-eabi/4.8.4/include/stddef.h"
 317              		.file 3 "/usr/arm-none-eabi/include/machine/_default_types.h"
 318              		.file 4 "/usr/arm-none-eabi/include/stdint.h"
 319              		.file 5 "../ChibiOS_2.6.7_minified/os/kernel/include/chmemcore.h"
 320              		.file 6 "../ChibiOS_2.6.7_minified/os/kernel/include/chmempools.h"
