ARM GAS  /tmp/ccK5cYGb.s 			page 1


   1              		.syntax unified
   2              		.cpu cortex-m4
   3              		.fpu softvfp
   4              		.eabi_attribute 20, 1
   5              		.eabi_attribute 21, 1
   6              		.eabi_attribute 23, 3
   7              		.eabi_attribute 24, 1
   8              		.eabi_attribute 25, 1
   9              		.eabi_attribute 26, 1
  10              		.eabi_attribute 30, 2
  11              		.eabi_attribute 34, 1
  12              		.eabi_attribute 18, 4
  13              		.thumb
  14              		.file	"chprintf.c"
  15              		.text
  16              	.Ltext0:
  17              		.cfi_sections	.debug_frame
  18              		.section	.text.long_to_string_with_divisor,"ax",%progbits
  19              		.align	2
  20              		.p2align 4,,15
  21              		.thumb
  22              		.thumb_func
  23              		.type	long_to_string_with_divisor, %function
  24              	long_to_string_with_divisor:
  25              	.LFB8:
  26              		.file 1 "../ChibiOS_2.6.7_minified/os/various/chprintf.c"
  27              		.loc 1 40 0
  28              		.cfi_startproc
  29              		@ args = 0, pretend = 0, frame = 0
  30              		@ frame_needed = 0, uses_anonymous_args = 0
  31              		@ link register save eliminated.
  32              	.LVL0:
  33 0000 F0B4     		push	{r4, r5, r6, r7}
  34              		.cfi_def_cfa_offset 16
  35              		.cfi_offset 4, -16
  36              		.cfi_offset 5, -12
  37              		.cfi_offset 6, -8
  38              		.cfi_offset 7, -4
  39              		.loc 1 47 0
  40 0002 002B     		cmp	r3, #0
  41 0004 08BF     		it	eq
  42 0006 0B46     		moveq	r3, r1
  43              	.LVL1:
  44              		.loc 1 52 0
  45 0008 00F10B07 		add	r7, r0, #11
  46              	.LVL2:
  47 000c 00F10A05 		add	r5, r0, #10
  48              	.LVL3:
  49              	.L5:
  50              		.loc 1 54 0
  51 0010 B1FBF2F6 		udiv	r6, r1, r2
  52 0014 02FB1611 		mls	r1, r2, r6, r1
  53              	.LVL4:
  54              		.loc 1 55 0
  55 0018 01F13004 		add	r4, r1, #48
  56              	.LVL5:
  57              		.loc 1 56 0
ARM GAS  /tmp/ccK5cYGb.s 			page 2


  58 001c 392C     		cmp	r4, #57
  59              		.loc 1 57 0
  60 001e C8BF     		it	gt
  61 0020 01F13704 		addgt	r4, r1, #55
  62              	.LVL6:
  63              		.loc 1 58 0
  64 0024 E4B2     		uxtb	r4, r4
  65              	.LVL7:
  66              		.loc 1 60 0
  67 0026 B3FBF2F3 		udiv	r3, r3, r2
  68              	.LVL8:
  69              		.loc 1 59 0
  70 002a 3146     		mov	r1, r6
  71              	.LVL9:
  72              		.loc 1 58 0
  73 002c 2E46     		mov	r6, r5
  74              	.LVL10:
  75 002e 05F80149 		strb	r4, [r5], #-1
  76              	.LVL11:
  77              		.loc 1 60 0
  78 0032 002B     		cmp	r3, #0
  79 0034 ECD1     		bne	.L5
  80              	.LVL12:
  81              		.loc 1 62 0
  82 0036 BA1B     		subs	r2, r7, r6
  83              	.LVL13:
  84 0038 3346     		mov	r3, r6
  85              	.LVL14:
  86 003a 0244     		add	r2, r2, r0
  87 003c 01E0     		b	.L7
  88              	.LVL15:
  89              	.L11:
  90 003e 13F8014F 		ldrb	r4, [r3, #1]!	@ zero_extendqisi2
  91              	.LVL16:
  92              	.L7:
  93              		.loc 1 64 0 discriminator 1
  94 0042 00F8014B 		strb	r4, [r0], #1
  95              	.LVL17:
  96              		.loc 1 65 0 discriminator 1
  97 0046 9042     		cmp	r0, r2
  98 0048 F9D1     		bne	.L11
  99              		.loc 1 68 0
 100 004a F0BC     		pop	{r4, r5, r6, r7}
 101              	.LVL18:
 102 004c 7047     		bx	lr
 103              		.cfi_endproc
 104              	.LFE8:
 105              		.size	long_to_string_with_divisor, .-long_to_string_with_divisor
 106              		.global	__aeabi_d2f
 107              		.global	__aeabi_fcmplt
 108              		.global	__aeabi_f2iz
 109              		.global	__aeabi_f2d
 110              		.global	__aeabi_i2d
 111              		.global	__aeabi_dsub
 112              		.global	__aeabi_dmul
 113              		.global	__aeabi_d2iz
 114 004e 00BF     		.section	.text.chvprintf,"ax",%progbits
ARM GAS  /tmp/ccK5cYGb.s 			page 3


 115              		.align	2
 116              		.p2align 4,,15
 117              		.global	chvprintf
 118              		.thumb
 119              		.thumb_func
 120              		.type	chvprintf, %function
 121              	chvprintf:
 122              	.LFB11:
 123              		.loc 1 112 0
 124              		.cfi_startproc
 125              		@ args = 0, pretend = 0, frame = 40
 126              		@ frame_needed = 0, uses_anonymous_args = 0
 127              	.LVL19:
 128 0000 2DE9F04F 		push	{r4, r5, r6, r7, r8, r9, r10, fp, lr}
 129              		.cfi_def_cfa_offset 36
 130              		.cfi_offset 4, -36
 131              		.cfi_offset 5, -32
 132              		.cfi_offset 6, -28
 133              		.cfi_offset 7, -24
 134              		.cfi_offset 8, -20
 135              		.cfi_offset 9, -16
 136              		.cfi_offset 10, -12
 137              		.cfi_offset 11, -8
 138              		.cfi_offset 14, -4
 139 0004 0646     		mov	r6, r0
 140 0006 8BB0     		sub	sp, sp, #44
 141              		.cfi_def_cfa_offset 80
 142              		.loc 1 112 0
 143 0008 0C46     		mov	r4, r1
 144 000a 1746     		mov	r7, r2
 145              	.LVL20:
 146              	.L13:
 147              		.loc 1 125 0
 148 000c 2178     		ldrb	r1, [r4]	@ zero_extendqisi2
 149 000e 631C     		adds	r3, r4, #1
 150              	.LVL21:
 151              		.loc 1 126 0
 152 0010 51B1     		cbz	r1, .L12
 153              	.LVL22:
 154              	.L87:
 155              		.loc 1 128 0
 156 0012 2529     		cmp	r1, #37
 157 0014 0BD0     		beq	.L15
 158              		.loc 1 129 0
 159 0016 3268     		ldr	r2, [r6]
 160              	.LVL23:
 161              		.loc 1 125 0
 162 0018 1C46     		mov	r4, r3
 163              		.loc 1 129 0
 164 001a 9268     		ldr	r2, [r2, #8]
 165 001c 3046     		mov	r0, r6
 166 001e 9047     		blx	r2
 167              	.LVL24:
 168              		.loc 1 125 0
 169 0020 2178     		ldrb	r1, [r4]	@ zero_extendqisi2
 170 0022 631C     		adds	r3, r4, #1
 171              	.LVL25:
ARM GAS  /tmp/ccK5cYGb.s 			page 4


 172              		.loc 1 126 0
 173 0024 0029     		cmp	r1, #0
 174 0026 F4D1     		bne	.L87
 175              	.LVL26:
 176              	.L12:
 177              		.loc 1 261 0
 178 0028 0BB0     		add	sp, sp, #44
 179              		@ sp needed
 180 002a BDE8F08F 		pop	{r4, r5, r6, r7, r8, r9, r10, fp, pc}
 181              	.LVL27:
 182              	.L15:
 183              		.loc 1 135 0
 184 002e 6278     		ldrb	r2, [r4, #1]	@ zero_extendqisi2
 185              	.LVL28:
 186 0030 2D2A     		cmp	r2, #45
 187 0032 03BF     		ittte	eq
 188 0034 A278     		ldrbeq	r2, [r4, #2]	@ zero_extendqisi2
 189              		.loc 1 136 0
 190 0036 A31C     		addeq	r3, r4, #2
 191              	.LVL29:
 192              		.loc 1 137 0
 193 0038 4FF0010A 		moveq	r10, #1
 194              		.loc 1 134 0
 195 003c 4FF0000A 		movne	r10, #0
 196              	.LVL30:
 197              		.loc 1 140 0
 198 0040 2E2A     		cmp	r2, #46
 199 0042 00F04681 		beq	.L18
 200              		.loc 1 140 0 is_stmt 0 discriminator 1
 201 0046 302A     		cmp	r2, #48
 202 0048 00F04381 		beq	.L18
 203              		.loc 1 139 0 is_stmt 1
 204 004c 4FF02008 		mov	r8, #32
 205              	.LVL31:
 206              	.L19:
 207              		.loc 1 142 0
 208 0050 1C46     		mov	r4, r3
 209              		.loc 1 144 0
 210 0052 0025     		movs	r5, #0
 211 0054 06E0     		b	.L22
 212              	.LVL32:
 213              	.L88:
 214              		.loc 1 150 0
 215 0056 3B78     		ldrb	r3, [r7]	@ zero_extendqisi2
 216              	.LVL33:
 217 0058 0437     		adds	r7, r7, #4
 218              	.LVL34:
 219              	.L20:
 220              		.loc 1 153 0
 221 005a 05EB8505 		add	r5, r5, r5, lsl #2
 222              	.LVL35:
 223 005e 2278     		ldrb	r2, [r4]	@ zero_extendqisi2
 224 0060 03EB4505 		add	r5, r3, r5, lsl #1
 225              	.LVL36:
 226              	.L22:
 227              		.loc 1 147 0
 228 0064 A2F13003 		sub	r3, r2, #48
ARM GAS  /tmp/ccK5cYGb.s 			page 5


 229 0068 DBB2     		uxtb	r3, r3
 230 006a 092B     		cmp	r3, #9
 231              		.loc 1 146 0
 232 006c 04F10104 		add	r4, r4, #1
 233              	.LVL37:
 234              		.loc 1 147 0
 235 0070 F3D9     		bls	.L20
 236              		.loc 1 149 0
 237 0072 2A2A     		cmp	r2, #42
 238 0074 EFD0     		beq	.L88
 239              	.LVL38:
 240              		.loc 1 156 0
 241 0076 2E2A     		cmp	r2, #46
 242 0078 4FF00001 		mov	r1, #0
 243 007c 45D0     		beq	.L25
 244              	.LVL39:
 245              		.loc 1 170 0
 246 007e 02F0DF03 		and	r3, r2, #223
 247 0082 4C2B     		cmp	r3, #76
 248 0084 4ED0     		beq	.L89
 249              	.LVL40:
 250              	.L27:
 251              		.loc 1 179 0
 252 0086 A2F14403 		sub	r3, r2, #68
 253 008a 342B     		cmp	r3, #52
 254 008c 00F21681 		bhi	.L28
 255 0090 DFE813F0 		tbh	[pc, r3, lsl #1]
 256              	.L30:
 257 0094 0301     		.2byte	(.L29-.L30)/2
 258 0096 1401     		.2byte	(.L28-.L30)/2
 259 0098 1401     		.2byte	(.L28-.L30)/2
 260 009a 1401     		.2byte	(.L28-.L30)/2
 261 009c 1401     		.2byte	(.L28-.L30)/2
 262 009e 0301     		.2byte	(.L29-.L30)/2
 263 00a0 1401     		.2byte	(.L28-.L30)/2
 264 00a2 1401     		.2byte	(.L28-.L30)/2
 265 00a4 1401     		.2byte	(.L28-.L30)/2
 266 00a6 1401     		.2byte	(.L28-.L30)/2
 267 00a8 1401     		.2byte	(.L28-.L30)/2
 268 00aa 0101     		.2byte	(.L31-.L30)/2
 269 00ac 1401     		.2byte	(.L28-.L30)/2
 270 00ae 1401     		.2byte	(.L28-.L30)/2
 271 00b0 1401     		.2byte	(.L28-.L30)/2
 272 00b2 1401     		.2byte	(.L28-.L30)/2
 273 00b4 1401     		.2byte	(.L28-.L30)/2
 274 00b6 4E00     		.2byte	(.L62-.L30)/2
 275 00b8 1401     		.2byte	(.L28-.L30)/2
 276 00ba 1401     		.2byte	(.L28-.L30)/2
 277 00bc 8800     		.2byte	(.L33-.L30)/2
 278 00be 1401     		.2byte	(.L28-.L30)/2
 279 00c0 1401     		.2byte	(.L28-.L30)/2
 280 00c2 1401     		.2byte	(.L28-.L30)/2
 281 00c4 1401     		.2byte	(.L28-.L30)/2
 282 00c6 1401     		.2byte	(.L28-.L30)/2
 283 00c8 1401     		.2byte	(.L28-.L30)/2
 284 00ca 1401     		.2byte	(.L28-.L30)/2
 285 00cc 1401     		.2byte	(.L28-.L30)/2
ARM GAS  /tmp/ccK5cYGb.s 			page 6


 286 00ce 1401     		.2byte	(.L28-.L30)/2
 287 00d0 1401     		.2byte	(.L28-.L30)/2
 288 00d2 F200     		.2byte	(.L34-.L30)/2
 289 00d4 0301     		.2byte	(.L29-.L30)/2
 290 00d6 1401     		.2byte	(.L28-.L30)/2
 291 00d8 AD00     		.2byte	(.L35-.L30)/2
 292 00da 1401     		.2byte	(.L28-.L30)/2
 293 00dc 1401     		.2byte	(.L28-.L30)/2
 294 00de 0301     		.2byte	(.L29-.L30)/2
 295 00e0 1401     		.2byte	(.L28-.L30)/2
 296 00e2 1401     		.2byte	(.L28-.L30)/2
 297 00e4 1401     		.2byte	(.L28-.L30)/2
 298 00e6 1401     		.2byte	(.L28-.L30)/2
 299 00e8 1401     		.2byte	(.L28-.L30)/2
 300 00ea 0101     		.2byte	(.L31-.L30)/2
 301 00ec 1401     		.2byte	(.L28-.L30)/2
 302 00ee 1401     		.2byte	(.L28-.L30)/2
 303 00f0 1401     		.2byte	(.L28-.L30)/2
 304 00f2 8A00     		.2byte	(.L36-.L30)/2
 305 00f4 1401     		.2byte	(.L28-.L30)/2
 306 00f6 4E00     		.2byte	(.L62-.L30)/2
 307 00f8 1401     		.2byte	(.L28-.L30)/2
 308 00fa 1401     		.2byte	(.L28-.L30)/2
 309 00fc 8800     		.2byte	(.L33-.L30)/2
 310              	.LVL41:
 311              		.p2align 1
 312              	.L90:
 313              		.loc 1 162 0
 314 00fe 3B78     		ldrb	r3, [r7]	@ zero_extendqisi2
 315              	.LVL42:
 316 0100 0437     		adds	r7, r7, #4
 317              	.LVL43:
 318              	.L24:
 319              		.loc 1 165 0
 320 0102 01EB8101 		add	r1, r1, r1, lsl #2
 321              	.LVL44:
 322              		.loc 1 166 0
 323 0106 03EB4101 		add	r1, r3, r1, lsl #1
 324              	.LVL45:
 325              	.L25:
 326              		.loc 1 158 0
 327 010a 14F8012B 		ldrb	r2, [r4], #1	@ zero_extendqisi2
 328              	.LVL46:
 329              		.loc 1 159 0
 330 010e A2F13003 		sub	r3, r2, #48
 331 0112 DBB2     		uxtb	r3, r3
 332 0114 092B     		cmp	r3, #9
 333 0116 F4D9     		bls	.L24
 334              		.loc 1 161 0
 335 0118 2A2A     		cmp	r2, #42
 336 011a F0D0     		beq	.L90
 337              	.LVL47:
 338              		.loc 1 170 0
 339 011c 02F0DF03 		and	r3, r2, #223
 340 0120 4C2B     		cmp	r3, #76
 341 0122 B0D1     		bne	.L27
 342              	.LVL48:
ARM GAS  /tmp/ccK5cYGb.s 			page 7


 343              	.L89:
 344              		.loc 1 172 0
 345 0124 2378     		ldrb	r3, [r4]	@ zero_extendqisi2
 346 0126 002B     		cmp	r3, #0
 347 0128 ADD0     		beq	.L27
 348              		.loc 1 173 0
 349 012a 0134     		adds	r4, r4, #1
 350              	.LVL49:
 351 012c 1A46     		mov	r2, r3
 352 012e AAE7     		b	.L27
 353              	.LVL50:
 354              	.L62:
 355              		.loc 1 179 0
 356 0130 0A22     		movs	r2, #10
 357              	.LVL51:
 358              	.L32:
 359              	.LBB12:
 360              	.LBB13:
 361              		.loc 1 72 0
 362 0132 0DF11009 		add	r9, sp, #16
 363              	.LVL52:
 364              	.LBE13:
 365              	.LBE12:
 366              		.loc 1 230 0
 367 0136 3968     		ldr	r1, [r7]
 368              	.LVL53:
 369              	.LBB15:
 370              	.LBB14:
 371              		.loc 1 72 0
 372 0138 4846     		mov	r0, r9
 373 013a 0023     		movs	r3, #0
 374 013c FFF7FEFF 		bl	long_to_string_with_divisor
 375              	.LVL54:
 376 0140 C9EB0000 		rsb	r0, r9, r0
 377              	.LBE14:
 378              	.LBE15:
 379              		.loc 1 230 0
 380 0144 0437     		adds	r7, r7, #4
 381              	.LVL55:
 382 0146 00F1FF3B 		add	fp, r0, #-1
 383              	.LVL56:
 384              	.L37:
 385              		.loc 1 240 0
 386 014a 2D1A     		subs	r5, r5, r0
 387              	.LVL57:
 388 014c 25EAE575 		bic	r5, r5, r5, asr #31
 389              	.LVL58:
 390              		.loc 1 242 0
 391 0150 BAF1000F 		cmp	r10, #0
 392 0154 0DD1     		bne	.L50
 393              		.loc 1 243 0
 394 0156 6D42     		negs	r5, r5
 395              	.LVL59:
 396              		.loc 1 244 0
 397 0158 5DB1     		cbz	r5, .L50
 398              		.loc 1 245 0
 399 015a 99F80010 		ldrb	r1, [r9]	@ zero_extendqisi2
ARM GAS  /tmp/ccK5cYGb.s 			page 8


 400 015e 2D29     		cmp	r1, #45
 401 0160 00F0BC80 		beq	.L91
 402              	.LVL60:
 403              	.L52:
 404              		.loc 1 250 0 discriminator 1
 405 0164 3368     		ldr	r3, [r6]
 406 0166 3046     		mov	r0, r6
 407 0168 9B68     		ldr	r3, [r3, #8]
 408 016a 4146     		mov	r1, r8
 409 016c 9847     		blx	r3
 410              	.LVL61:
 411              		.loc 1 251 0 discriminator 1
 412 016e 0135     		adds	r5, r5, #1
 413              	.LVL62:
 414 0170 F8D1     		bne	.L52
 415              	.L50:
 416              		.loc 1 253 0 discriminator 1
 417 0172 BBF1000F 		cmp	fp, #0
 418 0176 0ADB     		blt	.L55
 419 0178 CB44     		add	fp, fp, r9
 420 017a 09F1FF39 		add	r9, r9, #-1
 421              	.LVL63:
 422              	.L56:
 423              		.loc 1 254 0
 424 017e 3368     		ldr	r3, [r6]
 425 0180 19F8011F 		ldrb	r1, [r9, #1]!	@ zero_extendqisi2
 426              	.LVL64:
 427 0184 9B68     		ldr	r3, [r3, #8]
 428 0186 3046     		mov	r0, r6
 429 0188 9847     		blx	r3
 430              	.LVL65:
 431              		.loc 1 253 0
 432 018a D945     		cmp	r9, fp
 433 018c F7D1     		bne	.L56
 434              	.LVL66:
 435              	.L55:
 436              		.loc 1 256 0
 437 018e 002D     		cmp	r5, #0
 438 0190 3FF43CAF 		beq	.L13
 439              	.L57:
 440              		.loc 1 257 0
 441 0194 3368     		ldr	r3, [r6]
 442 0196 3046     		mov	r0, r6
 443 0198 9B68     		ldr	r3, [r3, #8]
 444 019a 4146     		mov	r1, r8
 445 019c 9847     		blx	r3
 446              	.LVL67:
 447              		.loc 1 256 0
 448 019e 013D     		subs	r5, r5, #1
 449              	.LVL68:
 450 01a0 F8D1     		bne	.L57
 451 01a2 33E7     		b	.L13
 452              	.LVL69:
 453              	.L33:
 454              		.loc 1 179 0
 455 01a4 1022     		movs	r2, #16
 456              	.LVL70:
ARM GAS  /tmp/ccK5cYGb.s 			page 9


 457 01a6 C4E7     		b	.L32
 458              	.LVL71:
 459              	.L36:
 460              		.loc 1 186 0
 461 01a8 D7F80090 		ldr	r9, [r7]
 462              		.loc 1 187 0
 463 01ac 664B     		ldr	r3, .L95+8
 464 01ae B9F1000F 		cmp	r9, #0
 465 01b2 08BF     		it	eq
 466 01b4 9946     		moveq	r9, r3
 467              		.loc 1 189 0
 468 01b6 47F6FF73 		movw	r3, #32767
 469              		.loc 1 190 0
 470 01ba 99F80000 		ldrb	r0, [r9]	@ zero_extendqisi2
 471              		.loc 1 186 0
 472 01be 0437     		adds	r7, r7, #4
 473              	.LVL72:
 474              		.loc 1 189 0
 475 01c0 0029     		cmp	r1, #0
 476 01c2 08BF     		it	eq
 477 01c4 1946     		moveq	r1, r3
 478              	.LVL73:
 479              		.loc 1 190 0
 480 01c6 0028     		cmp	r0, #0
 481 01c8 00F0B280 		beq	.L65
 482 01cc 4944     		add	r1, r1, r9
 483 01ce 4B46     		mov	r3, r9
 484 01d0 02E0     		b	.L42
 485              	.LVL74:
 486              	.L40:
 487              		.loc 1 190 0 is_stmt 0 discriminator 2
 488 01d2 8B42     		cmp	r3, r1
 489 01d4 00F08F80 		beq	.L92
 490              	.LVL75:
 491              	.L42:
 492              		.loc 1 190 0 discriminator 1
 493 01d8 5A78     		ldrb	r2, [r3, #1]	@ zero_extendqisi2
 494 01da 0133     		adds	r3, r3, #1
 495              	.LVL76:
 496 01dc 002A     		cmp	r2, #0
 497 01de F8D1     		bne	.L40
 498 01e0 C9EB0300 		rsb	r0, r9, r3
 499 01e4 00F1FF3B 		add	fp, r0, #-1
 500              		.loc 1 185 0 is_stmt 1
 501 01e8 4FF02008 		mov	r8, #32
 502 01ec ADE7     		b	.L37
 503              	.LVL77:
 504              	.L35:
 505              		.loc 1 209 0
 506 01ee 0737     		adds	r7, r7, #7
 507              	.LVL78:
 508 01f0 27F00707 		bic	r7, r7, #7
 509              	.LVL79:
 510 01f4 D7E90001 		ldrd	r0, [r7]
 511 01f8 FFF7FEFF 		bl	__aeabi_d2f
 512              	.LVL80:
 513              		.loc 1 210 0
ARM GAS  /tmp/ccK5cYGb.s 			page 10


 514 01fc 0021     		movs	r1, #0
 515              		.loc 1 209 0
 516 01fe 0837     		adds	r7, r7, #8
 517              	.LVL81:
 518 0200 0290     		str	r0, [sp, #8]	@ float
 519              	.LVL82:
 520              		.loc 1 210 0
 521 0202 FFF7FEFF 		bl	__aeabi_fcmplt
 522              	.LVL83:
 523 0206 0028     		cmp	r0, #0
 524 0208 40F08580 		bne	.L93
 525              		.loc 1 132 0
 526 020c 0DF11009 		add	r9, sp, #16
 527              	.LVL84:
 528 0210 CB46     		mov	fp, r9
 529              	.LVL85:
 530              	.L46:
 531              	.LBB16:
 532              	.LBB17:
 533              		.loc 1 80 0
 534 0212 0298     		ldr	r0, [sp, #8]	@ float
 535 0214 FFF7FEFF 		bl	__aeabi_f2iz
 536              	.LVL86:
 537 0218 8446     		mov	ip, r0
 538              	.LVL87:
 539              		.loc 1 81 0
 540 021a 0A22     		movs	r2, #10
 541 021c 6146     		mov	r1, ip
 542 021e 5846     		mov	r0, fp
 543              	.LVL88:
 544 0220 0023     		movs	r3, #0
 545 0222 CDF804C0 		str	ip, [sp, #4]
 546 0226 FFF7FEFF 		bl	long_to_string_with_divisor
 547              	.LVL89:
 548              		.loc 1 82 0
 549 022a 8346     		mov	fp, r0
 550              	.LVL90:
 551 022c 2E23     		movs	r3, #46
 552 022e 0BF8013B 		strb	r3, [fp], #1
 553              	.LVL91:
 554              	.LBE17:
 555              	.LBE16:
 556              		.loc 1 214 0
 557 0232 0298     		ldr	r0, [sp, #8]	@ float
 558 0234 FFF7FEFF 		bl	__aeabi_f2d
 559              	.LVL92:
 560              	.LBB20:
 561              	.LBB18:
 562              		.loc 1 83 0
 563 0238 DDF804C0 		ldr	ip, [sp, #4]
 564              	.LBE18:
 565              	.LBE20:
 566              		.loc 1 214 0
 567 023c CDE90201 		strd	r0, [sp, #8]
 568              	.LVL93:
 569              	.LBB21:
 570              	.LBB19:
ARM GAS  /tmp/ccK5cYGb.s 			page 11


 571              		.loc 1 83 0
 572 0240 6046     		mov	r0, ip
 573 0242 FFF7FEFF 		bl	__aeabi_i2d
 574              	.LVL94:
 575 0246 0246     		mov	r2, r0
 576 0248 0B46     		mov	r3, r1
 577 024a DDE90201 		ldrd	r0, [sp, #8]
 578 024e FFF7FEFF 		bl	__aeabi_dsub
 579              	.LVL95:
 580 0252 3BA3     		adr	r3, .L95
 581 0254 D3E90023 		ldrd	r2, [r3]
 582 0258 FFF7FEFF 		bl	__aeabi_dmul
 583              	.LVL96:
 584 025c FFF7FEFF 		bl	__aeabi_d2iz
 585              	.LVL97:
 586              		.loc 1 84 0
 587 0260 0A22     		movs	r2, #10
 588              		.loc 1 83 0
 589 0262 0146     		mov	r1, r0
 590              		.loc 1 84 0
 591 0264 42F21073 		movw	r3, #10000
 592 0268 5846     		mov	r0, fp
 593 026a FFF7FEFF 		bl	long_to_string_with_divisor
 594              	.LVL98:
 595 026e C9EB0000 		rsb	r0, r9, r0
 596 0272 00F1FF3B 		add	fp, r0, #-1
 597              	.LVL99:
 598              	.LBE19:
 599              	.LBE21:
 600              		.loc 1 215 0
 601 0276 68E7     		b	.L37
 602              	.LVL100:
 603              	.L34:
 604              		.loc 1 182 0
 605 0278 0DF12809 		add	r9, sp, #40
 606 027c 3B68     		ldr	r3, [r7]
 607 027e 09F8183D 		strb	r3, [r9, #-24]!
 608 0282 0DF11100 		add	r0, sp, #17
 609              	.LVL101:
 610 0286 C9EB0000 		rsb	r0, r9, r0
 611              	.LVL102:
 612 028a 0437     		adds	r7, r7, #4
 613              	.LVL103:
 614 028c 00F1FF3B 		add	fp, r0, #-1
 615              		.loc 1 181 0
 616 0290 4FF02008 		mov	r8, #32
 617              		.loc 1 183 0
 618 0294 59E7     		b	.L37
 619              	.LVL104:
 620              	.L31:
 621 0296 0822     		movs	r2, #8
 622 0298 4BE7     		b	.L32
 623              	.LVL105:
 624              	.L29:
 625              		.loc 1 198 0
 626 029a 3968     		ldr	r1, [r7]
 627              	.LVL106:
ARM GAS  /tmp/ccK5cYGb.s 			page 12


 628              		.loc 1 201 0
 629 029c 0029     		cmp	r1, #0
 630              		.loc 1 198 0
 631 029e 07F10407 		add	r7, r7, #4
 632              	.LVL107:
 633              		.loc 1 201 0
 634 02a2 2FDB     		blt	.L94
 635              		.loc 1 132 0
 636 02a4 0DF11009 		add	r9, sp, #16
 637              	.LVL108:
 638 02a8 4846     		mov	r0, r9
 639              	.LVL109:
 640              	.L45:
 641              	.LBB22:
 642              	.LBB23:
 643              		.loc 1 72 0
 644 02aa 0A22     		movs	r2, #10
 645              	.LVL110:
 646 02ac 0023     		movs	r3, #0
 647 02ae FFF7FEFF 		bl	long_to_string_with_divisor
 648              	.LVL111:
 649 02b2 C9EB0000 		rsb	r0, r9, r0
 650 02b6 00F1FF3B 		add	fp, r0, #-1
 651              	.LBE23:
 652              	.LBE22:
 653              		.loc 1 206 0
 654 02ba 46E7     		b	.L37
 655              	.LVL112:
 656              	.L28:
 657              		.loc 1 236 0
 658 02bc 0DF12809 		add	r9, sp, #40
 659 02c0 0DF11100 		add	r0, sp, #17
 660              	.LVL113:
 661 02c4 09F8182D 		strb	r2, [r9, #-24]!
 662 02c8 C9EB0000 		rsb	r0, r9, r0
 663              	.LVL114:
 664 02cc 00F1FF3B 		add	fp, r0, #-1
 665              		.loc 1 237 0
 666 02d0 3BE7     		b	.L37
 667              	.LVL115:
 668              	.L18:
 669 02d2 5A78     		ldrb	r2, [r3, #1]	@ zero_extendqisi2
 670              		.loc 1 142 0
 671 02d4 4FF03008 		mov	r8, #48
 672              		.loc 1 141 0
 673 02d8 0133     		adds	r3, r3, #1
 674              	.LVL116:
 675 02da B9E6     		b	.L19
 676              	.LVL117:
 677              	.L91:
 678              		.loc 1 245 0 discriminator 1
 679 02dc B8F1300F 		cmp	r8, #48
 680 02e0 7FF440AF 		bne	.L52
 681              	.LVL118:
 682              		.loc 1 246 0
 683 02e4 3368     		ldr	r3, [r6]
 684 02e6 3046     		mov	r0, r6
ARM GAS  /tmp/ccK5cYGb.s 			page 13


 685              	.LVL119:
 686 02e8 9B68     		ldr	r3, [r3, #8]
 687 02ea 9847     		blx	r3
 688              	.LVL120:
 689 02ec 09F10109 		add	r9, r9, #1
 690              	.LVL121:
 691 02f0 0BF1FF3B 		add	fp, fp, #-1
 692              	.LVL122:
 693 02f4 36E7     		b	.L52
 694              	.LVL123:
 695              	.L92:
 696 02f6 C9EB0100 		rsb	r0, r9, r1
 697 02fa 00F1FF3B 		add	fp, r0, #-1
 698              		.loc 1 185 0
 699 02fe 4FF02008 		mov	r8, #32
 700 0302 22E7     		b	.L37
 701              	.LVL124:
 702              	.L94:
 703              		.loc 1 202 0
 704 0304 2D23     		movs	r3, #45
 705              		.loc 1 203 0
 706 0306 4942     		negs	r1, r1
 707              	.LVL125:
 708              		.loc 1 202 0
 709 0308 8DF81030 		strb	r3, [sp, #16]
 710 030c 0DF11100 		add	r0, sp, #17
 711              	.LVL126:
 712 0310 0DF11009 		add	r9, sp, #16
 713              	.LVL127:
 714 0314 C9E7     		b	.L45
 715              	.LVL128:
 716              	.L93:
 717              		.loc 1 212 0
 718 0316 DDF808C0 		ldr	ip, [sp, #8]
 719              		.loc 1 211 0
 720 031a 2D23     		movs	r3, #45
 721              		.loc 1 212 0
 722 031c 0CF10042 		add	r2, ip, #-2147483648
 723 0320 0292     		str	r2, [sp, #8]	@ float
 724              	.LVL129:
 725              		.loc 1 211 0
 726 0322 8DF81030 		strb	r3, [sp, #16]
 727 0326 0DF1110B 		add	fp, sp, #17
 728              	.LVL130:
 729 032a 0DF11009 		add	r9, sp, #16
 730              	.LVL131:
 731 032e 70E7     		b	.L46
 732              	.LVL132:
 733              	.L65:
 734              		.loc 1 190 0
 735 0330 4FF0FF3B 		mov	fp, #-1
 736              		.loc 1 185 0
 737 0334 4FF02008 		mov	r8, #32
 738 0338 07E7     		b	.L37
 739              	.L96:
 740 033a 00BFAFF3 		.align	3
 740      0080
ARM GAS  /tmp/ccK5cYGb.s 			page 14


 741              	.L95:
 742 0340 00000000 		.word	0
 743 0344 006AF840 		.word	1090021888
 744 0348 00000000 		.word	.LC0
 745              		.cfi_endproc
 746              	.LFE11:
 747              		.size	chvprintf, .-chvprintf
 748 034c AFF30080 		.section	.text.chsnprintf,"ax",%progbits
 749              		.align	2
 750              		.p2align 4,,15
 751              		.global	chsnprintf
 752              		.thumb
 753              		.thumb_func
 754              		.type	chsnprintf, %function
 755              	chsnprintf:
 756              	.LFB12:
 757              		.loc 1 288 0
 758              		.cfi_startproc
 759              		@ args = 4, pretend = 8, frame = 24
 760              		@ frame_needed = 0, uses_anonymous_args = 1
 761              	.LVL133:
 762 0000 0CB4     		push	{r2, r3}
 763              		.cfi_def_cfa_offset 8
 764              		.cfi_offset 2, -8
 765              		.cfi_offset 3, -4
 766 0002 70B5     		push	{r4, r5, r6, lr}
 767              		.cfi_def_cfa_offset 24
 768              		.cfi_offset 4, -24
 769              		.cfi_offset 5, -20
 770              		.cfi_offset 6, -16
 771              		.cfi_offset 14, -12
 772 0004 86B0     		sub	sp, sp, #24
 773              		.cfi_def_cfa_offset 48
 774              		.loc 1 288 0
 775 0006 0AAC     		add	r4, sp, #40
 776 0008 0546     		mov	r5, r0
 777 000a 54F8046B 		ldr	r6, [r4], #4
 778              		.loc 1 295 0
 779 000e 4A1E     		subs	r2, r1, #1
 780 0010 0023     		movs	r3, #0
 781 0012 0146     		mov	r1, r0
 782              	.LVL134:
 783 0014 01A8     		add	r0, sp, #4
 784              	.LVL135:
 785 0016 FFF7FEFF 		bl	msObjectInit
 786              	.LVL136:
 787              		.loc 1 300 0
 788 001a 01A8     		add	r0, sp, #4
 789              	.LVL137:
 790 001c 3146     		mov	r1, r6
 791 001e 2246     		mov	r2, r4
 792              		.loc 1 299 0
 793 0020 0094     		str	r4, [sp]
 794              		.loc 1 300 0
 795 0022 FFF7FEFF 		bl	chvprintf
 796              	.LVL138:
 797              		.loc 1 304 0
ARM GAS  /tmp/ccK5cYGb.s 			page 15


 798 0026 0498     		ldr	r0, [sp, #16]
 799 0028 0023     		movs	r3, #0
 800 002a 2B54     		strb	r3, [r5, r0]
 801              		.loc 1 306 0
 802 002c 06B0     		add	sp, sp, #24
 803              		@ sp needed
 804 002e BDE87040 		pop	{r4, r5, r6, lr}
 805              	.LVL139:
 806 0032 02B0     		add	sp, sp, #8
 807 0034 7047     		bx	lr
 808              		.cfi_endproc
 809              	.LFE12:
 810              		.size	chsnprintf, .-chsnprintf
 811 0036 00BFAFF3 		.section	.rodata.str1.4,"aMS",%progbits,1
 811      0080AFF3 
 811      0080
 812              		.align	2
 813              	.LC0:
 814 0000 286E756C 		.ascii	"(null)\000"
 814      6C2900
 815 0007 00       		.text
 816              	.Letext0:
 817              		.file 2 "/usr/lib/gcc/arm-none-eabi/4.8.4/include/stddef.h"
 818              		.file 3 "/usr/arm-none-eabi/include/machine/_default_types.h"
 819              		.file 4 "/usr/arm-none-eabi/include/stdint.h"
 820              		.file 5 "../ChibiOS_2.6.7_minified/os/ports/GCC/ARMCMx/chtypes.h"
 821              		.file 6 "../ChibiOS_2.6.7_minified/os/kernel/include/chstreams.h"
 822              		.file 7 "/usr/lib/gcc/arm-none-eabi/4.8.4/include/stdarg.h"
 823              		.file 8 "<built-in>"
 824              		.file 9 "../ChibiOS_2.6.7_minified/os/various/memstreams.h"
