ARM GAS  /tmp/cch9rAWj.s 			page 1


   1              		.syntax unified
   2              		.cpu cortex-m4
   3              		.fpu softvfp
   4              		.eabi_attribute 20, 1
   5              		.eabi_attribute 21, 1
   6              		.eabi_attribute 23, 3
   7              		.eabi_attribute 24, 1
   8              		.eabi_attribute 25, 1
   9              		.eabi_attribute 26, 1
  10              		.eabi_attribute 30, 2
  11              		.eabi_attribute 34, 1
  12              		.eabi_attribute 18, 4
  13              		.thumb
  14              		.file	"chsys.c"
  15              		.text
  16              	.Ltext0:
  17              		.cfi_sections	.debug_frame
  18              		.section	.text._idle_thread,"ax",%progbits
  19              		.align	2
  20              		.p2align 4,,15
  21              		.global	_idle_thread
  22              		.thumb
  23              		.thumb_func
  24              		.type	_idle_thread, %function
  25              	_idle_thread:
  26              	.LFB7:
  27              		.file 1 "../ChibiOS_2.6.7_minified/os/kernel/src/chsys.c"
  28              		.loc 1 61 0
  29              		.cfi_startproc
  30              		@ Volatile: function does not return.
  31              		@ args = 0, pretend = 0, frame = 0
  32              		@ frame_needed = 0, uses_anonymous_args = 0
  33              		@ link register save eliminated.
  34              	.LVL0:
  35              		.loc 1 64 0
  36 0000 024B     		ldr	r3, .L4
  37 0002 034A     		ldr	r2, .L4+4
  38 0004 9B69     		ldr	r3, [r3, #24]
  39 0006 9A61     		str	r2, [r3, #24]
  40              	.L2:
  41 0008 FEE7     		b	.L2
  42              	.L5:
  43 000a 00BF     		.align	2
  44              	.L4:
  45 000c 00000000 		.word	rlist
  46 0010 00000000 		.word	.LC0
  47              		.cfi_endproc
  48              	.LFE7:
  49              		.size	_idle_thread, .-_idle_thread
  50 0014 AFF30080 		.section	.text.chSysInit,"ax",%progbits
  50      AFF30080 
  50      AFF30080 
  51              		.align	2
  52              		.p2align 4,,15
  53              		.global	chSysInit
  54              		.thumb
  55              		.thumb_func
ARM GAS  /tmp/cch9rAWj.s 			page 2


  56              		.type	chSysInit, %function
  57              	chSysInit:
  58              	.LFB8:
  59              		.loc 1 84 0
  60              		.cfi_startproc
  61              		@ args = 0, pretend = 0, frame = 0
  62              		@ frame_needed = 0, uses_anonymous_args = 0
  63 0000 00B5     		push	{lr}
  64              		.cfi_def_cfa_offset 4
  65              		.cfi_offset 14, -4
  66 0002 83B0     		sub	sp, sp, #12
  67              		.cfi_def_cfa_offset 16
  68              		.loc 1 90 0
  69 0004 FFF7FEFF 		bl	_port_init
  70              	.LVL1:
  71              		.loc 1 91 0
  72 0008 FFF7FEFF 		bl	_scheduler_init
  73              	.LVL2:
  74              		.loc 1 92 0
  75 000c FFF7FEFF 		bl	_vt_init
  76              	.LVL3:
  77              		.loc 1 94 0
  78 0010 FFF7FEFF 		bl	_core_init
  79              	.LVL4:
  80              		.loc 1 97 0
  81 0014 FFF7FEFF 		bl	_heap_init
  82              	.LVL5:
  83              		.loc 1 104 0
  84 0018 4021     		movs	r1, #64
  85 001a 0B48     		ldr	r0, .L7
  86 001c FFF7FEFF 		bl	_thread_init
  87              	.LVL6:
  88 0020 0A49     		ldr	r1, .L7+4
  89              		.loc 1 105 0
  90 0022 0122     		movs	r2, #1
  91              		.loc 1 104 0
  92 0024 8861     		str	r0, [r1, #24]
  93              		.loc 1 105 0
  94 0026 0277     		strb	r2, [r0, #28]
  95              	.LBB2:
  96              		.loc 1 111 0
  97 0028 0023     		movs	r3, #0
  98              	@ 111 "../ChibiOS_2.6.7_minified/os/kernel/src/chsys.c" 1
  99 002a 83F31188 		msr     BASEPRI, r3                    
 100 002e 62B6     		cpsie   i
 101              	@ 0 "" 2
 102              		.thumb
 103              	.LBE2:
 104              		.loc 1 115 0
 105 0030 8969     		ldr	r1, [r1, #24]
 106 0032 0748     		ldr	r0, .L7+8
 107 0034 8861     		str	r0, [r1, #24]
 108              		.loc 1 121 0
 109 0036 0093     		str	r3, [sp]
 110 0038 E021     		movs	r1, #224
 111 003a 064B     		ldr	r3, .L7+12
 112 003c 0648     		ldr	r0, .L7+16
ARM GAS  /tmp/cch9rAWj.s 			page 3


 113 003e FFF7FEFF 		bl	chThdCreateStatic
 114              	.LVL7:
 115              		.loc 1 124 0
 116 0042 03B0     		add	sp, sp, #12
 117              		@ sp needed
 118 0044 5DF804FB 		ldr	pc, [sp], #4
 119              	.L8:
 120              		.align	2
 121              	.L7:
 122 0048 00000000 		.word	.LANCHOR0
 123 004c 00000000 		.word	rlist
 124 0050 00000000 		.word	ch_debug
 125 0054 00000000 		.word	_idle_thread
 126 0058 00000000 		.word	.LANCHOR1
 127              		.cfi_endproc
 128              	.LFE8:
 129              		.size	chSysInit, .-chSysInit
 130 005c AFF30080 		.section	.text.chSysTimerHandlerI,"ax",%progbits
 131              		.align	2
 132              		.p2align 4,,15
 133              		.global	chSysTimerHandlerI
 134              		.thumb
 135              		.thumb_func
 136              		.type	chSysTimerHandlerI, %function
 137              	chSysTimerHandlerI:
 138              	.LFB9:
 139              		.loc 1 137 0
 140              		.cfi_startproc
 141              		@ args = 0, pretend = 0, frame = 0
 142              		@ frame_needed = 0, uses_anonymous_args = 0
 143 0000 70B5     		push	{r4, r5, r6, lr}
 144              		.cfi_def_cfa_offset 16
 145              		.cfi_offset 4, -16
 146              		.cfi_offset 5, -12
 147              		.cfi_offset 6, -8
 148              		.cfi_offset 14, -4
 149              		.loc 1 143 0
 150 0002 134B     		ldr	r3, .L17
 151 0004 9B69     		ldr	r3, [r3, #24]
 152 0006 DA7F     		ldrb	r2, [r3, #31]	@ zero_extendqisi2
 153 0008 0AB1     		cbz	r2, .L10
 154              		.loc 1 145 0
 155 000a 013A     		subs	r2, r2, #1
 156 000c DA77     		strb	r2, [r3, #31]
 157              	.L10:
 158              		.loc 1 148 0
 159 000e 1A6A     		ldr	r2, [r3, #32]
 160              		.loc 1 150 0
 161 0010 104C     		ldr	r4, .L17+4
 162              		.loc 1 148 0
 163 0012 0132     		adds	r2, r2, #1
 164 0014 1A62     		str	r2, [r3, #32]
 165              		.loc 1 150 0
 166 0016 E368     		ldr	r3, [r4, #12]
 167 0018 2268     		ldr	r2, [r4]
 168 001a 0133     		adds	r3, r3, #1
 169 001c A242     		cmp	r2, r4
ARM GAS  /tmp/cch9rAWj.s 			page 4


 170 001e E360     		str	r3, [r4, #12]
 171 0020 14D0     		beq	.L9
 172              	.LBB3:
 173              		.loc 1 150 0 is_stmt 0 discriminator 1
 174 0022 9668     		ldr	r6, [r2, #8]
 175 0024 013E     		subs	r6, r6, #1
 176 0026 9660     		str	r6, [r2, #8]
 177              	.LVL8:
 178 0028 86B9     		cbnz	r6, .L9
 179              	.L13:
 180              	.LBB4:
 181              		.loc 1 150 0 discriminator 2
 182 002a 1168     		ldr	r1, [r2]
 183 002c D568     		ldr	r5, [r2, #12]
 184              	.LVL9:
 185 002e 2160     		str	r1, [r4]
 186 0030 D660     		str	r6, [r2, #12]
 187              	.LBB5:
 188 0032 0023     		movs	r3, #0
 189              	.LBE5:
 190 0034 4C60     		str	r4, [r1, #4]
 191              	.LBB6:
 192              	@ 150 "../ChibiOS_2.6.7_minified/os/kernel/src/chsys.c" 1
 193 0036 83F31188 		msr     BASEPRI, r3
 194              	@ 0 "" 2
 195              		.thumb
 196              	.LBE6:
 197 003a 1069     		ldr	r0, [r2, #16]
 198 003c A847     		blx	r5
 199              	.LVL10:
 200              	.LBB7:
 201 003e 2023     		movs	r3, #32
 202              	@ 150 "../ChibiOS_2.6.7_minified/os/kernel/src/chsys.c" 1
 203 0040 83F31188 		msr     BASEPRI, r3
 204              	@ 0 "" 2
 205              		.thumb
 206              	.LBE7:
 207              	.LBE4:
 208 0044 2268     		ldr	r2, [r4]
 209              	.LVL11:
 210 0046 9368     		ldr	r3, [r2, #8]
 211 0048 002B     		cmp	r3, #0
 212 004a EED0     		beq	.L13
 213              	.LVL12:
 214              	.L9:
 215 004c 70BD     		pop	{r4, r5, r6, pc}
 216              	.L18:
 217 004e 00BF     		.align	2
 218              	.L17:
 219 0050 00000000 		.word	rlist
 220 0054 00000000 		.word	vtlist
 221              	.LBE3:
 222              		.cfi_endproc
 223              	.LFE9:
 224              		.size	chSysTimerHandlerI, .-chSysTimerHandlerI
 225              		.global	_idle_thread_wa
 226 0058 AFF30080 		.section	.rodata.str1.4,"aMS",%progbits,1
ARM GAS  /tmp/cch9rAWj.s 			page 5


 226      AFF30080 
 227              		.align	2
 228              	.LC0:
 229 0000 69646C65 		.ascii	"idle\000"
 229      00
 230 0005 000000   		.section	.bss.mainthread.4797,"aw",%nobits
 231              		.align	2
 232              		.set	.LANCHOR0,. + 0
 233              		.type	mainthread.4797, %object
 234              		.size	mainthread.4797, 72
 235              	mainthread.4797:
 236 0000 00000000 		.space	72
 236      00000000 
 236      00000000 
 236      00000000 
 236      00000000 
 237              		.section	.bss._idle_thread_wa,"aw",%nobits
 238              		.align	3
 239              		.set	.LANCHOR1,. + 0
 240              		.type	_idle_thread_wa, %object
 241              		.size	_idle_thread_wa, 224
 242              	_idle_thread_wa:
 243 0000 00000000 		.space	224
 243      00000000 
 243      00000000 
 243      00000000 
 243      00000000 
 244              		.text
 245              	.Letext0:
 246              		.file 2 "/usr/lib/gcc/arm-none-eabi/4.8.4/include/stddef.h"
 247              		.file 3 "/usr/arm-none-eabi/include/machine/_default_types.h"
 248              		.file 4 "/usr/arm-none-eabi/include/stdint.h"
 249              		.file 5 "../ChibiOS_2.6.7_minified/os/ports/GCC/ARMCMx/chtypes.h"
 250              		.file 6 "../ChibiOS_2.6.7_minified/os/kernel/include/chlists.h"
 251              		.file 7 "../ChibiOS_2.6.7_minified/os/kernel/include/chthreads.h"
 252              		.file 8 "../ChibiOS_2.6.7_minified/os/ports/GCC/ARMCMx/chcore_v7m.h"
 253              		.file 9 "../ChibiOS_2.6.7_minified/os/kernel/include/chvt.h"
 254              		.file 10 "../ChibiOS_2.6.7_minified/os/kernel/include/chschd.h"
 255              		.file 11 "../ChibiOS_2.6.7_minified/os/kernel/include/chmtx.h"
 256              		.file 12 "../ChibiOS_2.6.7_minified/os/kernel/include/chregistry.h"
 257              		.file 13 "../ChibiOS_2.6.7_minified/os/kernel/include/chmemcore.h"
 258              		.file 14 "../ChibiOS_2.6.7_minified/os/kernel/include/chheap.h"
