ARM GAS  /tmp/ccJP94EF.s 			page 1


   1              		.syntax unified
   2              		.cpu cortex-m4
   3              		.fpu softvfp
   4              		.eabi_attribute 20, 1
   5              		.eabi_attribute 21, 1
   6              		.eabi_attribute 23, 3
   7              		.eabi_attribute 24, 1
   8              		.eabi_attribute 25, 1
   9              		.eabi_attribute 26, 1
  10              		.eabi_attribute 30, 2
  11              		.eabi_attribute 34, 1
  12              		.eabi_attribute 18, 4
  13              		.thumb
  14              		.file	"chthreads.c"
  15              		.text
  16              	.Ltext0:
  17              		.cfi_sections	.debug_frame
  18              		.section	.text._thread_init,"ax",%progbits
  19              		.align	2
  20              		.p2align 4,,15
  21              		.global	_thread_init
  22              		.thumb
  23              		.thumb_func
  24              		.type	_thread_init, %function
  25              	_thread_init:
  26              	.LFB7:
  27              		.file 1 "../ChibiOS_2.6.7_minified/os/kernel/src/chthreads.c"
  28              		.loc 1 76 0
  29              		.cfi_startproc
  30              		@ args = 0, pretend = 0, frame = 0
  31              		@ frame_needed = 0, uses_anonymous_args = 0
  32              		@ link register save eliminated.
  33              	.LVL0:
  34 0000 2DE9F003 		push	{r4, r5, r6, r7, r8, r9}
  35              		.cfi_def_cfa_offset 24
  36              		.cfi_offset 4, -24
  37              		.cfi_offset 5, -20
  38              		.cfi_offset 6, -16
  39              		.cfi_offset 7, -12
  40              		.cfi_offset 8, -8
  41              		.cfi_offset 9, -4
  42              		.loc 1 99 0
  43 0004 114C     		ldr	r4, .L2
  44              		.loc 1 85 0
  45 0006 0164     		str	r1, [r0, #64]
  46              		.loc 1 99 0
  47 0008 6569     		ldr	r5, [r4, #20]
  48 000a 4561     		str	r5, [r0, #20]
  49              		.loc 1 80 0
  50 000c 0022     		movs	r2, #0
  51              		.loc 1 105 0
  52 000e 00F12C06 		add	r6, r0, #44
  53              		.loc 1 79 0
  54 0012 4FF00209 		mov	r9, #2
  55              		.loc 1 82 0
  56 0016 4FF00A08 		mov	r8, #10
  57              		.loc 1 102 0
ARM GAS  /tmp/ccJP94EF.s 			page 2


  58 001a 00F12807 		add	r7, r0, #40
  59              		.loc 1 95 0
  60 001e 4FF0010C 		mov	ip, #1
  61              		.loc 1 99 0
  62 0022 0461     		str	r4, [r0, #16]
  63              		.loc 1 78 0
  64 0024 8160     		str	r1, [r0, #8]
  65              		.loc 1 79 0
  66 0026 80F81C90 		strb	r9, [r0, #28]
  67              		.loc 1 99 0
  68 002a 6061     		str	r0, [r4, #20]
  69              		.loc 1 82 0
  70 002c 80F81F80 		strb	r8, [r0, #31]
  71              		.loc 1 95 0
  72 0030 80F81EC0 		strb	ip, [r0, #30]
  73              		.loc 1 80 0
  74 0034 4277     		strb	r2, [r0, #29]
  75              		.loc 1 86 0
  76 0036 C263     		str	r2, [r0, #60]
  77              		.loc 1 89 0
  78 0038 8263     		str	r2, [r0, #56]
  79              		.loc 1 92 0
  80 003a 0262     		str	r2, [r0, #32]
  81              		.loc 1 98 0
  82 003c 8261     		str	r2, [r0, #24]
  83              		.loc 1 99 0
  84 003e 2861     		str	r0, [r5, #16]
  85              		.loc 1 102 0
  86 0040 8762     		str	r7, [r0, #40]
  87              		.loc 1 105 0
  88 0042 0663     		str	r6, [r0, #48]
  89 0044 C662     		str	r6, [r0, #44]
  90              		.loc 1 114 0
  91 0046 BDE8F003 		pop	{r4, r5, r6, r7, r8, r9}
  92 004a 7047     		bx	lr
  93              	.L3:
  94              		.align	2
  95              	.L2:
  96 004c 00000000 		.word	rlist
  97              		.cfi_endproc
  98              	.LFE7:
  99              		.size	_thread_init, .-_thread_init
 100              		.section	.text.chThdCreateI,"ax",%progbits
 101              		.align	2
 102              		.p2align 4,,15
 103              		.global	chThdCreateI
 104              		.thumb
 105              		.thumb_func
 106              		.type	chThdCreateI, %function
 107              	chThdCreateI:
 108              	.LFB8:
 109              		.loc 1 158 0
 110              		.cfi_startproc
 111              		@ args = 4, pretend = 0, frame = 0
 112              		@ frame_needed = 0, uses_anonymous_args = 0
 113              		@ link register save eliminated.
 114              	.LVL1:
ARM GAS  /tmp/ccJP94EF.s 			page 3


 115 0000 2DE9F00F 		push	{r4, r5, r6, r7, r8, r9, r10, fp}
 116              		.cfi_def_cfa_offset 32
 117              		.cfi_offset 4, -32
 118              		.cfi_offset 5, -28
 119              		.cfi_offset 6, -24
 120              		.cfi_offset 7, -20
 121              		.cfi_offset 8, -16
 122              		.cfi_offset 9, -12
 123              		.cfi_offset 10, -8
 124              		.cfi_offset 11, -4
 125              	.LBB16:
 126              	.LBB17:
 127              		.loc 1 99 0
 128 0004 184D     		ldr	r5, .L5
 129              	.LBE17:
 130              	.LBE16:
 131              		.loc 1 158 0
 132 0006 089F     		ldr	r7, [sp, #32]
 133              	.LBB23:
 134              	.LBB18:
 135              		.loc 1 99 0
 136 0008 D5F814C0 		ldr	ip, [r5, #20]
 137              	.LBE18:
 138              	.LBE23:
 139              		.loc 1 167 0
 140 000c DFF85C80 		ldr	r8, .L5+4
 141 0010 2439     		subs	r1, r1, #36
 142              	.LVL2:
 143 0012 4618     		adds	r6, r0, r1
 144 0014 C660     		str	r6, [r0, #12]
 145              	.LBB24:
 146              	.LBB19:
 147              		.loc 1 79 0
 148 0016 4FF0020B 		mov	fp, #2
 149              	.LBE19:
 150              	.LBE24:
 151              		.loc 1 167 0
 152 001a 4350     		str	r3, [r0, r1]
 153              	.LBB25:
 154              	.LBB20:
 155              		.loc 1 82 0
 156 001c 4FF00A0A 		mov	r10, #10
 157              	.LBE20:
 158              	.LBE25:
 159              		.loc 1 167 0
 160 0020 7760     		str	r7, [r6, #4]
 161              	.LBB26:
 162              	.LBB21:
 163              		.loc 1 80 0
 164 0022 0023     		movs	r3, #0
 165              	.LVL3:
 166              		.loc 1 105 0
 167 0024 00F12C07 		add	r7, r0, #44
 168              		.loc 1 95 0
 169 0028 4FF00109 		mov	r9, #1
 170              		.loc 1 102 0
 171 002c 00F12801 		add	r1, r0, #40
ARM GAS  /tmp/ccJP94EF.s 			page 4


 172              	.LVL4:
 173              	.LBE21:
 174              	.LBE26:
 175              		.loc 1 167 0
 176 0030 C6F82080 		str	r8, [r6, #32]
 177              	.LVL5:
 178              	.LBB27:
 179              	.LBB22:
 180              		.loc 1 99 0
 181 0034 0561     		str	r5, [r0, #16]
 182              		.loc 1 78 0
 183 0036 8260     		str	r2, [r0, #8]
 184              		.loc 1 79 0
 185 0038 80F81CB0 		strb	fp, [r0, #28]
 186              	.LVL6:
 187              		.loc 1 82 0
 188 003c 80F81FA0 		strb	r10, [r0, #31]
 189              		.loc 1 95 0
 190 0040 80F81E90 		strb	r9, [r0, #30]
 191              		.loc 1 99 0
 192 0044 C0F814C0 		str	ip, [r0, #20]
 193              		.loc 1 85 0
 194 0048 0264     		str	r2, [r0, #64]
 195              		.loc 1 99 0
 196 004a 6861     		str	r0, [r5, #20]
 197              		.loc 1 80 0
 198 004c 4377     		strb	r3, [r0, #29]
 199              		.loc 1 86 0
 200 004e C363     		str	r3, [r0, #60]
 201              		.loc 1 89 0
 202 0050 8363     		str	r3, [r0, #56]
 203              		.loc 1 92 0
 204 0052 0362     		str	r3, [r0, #32]
 205              		.loc 1 98 0
 206 0054 8361     		str	r3, [r0, #24]
 207              		.loc 1 99 0
 208 0056 CCF81000 		str	r0, [ip, #16]
 209              		.loc 1 105 0
 210 005a 0763     		str	r7, [r0, #48]
 211 005c C762     		str	r7, [r0, #44]
 212              		.loc 1 102 0
 213 005e 8162     		str	r1, [r0, #40]
 214              	.LBE22:
 215              	.LBE27:
 216              		.loc 1 169 0
 217 0060 BDE8F00F 		pop	{r4, r5, r6, r7, r8, r9, r10, fp}
 218              	.LVL7:
 219 0064 7047     		bx	lr
 220              	.L6:
 221 0066 00BF     		.align	2
 222              	.L5:
 223 0068 00000000 		.word	rlist
 224 006c 00000000 		.word	_port_thread_start
 225              		.cfi_endproc
 226              	.LFE8:
 227              		.size	chThdCreateI, .-chThdCreateI
 228              		.section	.text.chThdCreateStatic,"ax",%progbits
ARM GAS  /tmp/ccJP94EF.s 			page 5


 229              		.align	2
 230              		.p2align 4,,15
 231              		.global	chThdCreateStatic
 232              		.thumb
 233              		.thumb_func
 234              		.type	chThdCreateStatic, %function
 235              	chThdCreateStatic:
 236              	.LFB9:
 237              		.loc 1 188 0
 238              		.cfi_startproc
 239              		@ args = 4, pretend = 0, frame = 0
 240              		@ frame_needed = 0, uses_anonymous_args = 0
 241              	.LVL8:
 242 0000 2DE9F84F 		push	{r3, r4, r5, r6, r7, r8, r9, r10, fp, lr}
 243              		.cfi_def_cfa_offset 40
 244              		.cfi_offset 3, -40
 245              		.cfi_offset 4, -36
 246              		.cfi_offset 5, -32
 247              		.cfi_offset 6, -28
 248              		.cfi_offset 7, -24
 249              		.cfi_offset 8, -20
 250              		.cfi_offset 9, -16
 251              		.cfi_offset 10, -12
 252              		.cfi_offset 11, -8
 253              		.cfi_offset 14, -4
 254              		.loc 1 188 0
 255 0004 1D46     		mov	r5, r3
 256 0006 0446     		mov	r4, r0
 257              	.LBB28:
 258              		.loc 1 199 0
 259 0008 2023     		movs	r3, #32
 260              	.LVL9:
 261              	@ 199 "../ChibiOS_2.6.7_minified/os/kernel/src/chthreads.c" 1
 262 000a 83F31188 		msr     BASEPRI, r3
 263              	@ 0 "" 2
 264              	.LVL10:
 265              		.thumb
 266              	.LBE28:
 267              	.LBB29:
 268              	.LBB30:
 269              	.LBB31:
 270              	.LBB32:
 271              		.loc 1 99 0
 272 000e 1C4E     		ldr	r6, .L8
 273              	.LBE32:
 274              	.LBE31:
 275              		.loc 1 167 0
 276 0010 DFF870B0 		ldr	fp, .L8+4
 277              	.LBB38:
 278              	.LBB33:
 279              		.loc 1 99 0
 280 0014 D6F814E0 		ldr	lr, [r6, #20]
 281              	.LBE33:
 282              	.LBE38:
 283              		.loc 1 167 0
 284 0018 2439     		subs	r1, r1, #36
 285              	.LVL11:
ARM GAS  /tmp/ccJP94EF.s 			page 6


 286 001a 4718     		adds	r7, r0, r1
 287 001c C760     		str	r7, [r0, #12]
 288              	.LBB39:
 289              	.LBB34:
 290              		.loc 1 105 0
 291 001e 00F12C03 		add	r3, r0, #44
 292              	.LBE34:
 293              	.LBE39:
 294              		.loc 1 167 0
 295 0022 4550     		str	r5, [r0, r1]
 296              	.LBB40:
 297              	.LBB35:
 298              		.loc 1 102 0
 299 0024 00F1280C 		add	ip, r0, #40
 300              		.loc 1 80 0
 301 0028 0025     		movs	r5, #0
 302              	.LVL12:
 303              	.LBE35:
 304              	.LBE40:
 305              		.loc 1 167 0
 306 002a 0A99     		ldr	r1, [sp, #40]
 307              	.LVL13:
 308 002c 7960     		str	r1, [r7, #4]
 309              	.LBB41:
 310              	.LBB36:
 311              		.loc 1 79 0
 312 002e 4FF0020A 		mov	r10, #2
 313              		.loc 1 82 0
 314 0032 4FF00A09 		mov	r9, #10
 315              		.loc 1 95 0
 316 0036 4FF00108 		mov	r8, #1
 317              	.LBE36:
 318              	.LBE41:
 319              		.loc 1 167 0
 320 003a C7F820B0 		str	fp, [r7, #32]
 321              	.LVL14:
 322              	.LBE30:
 323              	.LBE29:
 324              		.loc 1 200 0
 325 003e 2946     		mov	r1, r5
 326              	.LBB44:
 327              	.LBB43:
 328              	.LBB42:
 329              	.LBB37:
 330              		.loc 1 78 0
 331 0040 8260     		str	r2, [r0, #8]
 332              		.loc 1 99 0
 333 0042 0661     		str	r6, [r0, #16]
 334 0044 C0F814E0 		str	lr, [r0, #20]
 335              		.loc 1 85 0
 336 0048 0264     		str	r2, [r0, #64]
 337              		.loc 1 79 0
 338 004a 80F81CA0 		strb	r10, [r0, #28]
 339              	.LVL15:
 340              		.loc 1 82 0
 341 004e 80F81F90 		strb	r9, [r0, #31]
 342              		.loc 1 95 0
ARM GAS  /tmp/ccJP94EF.s 			page 7


 343 0052 80F81E80 		strb	r8, [r0, #30]
 344              		.loc 1 80 0
 345 0056 4577     		strb	r5, [r0, #29]
 346              		.loc 1 99 0
 347 0058 7061     		str	r0, [r6, #20]
 348              		.loc 1 86 0
 349 005a C563     		str	r5, [r0, #60]
 350              		.loc 1 89 0
 351 005c 8563     		str	r5, [r0, #56]
 352              		.loc 1 92 0
 353 005e 0562     		str	r5, [r0, #32]
 354              		.loc 1 98 0
 355 0060 8561     		str	r5, [r0, #24]
 356              		.loc 1 99 0
 357 0062 CEF81000 		str	r0, [lr, #16]
 358              		.loc 1 105 0
 359 0066 0363     		str	r3, [r0, #48]
 360 0068 C362     		str	r3, [r0, #44]
 361              		.loc 1 102 0
 362 006a C0F828C0 		str	ip, [r0, #40]
 363              	.LBE37:
 364              	.LBE42:
 365              	.LBE43:
 366              	.LBE44:
 367              		.loc 1 200 0
 368 006e FFF7FEFF 		bl	chSchWakeupS
 369              	.LVL16:
 370              	.LBB45:
 371              		.loc 1 201 0
 372 0072 2B46     		mov	r3, r5
 373              	@ 201 "../ChibiOS_2.6.7_minified/os/kernel/src/chthreads.c" 1
 374 0074 83F31188 		msr     BASEPRI, r3
 375              	@ 0 "" 2
 376              		.thumb
 377              	.LBE45:
 378              		.loc 1 203 0
 379 0078 2046     		mov	r0, r4
 380 007a BDE8F88F 		pop	{r3, r4, r5, r6, r7, r8, r9, r10, fp, pc}
 381              	.LVL17:
 382              	.L9:
 383 007e 00BF     		.align	2
 384              	.L8:
 385 0080 00000000 		.word	rlist
 386 0084 00000000 		.word	_port_thread_start
 387              		.cfi_endproc
 388              	.LFE9:
 389              		.size	chThdCreateStatic, .-chThdCreateStatic
 390 0088 AFF30080 		.section	.text.chThdSetPriority,"ax",%progbits
 390      AFF30080 
 391              		.align	2
 392              		.p2align 4,,15
 393              		.global	chThdSetPriority
 394              		.thumb
 395              		.thumb_func
 396              		.type	chThdSetPriority, %function
 397              	chThdSetPriority:
 398              	.LFB10:
ARM GAS  /tmp/ccJP94EF.s 			page 8


 399              		.loc 1 217 0
 400              		.cfi_startproc
 401              		@ args = 0, pretend = 0, frame = 0
 402              		@ frame_needed = 0, uses_anonymous_args = 0
 403              	.LVL18:
 404 0000 10B5     		push	{r4, lr}
 405              		.cfi_def_cfa_offset 8
 406              		.cfi_offset 4, -8
 407              		.cfi_offset 14, -4
 408              	.LBB46:
 409              		.loc 1 222 0
 410 0002 2023     		movs	r3, #32
 411              	@ 222 "../ChibiOS_2.6.7_minified/os/kernel/src/chthreads.c" 1
 412 0004 83F31188 		msr     BASEPRI, r3
 413              	@ 0 "" 2
 414              		.thumb
 415              	.LBE46:
 416              		.loc 1 224 0
 417 0008 084B     		ldr	r3, .L14
 418 000a 9B69     		ldr	r3, [r3, #24]
 419 000c 1C6C     		ldr	r4, [r3, #64]
 420              	.LVL19:
 421              		.loc 1 225 0
 422 000e 9968     		ldr	r1, [r3, #8]
 423 0010 8C42     		cmp	r4, r1
 424 0012 01D0     		beq	.L11
 425              		.loc 1 225 0 is_stmt 0 discriminator 1
 426 0014 8142     		cmp	r1, r0
 427 0016 00D2     		bcs	.L12
 428              	.L11:
 429              		.loc 1 226 0 is_stmt 1
 430 0018 9860     		str	r0, [r3, #8]
 431              	.L12:
 432              		.loc 1 227 0
 433 001a 1864     		str	r0, [r3, #64]
 434              		.loc 1 232 0
 435 001c FFF7FEFF 		bl	chSchRescheduleS
 436              	.LVL20:
 437              	.LBB47:
 438              		.loc 1 233 0
 439 0020 0023     		movs	r3, #0
 440              	@ 233 "../ChibiOS_2.6.7_minified/os/kernel/src/chthreads.c" 1
 441 0022 83F31188 		msr     BASEPRI, r3
 442              	@ 0 "" 2
 443              		.thumb
 444              	.LBE47:
 445              		.loc 1 235 0
 446 0026 2046     		mov	r0, r4
 447 0028 10BD     		pop	{r4, pc}
 448              	.LVL21:
 449              	.L15:
 450 002a 00BF     		.align	2
 451              	.L14:
 452 002c 00000000 		.word	rlist
 453              		.cfi_endproc
 454              	.LFE10:
 455              		.size	chThdSetPriority, .-chThdSetPriority
ARM GAS  /tmp/ccJP94EF.s 			page 9


 456              		.section	.text.chThdResume,"ax",%progbits
 457              		.align	2
 458              		.p2align 4,,15
 459              		.global	chThdResume
 460              		.thumb
 461              		.thumb_func
 462              		.type	chThdResume, %function
 463              	chThdResume:
 464              	.LFB11:
 465              		.loc 1 250 0
 466              		.cfi_startproc
 467              		@ args = 0, pretend = 0, frame = 0
 468              		@ frame_needed = 0, uses_anonymous_args = 0
 469              	.LVL22:
 470 0000 10B5     		push	{r4, lr}
 471              		.cfi_def_cfa_offset 8
 472              		.cfi_offset 4, -8
 473              		.cfi_offset 14, -4
 474              	.LBB48:
 475              		.loc 1 252 0
 476 0002 2023     		movs	r3, #32
 477              	.LBE48:
 478              		.loc 1 250 0
 479 0004 0446     		mov	r4, r0
 480              	.LBB49:
 481              		.loc 1 252 0
 482              	@ 252 "../ChibiOS_2.6.7_minified/os/kernel/src/chthreads.c" 1
 483 0006 83F31188 		msr     BASEPRI, r3
 484              	@ 0 "" 2
 485              		.thumb
 486              	.LBE49:
 487              		.loc 1 256 0
 488 000a 0021     		movs	r1, #0
 489 000c FFF7FEFF 		bl	chSchWakeupS
 490              	.LVL23:
 491              	.LBB50:
 492              		.loc 1 257 0
 493 0010 0023     		movs	r3, #0
 494              	@ 257 "../ChibiOS_2.6.7_minified/os/kernel/src/chthreads.c" 1
 495 0012 83F31188 		msr     BASEPRI, r3
 496              	@ 0 "" 2
 497              		.thumb
 498              	.LBE50:
 499              		.loc 1 259 0
 500 0016 2046     		mov	r0, r4
 501 0018 10BD     		pop	{r4, pc}
 502              		.cfi_endproc
 503              	.LFE11:
 504              		.size	chThdResume, .-chThdResume
 505 001a 00BFAFF3 		.section	.text.chThdTerminate,"ax",%progbits
 505      0080
 506              		.align	2
 507              		.p2align 4,,15
 508              		.global	chThdTerminate
 509              		.thumb
 510              		.thumb_func
 511              		.type	chThdTerminate, %function
ARM GAS  /tmp/ccJP94EF.s 			page 10


 512              	chThdTerminate:
 513              	.LFB12:
 514              		.loc 1 273 0
 515              		.cfi_startproc
 516              		@ args = 0, pretend = 0, frame = 0
 517              		@ frame_needed = 0, uses_anonymous_args = 0
 518              		@ link register save eliminated.
 519              	.LVL24:
 520              	.LBB51:
 521              		.loc 1 275 0
 522 0000 2023     		movs	r3, #32
 523              	@ 275 "../ChibiOS_2.6.7_minified/os/kernel/src/chthreads.c" 1
 524 0002 83F31188 		msr     BASEPRI, r3
 525              	@ 0 "" 2
 526              		.thumb
 527              	.LBE51:
 528              		.loc 1 276 0
 529 0006 437F     		ldrb	r3, [r0, #29]	@ zero_extendqisi2
 530 0008 43F00403 		orr	r3, r3, #4
 531 000c 4377     		strb	r3, [r0, #29]
 532              	.LBB52:
 533              		.loc 1 277 0
 534 000e 0023     		movs	r3, #0
 535              	@ 277 "../ChibiOS_2.6.7_minified/os/kernel/src/chthreads.c" 1
 536 0010 83F31188 		msr     BASEPRI, r3
 537              	@ 0 "" 2
 538              		.thumb
 539 0014 7047     		bx	lr
 540              	.LBE52:
 541              		.cfi_endproc
 542              	.LFE12:
 543              		.size	chThdTerminate, .-chThdTerminate
 544 0016 00BFAFF3 		.section	.text.chThdSleep,"ax",%progbits
 544      0080AFF3 
 544      0080
 545              		.align	2
 546              		.p2align 4,,15
 547              		.global	chThdSleep
 548              		.thumb
 549              		.thumb_func
 550              		.type	chThdSleep, %function
 551              	chThdSleep:
 552              	.LFB13:
 553              		.loc 1 292 0
 554              		.cfi_startproc
 555              		@ args = 0, pretend = 0, frame = 0
 556              		@ frame_needed = 0, uses_anonymous_args = 0
 557              	.LVL25:
 558 0000 08B5     		push	{r3, lr}
 559              		.cfi_def_cfa_offset 8
 560              		.cfi_offset 3, -8
 561              		.cfi_offset 14, -4
 562              		.loc 1 292 0
 563 0002 0146     		mov	r1, r0
 564              	.LBB53:
 565              		.loc 1 296 0
 566 0004 2023     		movs	r3, #32
ARM GAS  /tmp/ccJP94EF.s 			page 11


 567              	@ 296 "../ChibiOS_2.6.7_minified/os/kernel/src/chthreads.c" 1
 568 0006 83F31188 		msr     BASEPRI, r3
 569              	@ 0 "" 2
 570              		.thumb
 571              	.LBE53:
 572              		.loc 1 297 0
 573 000a 0620     		movs	r0, #6
 574              	.LVL26:
 575 000c FFF7FEFF 		bl	chSchGoSleepTimeoutS
 576              	.LVL27:
 577              	.LBB54:
 578              		.loc 1 298 0
 579 0010 0023     		movs	r3, #0
 580              	@ 298 "../ChibiOS_2.6.7_minified/os/kernel/src/chthreads.c" 1
 581 0012 83F31188 		msr     BASEPRI, r3
 582              	@ 0 "" 2
 583              		.thumb
 584 0016 08BD     		pop	{r3, pc}
 585              	.LBE54:
 586              		.cfi_endproc
 587              	.LFE13:
 588              		.size	chThdSleep, .-chThdSleep
 589 0018 AFF30080 		.section	.text.chThdSleepUntil,"ax",%progbits
 589      AFF30080 
 590              		.align	2
 591              		.p2align 4,,15
 592              		.global	chThdSleepUntil
 593              		.thumb
 594              		.thumb_func
 595              		.type	chThdSleepUntil, %function
 596              	chThdSleepUntil:
 597              	.LFB14:
 598              		.loc 1 309 0
 599              		.cfi_startproc
 600              		@ args = 0, pretend = 0, frame = 0
 601              		@ frame_needed = 0, uses_anonymous_args = 0
 602              	.LVL28:
 603 0000 08B5     		push	{r3, lr}
 604              		.cfi_def_cfa_offset 8
 605              		.cfi_offset 3, -8
 606              		.cfi_offset 14, -4
 607              	.LBB55:
 608              		.loc 1 311 0
 609 0002 2023     		movs	r3, #32
 610              	@ 311 "../ChibiOS_2.6.7_minified/os/kernel/src/chthreads.c" 1
 611 0004 83F31188 		msr     BASEPRI, r3
 612              	@ 0 "" 2
 613              		.thumb
 614              	.LBE55:
 615              		.loc 1 312 0
 616 0008 054B     		ldr	r3, .L24
 617 000a D968     		ldr	r1, [r3, #12]
 618              	.LVL29:
 619 000c 411A     		subs	r1, r0, r1
 620              	.LVL30:
 621 000e 02D0     		beq	.L20
 622              		.loc 1 313 0
ARM GAS  /tmp/ccJP94EF.s 			page 12


 623 0010 0620     		movs	r0, #6
 624 0012 FFF7FEFF 		bl	chSchGoSleepTimeoutS
 625              	.LVL31:
 626              	.L20:
 627              	.LBB56:
 628              		.loc 1 314 0
 629 0016 0023     		movs	r3, #0
 630              	@ 314 "../ChibiOS_2.6.7_minified/os/kernel/src/chthreads.c" 1
 631 0018 83F31188 		msr     BASEPRI, r3
 632              	@ 0 "" 2
 633              		.thumb
 634 001c 08BD     		pop	{r3, pc}
 635              	.L25:
 636 001e 00BF     		.align	2
 637              	.L24:
 638 0020 00000000 		.word	vtlist
 639              	.LBE56:
 640              		.cfi_endproc
 641              	.LFE14:
 642              		.size	chThdSleepUntil, .-chThdSleepUntil
 643 0024 AFF30080 		.section	.text.chThdYield,"ax",%progbits
 643      AFF30080 
 643      AFF30080 
 644              		.align	2
 645              		.p2align 4,,15
 646              		.global	chThdYield
 647              		.thumb
 648              		.thumb_func
 649              		.type	chThdYield, %function
 650              	chThdYield:
 651              	.LFB15:
 652              		.loc 1 324 0
 653              		.cfi_startproc
 654              		@ args = 0, pretend = 0, frame = 0
 655              		@ frame_needed = 0, uses_anonymous_args = 0
 656 0000 08B5     		push	{r3, lr}
 657              		.cfi_def_cfa_offset 8
 658              		.cfi_offset 3, -8
 659              		.cfi_offset 14, -4
 660              	.LBB57:
 661              		.loc 1 326 0
 662 0002 2023     		movs	r3, #32
 663              	@ 326 "../ChibiOS_2.6.7_minified/os/kernel/src/chthreads.c" 1
 664 0004 83F31188 		msr     BASEPRI, r3
 665              	@ 0 "" 2
 666              		.thumb
 667              	.LBE57:
 668              		.loc 1 327 0
 669 0008 064B     		ldr	r3, .L28
 670 000a 1A68     		ldr	r2, [r3]
 671 000c 9B69     		ldr	r3, [r3, #24]
 672 000e 9268     		ldr	r2, [r2, #8]
 673 0010 9B68     		ldr	r3, [r3, #8]
 674 0012 9A42     		cmp	r2, r3
 675 0014 01D3     		bcc	.L27
 676              		.loc 1 327 0 is_stmt 0 discriminator 1
 677 0016 FFF7FEFF 		bl	chSchDoRescheduleBehind
ARM GAS  /tmp/ccJP94EF.s 			page 13


 678              	.LVL32:
 679              	.L27:
 680              	.LBB58:
 681              		.loc 1 328 0 is_stmt 1
 682 001a 0023     		movs	r3, #0
 683              	@ 328 "../ChibiOS_2.6.7_minified/os/kernel/src/chthreads.c" 1
 684 001c 83F31188 		msr     BASEPRI, r3
 685              	@ 0 "" 2
 686              		.thumb
 687 0020 08BD     		pop	{r3, pc}
 688              	.L29:
 689 0022 00BF     		.align	2
 690              	.L28:
 691 0024 00000000 		.word	rlist
 692              	.LBE58:
 693              		.cfi_endproc
 694              	.LFE15:
 695              		.size	chThdYield, .-chThdYield
 696 0028 AFF30080 		.section	.text.chThdExitS,"ax",%progbits
 696      AFF30080 
 697              		.align	2
 698              		.p2align 4,,15
 699              		.global	chThdExitS
 700              		.thumb
 701              		.thumb_func
 702              		.type	chThdExitS, %function
 703              	chThdExitS:
 704              	.LFB17:
 705              		.loc 1 366 0
 706              		.cfi_startproc
 707              		@ args = 0, pretend = 0, frame = 0
 708              		@ frame_needed = 0, uses_anonymous_args = 0
 709              	.LVL33:
 710 0000 38B5     		push	{r3, r4, r5, lr}
 711              		.cfi_def_cfa_offset 16
 712              		.cfi_offset 3, -16
 713              		.cfi_offset 4, -12
 714              		.cfi_offset 5, -8
 715              		.cfi_offset 14, -4
 716              		.loc 1 367 0
 717 0002 0E4B     		ldr	r3, .L36
 718 0004 9C69     		ldr	r4, [r3, #24]
 719              	.LVL34:
 720              		.loc 1 374 0
 721 0006 2546     		mov	r5, r4
 722              		.loc 1 369 0
 723 0008 6062     		str	r0, [r4, #36]
 724              		.loc 1 374 0
 725 000a 55F8280F 		ldr	r0, [r5, #40]!
 726              	.LVL35:
 727 000e A842     		cmp	r0, r5
 728 0010 06D0     		beq	.L34
 729              	.LVL36:
 730              	.L35:
 731              	.LBB59:
 732              	.LBB60:
 733              		.file 2 "../ChibiOS_2.6.7_minified/os/kernel/include/chinline.h"
ARM GAS  /tmp/ccJP94EF.s 			page 14


 734              		.loc 2 89 0
 735 0012 0368     		ldr	r3, [r0]
 736 0014 A362     		str	r3, [r4, #40]
 737              	.LBE60:
 738              	.LBE59:
 739              		.loc 1 375 0
 740 0016 FFF7FEFF 		bl	chSchReadyI
 741              	.LVL37:
 742              		.loc 1 374 0
 743 001a A06A     		ldr	r0, [r4, #40]
 744 001c A842     		cmp	r0, r5
 745 001e F8D1     		bne	.L35
 746              	.LVL38:
 747              	.L34:
 748              		.loc 1 380 0
 749 0020 637F     		ldrb	r3, [r4, #29]	@ zero_extendqisi2
 750 0022 9B07     		lsls	r3, r3, #30
 751 0024 04D1     		bne	.L33
 752              		.loc 1 381 0
 753 0026 6369     		ldr	r3, [r4, #20]
 754 0028 2269     		ldr	r2, [r4, #16]
 755 002a 1A61     		str	r2, [r3, #16]
 756 002c 2269     		ldr	r2, [r4, #16]
 757 002e 5361     		str	r3, [r2, #20]
 758              	.L33:
 759              		.loc 1 383 0
 760 0030 0E20     		movs	r0, #14
 761              		.loc 1 386 0
 762 0032 BDE83840 		pop	{r3, r4, r5, lr}
 763              	.LVL39:
 764              		.loc 1 383 0
 765 0036 FFF7FEBF 		b	chSchGoSleepS
 766              	.LVL40:
 767              	.L37:
 768 003a 00BF     		.align	2
 769              	.L36:
 770 003c 00000000 		.word	rlist
 771              		.cfi_endproc
 772              	.LFE17:
 773              		.size	chThdExitS, .-chThdExitS
 774              		.section	.text.chThdExit,"ax",%progbits
 775              		.align	2
 776              		.p2align 4,,15
 777              		.global	chThdExit
 778              		.thumb
 779              		.thumb_func
 780              		.type	chThdExit, %function
 781              	chThdExit:
 782              	.LFB16:
 783              		.loc 1 345 0
 784              		.cfi_startproc
 785              		@ args = 0, pretend = 0, frame = 0
 786              		@ frame_needed = 0, uses_anonymous_args = 0
 787              		@ link register save eliminated.
 788              	.LVL41:
 789              	.LBB61:
 790              		.loc 1 347 0
ARM GAS  /tmp/ccJP94EF.s 			page 15


 791 0000 2023     		movs	r3, #32
 792              	@ 347 "../ChibiOS_2.6.7_minified/os/kernel/src/chthreads.c" 1
 793 0002 83F31188 		msr     BASEPRI, r3
 794              	@ 0 "" 2
 795              		.thumb
 796              	.LBE61:
 797              		.loc 1 348 0
 798 0006 FFF7FEBF 		b	chThdExitS
 799              	.LVL42:
 800              		.cfi_endproc
 801              	.LFE16:
 802              		.size	chThdExit, .-chThdExit
 803 000a 00BFAFF3 		.section	.text.chThdWait,"ax",%progbits
 803      0080
 804              		.align	2
 805              		.p2align 4,,15
 806              		.global	chThdWait
 807              		.thumb
 808              		.thumb_func
 809              		.type	chThdWait, %function
 810              	chThdWait:
 811              	.LFB18:
 812              		.loc 1 420 0
 813              		.cfi_startproc
 814              		@ args = 0, pretend = 0, frame = 0
 815              		@ frame_needed = 0, uses_anonymous_args = 0
 816              	.LVL43:
 817 0000 38B5     		push	{r3, r4, r5, lr}
 818              		.cfi_def_cfa_offset 16
 819              		.cfi_offset 3, -16
 820              		.cfi_offset 4, -12
 821              		.cfi_offset 5, -8
 822              		.cfi_offset 14, -4
 823              		.loc 1 420 0
 824 0002 0446     		mov	r4, r0
 825              	.LBB62:
 826              		.loc 1 425 0
 827 0004 2023     		movs	r3, #32
 828              	@ 425 "../ChibiOS_2.6.7_minified/os/kernel/src/chthreads.c" 1
 829 0006 83F31188 		msr     BASEPRI, r3
 830              	@ 0 "" 2
 831              		.thumb
 832              	.LBE62:
 833              		.loc 1 430 0
 834 000a 037F     		ldrb	r3, [r0, #28]	@ zero_extendqisi2
 835 000c 0E2B     		cmp	r3, #14
 836 000e 07D0     		beq	.L40
 837              		.loc 1 431 0
 838 0010 084B     		ldr	r3, .L44
 839              	.LBB63:
 840              	.LBB64:
 841              		.loc 2 82 0
 842 0012 826A     		ldr	r2, [r0, #40]
 843              	.LBE64:
 844              	.LBE63:
 845              		.loc 1 431 0
 846 0014 9B69     		ldr	r3, [r3, #24]
ARM GAS  /tmp/ccJP94EF.s 			page 16


 847              	.LVL44:
 848              		.loc 1 432 0
 849 0016 0720     		movs	r0, #7
 850              	.LVL45:
 851              	.LBB66:
 852              	.LBB65:
 853              		.loc 2 82 0
 854 0018 1A60     		str	r2, [r3]
 855              		.loc 2 83 0
 856 001a A362     		str	r3, [r4, #40]
 857              	.LBE65:
 858              	.LBE66:
 859              		.loc 1 432 0
 860 001c FFF7FEFF 		bl	chSchGoSleepS
 861              	.LVL46:
 862              	.L40:
 863              		.loc 1 434 0
 864 0020 656A     		ldr	r5, [r4, #36]
 865              	.LVL47:
 866              	.LBB67:
 867              		.loc 1 435 0
 868 0022 0023     		movs	r3, #0
 869              	@ 435 "../ChibiOS_2.6.7_minified/os/kernel/src/chthreads.c" 1
 870 0024 83F31188 		msr     BASEPRI, r3
 871              	@ 0 "" 2
 872              		.thumb
 873              	.LBE67:
 874              		.loc 1 437 0
 875 0028 2046     		mov	r0, r4
 876 002a FFF7FEFF 		bl	chThdRelease
 877              	.LVL48:
 878              		.loc 1 440 0
 879 002e 2846     		mov	r0, r5
 880 0030 38BD     		pop	{r3, r4, r5, pc}
 881              	.LVL49:
 882              	.L45:
 883 0032 00BF     		.align	2
 884              	.L44:
 885 0034 00000000 		.word	rlist
 886              		.cfi_endproc
 887              	.LFE18:
 888              		.size	chThdWait, .-chThdWait
 889 0038 AFF30080 		.text
 889      AFF30080 
 890              	.Letext0:
 891              		.file 3 "/usr/lib/gcc/arm-none-eabi/4.8.4/include/stddef.h"
 892              		.file 4 "/usr/arm-none-eabi/include/machine/_default_types.h"
 893              		.file 5 "/usr/arm-none-eabi/include/stdint.h"
 894              		.file 6 "../ChibiOS_2.6.7_minified/os/ports/GCC/ARMCMx/chtypes.h"
 895              		.file 7 "../ChibiOS_2.6.7_minified/os/kernel/include/chlists.h"
 896              		.file 8 "../ChibiOS_2.6.7_minified/os/kernel/include/chthreads.h"
 897              		.file 9 "../ChibiOS_2.6.7_minified/os/ports/GCC/ARMCMx/chcore_v7m.h"
 898              		.file 10 "../ChibiOS_2.6.7_minified/os/kernel/include/chvt.h"
 899              		.file 11 "../ChibiOS_2.6.7_minified/os/kernel/include/chschd.h"
 900              		.file 12 "../ChibiOS_2.6.7_minified/os/kernel/include/chmtx.h"
 901              		.file 13 "../ChibiOS_2.6.7_minified/os/kernel/include/chdynamic.h"
