ARM GAS  /tmp/ccWe8uAH.s 			page 1


   1              		.syntax unified
   2              		.cpu cortex-m4
   3              		.fpu softvfp
   4              		.eabi_attribute 20, 1
   5              		.eabi_attribute 21, 1
   6              		.eabi_attribute 23, 3
   7              		.eabi_attribute 24, 1
   8              		.eabi_attribute 25, 1
   9              		.eabi_attribute 26, 1
  10              		.eabi_attribute 30, 2
  11              		.eabi_attribute 34, 1
  12              		.eabi_attribute 18, 4
  13              		.thumb
  14              		.file	"tm.c"
  15              		.text
  16              	.Ltext0:
  17              		.cfi_sections	.debug_frame
  18              		.section	.text.tm_start,"ax",%progbits
  19              		.align	2
  20              		.p2align 4,,15
  21              		.thumb
  22              		.thumb_func
  23              		.type	tm_start, %function
  24              	tm_start:
  25              	.LFB118:
  26              		.file 1 "../ChibiOS_2.6.7_minified/os/hal/src/tm.c"
  27              		.loc 1 69 0
  28              		.cfi_startproc
  29              		@ args = 0, pretend = 0, frame = 0
  30              		@ frame_needed = 0, uses_anonymous_args = 0
  31              		@ link register save eliminated.
  32              	.LVL0:
  33              		.loc 1 71 0
  34 0000 014B     		ldr	r3, .L2
  35 0002 5B68     		ldr	r3, [r3, #4]
  36 0004 8360     		str	r3, [r0, #8]
  37 0006 7047     		bx	lr
  38              	.L3:
  39              		.align	2
  40              	.L2:
  41 0008 001000E0 		.word	-536866816
  42              		.cfi_endproc
  43              	.LFE118:
  44              		.size	tm_start, .-tm_start
  45 000c AFF30080 		.section	.text.tm_stop,"ax",%progbits
  46              		.align	2
  47              		.p2align 4,,15
  48              		.thumb
  49              		.thumb_func
  50              		.type	tm_stop, %function
  51              	tm_stop:
  52              	.LFB119:
  53              		.loc 1 81 0
  54              		.cfi_startproc
  55              		@ args = 0, pretend = 0, frame = 0
  56              		@ frame_needed = 0, uses_anonymous_args = 0
  57              		@ link register save eliminated.
ARM GAS  /tmp/ccWe8uAH.s 			page 2


  58              	.LVL1:
  59              		.loc 1 83 0
  60 0000 0B4B     		ldr	r3, .L9
  61              		.loc 1 84 0
  62 0002 0C4A     		ldr	r2, .L9+4
  63 0004 8168     		ldr	r1, [r0, #8]
  64              		.loc 1 83 0
  65 0006 5B68     		ldr	r3, [r3, #4]
  66              	.LVL2:
  67              		.loc 1 81 0
  68 0008 10B4     		push	{r4}
  69              		.cfi_def_cfa_offset 4
  70              		.cfi_offset 4, -4
  71              		.loc 1 84 0
  72 000a 1468     		ldr	r4, [r2]
  73              		.loc 1 85 0
  74 000c C268     		ldr	r2, [r0, #12]
  75              		.loc 1 84 0
  76 000e 5B1A     		subs	r3, r3, r1
  77              	.LVL3:
  78 0010 1B1B     		subs	r3, r3, r4
  79              		.loc 1 85 0
  80 0012 9342     		cmp	r3, r2
  81              		.loc 1 84 0
  82 0014 8360     		str	r3, [r0, #8]
  83              		.loc 1 85 0
  84 0016 06D8     		bhi	.L8
  85              		.loc 1 87 0
  86 0018 0269     		ldr	r2, [r0, #16]
  87              		.loc 1 89 0
  88 001a 5DF8044B 		ldr	r4, [sp], #4
  89              		.loc 1 87 0
  90 001e 9342     		cmp	r3, r2
  91              		.loc 1 88 0
  92 0020 38BF     		it	cc
  93 0022 0361     		strcc	r3, [r0, #16]
  94              		.loc 1 89 0
  95 0024 7047     		bx	lr
  96              	.L8:
  97              		.loc 1 86 0
  98 0026 C360     		str	r3, [r0, #12]
  99              		.loc 1 89 0
 100 0028 5DF8044B 		ldr	r4, [sp], #4
 101 002c 7047     		bx	lr
 102              	.L10:
 103 002e 00BF     		.align	2
 104              	.L9:
 105 0030 001000E0 		.word	-536866816
 106 0034 00000000 		.word	.LANCHOR0
 107              		.cfi_endproc
 108              	.LFE119:
 109              		.size	tm_stop, .-tm_stop
 110 0038 AFF30080 		.section	.text.tmInit,"ax",%progbits
 110      AFF30080 
 111              		.align	2
 112              		.p2align 4,,15
 113              		.global	tmInit
ARM GAS  /tmp/ccWe8uAH.s 			page 3


 114              		.thumb
 115              		.thumb_func
 116              		.type	tmInit, %function
 117              	tmInit:
 118              	.LFB120:
 119              		.loc 1 104 0
 120              		.cfi_startproc
 121              		@ args = 0, pretend = 0, frame = 24
 122              		@ frame_needed = 0, uses_anonymous_args = 0
 123 0000 10B5     		push	{r4, lr}
 124              		.cfi_def_cfa_offset 8
 125              		.cfi_offset 4, -8
 126              		.cfi_offset 14, -4
 127 0002 86B0     		sub	sp, sp, #24
 128              		.cfi_def_cfa_offset 32
 129              		.loc 1 110 0
 130 0004 0A4C     		ldr	r4, .L12
 131              	.LBB8:
 132              	.LBB9:
 133              		.loc 1 126 0
 134 0006 0B4B     		ldr	r3, .L12+4
 135              	.LBE9:
 136              	.LBE8:
 137              	.LBB15:
 138              	.LBB16:
 139              		.loc 1 71 0
 140 0008 0B49     		ldr	r1, .L12+8
 141              	.LBE16:
 142              	.LBE15:
 143              	.LBB19:
 144              	.LBB10:
 145              		.loc 1 126 0
 146 000a 0193     		str	r3, [sp, #4]
 147              		.loc 1 130 0
 148 000c 4FF0FF30 		mov	r0, #-1
 149              	.LBE10:
 150              	.LBE19:
 151              		.loc 1 110 0
 152 0010 0023     		movs	r3, #0
 153              	.LBB20:
 154              	.LBB11:
 155              		.loc 1 130 0
 156 0012 0590     		str	r0, [sp, #20]
 157              	.LBE11:
 158              	.LBE20:
 159              		.loc 1 110 0
 160 0014 2360     		str	r3, [r4]
 161              	.LVL4:
 162              	.LBB21:
 163              	.LBB12:
 164              		.loc 1 129 0
 165 0016 0493     		str	r3, [sp, #16]
 166              	.LBE12:
 167              	.LBE21:
 168              	.LBB22:
 169              	.LBB17:
 170              		.loc 1 71 0
ARM GAS  /tmp/ccWe8uAH.s 			page 4


 171 0018 4B68     		ldr	r3, [r1, #4]
 172              	.LBE17:
 173              	.LBE22:
 174              	.LBB23:
 175              	.LBB13:
 176              		.loc 1 127 0
 177 001a 084A     		ldr	r2, .L12+12
 178              	.LBE13:
 179              	.LBE23:
 180              	.LBB24:
 181              	.LBB18:
 182              		.loc 1 71 0
 183 001c 0393     		str	r3, [sp, #12]
 184              	.LBE18:
 185              	.LBE24:
 186              		.loc 1 113 0
 187 001e 01A8     		add	r0, sp, #4
 188              	.LVL5:
 189              	.LBB25:
 190              	.LBB14:
 191              		.loc 1 127 0
 192 0020 0292     		str	r2, [sp, #8]
 193              	.LBE14:
 194              	.LBE25:
 195              		.loc 1 113 0
 196 0022 FFF7FEFF 		bl	tm_stop
 197              	.LVL6:
 198              		.loc 1 114 0
 199 0026 039B     		ldr	r3, [sp, #12]
 200 0028 2360     		str	r3, [r4]
 201              		.loc 1 115 0
 202 002a 06B0     		add	sp, sp, #24
 203              		@ sp needed
 204 002c 10BD     		pop	{r4, pc}
 205              	.LVL7:
 206              	.L13:
 207 002e 00BF     		.align	2
 208              	.L12:
 209 0030 00000000 		.word	.LANCHOR0
 210 0034 00000000 		.word	tm_start
 211 0038 001000E0 		.word	-536866816
 212 003c 00000000 		.word	tm_stop
 213              		.cfi_endproc
 214              	.LFE120:
 215              		.size	tmInit, .-tmInit
 216              		.section	.text.tmObjectInit,"ax",%progbits
 217              		.align	2
 218              		.p2align 4,,15
 219              		.global	tmObjectInit
 220              		.thumb
 221              		.thumb_func
 222              		.type	tmObjectInit, %function
 223              	tmObjectInit:
 224              	.LFB121:
 225              		.loc 1 124 0
 226              		.cfi_startproc
 227              		@ args = 0, pretend = 0, frame = 0
ARM GAS  /tmp/ccWe8uAH.s 			page 5


 228              		@ frame_needed = 0, uses_anonymous_args = 0
 229              		@ link register save eliminated.
 230              	.LVL8:
 231              		.loc 1 126 0
 232 0000 054B     		ldr	r3, .L15
 233              		.loc 1 127 0
 234 0002 0649     		ldr	r1, .L15+4
 235              		.loc 1 126 0
 236 0004 0360     		str	r3, [r0]
 237              		.loc 1 130 0
 238 0006 4FF0FF32 		mov	r2, #-1
 239              		.loc 1 128 0
 240 000a 0023     		movs	r3, #0
 241              		.loc 1 127 0
 242 000c 4160     		str	r1, [r0, #4]
 243              		.loc 1 130 0
 244 000e 0261     		str	r2, [r0, #16]
 245              		.loc 1 128 0
 246 0010 8360     		str	r3, [r0, #8]
 247              		.loc 1 129 0
 248 0012 C360     		str	r3, [r0, #12]
 249 0014 7047     		bx	lr
 250              	.L16:
 251 0016 00BF     		.align	2
 252              	.L15:
 253 0018 00000000 		.word	tm_start
 254 001c 00000000 		.word	tm_stop
 255              		.cfi_endproc
 256              	.LFE121:
 257              		.size	tmObjectInit, .-tmObjectInit
 258              		.section	.bss.measurement_offset,"aw",%nobits
 259              		.align	2
 260              		.set	.LANCHOR0,. + 0
 261              		.type	measurement_offset, %object
 262              		.size	measurement_offset, 4
 263              	measurement_offset:
 264 0000 00000000 		.space	4
 265              		.text
 266              	.Letext0:
 267              		.file 2 "/usr/arm-none-eabi/include/machine/_default_types.h"
 268              		.file 3 "/usr/arm-none-eabi/include/stdint.h"
 269              		.file 4 "../ChibiOS_2.6.7_minified/os/ports/common/ARMCMx/nvic.h"
 270              		.file 5 "../ChibiOS_2.6.7_minified/os/hal/platforms/STM32F4xx/hal_lld.h"
 271              		.file 6 "../ChibiOS_2.6.7_minified/os/hal/include/tm.h"
 272              		.file 7 "../ChibiOS_2.6.7_minified/os/ports/common/ARMCMx/CMSIS/include/core_cm4.h"
