Archive member included because of file (symbol)

/usr/bin/../lib/gcc/arm-none-eabi/4.8.4/armv7e-m/libgcc.a(_arm_addsubdf3.o)
                              build/obj/chprintf.o (__aeabi_dsub)
/usr/bin/../lib/gcc/arm-none-eabi/4.8.4/armv7e-m/libgcc.a(_arm_muldivdf3.o)
                              build/obj/chprintf.o (__aeabi_dmul)
/usr/bin/../lib/gcc/arm-none-eabi/4.8.4/armv7e-m/libgcc.a(_arm_fixdfsi.o)
                              build/obj/chprintf.o (__aeabi_d2iz)
/usr/bin/../lib/gcc/arm-none-eabi/4.8.4/armv7e-m/libgcc.a(_arm_truncdfsf2.o)
                              build/obj/chprintf.o (__aeabi_d2f)
/usr/bin/../lib/gcc/arm-none-eabi/4.8.4/armv7e-m/libgcc.a(_arm_cmpsf2.o)
                              build/obj/chprintf.o (__aeabi_fcmplt)
/usr/bin/../lib/gcc/arm-none-eabi/4.8.4/armv7e-m/libgcc.a(_arm_fixsfsi.o)
                              build/obj/chprintf.o (__aeabi_f2iz)
/usr/bin/../lib/gcc/arm-none-eabi/4.8.4/../../../../arm-none-eabi/lib/armv7e-m/libg.a(lib_a-memset.o)
                              build/obj/usb.o (memset)
/usr/bin/../lib/gcc/arm-none-eabi/4.8.4/../../../../arm-none-eabi/lib/armv7e-m/libg.a(lib_a-strcasecmp.o)
                              build/obj/shell.o (strcasecmp)
/usr/bin/../lib/gcc/arm-none-eabi/4.8.4/../../../../arm-none-eabi/lib/armv7e-m/libg.a(lib_a-strpbrk.o)
                              build/obj/shell.o (strpbrk)
/usr/bin/../lib/gcc/arm-none-eabi/4.8.4/../../../../arm-none-eabi/lib/armv7e-m/libg.a(lib_a-strspn.o)
                              build/obj/shell.o (strspn)
/usr/bin/../lib/gcc/arm-none-eabi/4.8.4/../../../../arm-none-eabi/lib/armv7e-m/libg.a(lib_a-ctype_.o)
                              /usr/bin/../lib/gcc/arm-none-eabi/4.8.4/../../../../arm-none-eabi/lib/armv7e-m/libg.a(lib_a-strcasecmp.o) (__ctype_ptr__)

Discarded input sections

 .text          0x0000000000000000        0x0 build/obj/crt0.o
 .data          0x0000000000000000        0x0 build/obj/crt0.o
 .bss           0x0000000000000000        0x0 build/obj/crt0.o
 .text.__early_init
                0x0000000000000000       0x10 build/obj/crt0.o
 .text          0x0000000000000000        0x0 build/obj/vectors.o
 .data          0x0000000000000000        0x0 build/obj/vectors.o
 .bss           0x0000000000000000        0x0 build/obj/vectors.o
 .text          0x0000000000000000        0x0 build/obj/chcore.o
 .data          0x0000000000000000        0x0 build/obj/chcore.o
 .bss           0x0000000000000000        0x0 build/obj/chcore.o
 .text.port_halt
                0x0000000000000000       0x10 build/obj/chcore.o
 .debug_info    0x0000000000000000       0x92 build/obj/chcore.o
 .debug_abbrev  0x0000000000000000       0x42 build/obj/chcore.o
 .debug_aranges
                0x0000000000000000       0x20 build/obj/chcore.o
 .debug_ranges  0x0000000000000000       0x10 build/obj/chcore.o
Memory Configuration

Name             Origin             Length             Attributes
flash            0x0000000008000000 0x0000000000100000
ram              0x0000000020000000 0x000000000001c000
ethram           0x000000002001c000 0x0000000000004000
ccmram           0x0000000010000000 0x0000000000010000
*default*        0x0000000000000000 0xffffffffffffffff

Linker script and memory map

LOAD build/obj/crt0.o
LOAD build/obj/vectors.o
LOAD build/obj/chcore.o
LOAD build/obj/chcore_v7m.o
LOAD build/obj/nvic.o
LOAD build/obj/chsys.o
LOAD build/obj/chdebug.o
LOAD build/obj/chlists.o
LOAD build/obj/chvt.o
LOAD build/obj/chschd.o
LOAD build/obj/chthreads.o
LOAD build/obj/chdynamic.o
LOAD build/obj/chregistry.o
LOAD build/obj/chsem.o
LOAD build/obj/chmtx.o
LOAD build/obj/chcond.o
LOAD build/obj/chevents.o
LOAD build/obj/chmsg.o
LOAD build/obj/chmboxes.o
LOAD build/obj/chqueues.o
LOAD build/obj/chmemcore.o
LOAD build/obj/chheap.o
LOAD build/obj/chmempools.o
LOAD build/obj/hal.o
LOAD build/obj/adc.o
LOAD build/obj/can.o
LOAD build/obj/ext.o
LOAD build/obj/gpt.o
LOAD build/obj/i2c.o
LOAD build/obj/icu.o
LOAD build/obj/mac.o
LOAD build/obj/mmc_spi.o
LOAD build/obj/mmcsd.o
LOAD build/obj/pal.o
LOAD build/obj/pwm.o
LOAD build/obj/rtc.o
LOAD build/obj/sdc.o
LOAD build/obj/serial.o
LOAD build/obj/serial_usb.o
LOAD build/obj/spi.o
LOAD build/obj/tm.o
LOAD build/obj/uart.o
LOAD build/obj/usb.o
LOAD build/obj/stm32_dma.o
LOAD build/obj/hal_lld.o
LOAD build/obj/adc_lld.o
LOAD build/obj/ext_lld_isr.o
LOAD build/obj/can_lld.o
LOAD build/obj/ext_lld.o
LOAD build/obj/mac_lld.o
LOAD build/obj/sdc_lld.o
LOAD build/obj/pal_lld.o
LOAD build/obj/i2c_lld.o
LOAD build/obj/usb_lld.o
LOAD build/obj/rtc_lld.o
LOAD build/obj/spi_lld.o
LOAD build/obj/gpt_lld.o
LOAD build/obj/icu_lld.o
LOAD build/obj/pwm_lld.o
LOAD build/obj/serial_lld.o
LOAD build/obj/uart_lld.o
LOAD build/obj/board.o
LOAD build/obj/chprintf.o
LOAD build/obj/shell.o
LOAD build/obj/syscalls.o
LOAD build/obj/main.o
LOAD build/obj/USB.o
                0x0000000000000400                __main_stack_size__ = 0x400
                0x0000000000000400                __process_stack_size__ = 0x400
                0x0000000020000000                __ram_start__ = ORIGIN (ram)
                0x000000000001c000                __ram_size__ = 0x1c000
                0x000000002001c000                __ram_end__ = (__ram_start__ + __ram_size__)
                0x0000000000000000                . = 0x0
                0x0000000000000000                _text = .

startup         0x0000000008000000      0x1ac
 *(vectors)
 vectors        0x0000000008000000      0x1ac build/obj/vectors.o
                0x0000000008000000                _vectors

constructors    0x00000000080001ac        0x0
                0x00000000080001ac                PROVIDE (__init_array_start, .)
 *(SORT(.init_array.*))
 *(.init_array)
                0x00000000080001ac                PROVIDE (__init_array_end, .)

destructors     0x00000000080001ac        0x0
                0x00000000080001ac                PROVIDE (__fini_array_start, .)
 *(.fini_array)
 *(SORT(.fini_array.*))
                0x00000000080001ac                PROVIDE (__fini_array_end, .)

.text           0x00000000080001b0     0x4734
 *(.text.startup.*)
 .text.startup.main
                0x00000000080001b0       0x60 build/obj/main.o
                0x00000000080001b0                main
 *(.text)
 .text          0x0000000008000210      0x370 /usr/bin/../lib/gcc/arm-none-eabi/4.8.4/armv7e-m/libgcc.a(_arm_addsubdf3.o)
                0x0000000008000210                __aeabi_drsub
                0x0000000008000218                __aeabi_dsub
                0x0000000008000218                __subdf3
                0x000000000800021c                __adddf3
                0x000000000800021c                __aeabi_dadd
                0x0000000008000494                __aeabi_ui2d
                0x0000000008000494                __floatunsidf
                0x00000000080004b4                __floatsidf
                0x00000000080004b4                __aeabi_i2d
                0x00000000080004d8                __extendsfdf2
                0x00000000080004d8                __aeabi_f2d
                0x0000000008000514                __aeabi_ul2d
                0x0000000008000514                __floatundidf
                0x0000000008000524                __floatdidf
                0x0000000008000524                __aeabi_l2d
 .text          0x0000000008000580      0x424 /usr/bin/../lib/gcc/arm-none-eabi/4.8.4/armv7e-m/libgcc.a(_arm_muldivdf3.o)
                0x0000000008000580                __aeabi_dmul
                0x0000000008000580                __muldf3
                0x00000000080007d4                __aeabi_ddiv
                0x00000000080007d4                __divdf3
 *fill*         0x00000000080009a4        0xc 
 .text          0x00000000080009b0       0x50 /usr/bin/../lib/gcc/arm-none-eabi/4.8.4/armv7e-m/libgcc.a(_arm_fixdfsi.o)
                0x00000000080009b0                __fixdfsi
                0x00000000080009b0                __aeabi_d2iz
 .text          0x0000000008000a00       0xa0 /usr/bin/../lib/gcc/arm-none-eabi/4.8.4/armv7e-m/libgcc.a(_arm_truncdfsf2.o)
                0x0000000008000a00                __aeabi_d2f
                0x0000000008000a00                __truncdfsf2
 .text          0x0000000008000aa0       0xec /usr/bin/../lib/gcc/arm-none-eabi/4.8.4/armv7e-m/libgcc.a(_arm_cmpsf2.o)
                0x0000000008000aa0                __gtsf2
                0x0000000008000aa0                __gesf2
                0x0000000008000aa8                __lesf2
                0x0000000008000aa8                __ltsf2
                0x0000000008000ab0                __nesf2
                0x0000000008000ab0                __eqsf2
                0x0000000008000ab0                __cmpsf2
                0x0000000008000b10                __aeabi_cfrcmple
                0x0000000008000b18                __aeabi_cfcmple
                0x0000000008000b18                __aeabi_cfcmpeq
                0x0000000008000b28                __aeabi_fcmpeq
                0x0000000008000b3c                __aeabi_fcmplt
                0x0000000008000b50                __aeabi_fcmple
                0x0000000008000b64                __aeabi_fcmpge
                0x0000000008000b78                __aeabi_fcmpgt
 *fill*         0x0000000008000b8c        0x4 
 .text          0x0000000008000b90       0x4c /usr/bin/../lib/gcc/arm-none-eabi/4.8.4/armv7e-m/libgcc.a(_arm_fixsfsi.o)
                0x0000000008000b90                __fixsfsi
                0x0000000008000b90                __aeabi_f2iz
 *(.text.*)
 *fill*         0x0000000008000bdc        0x4 
 .text.__late_init
                0x0000000008000be0       0x10 build/obj/crt0.o
                0x0000000008000be0                __late_init
 .text._default_exit
                0x0000000008000bf0       0x10 build/obj/crt0.o
                0x0000000008000bf0                _default_exit
 .text.ResetHandler
                0x0000000008000c00      0x100 build/obj/crt0.o
                0x0000000008000c00                ResetHandler
 .text._unhandled_exception
                0x0000000008000d00       0x10 build/obj/vectors.o
                0x0000000008000d00                Vector58
                0x0000000008000d00                VectorE8
                0x0000000008000d00                Vector9C
                0x0000000008000d00                VectorAC
                0x0000000008000d00                Vector1A0
                0x0000000008000d00                Vector5C
                0x0000000008000d00                NMIVector
                0x0000000008000d00                Vector11C
                0x0000000008000d00                Vector19C
                0x0000000008000d00                Vector8C
                0x0000000008000d00                VectorDC
                0x0000000008000d00                Vector168
                0x0000000008000d00                Vector110
                0x0000000008000d00                Vector120
                0x0000000008000d00                VectorC8
                0x0000000008000d00                Vector94
                0x0000000008000d00                VectorA8
                0x0000000008000d00                VectorB4
                0x0000000008000d00                Vector74
                0x0000000008000d00                Vector160
                0x0000000008000d00                VectorEC
                0x0000000008000d00                UsageFaultVector
                0x0000000008000d00                DebugMonitorVector
                0x0000000008000d00                Vector40
                0x0000000008000d00                VectorF8
                0x0000000008000d00                Vector108
                0x0000000008000d00                VectorBC
                0x0000000008000d00                Vector190
                0x0000000008000d00                Vector150
                0x0000000008000d00                Vector124
                0x0000000008000d00                Vector148
                0x0000000008000d00                Vector188
                0x0000000008000d00                PendSVVector
                0x0000000008000d00                Vector198
                0x0000000008000d00                Vector118
                0x0000000008000d00                Vector64
                0x0000000008000d00                VectorCC
                0x0000000008000d00                Vector54
                0x0000000008000d00                Vector98
                0x0000000008000d00                VectorD8
                0x0000000008000d00                Vector138
                0x0000000008000d00                Vector24
                0x0000000008000d00                Vector178
                0x0000000008000d00                Vector84
                0x0000000008000d00                Vector1A4
                0x0000000008000d00                BusFaultVector
                0x0000000008000d00                VectorD0
                0x0000000008000d00                Vector140
                0x0000000008000d00                VectorE4
                0x0000000008000d00                VectorC0
                0x0000000008000d00                Vector158
                0x0000000008000d00                Vector130
                0x0000000008000d00                HardFaultVector
                0x0000000008000d00                Vector134
                0x0000000008000d00                VectorF0
                0x0000000008000d00                Vector12C
                0x0000000008000d00                Vector13C
                0x0000000008000d00                Vector100
                0x0000000008000d00                VectorE0
                0x0000000008000d00                VectorF4
                0x0000000008000d00                MemManageVector
                0x0000000008000d00                Vector6C
                0x0000000008000d00                VectorA0
                0x0000000008000d00                VectorC4
                0x0000000008000d00                Vector7C
                0x0000000008000d00                Vector180
                0x0000000008000d00                VectorB0
                0x0000000008000d00                Vector90
                0x0000000008000d00                Vector114
                0x0000000008000d00                Vector164
                0x0000000008000d00                Vector60
                0x0000000008000d00                Vector1C
                0x0000000008000d00                Vector17C
                0x0000000008000d00                Vector48
                0x0000000008000d00                Vector1A8
                0x0000000008000d00                Vector16C
                0x0000000008000d00                Vector70
                0x0000000008000d00                VectorD4
                0x0000000008000d00                Vector4C
                0x0000000008000d00                Vector144
                0x0000000008000d00                Vector80
                0x0000000008000d00                Vector15C
                0x0000000008000d00                Vector68
                0x0000000008000d00                Vector78
                0x0000000008000d00                _unhandled_exception
                0x0000000008000d00                Vector170
                0x0000000008000d00                Vector88
                0x0000000008000d00                Vector104
                0x0000000008000d00                Vector184
                0x0000000008000d00                Vector10C
                0x0000000008000d00                Vector50
                0x0000000008000d00                Vector194
                0x0000000008000d00                Vector154
                0x0000000008000d00                Vector44
                0x0000000008000d00                Vector28
                0x0000000008000d00                VectorB8
                0x0000000008000d00                VectorFC
                0x0000000008000d00                Vector34
                0x0000000008000d00                Vector128
                0x0000000008000d00                VectorA4
                0x0000000008000d00                Vector20
                0x0000000008000d00                Vector18C
                0x0000000008000d00                Vector174
 .text._port_switch_from_isr
                0x0000000008000d10       0x10 build/obj/chcore_v7m.o
                0x0000000008000d10                _port_switch_from_isr
 .text.SVCallVector
                0x0000000008000d20       0x20 build/obj/chcore_v7m.o
                0x0000000008000d20                SVCallVector
 .text._port_init
                0x0000000008000d40       0x30 build/obj/chcore_v7m.o
                0x0000000008000d40                _port_init
 .text._port_irq_epilogue
                0x0000000008000d70       0x70 build/obj/chcore_v7m.o
                0x0000000008000d70                _port_irq_epilogue
 .text.SysTickVector
                0x0000000008000de0       0x20 build/obj/chcore_v7m.o
                0x0000000008000de0                SysTickVector
 .text._port_switch
                0x0000000008000e00       0x10 build/obj/chcore_v7m.o
                0x0000000008000e00                _port_switch
 .text._port_thread_start
                0x0000000008000e10       0x10 build/obj/chcore_v7m.o
                0x0000000008000e10                _port_thread_start
 .text.nvicEnableVector
                0x0000000008000e20       0x50 build/obj/nvic.o
                0x0000000008000e20                nvicEnableVector
 .text.nvicSetSystemHandlerPriority
                0x0000000008000e70       0x30 build/obj/nvic.o
                0x0000000008000e70                nvicSetSystemHandlerPriority
 .text._idle_thread
                0x0000000008000ea0       0x20 build/obj/chsys.o
                0x0000000008000ea0                _idle_thread
 .text.chSysInit
                0x0000000008000ec0       0x60 build/obj/chsys.o
                0x0000000008000ec0                chSysInit
 .text.chSysTimerHandlerI
                0x0000000008000f20       0x60 build/obj/chsys.o
                0x0000000008000f20                chSysTimerHandlerI
 .text._vt_init
                0x0000000008000f80       0x20 build/obj/chvt.o
                0x0000000008000f80                _vt_init
 .text.chVTSetI
                0x0000000008000fa0       0x40 build/obj/chvt.o
                0x0000000008000fa0                chVTSetI
 .text.chVTResetI
                0x0000000008000fe0       0x30 build/obj/chvt.o
                0x0000000008000fe0                chVTResetI
 .text.wakeup   0x0000000008001010       0x70 build/obj/chschd.o
 .text._scheduler_init
                0x0000000008001080       0x20 build/obj/chschd.o
                0x0000000008001080                _scheduler_init
 .text.chSchReadyI
                0x00000000080010a0       0x30 build/obj/chschd.o
                0x00000000080010a0                chSchReadyI
 .text.chSchGoSleepS
                0x00000000080010d0       0x30 build/obj/chschd.o
                0x00000000080010d0                chSchGoSleepS
 .text.chSchGoSleepTimeoutS
                0x0000000008001100       0x50 build/obj/chschd.o
                0x0000000008001100                chSchGoSleepTimeoutS
 .text.chSchWakeupS
                0x0000000008001150       0x60 build/obj/chschd.o
                0x0000000008001150                chSchWakeupS
 .text.chSchDoRescheduleBehind
                0x00000000080011b0       0x40 build/obj/chschd.o
                0x00000000080011b0                chSchDoRescheduleBehind
 .text.chSchDoRescheduleAhead
                0x00000000080011f0       0x40 build/obj/chschd.o
                0x00000000080011f0                chSchDoRescheduleAhead
 .text.chSchRescheduleS
                0x0000000008001230       0x20 build/obj/chschd.o
                0x0000000008001230                chSchRescheduleS
 .text.chSchDoReschedule
                0x0000000008001250       0x20 build/obj/chschd.o
                0x0000000008001250                chSchDoReschedule
 .text._thread_init
                0x0000000008001270       0x50 build/obj/chthreads.o
                0x0000000008001270                _thread_init
 .text.chThdCreateI
                0x00000000080012c0       0x70 build/obj/chthreads.o
                0x00000000080012c0                chThdCreateI
 .text.chThdCreateStatic
                0x0000000008001330       0x90 build/obj/chthreads.o
                0x0000000008001330                chThdCreateStatic
 .text.chThdSleep
                0x00000000080013c0       0x20 build/obj/chthreads.o
                0x00000000080013c0                chThdSleep
 .text.chThdExitS
                0x00000000080013e0       0x40 build/obj/chthreads.o
                0x00000000080013e0                chThdExitS
 .text.chThdExit
                0x0000000008001420       0x10 build/obj/chthreads.o
                0x0000000008001420                chThdExit
 .text.chThdRelease
                0x0000000008001430       0x50 build/obj/chdynamic.o
                0x0000000008001430                chThdRelease
 .text.chThdCreateFromHeap
                0x0000000008001480       0x40 build/obj/chdynamic.o
                0x0000000008001480                chThdCreateFromHeap
 .text.chRegFirstThread
                0x00000000080014c0       0x20 build/obj/chregistry.o
                0x00000000080014c0                chRegFirstThread
 .text.chRegNextThread
                0x00000000080014e0       0x30 build/obj/chregistry.o
                0x00000000080014e0                chRegNextThread
 .text.chMtxInit
                0x0000000008001510       0x10 build/obj/chmtx.o
                0x0000000008001510                chMtxInit
 .text.chMtxLockS
                0x0000000008001520       0xd0 build/obj/chmtx.o
                0x0000000008001520                chMtxLockS
 .text.chMtxLock
                0x00000000080015f0       0x20 build/obj/chmtx.o
                0x00000000080015f0                chMtxLock
 .text.chMtxUnlock
                0x0000000008001610       0x70 build/obj/chmtx.o
                0x0000000008001610                chMtxUnlock
 .text.chEvtSignalI
                0x0000000008001680       0x30 build/obj/chevents.o
                0x0000000008001680                chEvtSignalI
 .text.chEvtBroadcastFlagsI
                0x00000000080016b0       0x20 build/obj/chevents.o
                0x00000000080016b0                chEvtBroadcastFlagsI
 .text.qwait    0x00000000080016d0       0x30 build/obj/chqueues.o
 .text.chIQInit
                0x0000000008001700       0x20 build/obj/chqueues.o
                0x0000000008001700                chIQInit
 .text.chIQResetI
                0x0000000008001720       0x30 build/obj/chqueues.o
                0x0000000008001720                chIQResetI
 .text.chIQGetTimeout
                0x0000000008001750       0x50 build/obj/chqueues.o
                0x0000000008001750                chIQGetTimeout
 .text.chIQReadTimeout
                0x00000000080017a0       0x80 build/obj/chqueues.o
                0x00000000080017a0                chIQReadTimeout
 .text.chOQInit
                0x0000000008001820       0x20 build/obj/chqueues.o
                0x0000000008001820                chOQInit
 .text.chOQResetI
                0x0000000008001840       0x30 build/obj/chqueues.o
                0x0000000008001840                chOQResetI
 .text.chOQPutTimeout
                0x0000000008001870       0x60 build/obj/chqueues.o
                0x0000000008001870                chOQPutTimeout
 .text.chOQWriteTimeout
                0x00000000080018d0       0x80 build/obj/chqueues.o
                0x00000000080018d0                chOQWriteTimeout
 .text._core_init
                0x0000000008001950       0x30 build/obj/chmemcore.o
                0x0000000008001950                _core_init
 .text.chCoreAlloc
                0x0000000008001980       0x40 build/obj/chmemcore.o
                0x0000000008001980                chCoreAlloc
 .text.chCoreStatus
                0x00000000080019c0       0x20 build/obj/chmemcore.o
                0x00000000080019c0                chCoreStatus
 .text._heap_init
                0x00000000080019e0       0x20 build/obj/chheap.o
                0x00000000080019e0                _heap_init
 .text.chHeapAlloc
                0x0000000008001a00       0x80 build/obj/chheap.o
                0x0000000008001a00                chHeapAlloc
 .text.chHeapFree
                0x0000000008001a80       0xa0 build/obj/chheap.o
                0x0000000008001a80                chHeapFree
 .text.chHeapStatus
                0x0000000008001b20       0x40 build/obj/chheap.o
                0x0000000008001b20                chHeapStatus
 .text.chPoolFree
                0x0000000008001b60       0x20 build/obj/chmempools.o
                0x0000000008001b60                chPoolFree
 .text.halInit  0x0000000008001b80       0x30 build/obj/hal.o
                0x0000000008001b80                halInit
 .text.halPolledDelay
                0x0000000008001bb0       0x40 build/obj/hal.o
                0x0000000008001bb0                halPolledDelay
 .text.onotify  0x0000000008001bf0       0x60 build/obj/serial_usb.o
 .text.inotify  0x0000000008001c50       0x70 build/obj/serial_usb.o
 .text.readt    0x0000000008001cc0       0x10 build/obj/serial_usb.o
 .text.read     0x0000000008001cd0       0x10 build/obj/serial_usb.o
 .text.writet   0x0000000008001ce0       0x10 build/obj/serial_usb.o
 .text.write    0x0000000008001cf0       0x10 build/obj/serial_usb.o
 .text.gett     0x0000000008001d00       0x10 build/obj/serial_usb.o
 .text.get      0x0000000008001d10       0x10 build/obj/serial_usb.o
 .text.putt     0x0000000008001d20       0x10 build/obj/serial_usb.o
 .text.put      0x0000000008001d30       0x10 build/obj/serial_usb.o
 .text.sduInit  0x0000000008001d40       0x10 build/obj/serial_usb.o
                0x0000000008001d40                sduInit
 .text.sduObjectInit
                0x0000000008001d50       0x50 build/obj/serial_usb.o
                0x0000000008001d50                sduObjectInit
 .text.sduStart
                0x0000000008001da0       0x40 build/obj/serial_usb.o
                0x0000000008001da0                sduStart
 .text.sduConfigureHookI
                0x0000000008001de0       0x50 build/obj/serial_usb.o
                0x0000000008001de0                sduConfigureHookI
 .text.sduRequestsHook
                0x0000000008001e30       0x40 build/obj/serial_usb.o
                0x0000000008001e30                sduRequestsHook
 .text.sduDataTransmitted
                0x0000000008001e70       0x80 build/obj/serial_usb.o
                0x0000000008001e70                sduDataTransmitted
 .text.sduDataReceived
                0x0000000008001ef0       0x70 build/obj/serial_usb.o
                0x0000000008001ef0                sduDataReceived
 .text.sduInterruptTransmitted
                0x0000000008001f60       0x10 build/obj/serial_usb.o
                0x0000000008001f60                sduInterruptTransmitted
 .text.tm_start
                0x0000000008001f70       0x10 build/obj/tm.o
 .text.tm_stop  0x0000000008001f80       0x40 build/obj/tm.o
 .text.tmInit   0x0000000008001fc0       0x40 build/obj/tm.o
                0x0000000008001fc0                tmInit
 .text.usbInit  0x0000000008002000       0x10 build/obj/usb.o
                0x0000000008002000                usbInit
 .text.usbObjectInit
                0x0000000008002010       0x20 build/obj/usb.o
                0x0000000008002010                usbObjectInit
 .text.usbStart
                0x0000000008002030       0x30 build/obj/usb.o
                0x0000000008002030                usbStart
 .text.usbInitEndpointI
                0x0000000008002060       0x40 build/obj/usb.o
                0x0000000008002060                usbInitEndpointI
 .text.usbPrepareQueuedReceive
                0x00000000080020a0       0x20 build/obj/usb.o
                0x00000000080020a0                usbPrepareQueuedReceive
 .text.usbPrepareQueuedTransmit
                0x00000000080020c0       0x20 build/obj/usb.o
                0x00000000080020c0                usbPrepareQueuedTransmit
 .text.usbStartReceiveI
                0x00000000080020e0       0x30 build/obj/usb.o
                0x00000000080020e0                usbStartReceiveI
 .text.usbStartTransmitI
                0x0000000008002110       0x30 build/obj/usb.o
                0x0000000008002110                usbStartTransmitI
 .text._usb_reset
                0x0000000008002140       0x30 build/obj/usb.o
                0x0000000008002140                _usb_reset
 .text._usb_ep0setup
                0x0000000008002170      0x360 build/obj/usb.o
                0x0000000008002170                _usb_ep0setup
 .text._usb_ep0in
                0x00000000080024d0       0xd0 build/obj/usb.o
                0x00000000080024d0                _usb_ep0in
 .text._usb_ep0out
                0x00000000080025a0       0x80 build/obj/usb.o
                0x00000000080025a0                _usb_ep0out
 .text.hal_lld_init
                0x0000000008002620       0xa0 build/obj/hal_lld.o
                0x0000000008002620                hal_lld_init
 .text.stm32_clock_init
                0x00000000080026c0       0xd0 build/obj/hal_lld.o
                0x00000000080026c0                stm32_clock_init
 .text._pal_lld_init
                0x0000000008002790      0x1c0 build/obj/pal_lld.o
                0x0000000008002790                _pal_lld_init
 .text.usb_lld_pump
                0x0000000008002950      0x360 build/obj/usb_lld.o
 .text.otg_disable_ep.isra.0
                0x0000000008002cb0       0x80 build/obj/usb_lld.o
 .text.usb_lld_init
                0x0000000008002d30       0x30 build/obj/usb_lld.o
                0x0000000008002d30                usb_lld_init
 .text.usb_lld_start
                0x0000000008002d60       0xe0 build/obj/usb_lld.o
                0x0000000008002d60                usb_lld_start
 .text.usb_lld_reset
                0x0000000008002e40       0xc0 build/obj/usb_lld.o
                0x0000000008002e40                usb_lld_reset
 .text.usb_lld_set_address
                0x0000000008002f00       0x20 build/obj/usb_lld.o
                0x0000000008002f00                usb_lld_set_address
 .text.usb_lld_init_endpoint
                0x0000000008002f20      0x170 build/obj/usb_lld.o
                0x0000000008002f20                usb_lld_init_endpoint
 .text.usb_lld_get_status_out
                0x0000000008003090       0x20 build/obj/usb_lld.o
                0x0000000008003090                usb_lld_get_status_out
 .text.usb_lld_get_status_in
                0x00000000080030b0       0x20 build/obj/usb_lld.o
                0x00000000080030b0                usb_lld_get_status_in
 .text.usb_lld_read_setup
                0x00000000080030d0       0x20 build/obj/usb_lld.o
                0x00000000080030d0                usb_lld_read_setup
 .text.usb_lld_prepare_receive
                0x00000000080030f0       0x50 build/obj/usb_lld.o
                0x00000000080030f0                usb_lld_prepare_receive
 .text.otg_epout_handler
                0x0000000008003140       0x90 build/obj/usb_lld.o
 .text.usb_lld_prepare_transmit
                0x00000000080031d0       0x50 build/obj/usb_lld.o
                0x00000000080031d0                usb_lld_prepare_transmit
 .text.otg_epin_handler
                0x0000000008003220       0xd0 build/obj/usb_lld.o
 .text.Vector14C
                0x00000000080032f0      0x110 build/obj/usb_lld.o
                0x00000000080032f0                Vector14C
 .text.usb_lld_start_out
                0x0000000008003400       0x20 build/obj/usb_lld.o
                0x0000000008003400                usb_lld_start_out
 .text.usb_lld_start_in
                0x0000000008003420       0x30 build/obj/usb_lld.o
                0x0000000008003420                usb_lld_start_in
 .text.usb_lld_stall_out
                0x0000000008003450       0x20 build/obj/usb_lld.o
                0x0000000008003450                usb_lld_stall_out
 .text.usb_lld_stall_in
                0x0000000008003470       0x20 build/obj/usb_lld.o
                0x0000000008003470                usb_lld_stall_in
 .text.usb_lld_clear_out
                0x0000000008003490       0x20 build/obj/usb_lld.o
                0x0000000008003490                usb_lld_clear_out
 .text.usb_lld_clear_in
                0x00000000080034b0       0x20 build/obj/usb_lld.o
                0x00000000080034b0                usb_lld_clear_in
 .text.__early_init
                0x00000000080034d0       0x10 build/obj/board.o
                0x00000000080034d0                __early_init
 .text.boardInit
                0x00000000080034e0       0x10 build/obj/board.o
                0x00000000080034e0                boardInit
 .text.long_to_string_with_divisor
                0x00000000080034f0       0x50 build/obj/chprintf.o
 .text.chvprintf
                0x0000000008003540      0x350 build/obj/chprintf.o
                0x0000000008003540                chvprintf
 .text.chprintf
                0x0000000008003890       0x20 build/obj/shell.o
 .text.cmd_systime
                0x00000000080038b0       0x30 build/obj/shell.o
 .text.cmd_info
                0x00000000080038e0       0xc0 build/obj/shell.o
 .text._strtok.constprop.2
                0x00000000080039a0       0x40 build/obj/shell.o
 .text.shellInit
                0x00000000080039e0       0x10 build/obj/shell.o
                0x00000000080039e0                shellInit
 .text.shellExit
                0x00000000080039f0       0x20 build/obj/shell.o
                0x00000000080039f0                shellExit
 .text.shellCreate
                0x0000000008003a10       0x20 build/obj/shell.o
                0x0000000008003a10                shellCreate
 .text.shellGetLine
                0x0000000008003a30       0xa0 build/obj/shell.o
                0x0000000008003a30                shellGetLine
 .text.shell_thread
                0x0000000008003ad0      0x1a0 build/obj/shell.o
 .text.chprintf
                0x0000000008003c70       0x20 build/obj/main.o
 .text.cmd_threads
                0x0000000008003c90       0x80 build/obj/main.o
 .text.cmd_mem  0x0000000008003d10       0x60 build/obj/main.o
 .text.get_descriptor
                0x0000000008003d70       0x40 build/obj/USB.o
 .text.usb_event
                0x0000000008003db0       0x40 build/obj/USB.o
 .text.USBinit  0x0000000008003df0       0x50 build/obj/USB.o
                0x0000000008003df0                USBinit
 .text.memset   0x0000000008003e40       0x94 /usr/bin/../lib/gcc/arm-none-eabi/4.8.4/../../../../arm-none-eabi/lib/armv7e-m/libg.a(lib_a-memset.o)
                0x0000000008003e40                memset
 *fill*         0x0000000008003ed4        0xc 
 .text.strcasecmp
                0x0000000008003ee0       0x44 /usr/bin/../lib/gcc/arm-none-eabi/4.8.4/../../../../arm-none-eabi/lib/armv7e-m/libg.a(lib_a-strcasecmp.o)
                0x0000000008003ee0                strcasecmp
 *fill*         0x0000000008003f24        0xc 
 .text.strpbrk  0x0000000008003f30       0x50 /usr/bin/../lib/gcc/arm-none-eabi/4.8.4/../../../../arm-none-eabi/lib/armv7e-m/libg.a(lib_a-strpbrk.o)
                0x0000000008003f30                strpbrk
 .text.strspn   0x0000000008003f80       0x40 /usr/bin/../lib/gcc/arm-none-eabi/4.8.4/../../../../arm-none-eabi/lib/armv7e-m/libg.a(lib_a-strspn.o)
                0x0000000008003f80                strspn
 *(.rodata)
 *(.rodata.*)
 .rodata.str1.4
                0x0000000008003fc0        0x5 build/obj/chsys.o
                                          0x8 (size before relaxing)
 *fill*         0x0000000008003fc5        0xb 
 .rodata.ch_debug
                0x0000000008003fd0       0x18 build/obj/chregistry.o
                0x0000000008003fd0                ch_debug
 *fill*         0x0000000008003fe8        0x8 
 .rodata.vmt    0x0000000008003ff0       0x20 build/obj/serial_usb.o
 .rodata.zero_status
                0x0000000008004010        0x4 build/obj/usb.o
 *fill*         0x0000000008004014        0xc 
 .rodata.active_status
                0x0000000008004020        0x4 build/obj/usb.o
 *fill*         0x0000000008004024        0xc 
 .rodata.halted_status
                0x0000000008004030        0x4 build/obj/usb.o
 *fill*         0x0000000008004034        0xc 
 .rodata.fsparams
                0x0000000008004040        0xc build/obj/usb_lld.o
 *fill*         0x000000000800404c        0x4 
 .rodata.str1.4
                0x0000000008004050        0xd build/obj/usb_lld.o
                                         0x10 (size before relaxing)
 *fill*         0x000000000800405d        0x3 
 .rodata.ep0config
                0x0000000008004060       0x24 build/obj/usb_lld.o
 *fill*         0x0000000008004084        0xc 
 .rodata.pal_default_config
                0x0000000008004090       0xfc build/obj/board.o
                0x0000000008004090                pal_default_config
 *fill*         0x000000000800418c        0x4 
 .rodata.str1.4
                0x0000000008004190        0x7 build/obj/chprintf.o
                                          0x8 (size before relaxing)
 *fill*         0x0000000008004197        0x9 
 .rodata.str1.4
                0x00000000080041a0      0x249 build/obj/shell.o
                                        0x250 (size before relaxing)
 *fill*         0x00000000080043e9        0x7 
 .rodata.commands
                0x00000000080043f0       0x18 build/obj/main.o
 *fill*         0x0000000008004408        0x8 
 .rodata.states.8342
                0x0000000008004410       0x3c build/obj/main.o
 *fill*         0x000000000800444c        0x4 
 .rodata.str1.4
                0x0000000008004450      0x1b4 build/obj/main.o
 *fill*         0x0000000008004604        0xc 
 .rodata.shell_cfg1
                0x0000000008004610        0x8 build/obj/main.o
 *fill*         0x0000000008004618        0x8 
 .rodata.ep1config
                0x0000000008004620       0x24 build/obj/USB.o
 *fill*         0x0000000008004644        0xc 
 .rodata.vcom_configuration_descriptor
                0x0000000008004650        0x8 build/obj/USB.o
 *fill*         0x0000000008004658        0x8 
 .rodata.ep2config
                0x0000000008004660       0x24 build/obj/USB.o
 *fill*         0x0000000008004684        0xc 
 .rodata.usbcfg
                0x0000000008004690       0x10 build/obj/USB.o
                0x0000000008004690                usbcfg
 .rodata.vcom_configuration_descriptor_data
                0x00000000080046a0       0x44 build/obj/USB.o
 *fill*         0x00000000080046e4        0xc 
 .rodata.vcom_device_descriptor_data
                0x00000000080046f0       0x14 build/obj/USB.o
 *fill*         0x0000000008004704        0xc 
 .rodata.vcom_string0
                0x0000000008004710        0x4 build/obj/USB.o
 *fill*         0x0000000008004714        0xc 
 .rodata.vcom_string1
                0x0000000008004720       0x28 build/obj/USB.o
 *fill*         0x0000000008004748        0x8 
 .rodata.vcom_string2
                0x0000000008004750       0x38 build/obj/USB.o
 *fill*         0x0000000008004788        0x8 
 .rodata.vcom_string3
                0x0000000008004790        0x8 build/obj/USB.o
 *fill*         0x0000000008004798        0x8 
 .rodata.vcom_strings
                0x00000000080047a0       0x20 build/obj/USB.o
 .rodata.serusbcfg
                0x00000000080047c0        0x8 build/obj/USB.o
                0x00000000080047c0                serusbcfg
 *fill*         0x00000000080047c8        0x8 
 .rodata.vcom_device_descriptor
                0x00000000080047d0        0x8 build/obj/USB.o
 *fill*         0x00000000080047d8        0x8 
 .rodata._ctype_
                0x00000000080047e0      0x104 /usr/bin/../lib/gcc/arm-none-eabi/4.8.4/../../../../arm-none-eabi/lib/armv7e-m/libg.a(lib_a-ctype_.o)
                0x00000000080047e0                _ctype_
 *(.glue_7t)
 .glue_7t       0x0000000000000000        0x0 linker stubs
 *(.glue_7)
 .glue_7        0x0000000000000000        0x0 linker stubs
 *(.gcc*)

.vfp11_veneer   0x00000000080048e4        0x0
 .vfp11_veneer  0x0000000000000000        0x0 linker stubs

.v4_bx          0x00000000080048e4        0x0
 .v4_bx         0x0000000000000000        0x0 linker stubs

.iplt           0x00000000080048e4        0x0
 .iplt          0x0000000000000000        0x0 build/obj/crt0.o

.rel.dyn        0x00000000080048e4        0x0
 .rel.iplt      0x0000000000000000        0x0 build/obj/crt0.o

.ARM.extab
 *(.ARM.extab* .gnu.linkonce.armextab.*)

.ARM.exidx      0x00000000080048e4        0x0
                0x00000000080048e4                PROVIDE (__exidx_start, .)
 *(.ARM.exidx* .gnu.linkonce.armexidx.*)
                0x00000000080048e4                PROVIDE (__exidx_end, .)

.eh_frame_hdr
 *(.eh_frame_hdr)

.eh_frame
 *(.eh_frame)

.textalign      0x00000000080048e4        0x4
                0x00000000080048e8                . = ALIGN (0x8)
 *fill*         0x00000000080048e4        0x4 
                0x00000000080048e8                . = ALIGN (0x4)
                0x00000000080048e8                _etext = .
                0x00000000080048e8                _textdata = _etext

.stacks         0x0000000020000000      0x800
                0x0000000020000000                . = ALIGN (0x8)
                0x0000000020000000                __main_stack_base__ = .
                0x0000000020000400                . = (. + __main_stack_size__)
 *fill*         0x0000000020000000      0x400 
                0x0000000020000400                . = ALIGN (0x8)
                0x0000000020000400                __main_stack_end__ = .
                0x0000000020000400                __process_stack_base__ = .
                0x0000000020000400                __main_thread_stack_base__ = .
                0x0000000020000800                . = (. + __process_stack_size__)
 *fill*         0x0000000020000400      0x400 
                0x0000000020000800                . = ALIGN (0x8)
                0x0000000020000800                __process_stack_end__ = .
                0x0000000020000800                __main_thread_stack_end__ = .

.data           0x0000000020000800       0x24 load address 0x00000000080048e8
                0x0000000020000800                . = ALIGN (0x4)
                0x0000000020000800                PROVIDE (_data, .)
 *(.data)
 *(.data.*)
 .data.linecoding
                0x0000000020000800        0x8 build/obj/serial_usb.o
 .data.local_commands
                0x0000000020000808       0x18 build/obj/shell.o
 .data.__ctype_ptr__
                0x0000000020000820        0x4 /usr/bin/../lib/gcc/arm-none-eabi/4.8.4/../../../../arm-none-eabi/lib/armv7e-m/libg.a(lib_a-ctype_.o)
                0x0000000020000820                __ctype_ptr__
 *(.ramtext)
                0x0000000020000824                . = ALIGN (0x4)
                0x0000000020000824                PROVIDE (_edata, .)

.igot.plt       0x0000000020000824        0x0 load address 0x000000000800490c
 .igot.plt      0x0000000000000000        0x0 build/obj/crt0.o

.bss            0x0000000020000824      0x5fc
                0x0000000020000824                . = ALIGN (0x4)
                0x0000000020000824                PROVIDE (_bss_start, .)
 *(.bss)
 *(.bss.*)
 .bss.mainthread.4797
                0x0000000020000824       0x48 build/obj/chsys.o
 *fill*         0x000000002000086c        0x4 
 .bss._idle_thread_wa
                0x0000000020000870       0xe0 build/obj/chsys.o
                0x0000000020000870                _idle_thread_wa
 .bss.vtlist    0x0000000020000950       0x10 build/obj/chvt.o
                0x0000000020000950                vtlist
 .bss.rlist     0x0000000020000960       0x1c build/obj/chschd.o
                0x0000000020000960                rlist
 .bss.endmem    0x000000002000097c        0x4 build/obj/chmemcore.o
 .bss.nextmem   0x0000000020000980        0x4 build/obj/chmemcore.o
 *fill*         0x0000000020000984        0x4 
 .bss.default_heap
                0x0000000020000988       0x20 build/obj/chheap.o
 .bss.measurement_offset
                0x00000000200009a8        0x4 build/obj/tm.o
 *fill*         0x00000000200009ac        0x4 
 .bss.USBD1     0x00000000200009b0      0x1b8 build/obj/usb_lld.o
                0x00000000200009b0                USBD1
 .bss.ep0_state
                0x0000000020000b68       0x14 build/obj/usb_lld.o
 .bss.ep0setup_buffer
                0x0000000020000b7c        0x8 build/obj/usb_lld.o
 .bss.shell_terminated
                0x0000000020000b84        0x4 build/obj/shell.o
                0x0000000020000b84                shell_terminated
 .bss.shelltp.8351
                0x0000000020000b88        0x4 build/obj/main.o
 .bss.ep2instate
                0x0000000020000b8c       0x14 build/obj/USB.o
 .bss.SDU1      0x0000000020000ba0      0x258 build/obj/USB.o
                0x0000000020000ba0                SDU1
 .bss.ep1instate
                0x0000000020000df8       0x14 build/obj/USB.o
 .bss.ep1outstate
                0x0000000020000e0c       0x14 build/obj/USB.o
 *(COMMON)
                0x0000000020000e20                . = ALIGN (0x4)
                0x0000000020000e20                PROVIDE (_bss_end, .)
                0x0000000020000e20                PROVIDE (end, .)
                0x0000000020000e20                _end = .
                0x0000000020000e20                __heap_base__ = _end
                0x000000002001c000                __heap_end__ = __ram_end__
LOAD /usr/bin/../lib/gcc/arm-none-eabi/4.8.4/../../../../arm-none-eabi/lib/armv7e-m/libm.a
START GROUP
LOAD /usr/bin/../lib/gcc/arm-none-eabi/4.8.4/armv7e-m/libgcc.a
LOAD /usr/bin/../lib/gcc/arm-none-eabi/4.8.4/../../../../arm-none-eabi/lib/armv7e-m/libg.a
LOAD /usr/bin/../lib/gcc/arm-none-eabi/4.8.4/../../../../arm-none-eabi/lib/armv7e-m/libc.a
END GROUP
OUTPUT(build/rtos-shell.elf elf32-littlearm)

.debug_info     0x0000000000000000    0x13316
 .debug_info    0x0000000000000000      0x2b7 build/obj/crt0.o
 .debug_info    0x00000000000002b7      0x1cd build/obj/vectors.o
 .debug_info    0x0000000000000484      0x7f2 build/obj/chcore_v7m.o
 .debug_info    0x0000000000000c76      0x406 build/obj/nvic.o
 .debug_info    0x000000000000107c      0x827 build/obj/chsys.o
 .debug_info    0x00000000000018a3      0x203 build/obj/chvt.o
 .debug_info    0x0000000000001aa6      0x974 build/obj/chschd.o
 .debug_info    0x000000000000241a      0xbf2 build/obj/chthreads.o
 .debug_info    0x000000000000300c      0x88c build/obj/chdynamic.o
 .debug_info    0x0000000000003898      0x629 build/obj/chregistry.o
 .debug_info    0x0000000000003ec1      0x9d4 build/obj/chmtx.o
 .debug_info    0x0000000000004895      0xd95 build/obj/chevents.o
 .debug_info    0x000000000000562a      0xbc3 build/obj/chqueues.o
 .debug_info    0x00000000000061ed      0x221 build/obj/chmemcore.o
 .debug_info    0x000000000000640e      0x6fa build/obj/chheap.o
 .debug_info    0x0000000000006b08      0x408 build/obj/chmempools.o
 .debug_info    0x0000000000006f10      0x3af build/obj/hal.o
 .debug_info    0x00000000000072bf     0x1de1 build/obj/serial_usb.o
 .debug_info    0x00000000000090a0      0x2d9 build/obj/tm.o
 .debug_info    0x0000000000009379     0x1f36 build/obj/usb.o
 .debug_info    0x000000000000b2af      0x480 build/obj/hal_lld.o
 .debug_info    0x000000000000b72f      0x704 build/obj/pal_lld.o
 .debug_info    0x000000000000be33     0x27bd build/obj/usb_lld.o
 .debug_info    0x000000000000e5f0      0x1f4 build/obj/board.o
 .debug_info    0x000000000000e7e4      0x6c6 build/obj/chprintf.o
 .debug_info    0x000000000000eeaa     0x142e build/obj/shell.o
 .debug_info    0x00000000000102d8     0x194e build/obj/main.o
 .debug_info    0x0000000000011c26     0x16f0 build/obj/USB.o

.debug_abbrev   0x0000000000000000     0x4167
 .debug_abbrev  0x0000000000000000       0xfd build/obj/crt0.o
 .debug_abbrev  0x00000000000000fd       0xaf build/obj/vectors.o
 .debug_abbrev  0x00000000000001ac      0x1b9 build/obj/chcore_v7m.o
 .debug_abbrev  0x0000000000000365      0x10e build/obj/nvic.o
 .debug_abbrev  0x0000000000000473      0x20e build/obj/chsys.o
 .debug_abbrev  0x0000000000000681      0x117 build/obj/chvt.o
 .debug_abbrev  0x0000000000000798      0x313 build/obj/chschd.o
 .debug_abbrev  0x0000000000000aab      0x34f build/obj/chthreads.o
 .debug_abbrev  0x0000000000000dfa      0x22b build/obj/chdynamic.o
 .debug_abbrev  0x0000000000001025      0x187 build/obj/chregistry.o
 .debug_abbrev  0x00000000000011ac      0x2fa build/obj/chmtx.o
 .debug_abbrev  0x00000000000014a6      0x2ef build/obj/chevents.o
 .debug_abbrev  0x0000000000001795      0x32e build/obj/chqueues.o
 .debug_abbrev  0x0000000000001ac3      0x164 build/obj/chmemcore.o
 .debug_abbrev  0x0000000000001c27      0x1e7 build/obj/chheap.o
 .debug_abbrev  0x0000000000001e0e      0x1f7 build/obj/chmempools.o
 .debug_abbrev  0x0000000000002005      0x1c8 build/obj/hal.o
 .debug_abbrev  0x00000000000021cd      0x3f7 build/obj/serial_usb.o
 .debug_abbrev  0x00000000000025c4      0x19a build/obj/tm.o
 .debug_abbrev  0x000000000000275e      0x420 build/obj/usb.o
 .debug_abbrev  0x0000000000002b7e      0x10c build/obj/hal_lld.o
 .debug_abbrev  0x0000000000002c8a      0x1aa build/obj/pal_lld.o
 .debug_abbrev  0x0000000000002e34      0x515 build/obj/usb_lld.o
 .debug_abbrev  0x0000000000003349       0xe3 build/obj/board.o
 .debug_abbrev  0x000000000000342c      0x285 build/obj/chprintf.o
 .debug_abbrev  0x00000000000036b1      0x3e1 build/obj/shell.o
 .debug_abbrev  0x0000000000003a92      0x399 build/obj/main.o
 .debug_abbrev  0x0000000000003e2b      0x33c build/obj/USB.o

.debug_loc      0x0000000000000000     0x5c28
 .debug_loc     0x0000000000000000       0xde build/obj/crt0.o
 .debug_loc     0x00000000000000de       0x5a build/obj/chcore_v7m.o
 .debug_loc     0x0000000000000138      0x159 build/obj/nvic.o
 .debug_loc     0x0000000000000291       0x31 build/obj/chsys.o
 .debug_loc     0x00000000000002c2       0x67 build/obj/chvt.o
 .debug_loc     0x0000000000000329      0x2d2 build/obj/chschd.o
 .debug_loc     0x00000000000005fb      0x419 build/obj/chthreads.o
 .debug_loc     0x0000000000000a14      0x1b8 build/obj/chdynamic.o
 .debug_loc     0x0000000000000bcc       0x3f build/obj/chregistry.o
 .debug_loc     0x0000000000000c0b      0x407 build/obj/chmtx.o
 .debug_loc     0x0000000000001012      0x57b build/obj/chevents.o
 .debug_loc     0x000000000000158d      0x6bb build/obj/chqueues.o
 .debug_loc     0x0000000000001c48       0xcc build/obj/chmemcore.o
 .debug_loc     0x0000000000001d14      0x3ae build/obj/chheap.o
 .debug_loc     0x00000000000020c2      0x185 build/obj/chmempools.o
 .debug_loc     0x0000000000002247       0x9d build/obj/hal.o
 .debug_loc     0x00000000000022e4      0x6e2 build/obj/serial_usb.o
 .debug_loc     0x00000000000029c6       0x4d build/obj/tm.o
 .debug_loc     0x0000000000002a13      0xbda build/obj/usb.o
 .debug_loc     0x00000000000035ed      0x1b2 build/obj/pal_lld.o
 .debug_loc     0x000000000000379f      0xfbc build/obj/usb_lld.o
 .debug_loc     0x000000000000475b      0x98a build/obj/chprintf.o
 .debug_loc     0x00000000000050e5      0x7a5 build/obj/shell.o
 .debug_loc     0x000000000000588a      0x2b3 build/obj/main.o
 .debug_loc     0x0000000000005b3d       0xeb build/obj/USB.o

.debug_aranges  0x0000000000000000      0x8b0
 .debug_aranges
                0x0000000000000000       0x38 build/obj/crt0.o
 .debug_aranges
                0x0000000000000038       0x20 build/obj/vectors.o
 .debug_aranges
                0x0000000000000058       0x50 build/obj/chcore_v7m.o
 .debug_aranges
                0x00000000000000a8       0x30 build/obj/nvic.o
 .debug_aranges
                0x00000000000000d8       0x30 build/obj/chsys.o
 .debug_aranges
                0x0000000000000108       0x30 build/obj/chvt.o
 .debug_aranges
                0x0000000000000138       0x68 build/obj/chschd.o
 .debug_aranges
                0x00000000000001a0       0x78 build/obj/chthreads.o
 .debug_aranges
                0x0000000000000218       0x38 build/obj/chdynamic.o
 .debug_aranges
                0x0000000000000250       0x28 build/obj/chregistry.o
 .debug_aranges
                0x0000000000000278       0x58 build/obj/chmtx.o
 .debug_aranges
                0x00000000000002d0       0xa0 build/obj/chevents.o
 .debug_aranges
                0x0000000000000370       0x70 build/obj/chqueues.o
 .debug_aranges
                0x00000000000003e0       0x38 build/obj/chmemcore.o
 .debug_aranges
                0x0000000000000418       0x40 build/obj/chheap.o
 .debug_aranges
                0x0000000000000458       0x48 build/obj/chmempools.o
 .debug_aranges
                0x00000000000004a0       0x30 build/obj/hal.o
 .debug_aranges
                0x00000000000004d0       0xb0 build/obj/serial_usb.o
 .debug_aranges
                0x0000000000000580       0x38 build/obj/tm.o
 .debug_aranges
                0x00000000000005b8       0xa8 build/obj/usb.o
 .debug_aranges
                0x0000000000000660       0x28 build/obj/hal_lld.o
 .debug_aranges
                0x0000000000000688       0x28 build/obj/pal_lld.o
 .debug_aranges
                0x00000000000006b0       0xd0 build/obj/usb_lld.o
 .debug_aranges
                0x0000000000000780       0x28 build/obj/board.o
 .debug_aranges
                0x00000000000007a8       0x30 build/obj/chprintf.o
 .debug_aranges
                0x00000000000007d8       0x68 build/obj/shell.o
 .debug_aranges
                0x0000000000000840       0x38 build/obj/main.o
 .debug_aranges
                0x0000000000000878       0x38 build/obj/USB.o

.debug_ranges   0x0000000000000000     0x10c0
 .debug_ranges  0x0000000000000000       0x58 build/obj/crt0.o
 .debug_ranges  0x0000000000000058       0x10 build/obj/vectors.o
 .debug_ranges  0x0000000000000068       0x58 build/obj/chcore_v7m.o
 .debug_ranges  0x00000000000000c0       0x20 build/obj/nvic.o
 .debug_ranges  0x00000000000000e0       0x38 build/obj/chsys.o
 .debug_ranges  0x0000000000000118       0x20 build/obj/chvt.o
 .debug_ranges  0x0000000000000138      0x160 build/obj/chschd.o
 .debug_ranges  0x0000000000000298      0x120 build/obj/chthreads.o
 .debug_ranges  0x00000000000003b8       0x28 build/obj/chdynamic.o
 .debug_ranges  0x00000000000003e0       0x18 build/obj/chregistry.o
 .debug_ranges  0x00000000000003f8      0x168 build/obj/chmtx.o
 .debug_ranges  0x0000000000000560       0xc0 build/obj/chevents.o
 .debug_ranges  0x0000000000000620       0xd0 build/obj/chqueues.o
 .debug_ranges  0x00000000000006f0       0x28 build/obj/chmemcore.o
 .debug_ranges  0x0000000000000718       0x30 build/obj/chheap.o
 .debug_ranges  0x0000000000000748       0xc8 build/obj/chmempools.o
 .debug_ranges  0x0000000000000810       0x38 build/obj/hal.o
 .debug_ranges  0x0000000000000848       0xd0 build/obj/serial_usb.o
 .debug_ranges  0x0000000000000918       0x80 build/obj/tm.o
 .debug_ranges  0x0000000000000998      0x188 build/obj/usb.o
 .debug_ranges  0x0000000000000b20       0x30 build/obj/hal_lld.o
 .debug_ranges  0x0000000000000b50      0x108 build/obj/pal_lld.o
 .debug_ranges  0x0000000000000c58      0x2a8 build/obj/usb_lld.o
 .debug_ranges  0x0000000000000f00       0x18 build/obj/board.o
 .debug_ranges  0x0000000000000f18       0x58 build/obj/chprintf.o
 .debug_ranges  0x0000000000000f70      0x100 build/obj/shell.o
 .debug_ranges  0x0000000000001070       0x28 build/obj/main.o
 .debug_ranges  0x0000000000001098       0x28 build/obj/USB.o

.debug_line     0x0000000000000000     0x4dcb
 .debug_line    0x0000000000000000      0x12b build/obj/crt0.o
 .debug_line    0x000000000000012b       0xd0 build/obj/vectors.o
 .debug_line    0x00000000000001fb      0x228 build/obj/chcore_v7m.o
 .debug_line    0x0000000000000423      0x10c build/obj/nvic.o
 .debug_line    0x000000000000052f      0x210 build/obj/chsys.o
 .debug_line    0x000000000000073f      0x16d build/obj/chvt.o
 .debug_line    0x00000000000008ac      0x37f build/obj/chschd.o
 .debug_line    0x0000000000000c2b      0x3b7 build/obj/chthreads.o
 .debug_line    0x0000000000000fe2      0x22f build/obj/chdynamic.o
 .debug_line    0x0000000000001211      0x1df build/obj/chregistry.o
 .debug_line    0x00000000000013f0      0x34a build/obj/chmtx.o
 .debug_line    0x000000000000173a      0x340 build/obj/chevents.o
 .debug_line    0x0000000000001a7a      0x3a9 build/obj/chqueues.o
 .debug_line    0x0000000000001e23      0x145 build/obj/chmemcore.o
 .debug_line    0x0000000000001f68      0x283 build/obj/chheap.o
 .debug_line    0x00000000000021eb      0x1d5 build/obj/chmempools.o
 .debug_line    0x00000000000023c0      0x2e5 build/obj/hal.o
 .debug_line    0x00000000000026a5      0x483 build/obj/serial_usb.o
 .debug_line    0x0000000000002b28      0x229 build/obj/tm.o
 .debug_line    0x0000000000002d51      0x58f build/obj/usb.o
 .debug_line    0x00000000000032e0      0x1e4 build/obj/hal_lld.o
 .debug_line    0x00000000000034c4      0x20b build/obj/pal_lld.o
 .debug_line    0x00000000000036cf      0x800 build/obj/usb_lld.o
 .debug_line    0x0000000000003ecf      0x1b0 build/obj/board.o
 .debug_line    0x000000000000407f      0x2b5 build/obj/chprintf.o
 .debug_line    0x0000000000004334      0x402 build/obj/shell.o
 .debug_line    0x0000000000004736      0x397 build/obj/main.o
 .debug_line    0x0000000000004acd      0x2fe build/obj/USB.o

.debug_str      0x0000000000000000     0x2856
 .debug_str     0x0000000000000000      0x2b8 build/obj/crt0.o
                                        0x303 (size before relaxing)
 .debug_str     0x00000000000002b8      0x159 build/obj/vectors.o
                                        0x324 (size before relaxing)
 .debug_str     0x0000000000000411      0x2f1 build/obj/chcore_v7m.o
                                        0x4e0 (size before relaxing)
 .debug_str     0x0000000000000702       0xaa build/obj/nvic.o
                                        0x2f6 (size before relaxing)
 .debug_str     0x00000000000007ac      0x21d build/obj/chsys.o
                                        0x5ce (size before relaxing)
 .debug_str     0x00000000000009c9       0x4a build/obj/chvt.o
                                        0x277 (size before relaxing)
 .debug_str     0x0000000000000a13       0xe9 build/obj/chschd.o
                                        0x4ed (size before relaxing)
 .debug_str     0x0000000000000afc       0xe7 build/obj/chthreads.o
                                        0x558 (size before relaxing)
 .debug_str     0x0000000000000be3      0x121 build/obj/chdynamic.o
                                        0x4da (size before relaxing)
 .debug_str     0x0000000000000d04       0x56 build/obj/chregistry.o
                                        0x4e6 (size before relaxing)
 .debug_str     0x0000000000000d5a       0xa5 build/obj/chmtx.o
                                        0x472 (size before relaxing)
 .debug_str     0x0000000000000dff      0x1cd build/obj/chevents.o
                                        0x596 (size before relaxing)
 .debug_str     0x0000000000000fcc      0x13a build/obj/chqueues.o
                                        0x4fd (size before relaxing)
 .debug_str     0x0000000000001106       0x84 build/obj/chmemcore.o
                                        0x26c (size before relaxing)
 .debug_str     0x000000000000118a       0x5c build/obj/chheap.o
                                        0x461 (size before relaxing)
 .debug_str     0x00000000000011e6       0x69 build/obj/chmempools.o
                                        0x2ba (size before relaxing)
 .debug_str     0x000000000000124f      0x18a build/obj/hal.o
                                        0x370 (size before relaxing)
 .debug_str     0x00000000000013d9      0x819 build/obj/serial_usb.o
                                        0xd5b (size before relaxing)
 .debug_str     0x0000000000001bf2       0x7b build/obj/tm.o
                                        0x2bd (size before relaxing)
 .debug_str     0x0000000000001c6d      0x2c4 build/obj/usb.o
                                        0xd81 (size before relaxing)
 .debug_str     0x0000000000001f31      0x1dc build/obj/hal_lld.o
                                        0x418 (size before relaxing)
 .debug_str     0x000000000000210d       0xdd build/obj/pal_lld.o
                                        0x47e (size before relaxing)
 .debug_str     0x00000000000021ea      0x218 build/obj/usb_lld.o
                                       0x1000 (size before relaxing)
 .debug_str     0x0000000000002402       0x3e build/obj/board.o
                                        0x2d8 (size before relaxing)
 .debug_str     0x0000000000002440      0x131 build/obj/chprintf.o
                                        0x342 (size before relaxing)
 .debug_str     0x0000000000002571      0x171 build/obj/shell.o
                                        0x6ea (size before relaxing)
 .debug_str     0x00000000000026e2       0x42 build/obj/main.o
                                        0xd2f (size before relaxing)
 .debug_str     0x0000000000002724      0x132 build/obj/USB.o
                                        0xcf6 (size before relaxing)

.comment        0x0000000000000000       0x70
 .comment       0x0000000000000000       0x70 build/obj/crt0.o
                                         0x71 (size before relaxing)
 .comment       0x0000000000000000       0x71 build/obj/vectors.o
 .comment       0x0000000000000000       0x71 build/obj/chcore_v7m.o
 .comment       0x0000000000000000       0x71 build/obj/nvic.o
 .comment       0x0000000000000000       0x71 build/obj/chsys.o
 .comment       0x0000000000000000       0x71 build/obj/chvt.o
 .comment       0x0000000000000000       0x71 build/obj/chschd.o
 .comment       0x0000000000000000       0x71 build/obj/chthreads.o
 .comment       0x0000000000000000       0x71 build/obj/chdynamic.o
 .comment       0x0000000000000000       0x71 build/obj/chregistry.o
 .comment       0x0000000000000000       0x71 build/obj/chmtx.o
 .comment       0x0000000000000000       0x71 build/obj/chevents.o
 .comment       0x0000000000000000       0x71 build/obj/chqueues.o
 .comment       0x0000000000000000       0x71 build/obj/chmemcore.o
 .comment       0x0000000000000000       0x71 build/obj/chheap.o
 .comment       0x0000000000000000       0x71 build/obj/chmempools.o
 .comment       0x0000000000000000       0x71 build/obj/hal.o
 .comment       0x0000000000000000       0x71 build/obj/serial_usb.o
 .comment       0x0000000000000000       0x71 build/obj/tm.o
 .comment       0x0000000000000000       0x71 build/obj/usb.o
 .comment       0x0000000000000000       0x71 build/obj/hal_lld.o
 .comment       0x0000000000000000       0x71 build/obj/pal_lld.o
 .comment       0x0000000000000000       0x71 build/obj/usb_lld.o
 .comment       0x0000000000000000       0x71 build/obj/board.o
 .comment       0x0000000000000000       0x71 build/obj/chprintf.o
 .comment       0x0000000000000000       0x71 build/obj/shell.o
 .comment       0x0000000000000000       0x71 build/obj/main.o
 .comment       0x0000000000000000       0x71 build/obj/USB.o

.ARM.attributes
                0x0000000000000000       0x33
 .ARM.attributes
                0x0000000000000000       0x33 build/obj/crt0.o
 .ARM.attributes
                0x0000000000000033       0x33 build/obj/vectors.o
 .ARM.attributes
                0x0000000000000066       0x33 build/obj/chcore_v7m.o
 .ARM.attributes
                0x0000000000000099       0x33 build/obj/nvic.o
 .ARM.attributes
                0x00000000000000cc       0x33 build/obj/chsys.o
 .ARM.attributes
                0x00000000000000ff       0x33 build/obj/chvt.o
 .ARM.attributes
                0x0000000000000132       0x33 build/obj/chschd.o
 .ARM.attributes
                0x0000000000000165       0x33 build/obj/chthreads.o
 .ARM.attributes
                0x0000000000000198       0x33 build/obj/chdynamic.o
 .ARM.attributes
                0x00000000000001cb       0x33 build/obj/chregistry.o
 .ARM.attributes
                0x00000000000001fe       0x33 build/obj/chmtx.o
 .ARM.attributes
                0x0000000000000231       0x33 build/obj/chevents.o
 .ARM.attributes
                0x0000000000000264       0x33 build/obj/chqueues.o
 .ARM.attributes
                0x0000000000000297       0x33 build/obj/chmemcore.o
 .ARM.attributes
                0x00000000000002ca       0x33 build/obj/chheap.o
 .ARM.attributes
                0x00000000000002fd       0x33 build/obj/chmempools.o
 .ARM.attributes
                0x0000000000000330       0x33 build/obj/hal.o
 .ARM.attributes
                0x0000000000000363       0x33 build/obj/serial_usb.o
 .ARM.attributes
                0x0000000000000396       0x33 build/obj/tm.o
 .ARM.attributes
                0x00000000000003c9       0x33 build/obj/usb.o
 .ARM.attributes
                0x00000000000003fc       0x33 build/obj/hal_lld.o
 .ARM.attributes
                0x000000000000042f       0x33 build/obj/pal_lld.o
 .ARM.attributes
                0x0000000000000462       0x33 build/obj/usb_lld.o
 .ARM.attributes
                0x0000000000000495       0x33 build/obj/board.o
 .ARM.attributes
                0x00000000000004c8       0x33 build/obj/chprintf.o
 .ARM.attributes
                0x00000000000004fb       0x33 build/obj/shell.o
 .ARM.attributes
                0x000000000000052e       0x33 build/obj/main.o
 .ARM.attributes
                0x0000000000000561       0x33 build/obj/USB.o
 .ARM.attributes
                0x0000000000000594       0x1e /usr/bin/../lib/gcc/arm-none-eabi/4.8.4/armv7e-m/libgcc.a(_arm_addsubdf3.o)
 .ARM.attributes
                0x00000000000005b2       0x1e /usr/bin/../lib/gcc/arm-none-eabi/4.8.4/armv7e-m/libgcc.a(_arm_muldivdf3.o)
 .ARM.attributes
                0x00000000000005d0       0x1e /usr/bin/../lib/gcc/arm-none-eabi/4.8.4/armv7e-m/libgcc.a(_arm_fixdfsi.o)
 .ARM.attributes
                0x00000000000005ee       0x1e /usr/bin/../lib/gcc/arm-none-eabi/4.8.4/armv7e-m/libgcc.a(_arm_truncdfsf2.o)
 .ARM.attributes
                0x000000000000060c       0x1e /usr/bin/../lib/gcc/arm-none-eabi/4.8.4/armv7e-m/libgcc.a(_arm_cmpsf2.o)
 .ARM.attributes
                0x000000000000062a       0x1e /usr/bin/../lib/gcc/arm-none-eabi/4.8.4/armv7e-m/libgcc.a(_arm_fixsfsi.o)
 .ARM.attributes
                0x0000000000000648       0x2e /usr/bin/../lib/gcc/arm-none-eabi/4.8.4/../../../../arm-none-eabi/lib/armv7e-m/libg.a(lib_a-memset.o)
 .ARM.attributes
                0x0000000000000676       0x2e /usr/bin/../lib/gcc/arm-none-eabi/4.8.4/../../../../arm-none-eabi/lib/armv7e-m/libg.a(lib_a-strcasecmp.o)
 .ARM.attributes
                0x00000000000006a4       0x2e /usr/bin/../lib/gcc/arm-none-eabi/4.8.4/../../../../arm-none-eabi/lib/armv7e-m/libg.a(lib_a-strpbrk.o)
 .ARM.attributes
                0x00000000000006d2       0x2e /usr/bin/../lib/gcc/arm-none-eabi/4.8.4/../../../../arm-none-eabi/lib/armv7e-m/libg.a(lib_a-strspn.o)
 .ARM.attributes
                0x0000000000000700       0x2e /usr/bin/../lib/gcc/arm-none-eabi/4.8.4/../../../../arm-none-eabi/lib/armv7e-m/libg.a(lib_a-ctype_.o)

.debug_frame    0x0000000000000000     0x1648
 .debug_frame   0x0000000000000000       0x50 build/obj/crt0.o
 .debug_frame   0x0000000000000050       0x20 build/obj/vectors.o
 .debug_frame   0x0000000000000070       0x98 build/obj/chcore_v7m.o
 .debug_frame   0x0000000000000108       0x64 build/obj/nvic.o
 .debug_frame   0x000000000000016c       0x5c build/obj/chsys.o
 .debug_frame   0x00000000000001c8       0x4c build/obj/chvt.o
 .debug_frame   0x0000000000000214      0x108 build/obj/chschd.o
 .debug_frame   0x000000000000031c      0x184 build/obj/chthreads.o
 .debug_frame   0x00000000000004a0       0x80 build/obj/chdynamic.o
 .debug_frame   0x0000000000000520       0x3c build/obj/chregistry.o
 .debug_frame   0x000000000000055c       0xdc build/obj/chmtx.o
 .debug_frame   0x0000000000000638      0x1d8 build/obj/chevents.o
 .debug_frame   0x0000000000000810      0x180 build/obj/chqueues.o
 .debug_frame   0x0000000000000990       0x50 build/obj/chmemcore.o
 .debug_frame   0x00000000000009e0       0x98 build/obj/chheap.o
 .debug_frame   0x0000000000000a78       0x88 build/obj/chmempools.o
 .debug_frame   0x0000000000000b00       0x4c build/obj/hal.o
 .debug_frame   0x0000000000000b4c      0x1b4 build/obj/serial_usb.o
 .debug_frame   0x0000000000000d00       0x64 build/obj/tm.o
 .debug_frame   0x0000000000000d64      0x204 build/obj/usb.o
 .debug_frame   0x0000000000000f68       0x44 build/obj/hal_lld.o
 .debug_frame   0x0000000000000fac       0x68 build/obj/pal_lld.o
 .debug_frame   0x0000000000001014      0x278 build/obj/usb_lld.o
 .debug_frame   0x000000000000128c       0x30 build/obj/board.o
 .debug_frame   0x00000000000012bc       0x90 build/obj/chprintf.o
 .debug_frame   0x000000000000134c      0x138 build/obj/shell.o
 .debug_frame   0x0000000000001484       0xa8 build/obj/main.o
 .debug_frame   0x000000000000152c       0x70 build/obj/USB.o
 .debug_frame   0x000000000000159c       0x2c /usr/bin/../lib/gcc/arm-none-eabi/4.8.4/../../../../arm-none-eabi/lib/armv7e-m/libg.a(lib_a-memset.o)
 .debug_frame   0x00000000000015c8       0x28 /usr/bin/../lib/gcc/arm-none-eabi/4.8.4/../../../../arm-none-eabi/lib/armv7e-m/libg.a(lib_a-strcasecmp.o)
 .debug_frame   0x00000000000015f0       0x2c /usr/bin/../lib/gcc/arm-none-eabi/4.8.4/../../../../arm-none-eabi/lib/armv7e-m/libg.a(lib_a-strpbrk.o)
 .debug_frame   0x000000000000161c       0x2c /usr/bin/../lib/gcc/arm-none-eabi/4.8.4/../../../../arm-none-eabi/lib/armv7e-m/libg.a(lib_a-strspn.o)

Cross Reference Table

Symbol                                            File
BusFaultVector                                    build/obj/vectors.o
DebugMonitorVector                                build/obj/vectors.o
HardFaultVector                                   build/obj/vectors.o
MemManageVector                                   build/obj/vectors.o
NMIVector                                         build/obj/vectors.o
PendSVVector                                      build/obj/vectors.o
ResetHandler                                      build/obj/crt0.o
                                                  build/obj/vectors.o
SDU1                                              build/obj/USB.o
                                                  build/obj/main.o
SVCallVector                                      build/obj/chcore_v7m.o
                                                  build/obj/vectors.o
SysTickVector                                     build/obj/chcore_v7m.o
                                                  build/obj/vectors.o
USBD1                                             build/obj/usb_lld.o
                                                  build/obj/USB.o
USBinit                                           build/obj/USB.o
                                                  build/obj/main.o
UsageFaultVector                                  build/obj/vectors.o
Vector100                                         build/obj/vectors.o
Vector104                                         build/obj/vectors.o
Vector108                                         build/obj/vectors.o
Vector10C                                         build/obj/vectors.o
Vector110                                         build/obj/vectors.o
Vector114                                         build/obj/vectors.o
Vector118                                         build/obj/vectors.o
Vector11C                                         build/obj/vectors.o
Vector120                                         build/obj/vectors.o
Vector124                                         build/obj/vectors.o
Vector128                                         build/obj/vectors.o
Vector12C                                         build/obj/vectors.o
Vector130                                         build/obj/vectors.o
Vector134                                         build/obj/vectors.o
Vector138                                         build/obj/vectors.o
Vector13C                                         build/obj/vectors.o
Vector140                                         build/obj/vectors.o
Vector144                                         build/obj/vectors.o
Vector148                                         build/obj/vectors.o
Vector14C                                         build/obj/usb_lld.o
                                                  build/obj/vectors.o
Vector150                                         build/obj/vectors.o
Vector154                                         build/obj/vectors.o
Vector158                                         build/obj/vectors.o
Vector15C                                         build/obj/vectors.o
Vector160                                         build/obj/vectors.o
Vector164                                         build/obj/vectors.o
Vector168                                         build/obj/vectors.o
Vector16C                                         build/obj/vectors.o
Vector170                                         build/obj/vectors.o
Vector174                                         build/obj/vectors.o
Vector178                                         build/obj/vectors.o
Vector17C                                         build/obj/vectors.o
Vector180                                         build/obj/vectors.o
Vector184                                         build/obj/vectors.o
Vector188                                         build/obj/vectors.o
Vector18C                                         build/obj/vectors.o
Vector190                                         build/obj/vectors.o
Vector194                                         build/obj/vectors.o
Vector198                                         build/obj/vectors.o
Vector19C                                         build/obj/vectors.o
Vector1A0                                         build/obj/vectors.o
Vector1A4                                         build/obj/vectors.o
Vector1A8                                         build/obj/vectors.o
Vector1C                                          build/obj/vectors.o
Vector20                                          build/obj/vectors.o
Vector24                                          build/obj/vectors.o
Vector28                                          build/obj/vectors.o
Vector34                                          build/obj/vectors.o
Vector40                                          build/obj/vectors.o
Vector44                                          build/obj/vectors.o
Vector48                                          build/obj/vectors.o
Vector4C                                          build/obj/vectors.o
Vector50                                          build/obj/vectors.o
Vector54                                          build/obj/vectors.o
Vector58                                          build/obj/vectors.o
Vector5C                                          build/obj/vectors.o
Vector60                                          build/obj/vectors.o
Vector64                                          build/obj/vectors.o
Vector68                                          build/obj/vectors.o
Vector6C                                          build/obj/vectors.o
Vector70                                          build/obj/vectors.o
Vector74                                          build/obj/vectors.o
Vector78                                          build/obj/vectors.o
Vector7C                                          build/obj/vectors.o
Vector80                                          build/obj/vectors.o
Vector84                                          build/obj/vectors.o
Vector88                                          build/obj/vectors.o
Vector8C                                          build/obj/vectors.o
Vector90                                          build/obj/vectors.o
Vector94                                          build/obj/vectors.o
Vector98                                          build/obj/vectors.o
Vector9C                                          build/obj/vectors.o
VectorA0                                          build/obj/vectors.o
VectorA4                                          build/obj/vectors.o
VectorA8                                          build/obj/vectors.o
VectorAC                                          build/obj/vectors.o
VectorB0                                          build/obj/vectors.o
VectorB4                                          build/obj/vectors.o
VectorB8                                          build/obj/vectors.o
VectorBC                                          build/obj/vectors.o
VectorC0                                          build/obj/vectors.o
VectorC4                                          build/obj/vectors.o
VectorC8                                          build/obj/vectors.o
VectorCC                                          build/obj/vectors.o
VectorD0                                          build/obj/vectors.o
VectorD4                                          build/obj/vectors.o
VectorD8                                          build/obj/vectors.o
VectorDC                                          build/obj/vectors.o
VectorE0                                          build/obj/vectors.o
VectorE4                                          build/obj/vectors.o
VectorE8                                          build/obj/vectors.o
VectorEC                                          build/obj/vectors.o
VectorF0                                          build/obj/vectors.o
VectorF4                                          build/obj/vectors.o
VectorF8                                          build/obj/vectors.o
VectorFC                                          build/obj/vectors.o
__adddf3                                          /usr/bin/../lib/gcc/arm-none-eabi/4.8.4/armv7e-m/libgcc.a(_arm_addsubdf3.o)
__aeabi_cfcmpeq                                   /usr/bin/../lib/gcc/arm-none-eabi/4.8.4/armv7e-m/libgcc.a(_arm_cmpsf2.o)
__aeabi_cfcmple                                   /usr/bin/../lib/gcc/arm-none-eabi/4.8.4/armv7e-m/libgcc.a(_arm_cmpsf2.o)
__aeabi_cfrcmple                                  /usr/bin/../lib/gcc/arm-none-eabi/4.8.4/armv7e-m/libgcc.a(_arm_cmpsf2.o)
__aeabi_d2f                                       /usr/bin/../lib/gcc/arm-none-eabi/4.8.4/armv7e-m/libgcc.a(_arm_truncdfsf2.o)
                                                  build/obj/chprintf.o
__aeabi_d2iz                                      /usr/bin/../lib/gcc/arm-none-eabi/4.8.4/armv7e-m/libgcc.a(_arm_fixdfsi.o)
                                                  build/obj/chprintf.o
__aeabi_dadd                                      /usr/bin/../lib/gcc/arm-none-eabi/4.8.4/armv7e-m/libgcc.a(_arm_addsubdf3.o)
__aeabi_ddiv                                      /usr/bin/../lib/gcc/arm-none-eabi/4.8.4/armv7e-m/libgcc.a(_arm_muldivdf3.o)
__aeabi_dmul                                      /usr/bin/../lib/gcc/arm-none-eabi/4.8.4/armv7e-m/libgcc.a(_arm_muldivdf3.o)
                                                  build/obj/chprintf.o
__aeabi_drsub                                     /usr/bin/../lib/gcc/arm-none-eabi/4.8.4/armv7e-m/libgcc.a(_arm_addsubdf3.o)
__aeabi_dsub                                      /usr/bin/../lib/gcc/arm-none-eabi/4.8.4/armv7e-m/libgcc.a(_arm_addsubdf3.o)
                                                  build/obj/chprintf.o
__aeabi_f2d                                       /usr/bin/../lib/gcc/arm-none-eabi/4.8.4/armv7e-m/libgcc.a(_arm_addsubdf3.o)
                                                  build/obj/chprintf.o
__aeabi_f2iz                                      /usr/bin/../lib/gcc/arm-none-eabi/4.8.4/armv7e-m/libgcc.a(_arm_fixsfsi.o)
                                                  build/obj/chprintf.o
__aeabi_fcmpeq                                    /usr/bin/../lib/gcc/arm-none-eabi/4.8.4/armv7e-m/libgcc.a(_arm_cmpsf2.o)
__aeabi_fcmpge                                    /usr/bin/../lib/gcc/arm-none-eabi/4.8.4/armv7e-m/libgcc.a(_arm_cmpsf2.o)
__aeabi_fcmpgt                                    /usr/bin/../lib/gcc/arm-none-eabi/4.8.4/armv7e-m/libgcc.a(_arm_cmpsf2.o)
__aeabi_fcmple                                    /usr/bin/../lib/gcc/arm-none-eabi/4.8.4/armv7e-m/libgcc.a(_arm_cmpsf2.o)
__aeabi_fcmplt                                    /usr/bin/../lib/gcc/arm-none-eabi/4.8.4/armv7e-m/libgcc.a(_arm_cmpsf2.o)
                                                  build/obj/chprintf.o
__aeabi_i2d                                       /usr/bin/../lib/gcc/arm-none-eabi/4.8.4/armv7e-m/libgcc.a(_arm_addsubdf3.o)
                                                  build/obj/chprintf.o
__aeabi_l2d                                       /usr/bin/../lib/gcc/arm-none-eabi/4.8.4/armv7e-m/libgcc.a(_arm_addsubdf3.o)
__aeabi_ui2d                                      /usr/bin/../lib/gcc/arm-none-eabi/4.8.4/armv7e-m/libgcc.a(_arm_addsubdf3.o)
__aeabi_ul2d                                      /usr/bin/../lib/gcc/arm-none-eabi/4.8.4/armv7e-m/libgcc.a(_arm_addsubdf3.o)
__cmpsf2                                          /usr/bin/../lib/gcc/arm-none-eabi/4.8.4/armv7e-m/libgcc.a(_arm_cmpsf2.o)
__ctype_ptr__                                     /usr/bin/../lib/gcc/arm-none-eabi/4.8.4/../../../../arm-none-eabi/lib/armv7e-m/libg.a(lib_a-ctype_.o)
                                                  /usr/bin/../lib/gcc/arm-none-eabi/4.8.4/../../../../arm-none-eabi/lib/armv7e-m/libg.a(lib_a-strcasecmp.o)
__divdf3                                          /usr/bin/../lib/gcc/arm-none-eabi/4.8.4/armv7e-m/libgcc.a(_arm_muldivdf3.o)
__early_init                                      build/obj/board.o
                                                  build/obj/crt0.o
__eqsf2                                           /usr/bin/../lib/gcc/arm-none-eabi/4.8.4/armv7e-m/libgcc.a(_arm_cmpsf2.o)
__extendsfdf2                                     /usr/bin/../lib/gcc/arm-none-eabi/4.8.4/armv7e-m/libgcc.a(_arm_addsubdf3.o)
__fini_array_end                                  build/obj/crt0.o
__fini_array_start                                build/obj/crt0.o
__fixdfsi                                         /usr/bin/../lib/gcc/arm-none-eabi/4.8.4/armv7e-m/libgcc.a(_arm_fixdfsi.o)
__fixsfsi                                         /usr/bin/../lib/gcc/arm-none-eabi/4.8.4/armv7e-m/libgcc.a(_arm_fixsfsi.o)
__floatdidf                                       /usr/bin/../lib/gcc/arm-none-eabi/4.8.4/armv7e-m/libgcc.a(_arm_addsubdf3.o)
__floatsidf                                       /usr/bin/../lib/gcc/arm-none-eabi/4.8.4/armv7e-m/libgcc.a(_arm_addsubdf3.o)
__floatundidf                                     /usr/bin/../lib/gcc/arm-none-eabi/4.8.4/armv7e-m/libgcc.a(_arm_addsubdf3.o)
__floatunsidf                                     /usr/bin/../lib/gcc/arm-none-eabi/4.8.4/armv7e-m/libgcc.a(_arm_addsubdf3.o)
__gesf2                                           /usr/bin/../lib/gcc/arm-none-eabi/4.8.4/armv7e-m/libgcc.a(_arm_cmpsf2.o)
__gtsf2                                           /usr/bin/../lib/gcc/arm-none-eabi/4.8.4/armv7e-m/libgcc.a(_arm_cmpsf2.o)
__heap_base__                                     build/obj/chmemcore.o
__heap_end__                                      build/obj/chmemcore.o
__init_array_end                                  build/obj/crt0.o
__init_array_start                                build/obj/crt0.o
__late_init                                       build/obj/crt0.o
__lesf2                                           /usr/bin/../lib/gcc/arm-none-eabi/4.8.4/armv7e-m/libgcc.a(_arm_cmpsf2.o)
__ltsf2                                           /usr/bin/../lib/gcc/arm-none-eabi/4.8.4/armv7e-m/libgcc.a(_arm_cmpsf2.o)
__main_stack_base__                               build/obj/crt0.o
__main_stack_end__                                build/obj/vectors.o
                                                  build/obj/crt0.o
__muldf3                                          /usr/bin/../lib/gcc/arm-none-eabi/4.8.4/armv7e-m/libgcc.a(_arm_muldivdf3.o)
__nesf2                                           /usr/bin/../lib/gcc/arm-none-eabi/4.8.4/armv7e-m/libgcc.a(_arm_cmpsf2.o)
__process_stack_base__                            build/obj/crt0.o
__process_stack_end__                             build/obj/crt0.o
__subdf3                                          /usr/bin/../lib/gcc/arm-none-eabi/4.8.4/armv7e-m/libgcc.a(_arm_addsubdf3.o)
__truncdfsf2                                      /usr/bin/../lib/gcc/arm-none-eabi/4.8.4/armv7e-m/libgcc.a(_arm_truncdfsf2.o)
_bss_end                                          build/obj/crt0.o
_bss_start                                        build/obj/crt0.o
_close_r                                          build/obj/syscalls.o
_core_init                                        build/obj/chmemcore.o
                                                  build/obj/chsys.o
_ctype_                                           /usr/bin/../lib/gcc/arm-none-eabi/4.8.4/../../../../arm-none-eabi/lib/armv7e-m/libg.a(lib_a-ctype_.o)
_data                                             build/obj/crt0.o
_default_exit                                     build/obj/crt0.o
_edata                                            build/obj/crt0.o
_fstat_r                                          build/obj/syscalls.o
_heap_init                                        build/obj/chheap.o
                                                  build/obj/chsys.o
_idle_thread                                      build/obj/chsys.o
_idle_thread_wa                                   build/obj/chsys.o
_isatty_r                                         build/obj/syscalls.o
_lseek_r                                          build/obj/syscalls.o
_pal_lld_init                                     build/obj/pal_lld.o
                                                  build/obj/hal.o
_pal_lld_setgroupmode                             build/obj/pal_lld.o
                                                  build/obj/pal.o
_port_init                                        build/obj/chcore_v7m.o
                                                  build/obj/chsys.o
_port_irq_epilogue                                build/obj/chcore_v7m.o
                                                  build/obj/usb_lld.o
_port_switch                                      build/obj/chcore_v7m.o
                                                  build/obj/chschd.o
_port_switch_from_isr                             build/obj/chcore_v7m.o
_port_thread_start                                build/obj/chcore_v7m.o
                                                  build/obj/chthreads.o
_read_r                                           build/obj/syscalls.o
_sbrk_r                                           build/obj/syscalls.o
_scheduler_init                                   build/obj/chschd.o
                                                  build/obj/chsys.o
_textdata                                         build/obj/crt0.o
_thread_init                                      build/obj/chthreads.o
                                                  build/obj/chsys.o
_unhandled_exception                              build/obj/vectors.o
_usb_ep0in                                        build/obj/usb.o
                                                  build/obj/usb_lld.o
_usb_ep0out                                       build/obj/usb.o
                                                  build/obj/usb_lld.o
_usb_ep0setup                                     build/obj/usb.o
                                                  build/obj/usb_lld.o
_usb_reset                                        build/obj/usb.o
                                                  build/obj/usb_lld.o
_vectors                                          build/obj/vectors.o
_vt_init                                          build/obj/chvt.o
                                                  build/obj/chsys.o
_write_r                                          build/obj/syscalls.o
boardInit                                         build/obj/board.o
                                                  build/obj/hal.o
chCondBroadcast                                   build/obj/chcond.o
chCondBroadcastI                                  build/obj/chcond.o
chCondInit                                        build/obj/chcond.o
chCondSignal                                      build/obj/chcond.o
chCondSignalI                                     build/obj/chcond.o
chCondWait                                        build/obj/chcond.o
chCondWaitS                                       build/obj/chcond.o
chCondWaitTimeout                                 build/obj/chcond.o
chCondWaitTimeoutS                                build/obj/chcond.o
chCoreAlloc                                       build/obj/chmemcore.o
                                                  build/obj/syscalls.o
                                                  build/obj/chheap.o
chCoreAllocI                                      build/obj/chmemcore.o
chCoreStatus                                      build/obj/chmemcore.o
                                                  build/obj/main.o
chEvtAddEvents                                    build/obj/chevents.o
chEvtBroadcastFlags                               build/obj/chevents.o
chEvtBroadcastFlagsI                              build/obj/chevents.o
                                                  build/obj/shell.o
                                                  build/obj/serial_usb.o
chEvtDispatch                                     build/obj/chevents.o
chEvtGetAndClearEvents                            build/obj/chevents.o
chEvtGetAndClearFlags                             build/obj/chevents.o
chEvtGetAndClearFlagsI                            build/obj/chevents.o
chEvtRegisterMask                                 build/obj/chevents.o
chEvtSignal                                       build/obj/chevents.o
chEvtSignalI                                      build/obj/chevents.o
chEvtUnregister                                   build/obj/chevents.o
chEvtWaitAll                                      build/obj/chevents.o
chEvtWaitAllTimeout                               build/obj/chevents.o
chEvtWaitAny                                      build/obj/chevents.o
chEvtWaitAnyTimeout                               build/obj/chevents.o
chEvtWaitOne                                      build/obj/chevents.o
chEvtWaitOneTimeout                               build/obj/chevents.o
chHeapAlloc                                       build/obj/chheap.o
                                                  build/obj/chdynamic.o
chHeapFree                                        build/obj/chheap.o
                                                  build/obj/chdynamic.o
chHeapInit                                        build/obj/chheap.o
chHeapStatus                                      build/obj/chheap.o
                                                  build/obj/main.o
chIQGetTimeout                                    build/obj/chqueues.o
                                                  build/obj/serial_usb.o
chIQInit                                          build/obj/chqueues.o
                                                  build/obj/serial_usb.o
chIQPutI                                          build/obj/chqueues.o
chIQReadTimeout                                   build/obj/chqueues.o
                                                  build/obj/serial_usb.o
chIQResetI                                        build/obj/chqueues.o
                                                  build/obj/serial_usb.o
chMBFetch                                         build/obj/chmboxes.o
chMBFetchI                                        build/obj/chmboxes.o
chMBFetchS                                        build/obj/chmboxes.o
chMBInit                                          build/obj/chmboxes.o
chMBPost                                          build/obj/chmboxes.o
chMBPostAhead                                     build/obj/chmboxes.o
chMBPostAheadI                                    build/obj/chmboxes.o
chMBPostAheadS                                    build/obj/chmboxes.o
chMBPostI                                         build/obj/chmboxes.o
chMBPostS                                         build/obj/chmboxes.o
chMBReset                                         build/obj/chmboxes.o
chMsgRelease                                      build/obj/chmsg.o
chMsgSend                                         build/obj/chmsg.o
chMsgWait                                         build/obj/chmsg.o
chMtxInit                                         build/obj/chmtx.o
                                                  build/obj/chheap.o
chMtxLock                                         build/obj/chmtx.o
                                                  build/obj/chheap.o
chMtxLockS                                        build/obj/chmtx.o
                                                  build/obj/chcond.o
chMtxTryLock                                      build/obj/chmtx.o
chMtxTryLockS                                     build/obj/chmtx.o
chMtxUnlock                                       build/obj/chmtx.o
                                                  build/obj/chheap.o
chMtxUnlockAll                                    build/obj/chmtx.o
chMtxUnlockS                                      build/obj/chmtx.o
                                                  build/obj/chcond.o
chOQGetI                                          build/obj/chqueues.o
chOQInit                                          build/obj/chqueues.o
                                                  build/obj/serial_usb.o
chOQPutTimeout                                    build/obj/chqueues.o
                                                  build/obj/serial_usb.o
chOQResetI                                        build/obj/chqueues.o
                                                  build/obj/serial_usb.o
chOQWriteTimeout                                  build/obj/chqueues.o
                                                  build/obj/serial_usb.o
chPoolAlloc                                       build/obj/chmempools.o
                                                  build/obj/chdynamic.o
chPoolAllocI                                      build/obj/chmempools.o
chPoolFree                                        build/obj/chmempools.o
                                                  build/obj/chdynamic.o
chPoolFreeI                                       build/obj/chmempools.o
chPoolInit                                        build/obj/chmempools.o
chPoolLoadArray                                   build/obj/chmempools.o
chRegFirstThread                                  build/obj/chregistry.o
                                                  build/obj/main.o
chRegNextThread                                   build/obj/chregistry.o
                                                  build/obj/main.o
chSchDoReschedule                                 build/obj/chschd.o
                                                  build/obj/chcore_v7m.o
chSchDoRescheduleAhead                            build/obj/chschd.o
chSchDoRescheduleBehind                           build/obj/chschd.o
                                                  build/obj/chthreads.o
chSchGoSleepS                                     build/obj/chschd.o
                                                  build/obj/usb_lld.o
                                                  build/obj/chmsg.o
                                                  build/obj/chevents.o
                                                  build/obj/chcond.o
                                                  build/obj/chmtx.o
                                                  build/obj/chsem.o
                                                  build/obj/chthreads.o
chSchGoSleepTimeoutS                              build/obj/chschd.o
                                                  build/obj/chqueues.o
                                                  build/obj/chevents.o
                                                  build/obj/chcond.o
                                                  build/obj/chsem.o
                                                  build/obj/chthreads.o
chSchReadyI                                       build/obj/chschd.o
                                                  build/obj/usb_lld.o
                                                  build/obj/chqueues.o
                                                  build/obj/chmsg.o
                                                  build/obj/chevents.o
                                                  build/obj/chcond.o
                                                  build/obj/chmtx.o
                                                  build/obj/chsem.o
                                                  build/obj/chthreads.o
chSchRescheduleS                                  build/obj/chschd.o
                                                  build/obj/usb_lld.o
                                                  build/obj/serial_usb.o
                                                  build/obj/chmboxes.o
                                                  build/obj/chevents.o
                                                  build/obj/chcond.o
                                                  build/obj/chmtx.o
                                                  build/obj/chsem.o
                                                  build/obj/chthreads.o
chSchWakeupS                                      build/obj/chschd.o
                                                  build/obj/chmsg.o
                                                  build/obj/chcond.o
                                                  build/obj/chmtx.o
                                                  build/obj/chsem.o
                                                  build/obj/chdynamic.o
                                                  build/obj/chthreads.o
chSemAddCounterI                                  build/obj/chsem.o
chSemInit                                         build/obj/chsem.o
                                                  build/obj/chmboxes.o
chSemReset                                        build/obj/chsem.o
chSemResetI                                       build/obj/chsem.o
                                                  build/obj/chmboxes.o
chSemSignal                                       build/obj/chsem.o
chSemSignalI                                      build/obj/chsem.o
                                                  build/obj/chmboxes.o
chSemSignalWait                                   build/obj/chsem.o
chSemWait                                         build/obj/chsem.o
chSemWaitS                                        build/obj/chsem.o
chSemWaitTimeout                                  build/obj/chsem.o
chSemWaitTimeoutS                                 build/obj/chsem.o
                                                  build/obj/chmboxes.o
chSysInit                                         build/obj/chsys.o
                                                  build/obj/main.o
chSysTimerHandlerI                                build/obj/chsys.o
                                                  build/obj/chcore_v7m.o
chThdAddRef                                       build/obj/chdynamic.o
chThdCreateFromHeap                               build/obj/chdynamic.o
                                                  build/obj/shell.o
chThdCreateFromMemoryPool                         build/obj/chdynamic.o
chThdCreateI                                      build/obj/chthreads.o
                                                  build/obj/usb_lld.o
                                                  build/obj/chdynamic.o
chThdCreateStatic                                 build/obj/chthreads.o
                                                  build/obj/shell.o
                                                  build/obj/chsys.o
chThdExit                                         build/obj/chthreads.o
                                                  build/obj/chcore_v7m.o
chThdExitS                                        build/obj/chthreads.o
                                                  build/obj/shell.o
chThdRelease                                      build/obj/chdynamic.o
                                                  build/obj/main.o
                                                  build/obj/chregistry.o
                                                  build/obj/chthreads.o
chThdResume                                       build/obj/chthreads.o
chThdSetPriority                                  build/obj/chthreads.o
chThdSleep                                        build/obj/chthreads.o
                                                  build/obj/USB.o
                                                  build/obj/main.o
chThdSleepUntil                                   build/obj/chthreads.o
chThdTerminate                                    build/obj/chthreads.o
chThdWait                                         build/obj/chthreads.o
chThdYield                                        build/obj/chthreads.o
chVTResetI                                        build/obj/chvt.o
                                                  build/obj/chschd.o
chVTSetI                                          build/obj/chvt.o
                                                  build/obj/chschd.o
ch_debug                                          build/obj/chregistry.o
                                                  build/obj/chsys.o
chsnprintf                                        build/obj/chprintf.o
chvprintf                                         build/obj/chprintf.o
                                                  build/obj/main.o
                                                  build/obj/shell.o
halInit                                           build/obj/hal.o
                                                  build/obj/main.o
halIsCounterWithin                                build/obj/hal.o
halPolledDelay                                    build/obj/hal.o
                                                  build/obj/usb_lld.o
hal_lld_init                                      build/obj/hal_lld.o
                                                  build/obj/hal.o
isUsbActive                                       build/obj/USB.o
main                                              build/obj/main.o
                                                  build/obj/crt0.o
memset                                            /usr/bin/../lib/gcc/arm-none-eabi/4.8.4/../../../../arm-none-eabi/lib/armv7e-m/libg.a(lib_a-memset.o)
                                                  build/obj/syscalls.o
                                                  build/obj/usb.o
msObjectInit                                      build/obj/chprintf.o
nvicDisableVector                                 build/obj/nvic.o
nvicEnableVector                                  build/obj/nvic.o
                                                  build/obj/usb_lld.o
nvicSetSystemHandlerPriority                      build/obj/nvic.o
                                                  build/obj/chcore_v7m.o
palReadBus                                        build/obj/pal.o
palSetBusMode                                     build/obj/pal.o
palWriteBus                                       build/obj/pal.o
pal_default_config                                build/obj/board.o
                                                  build/obj/hal.o
port_halt                                         build/obj/chcore.o
rlist                                             build/obj/chschd.o
                                                  build/obj/shell.o
                                                  build/obj/usb_lld.o
                                                  build/obj/chqueues.o
                                                  build/obj/chmsg.o
                                                  build/obj/chevents.o
                                                  build/obj/chcond.o
                                                  build/obj/chmtx.o
                                                  build/obj/chsem.o
                                                  build/obj/chregistry.o
                                                  build/obj/chthreads.o
                                                  build/obj/chsys.o
                                                  build/obj/chcore_v7m.o
sduConfigureHookI                                 build/obj/serial_usb.o
                                                  build/obj/USB.o
sduDataReceived                                   build/obj/serial_usb.o
                                                  build/obj/USB.o
sduDataTransmitted                                build/obj/serial_usb.o
                                                  build/obj/USB.o
sduInit                                           build/obj/serial_usb.o
                                                  build/obj/hal.o
sduInterruptTransmitted                           build/obj/serial_usb.o
                                                  build/obj/USB.o
sduObjectInit                                     build/obj/serial_usb.o
                                                  build/obj/USB.o
sduRequestsHook                                   build/obj/serial_usb.o
                                                  build/obj/USB.o
sduStart                                          build/obj/serial_usb.o
                                                  build/obj/USB.o
sduStop                                           build/obj/serial_usb.o
serusbcfg                                         build/obj/USB.o
shellCreate                                       build/obj/shell.o
                                                  build/obj/main.o
shellCreateStatic                                 build/obj/shell.o
shellExit                                         build/obj/shell.o
shellGetLine                                      build/obj/shell.o
shellInit                                         build/obj/shell.o
                                                  build/obj/USB.o
shell_terminated                                  build/obj/shell.o
stm32_clock_init                                  build/obj/hal_lld.o
                                                  build/obj/board.o
strcasecmp                                        /usr/bin/../lib/gcc/arm-none-eabi/4.8.4/../../../../arm-none-eabi/lib/armv7e-m/libg.a(lib_a-strcasecmp.o)
                                                  build/obj/shell.o
strpbrk                                           /usr/bin/../lib/gcc/arm-none-eabi/4.8.4/../../../../arm-none-eabi/lib/armv7e-m/libg.a(lib_a-strpbrk.o)
                                                  build/obj/shell.o
strspn                                            /usr/bin/../lib/gcc/arm-none-eabi/4.8.4/../../../../arm-none-eabi/lib/armv7e-m/libg.a(lib_a-strspn.o)
                                                  build/obj/shell.o
tmInit                                            build/obj/tm.o
                                                  build/obj/hal.o
tmObjectInit                                      build/obj/tm.o
usbDisableEndpointsI                              build/obj/usb.o
usbInit                                           build/obj/usb.o
                                                  build/obj/hal.o
usbInitEndpointI                                  build/obj/usb.o
                                                  build/obj/USB.o
usbObjectInit                                     build/obj/usb.o
                                                  build/obj/usb_lld.o
usbPrepareQueuedReceive                           build/obj/usb.o
                                                  build/obj/serial_usb.o
usbPrepareQueuedTransmit                          build/obj/usb.o
                                                  build/obj/serial_usb.o
usbPrepareReceive                                 build/obj/usb.o
usbPrepareTransmit                                build/obj/usb.o
usbStallReceiveI                                  build/obj/usb.o
usbStallTransmitI                                 build/obj/usb.o
usbStart                                          build/obj/usb.o
                                                  build/obj/USB.o
usbStartReceiveI                                  build/obj/usb.o
                                                  build/obj/serial_usb.o
usbStartTransmitI                                 build/obj/usb.o
                                                  build/obj/serial_usb.o
usbStop                                           build/obj/usb.o
usb_lld_clear_in                                  build/obj/usb_lld.o
                                                  build/obj/usb.o
usb_lld_clear_out                                 build/obj/usb_lld.o
                                                  build/obj/usb.o
usb_lld_disable_endpoints                         build/obj/usb_lld.o
                                                  build/obj/usb.o
usb_lld_get_status_in                             build/obj/usb_lld.o
                                                  build/obj/usb.o
usb_lld_get_status_out                            build/obj/usb_lld.o
                                                  build/obj/usb.o
usb_lld_init                                      build/obj/usb_lld.o
                                                  build/obj/usb.o
usb_lld_init_endpoint                             build/obj/usb_lld.o
                                                  build/obj/usb.o
usb_lld_prepare_receive                           build/obj/usb_lld.o
                                                  build/obj/usb.o
usb_lld_prepare_transmit                          build/obj/usb_lld.o
                                                  build/obj/usb.o
usb_lld_read_setup                                build/obj/usb_lld.o
                                                  build/obj/usb.o
usb_lld_reset                                     build/obj/usb_lld.o
                                                  build/obj/usb.o
usb_lld_set_address                               build/obj/usb_lld.o
                                                  build/obj/usb.o
usb_lld_stall_in                                  build/obj/usb_lld.o
                                                  build/obj/usb.o
usb_lld_stall_out                                 build/obj/usb_lld.o
                                                  build/obj/usb.o
usb_lld_start                                     build/obj/usb_lld.o
                                                  build/obj/usb.o
usb_lld_start_in                                  build/obj/usb_lld.o
                                                  build/obj/usb.o
usb_lld_start_out                                 build/obj/usb_lld.o
                                                  build/obj/usb.o
usb_lld_stop                                      build/obj/usb_lld.o
                                                  build/obj/usb.o
usbcfg                                            build/obj/USB.o
vtlist                                            build/obj/chvt.o
                                                  build/obj/shell.o
                                                  build/obj/chthreads.o
                                                  build/obj/chsys.o
