:020000040800F2
:100000000000022095230008E1230008E1230008F6
:10001000E1230008E1230008E123000800000000BC
:10002000000000000000000000000000E1230008C4
:10003000E123000800000000E1230008E12300089C
:10004000E1230008E1230008E1230008E123000880
:10005000E1230008E1230008ED050008E123000882
:10006000E1230008E1230008E1230008E123000860
:10007000E1230008E1230008E1230008E123000850
:10008000E1230008E1230008E1230008E123000840
:10009000E1230008E1230008E1230008E123000830
:1000A000E1230008E1230008E1230008E123000820
:1000B000E1230008E1230008E1230008E123000810
:1000C000E1230008E1230008E1230008E123000800
:1000D000E1230008E1230008E1230008E1230008F0
:1000E000E1230008E1230008E1230008E1230008E0
:1000F000E1230008E1230008E1230008E1230008D0
:10010000E1230008E1230008E1230008E1230008BF
:10011000E1230008E1230008E1230008E1230008AF
:10012000E1230008E1230008E1230008E12300089F
:10013000E1230008E1230008E1230008E12300088F
:10014000E1230008E1230008E1230008E12300087F
:10015000E1230008E1230008E1230008E12300086F
:10016000E1230008E1230008E1230008E12300085F
:10017000E1230008E1230008E1230008E12300084F
:08018000E1230008E12300085F
:1001880010B5054C237833B9044B13B10448AFF3C9
:1001980000800123237010BD7809002000000000B2
:1001A800AC32000808B5064B1BB106480649AFF348
:1001B80000800648036813B1054B03B1984708BD92
:1001C80000000000AC3200087C09002074090020FF
:1001D8000000000016202EA1ABBE2D4801680029A2
:1001E80001D1324901608168C268002900D08D467A
:1001F800002A01D002F5807A00218B460F46254857
:10020800254A121A01F062FC01F0C8FD152025A14B
:10021800ABBE2449002001B40B780131002B15D066
:10022800202BF9D0222B01D0272B01D11A0001E075
:100238002022013902B401300B780131002B05D09E
:100248009A42F9D100224B1E1A70E5E7694602006E
:1002580092006A446B469A4206D9043A14681D68AB
:1002680015601C600433F6E76C460725AC43A546C9
:1002780004000D000948002802D0094801F0F2FCEA
:1002880001F0FCFB2000290000F046F901F0E6FB34
:100298000400002078090020840A00206D1C000852
:1002A800791C000814000020FF000000840A0020C8
:1002B800DC320008000000207409002078090020C2
:1002C800840A002080B500AF154B154AD2F8882063
:1002D80042F47002C3F88820124B124A126842F0A6
:1002E80001021A600F4B00229A600E4A0D4B1B68E0
:1002F80023F0847323F4803313600A4B0A4A5A604C
:10030800084B084A126822F480221A60054B002222
:10031800DA6000F087F8024B4FF000629A6080BD07
:1003280000ED00E0003802401030002480B487B0AF
:1003380000AF00233B6100237B610223FB600023A5
:10034800BB6002237B60324B9B6803F00C033B616C
:100358003B69042B07D0082B09D0002B3FD12D4B2C
:100368002D4A1A603FE02B4B2C4A1A603BE0284B81
:100378005B6803F480039B0DBB60254B5B6803F04F
:100388003F037B60BB68002B0DD0244A7B68B2FB1F
:10039800F3F21F4B596847F6C0730B409B0903FBE8
:1003A80002F37B610CE01C4A7B68B2FBF3F2184B4A
:1003B800596847F6C0730B409B0903FB02F37B6146
:1003C800134B5B6803F440331B0C01335B00FB6089
:1003D8007A69FB68B2FBF3F20E4B1A6003E00D4B2F
:1003E8000D4A1A6000BF0A4B9B6803F0F0031B0913
:1003F8000B4AD35CDBB23B61064B1A683B69DA40B7
:10040800044B1A601C37BD465DF8047B704700BF7B
:1004180000380240140100200024F40000127A0081
:100428001801002080B483B000AF00237B60002354
:100438003B60354B344A126842F480321A60324BC2
:100448001B6803F400333B607B6801337B603B68C7
:10045800002B03D17B68B3F5A06FF0D12A4B1B6842
:1004680003F40033002B02D001233B6001E000239A
:100478003B603B68012B42D1234B234A126C42F06C
:1004880080521A64214B214A126842F480421A6051
:100498001D4B1D4A92689A601B4B1B4A926842F496
:1004A80000429A60184B184A926842F4A0529A6027
:1004B800154B174A5A60144B134A126842F080725F
:1004C8001A6000BF104B1B6803F00073002BF9D0B3
:1004D800104B40F205621A600B4B0B4A926822F0EF
:1004E80003029A60084B084A926842F002029A6036
:1004F80000BF054B9B6803F00C03082BF9D10C37A0
:10050800BD465DF8047B704700380240007000402B
:1005180008544107003C024080B500AF00F002F8E3
:10052800FEE700BF80B500AF00F004F800F01CF84B
:1005380080BD00BF80B582B000AF0820012100F067
:10054800D3FD3B46184600F0C5F94FF470433B60B5
:1005580001233B713B460348194600F02DF9083743
:10056800BD4680BD000C024080B586B000AF0120BA
:10057800012100F0B9FD4FF48040012100F02CFE6C
:1005880001237B6000233B720023BB7202237B7232
:100598000223FB723B1D1248194600F00DF900209A
:1005A800002101F0E5F90123FB6000233B741023CF
:1005B8007B740123BB7407F10C03184601F008F89B
:1005C80006233B7501237B750123BB750123FB754E
:1005D80007F11403184601F0FDF81837BD4680BD31
:1005E8000000024080B582B000AF012001F0AEF8F3
:1005F8000346002B42D02448012100F0A7F9034606
:10060800002B1AD04FF470432048194600F0EEF939
:1006180000237B6006E01C48012100F097F97B6805
:1006280001337B607A6842F20F739A42F3DD184B0C
:100638001B685A1C164B1A6020E01348012100F071
:1006480085F90346002B19D14FF470430F4819461A
:1006580000F0DAF900233B6006E00B48012100F0C6
:1006680075F93B6801333B603A6842F20F739A426E
:10067800F3DD084B1B685A1C064B1A60012001F079
:1006880089F80837BD4680BD00000240000C0240D2
:10069800940900209809002080B582B000AF7860E6
:1006A8007A683C4B9A4208D10120012100F0B2FD42
:1006B8000120002100F0AEFD68E07A68364B9A42CE
:1006C80008D10220012100F0A5FD0220002100F040
:1006D800A1FD5BE07A68314B9A4208D104200121E0
:1006E80000F098FD0420002100F094FD4EE07A68A7
:1006F8002B4B9A4208D10820012100F08BFD0820DD
:10070800002100F087FD41E07A68264B9A4208D123
:100718001020012100F07EFD1020002100F07AFD5C
:1007280034E07A68204B9A4208D12020012100F059
:1007380071FD2020002100F06DFD27E07A681B4B39
:100748009A4208D14020012100F064FD4020002198
:1007580000F060FD1AE07A68154B9A4208D18020B3
:10076800012100F057FD8020002100F053FD0DE02D
:100778007A68104B9A4209D14FF48070012100F039
:1007880049FD4FF48070002100F044FD0837BD4654
:1007980080BD00BF00000240000402400008024083
:1007A800000C0240001002400014024000180240F1
:1007B800001C02400020024080B487B000AF78607F
:1007C800396000237B6100233B610023FB60002329
:1007D8007B6176E07B69012202FA03F33B613B68A7
:1007E8001A683B691340FB60FA683B699A4265D115
:1007F8007B681A687B695B00032101FA03F3DB431A
:100808001A407B681A607B681A683B681B7919462E
:100818007B695B0001FA03F31A437B681A603B6843
:100828001B79012B03D03B681B79022B2ED17B68E7
:100838009A687B695B00032101FA03F3DB431A40E2
:100848007B689A607B689A683B685B7919467B6924
:100858005B0001FA03F31A437B689A607B685A6865
:100868007B699BB2012101FA03F3DB431A407B68E1
:100878005A607B685A683B689B7919467B699BB2CA
:1008880001FA03F39BB21A437B685A607B68DA6803
:100898007B699BB25B00032101FA03F3DB431A4037
:1008A8007B68DA607B68DA683B68DB7919467B69C4
:1008B8005B0001FA03F31A437B68DA607B69013352
:1008C8007B617B690F2B85D91C37BD465DF8047B9E
:1008D800704700BF80B483B000AF78607B684FF684
:1008E800FF721A607B6800221A717B6800225A71B5
:1008F8007B6800229A717B680022DA710C37BD464A
:100908005DF8047B704700BF80B485B000AF7860A5
:100918000B467B804FF48033FB607A88FB68134377
:10092800FB60FA687B68DA617A887B68DA61FA6862
:100938007B68DA617B68DB69FB607B68DB69FB608D
:100948001437BD465DF8047B704700BF80B485B09E
:1009580000AF78600B467B800023FB737B681A69C5
:100968007B881340002B02D00123FB7301E0002396
:10097800FB73FB7B18461437BD465DF8047B704754
:1009880080B483B000AF78607B681B699BB218465F
:100998000C37BD465DF8047B704700BF80B485B056
:1009A80000AF78600B467B800023FB737B685A6935
:1009B8007B881340002B02D00123FB7301E0002346
:1009C800FB73FB7B18461437BD465DF8047B704704
:1009D80080B483B000AF78607B685B699BB21846CF
:1009E8000C37BD465DF8047B704700BF80B483B008
:1009F80000AF78600B467B807B687A881A830C3757
:100A0800BD465DF8047B704780B483B000AF786062
:100A18000B467B807B687A885A830C37BD465DF825
:100A2800047B704780B483B000AF786013460A46F1
:100A38007A807B707B78002B03D07B687A881A8356
:100A480002E07B687A885A830C37BD465DF8047BE0
:100A5800704700BF80B483B000AF78600B467B80DE
:100A68007A887B685A610C37BD465DF8047B70470D
:100A780080B483B000AF78600B467B807B685A698E
:100A88007B885A407B685A610C37BD465DF8047B09
:100A9800704700BF80B485B000AF786013460A463F
:100AA8007A807B700023FB600023BB607A787B88A8
:100AB80003F007039B0002FA03F3FB607B88DB0863
:100AC8009BB21A467B88DB089BB219467B680831C3
:100AD80053F821107B8803F007039B000F2000FACE
:100AE80003F3DB4319407B68083243F822107B8804
:100AF800DB089BB21A467B68083253F82220FB6851
:100B08001343BB607B88DB089BB21A467B680832BC
:100B1800B96843F822101437BD465DF8047B704766
:100B280080B400AF104B104A126842F001021A60FC
:100B38000D4B00229A600C4A0B4B1B6823F0847300
:100B480023F480331360084B084A5A60064B064A60
:100B5800126822F480221A60034B0022DA60BD4634
:100B68005DF8047B704700BF003802401030002455
:100B780080B483B000AF0346FB71054B00221A70A6
:100B8800034BFA791A700C37BD465DF8047B704741
:100B98000238024080B582B000AF00233B600023DA
:100BA800FB710023BB71312000F084FC0346BB714C
:100BB8003B6801333B603B68B3F5A06F02D0BB795B
:100BC800002BF0D0312000F075FC0346002B02D03A
:100BD8000123FB7101E00023FB71FB7918460837FC
:100BE800BD4680BD80B485B000AF0346FB710023CD
:100BF800FB600A4B1B68FB60FB6823F0F803FB6093
:100C0800FB79DB00FA681343FB60044BFA681A604F
:100C18001437BD465DF8047B704700BF00380240BA
:100C280080B483B000AF0346FB71044BFA791A60B5
:100C38000C37BD465DF8047B704700BF0000474293
:100C480080B483B000AF0346FB710C4B00221A70CE
:100C58000A4B00221A70FB79012B02D0042B04D016
:100C680007E0064B01221A7003E0044B05221A70B4
:100C780000BF0C37BD465DF8047B704770380240F2
:100C880080B483B000AF0346FB71044BFA791A6055
:100C98000C37BD465DF8047B704700BF800E4742A5
:100CA80080B485B000AFF860B9607A603B600A4BE9
:100CB8007A689101BA6811433A685208013A1204F5
:100CC8001143FA681143BA6912060A435A60143785
:100CD800BD465DF8047B70470038024080B483B09D
:100CE80000AF0346FB71044BFA791A600C37BD4616
:100CF8005DF8047B704700BF6000474280B483B052
:100D080000AF78603960064B7A6891013A6812073B
:100D18000A43C3F884200C37BD465DF8047B70474E
:100D28000038024080B483B000AF0346FB71044B27
:100D3800FA791A600C37BD465DF8047B704700BF2E
:100D48006800474280B483B000AF0346FB71044B90
:100D5800FA791A600C37BD465DF8047B704700BF0E
:100D68004C00474280B485B000AF786039600023FA
:100D7800FB600A4B9B68FB60FB6823F0EC63FB603D
:100D88007A683B681343FA681343FB60034BFA68BD
:100D98009A601437BD465DF8047B704700380240FE
:100DA80080B485B000AF786039600023FB600A4BDF
:100DB8009B68FB60FB6823F07843FB607A683B68BC
:100DC8001343FA681343FB60034BFA689A601437BD
:100DD800BD465DF8047B70470038024080B485B09A
:100DE80000AF78600023FB60094B9B68FB60FB68E1
:100DF80023F00303FB60FA687B681343FB60044B32
:100E0800FA689A601437BD465DF8047B704700BFE6
:100E18000038024080B400AF054B9B68DBB203F09A
:100E28000C03DBB21846BD465DF8047B704700BF73
:100E38000038024080B485B000AF78600023FB60C2
:100E4800094B9B68FB60FB6823F0F003FB60FA68C2
:100E58007B681343FB60044BFA689A601437BD46FD
:100E68005DF8047B704700BF0038024080B485B04D
:100E780000AF78600023FB60094B9B68FB60FB6850
:100E880023F4E053FB60FA687B681343FB60044B70
:100E9800FA689A601437BD465DF8047B704700BF56
:100EA8000038024080B485B000AF78600023FB6052
:100EB800094B9B68FB60FB6823F46043FB607B681D
:100EC800DB00FA681343FB60034BFA689A60143737
:100ED800BD465DF8047B70470038024080B489B095
:100EE80000AF78600023BB6100237B610023FB61B6
:100EF80002233B610023FB600223BB60484B9B68D5
:100F080003F00C03BB61BB69042B07D0082B09D085
:100F1800002B3FD17B68434A1A603FE07B68424A16
:100F28001A603BE03E4B5B6803F480039B0DFB605B
:100F38003B4B5B6803F03F03BB60FB68002B0DD0A5
:100F4800394ABB68B2FBF3F2354B596847F6C073B0
:100F58000B409B0903FB02F3FB610CE0314ABB68C1
:100F6800B2FBF3F22E4B596847F6C0730B409B094E
:100F780003FB02F3FB612A4B5B6803F440331B0C51
:100F880001335B003B61FA693B69B2FBF3F27B68B2
:100F98001A6003E07B68234A1A6000BF204B9B68F5
:100FA80003F0F003BB61BB691B09BB611F4ABB6946
:100FB80013441B78DBB27B617B681A687B69DA4073
:100FC8007B685A60164B9B6803F4E053BB61BB69AE
:100FD8009B0ABB61154ABB6913441B78DBB27B6172
:100FE8007B685A687B69DA407B689A600C4B9B681F
:100FF80003F46043BB61BB695B0BBB610B4ABB6914
:1010080013441B78DBB27B617B685A687B69DA40E2
:101018007B68DA602437BD465DF8047B704700BF03
:10102800003802400024F40000127A002801002051
:1010380080B485B000AF78600023FB607B6803F460
:101048004073B3F5407F11D10F4B9B68FB60FB6881
:1010580023F4F813FB607B6823F0704323F4407398
:10106800FA681343FB60084BFA689A60064B064A15
:10107800116F7A68C2F30B020A431A671437BD4628
:101088005DF8047B704700BF0038024080B483B02D
:1010980000AF0346FB71044BFA791A600C37BD4662
:1010A8005DF8047B704700BF3C0E474280B483B0B4
:1010B80000AF0346FB71044BFA791A600C37BD4642
:1010C8005DF8047B704700BF400E474280B483B090
:1010D80000AF7860034B7A681A600C37BD465DF83C
:1010E800047B70475C01474280B483B000AF7860EE
:1010F8000B46FB70FB78002B06D0094B084A116B96
:101108007A680A431A6306E0054B054A116B7A6848
:10111800D2430A401A630C37BD465DF8047B70471A
:101128000038024080B483B000AF78600B46FB7093
:10113800FB78002B06D0094B084A516B7A680A43A2
:101148005A6306E0054B054A516B7A68D2430A4058
:101158005A630C37BD465DF8047B7047003802407F
:1011680080B483B000AF78600B46FB70FB78002B2F
:1011780006D0094B084A916B7A680A439A6306E0DD
:10118800054B054A916B7A68D2430A409A630C373B
:10119800BD465DF8047B70470038024080B483B0D8
:1011A80000AF78600B46FB70FB78002B06D0094B2C
:1011B800084A116C7A680A431A6406E0054B054A26
:1011C800116C7A68D2430A401A640C37BD465DF840
:1011D800047B70470038024080B483B000AF786069
:1011E8000B46FB70FB78002B06D0094B084A516C64
:1011F8007A680A435A6406E0054B054A516C7A68D6
:10120800D2430A405A640C37BD465DF8047B7047E8
:101218000038024080B483B000AF78600B46FB70A2
:10122800FB78002B06D0094B084A11697A680A43F3
:101238001A6106E0054B054A11697A68D2430A40EB
:101248001A610C37BD465DF8047B704700380240D0
:1012580080B483B000AF78600B46FB70FB78002B3E
:1012680006D0094B084A51697A680A435A6106E070
:10127800054B054A51697A68D2430A405A610C37CE
:10128800BD465DF8047B70470038024080B483B0E7
:1012980000AF78600B46FB70FB78002B06D0094B3B
:1012A800084A91697A680A439A6106E0054B054A3B
:1012B80091697A68D2430A409A610C37BD465DF855
:1012C800047B70470038024080B483B000AF786078
:1012D8000B46FB70FB78002B06D0094B084A116AB5
:1012E8007A680A431A6206E0054B054A116A7A6869
:1012F800D2430A401A620C37BD465DF8047B70473A
:101308000038024080B483B000AF78600B46FB70B1
:10131800FB78002B06D0094B084A516A7A680A43C1
:101328005A6206E0054B054A516A7A68D2430A4078
:101338005A620C37BD465DF8047B7047003802409E
:1013480080B483B000AF78600B46FB70FB78002B4D
:1013580006D0094B084A116D7A680A431A6506E0F7
:10136800054B054A116D7A68D2430A401A650C3755
:10137800BD465DF8047B70470038024080B483B0F6
:1013880000AF78600B46FB70FB78002B06D0094B4A
:10139800084A516D7A680A435A6506E0054B054AC2
:1013A800516D7A68D2430A405A650C37BD465DF8DC
:1013B800047B70470038024080B483B000AF786087
:1013C8000B46FB70FB78002B06D0094B084A916D41
:1013D8007A680A439A6506E0054B054A916D7A6872
:1013E800D2430A409A650C37BD465DF8047B7047C6
:1013F8000038024080B483B000AF78600B46FB70C1
:10140800FB78002B06D0094B084A116E7A680A430C
:101418001A6606E0054B054A116E7A68D2430A40FF
:101428001A660C37BD465DF8047B704700380240E9
:1014380080B483B000AF78600B46FB70FB78002B5C
:1014480006D0094B084A516E7A680A435A6606E084
:10145800054B054A516E7A68D2430A405A660C37E2
:10146800BD465DF8047B70470038024080B483B005
:1014780000AF02460B46FA71BB71BB79002B08D04E
:101488000B4B0B4A1278D1B2FA790A43D2B21A70CE
:1014980009E0074B064A1278D1B2FA79D243D2B2A0
:1014A8000A40D2B21A700C37BD465DF8047B70470B
:1014B8000D38024080B487B000AF0346FB710023AB
:1014C800FB6000237B610023FB74FB795B09DBB2C3
:1014D800FB60FB68012B03D1124B1B687B6109E0A1
:1014E800FB68022B03D10F4B1B6F7B6102E00D4B96
:1014F8005B6F7B61FB7903F01F03FB60FB687A6914
:1015080022FA03F303F00103002B02D00123FB743A
:1015180001E00023FB74FB7C18461C37BD465DF8D0
:10152800047B70470038024080B400AF044B044A83
:10153800526F42F080725A67BD465DF8047B70476F
:101548000038024080B485B000AF0346FB71002329
:10155800FB73094BDA68FB791340002B02D0012397
:10156800FB7301E00023FB73FB7B18461437BD4671
:101578005DF8047B704700BF0038024080B483B038
:1015880000AF0346FB71044BFA791A700C37BD465D
:101598005DF8047B704700BF0E38024080B400AF8E
:1015A800094B00221A60084B00225A60064B0022A1
:1015B8009A60054B0022DA60034B044A5A61BD4623
:1015C8005DF8047B704700BF003C0140FFFF7F00CF
:1015D80080B485B000AF78600023FB60324BFB60BD
:1015E8007B689B79002B4DD02F4B2F4A11687A6866
:1015F8001268D2430A401A602B4B2B4A51687A680A
:101608001268D2430A405A607B681B79FA6813440F
:10161800FB60FB68FA6811687A6812680A431A6006
:10162800214B214A91687A681268D2430A409A602D
:101638001D4B1D4AD1687A681268D2430A40DA60A5
:101648007B685B79102B0ED1174B174A91687A6823
:1016580012680A439A60144B134AD1687A68126870
:101668000A43DA601BE0104BFB607B685B79FA6821
:101678001344FB60FB68FA6811687A6812680A43C9
:101688001A600CE07B681B79FA681344FB60FB68FE
:10169800FA6811687A681268D2430A401A601437E7
:1016A800BD465DF8047B7047003C014080B483B0C0
:1016B80000AF78607B6800221A607B6800221A718C
:1016C8007B680C225A717B6800229A710C37BD46E0
:1016D8005DF8047B704700BF80B483B000AF7860CA
:1016E800054B054A11697A680A431A610C37BD46E9
:1016F8005DF8047B704700BF003C014080B485B0B2
:1017080000AF78600023FB73084B5A697B6813406D
:10171800002B02D00123FB7301E00023FB73FB7B4A
:1017280018461437BD465DF8047B7047003C0140FD
:1017380080B483B000AF7860034B7A685A610C3785
:10174800BD465DF8047B7047003C014080B485B01D
:1017580000AF78600023FB730023BB600C4B1A6852
:101768007B681340BB600A4B5A697B681340002BA7
:1017780005D0BB68002B02D00123FB7301E00023D6
:10178800FB73FB7B18461437BD465DF8047B704736
:10179800003C014080B483B000AF7860034B7A68A6
:1017A8005A610C37BD465DF8047B7047003C014028
:1017B80080B483B000AF7860054A7B6843F0BF63AC
:1017C80043F40033D3600C37BD465DF8047B7047A3
:1017D80000ED00E080B485B000AF78600023FB73B3
:1017E8000023BB730F237B737B68DB78002B37D018
:1017F800254BDB68DB4303F4E0631B0AFB73FB7BCD
:10180800C3F10403BB737A7BFB7B42FA03F37B735C
:101818007B685B781A46BB7B02FA03F3FB737B6831
:101828009A787B7B1340DAB2FB7B1343FB73FB7B19
:101838001B01FB73154A7B681B781344FA7B83F8FA
:101848000023124B7A6812785209D2B27968097863
:1018580001F01F01012000FA01F143F822100EE007
:101868000A4B7A6812785209D2B27968097801F07D
:101878001F01012000FA01F1203243F82210143729
:10188800BD465DF8047B704700ED00E000E100E034
:1018980080B483B000AF78603960074A3B6823F0B2
:1018A800604323F07F0379680B4393600C37BD4690
:1018B8005DF8047B704700BF00ED00E080B483B0A2
:1018C80000AF02460B46FA71BB71BB79002B06D0FC
:1018D800094B094A1169FA790A431A6106E0064B6D
:1018E800054A1169FA79D2430A401A610C37BD4694
:1018F8005DF8047B704700BF00ED00E080B483B062
:1019080000AF78607B68042B06D1094B084A12683F
:1019180042F004021A6005E0054B054A126822F0FD
:1019280004021A600C37BD465DF8047B704700BF9F
:1019380010E000E080B500AF4FF480400121FFF7D0
:10194800E1FC4FF480400021FFF7DCFC80BD00BFC4
:1019580080B483B000AF0346FB71044BFA791A6078
:101968000C37BD465DF8047B704700BF0038014066
:1019780090B484B000AF02460B46FA71BB710023E5
:10198800FB60BB7903F003039B000F2202FA03F309
:10199800FB60154BBA799208D2B21349B87980081E
:1019A800C0B2023051F82000F968C9430140023240
:1019B80043F822100C4BBA799208D2B20A49B87986
:1019C8008008C0B2023051F82000FC79B97901F0E2
:1019D8000301890004FA01F10143023243F822109D
:1019E8001037BD4690BC70470038014080B483B0C2
:1019F80000AF7860034B7A681A600C37BD465DF813
:101A0800047B7047DC00274280B483B000AF0346F4
:101A1800FB71044BFA791A600C37BD465DF8047BFC
:101A2800704700BF0004274280B483B000AF002392
:101A3800FB71094B1B6A03F48073002B02D001234E
:101A4800FB7101E00023FB71FB7918460C37BD469A
:101A58005DF8047B704700BF0038014008B50021DD
:101A6800044600F087F8044B1868C36B03B1984725
:101A7800204600F077FC00BFA432000870B50F4E76
:101A88000F4D761BB61007D0043D0024013455F8DD
:101A9800043F9847A642F9D10A4E0B4D761B01F038
:101AA80003FCB61008D0043D0024013455F8043F67
:101AB8009847A642F9D170BD70BD00BFD03200086A
:101AC800D0320008D8320008D0320008F0B48407B9
:101AD80043D0541E002A3ED0CDB2034603E0621E16
:101AE800002C38D0144603F8015B9A07F7D1032C71
:101AF8002AD9CDB245EA05250F2C45EA054515D961
:101B0800A4F110073F0903F1100606EB07161A4661
:101B1800156055609560D5601032B242F8D104F076
:101B28000F040137032C03EB07130DD91E46224679
:101B3800043A032A46F8045BFAD8221F22F003026B
:101B48000432134404F003042CB1C9B21C4403F852
:101B5800011BA342FBD1F0BC704714460346C6E7FD
:101B6800024B13B1024800F07DB870470000000036
:101B7800791C00082DE9F04F384B1B6885B003F538
:101B8800A472019302900F460392019BD3F84881F7
:101B9800B8F1000F1CD0DDF80CB04FF00109DA469F
:101BA800D8F804305C1E11D408F188059E1C05EB9A
:101BB800830508EB860677B1EB6FBB420BD0013C7F
:101BC800631CA5F10405A6F10406F4D1244A7ABBE6
:101BD80005B0BDE8F08FD8F8042056F8043C013A67
:101BE800A24216BF0022C8F8044046F8042C002B75
:101BF800E5D0D8F88811D8F804B009FA04F20A42F6
:101C080010D0D8F88C110A420ED1029855F8041C4D
:101C18009847D8F804305B45B7D1DAF80030434527
:101C2800CDD0B2E79847F4E755F8040C9847F0E7A9
:101C3800D8F804306BB9D8F8003063B14046CAF818
:101C48000030AFF30080DAF80080B8F1000FA7D1B8
:101C5800BEE7D8F80030C2469846F6E7A432000836
:101C680000000000014600200246034600F018B8B4
:101C780038B5094D094C641BA41018BF05EB840541
:101C880005D0013C55F8043D9847002CF9D1BDE832
:101C9800384001F00FBB00BFD8320008DC32000822
:101CA800F0B5274C2668D6F8484185B00746002C81
:101CB80041D065681F2D1EDD224818B94FF0FF304E
:101CC80005B0F0BD4FF4C870039102920193AFF3D1
:101CD80000800399029A019B04460028EED0D6F8AA
:101CE80048512560002060600546C6F84841C4F8A0
:101CF8008801C4F88C013FB9AB1C00200135656030
:101D080044F8231005B0F0BD04EB85004FF0010C3A
:101D1800C0F88820D4F888610CFA05F21643022F1F
:101D2800C4F88861C0F80831E6D1D4F88C311A4378
:101D3800C4F88C21E0E706F5A674C6F84841B8E770
:101D4800A4320008000000000B4B1B6810B50446C5
:101D58000BB19A6B4AB1132C0CD8084850F83430A0
:101D6800013307D000EBC40010BD184600F068FB33
:101D7800132CF2D9002010BD60050020AC0900200A
:101D880070B500F02BFB1325044600262846314683
:101D9800ABBE05464FF0FF30256070BD2DE9F0471A
:101DA80084B0DFF89480CDF80480032600230396DE
:101DB8000124029301AD20462946ABBE81461B4F44
:101DC800CDF8048004230396C7F8009002932046B8
:101DD8002946ABBE8246DFF86490CDF8048008231C
:101DE8000396C9F800A0029320462946ABBE0446D4
:101DF8000F4B10481C60621C09BFD9F80040D9F885
:101E080000501C60254600234FF0FF31C1500833B5
:101E1800A02B084AFAD13B6813600023956014612F
:101E28005360D360536104B0BDE8F087A009002077
:101E3800A8090020AC090020A83200089C0900204D
:101E480030B585B0062401900291039201AD204679
:101E58002946ABBE0446631C02D0204605B030BDFF
:101E6800FFF78EFF05B030BD70B50E461546FFF77B
:101E78006BFF044658B1314600682A46FFF7E0FF79
:101E8800431C03D06368281A0344636070BD00F0E4
:101E9800A5FA092303604FF0FF3070BDF0B583B099
:101EA8000C461646FFF750FF0546002839D0022E8B
:101EB80026D8012E21D0022E11D06E462B680A2773
:101EC8008DE8180038463146ABBE0646731C1ED056
:101ED8003046002822DB6C60204603B0F0BD02AE1D
:101EE800036846F8083D0C2738463146ABBE07461E
:101EF800791C0FD038460444E0E74368E418DCD581
:101F080000F06CFA162303604FF0FF30E5E7FFF7A7
:101F180037FFDEE7FFF734FF421CECD14FF0FF300C
:101F2800DBE700F05BFA092303604FF0FF30D4E7EA
:101F3800FFF7B4BF30B585B0052401900291039234
:101F480001AD20462946ABBE0446631C02D020469C
:101F580005B030BDFFF714FF05B030BD70B50E46B3
:101F68001546FFF7F1FE0446E0B1314600682A46FF
:101F7800FFF7E0FF031E12DB6268E81A02449D4285
:101F8800626000D070BD00F029FA132605460024CF
:101F980030462146ABBE06462E60204670BD4FF047
:101FA800FF30EFE700F01AFA092303604FF0FF3023
:101FB80070BD00BF30B583B002AC022544F8040DF3
:101FC80028462146ABBE0446631C02D0204603B017
:101FD80030BDFFF7D5FE03B030BD00BF70B582B08D
:101FE8000446FFF7B1FE054618B3013C012C11D990
:101FF80002AC2B6844F8043D022630462146ABBEAD
:102008000446631C10D0204610B94FF0FF332B60F4
:1020180002B070BD0A4B9A681B699A42E8D14FF02A
:10202800FF3303600020F3E7FFF7AAFE0028EFD193
:10203800EBE700F0D3F9092303604FF0FF30E7E73F
:10204800AC0900200120704708B50A4B1A68014600
:102058006AB11046421869468A4201D81A6008BD1A
:1020680000F0BCF90C2303604FF0FF3008BD0248B4
:102078001860EFE7A4090020840A002070B50C4618
:10208800FFF762FE0546B0B163684FF4806243F41F
:1020980000536360E2620C2630462946ABBE054613
:1020A8006A1C03D028462061002070BDFFF768FE37
:1020B800431CF8D170BD00F091F9092303604FF07B
:1020C800FF3070BD38B50C460546002120463C223D
:1020D800FFF7FCFC28462146BDE83840FFF7CEBF95
:1020E80038B50D46044600213C222846FFF7EEFC91
:1020F8002046002100F012F8431C04460BD06B6800
:1021080043F401436B602946FFF7B8FF05462046B4
:10211800FFF764FF2C46204638BD00BF2DE9F04785
:10212800324E90B082468846002456F834506B1CD4
:102138004FEAC4070CD00134142CF6D100F04EF944
:10214800182303604FF0FF35284610B0BDE8F0872C
:1021580008F42063B3F5206F0DF104093BD040F279
:102168000163C8F3004518F0020F08EA030318BF1B
:1021780045F002050BB145F0040518F0080F18BF2B
:1021880025F00405504618BF45F00805CDF804A011
:1021980000F076FD02950390012528464946ABBE1E
:1021A8000546002D09DB46F8345037442546002300
:1021B80028467B6010B0BDE8F08700F00FF91326C1
:1021C8000446002730463946ABBE064628462660F8
:1021D80010B0BDE8F08749465046FFF781FF01304F
:1021E800BDD000F0FBF811230360ADE7AC09002077
:1021F8000EB400B50199FFF791FF5DF804EB03B049
:10220800704700BF08B500F0E9F8582303604FF0A5
:10221800FF3008BDF0B583B00E24009000F030FD0B
:1022280001906D4620462946ABBE0446631C02D089
:10223800002003B0F0BD00F0D1F8132605460027B2
:1022480030463946ABBE064620462E6003B0F0BD88
:10225800F0B505460C4638B11127002638463146F8
:10226800ABBE07462F606E6014B100232360636025
:102278000020F0BD30B51024002520462946ABBE0D
:102288000446204630BD00BF70B504461026002520
:1022980030462946ABBE06461CB126606560A5607F
:1022A800E560304670BD00BF70B5FFF74DFD0446D0
:1022B80090B1092528462146ABBE0446012C09D019
:1022C80000F08CF813260546002430462146ABBEA4
:1022D80006462E60204670BD00F080F80923036092
:1022E800F8E700BF30B583B0D8B1009000F0C8FC63
:1022F800122401906D4620462946ABBE0446631C55
:102308000BD0FF2C204606D82CB14000C0F3072381
:1023180001D0A342F9D103B030BDFFF731FD044627
:10232800EFE7012003B030BD30B585B00C46009012
:1023380000F0A6FC01902046029400F0A1FC0F24B6
:1023480003906D4620462946ABBE0446631C06D062
:102358002046003018BF0120404205B030BDFFF7CD
:102368000FFDF6E74FF0FF3100F000B8062930B551
:102378000CBF044D044D182420462946ABBE044624
:10238800204630BD2300020026000200002100F094
:1023980004B80C4B5B58435004310B480B4B4218A4
:1023A8009A42FFF4F6AF0A4A00F003B8002342F855
:1023B800043B084B9A42FFF4F9AFFDF783FFFEF7A1
:1023C800ABF87047DC3200080000002074090020D8
:1023D80078090020840A0020FFF7FEBF014B186827
:1023E800704700BF6005002000207047002070473C
:1023F800014900F001B900BFB52D000870B54B1EAA
:10240800682505FB03F50E4605F1740100F042F955
:10241800044640B100210C30666005F16802216075
:10242800A060FFF753FB204670BD00BF024B034975
:10243800186800F0E1B800BFA4320008B52D000804
:102448002DE9F04F846B83B00746002C65D14568B1
:102458003348F8630423032107F53B72C7F8E412F5
:10246800C7F8E822C7F8E04205F15C00AB812C60B0
:102478006C60AC606C66EC812C616C61AC6121466F
:102488000822FFF723FBBE68DFF898B0DFF898A0B2
:10249800DFF89890DFF89880ED6101230922C5F8EC
:1024A80020B0C5F824A0C5F82890C5F82C8021468E
:1024B800F381B28134607460B460746634617461AD
:1024C800B461082206F15C000193FFF7FFFAFD688A
:1024D800F66112200222C6F820B0C6F824A0C6F879
:1024E8002890C6F82C802146A881EA812C606C606F
:1024F800AC606C662C616C61AC6105F15C00082213
:10250800FFF7E4FA019BED61C5F820B0C5F824A0F7
:10251800C5F82890C5F82C80BB6303B0BDE8F08FE0
:10252800F9230008012C0008292C0008612C000858
:10253800812C0008214B70B51D68AB6B0646002B3B
:102548002CD005F538756B68AC68013B05D521E0E2
:10255800013B5A1C04F168041CD0B4F90C20002A71
:10256800F6D1002501234FF6FF72E281A38165664B
:102578002560A560656025616561A561294604F14E
:102588005C000822FFF7A2FA256365636564A56409
:10259800204670BD2B682BB11D46D4E72846FFF7AF
:1025A8004FFFCEE730460421FFF728FF286008B127
:1025B8000546C8E70C23336070BD00BFA43200088D
:1025C800704700BF704700BF704700BF704700BF2B
:1025D800024B0349186800F00FB800BF60050020DF
:1025E800F1230008024B0349186800F005B800BF42
:1025F80060050020F52300082DE9F04110F5387733
:1026080088461AD000267D68BC68013D0FD4A3898E
:10261800012B05F1FF3506D9B4F90E3001332046F8
:1026280001D0C04706436B1C04F16804EFD13F6832
:10263800002FE8D13046BDE8F0813E463046BDE87F
:10264800F08100BF2DE9F84310F5387680468946B9
:102658001BD000277568B468013D10D4A389012BED
:1026680005F1FF3507D9B4F90E300133214640464C
:1026780001D0C84707436B1C04F16804EED13668E3
:10268800002EE7D13846BDE8F88337463846BDE81E
:10269800F88300BF2DE9F04F01F10B05162D83B02B
:1026A800064627D935F0070527D4A94225D830464C
:1026B80000F08CFAB5F5FC7F26D2C14F4FEAD50C55
:1026C80007EBCC03DC689C4200F0D2816368E268C7
:1026D800A16823F00303234430465D68CA6045F0CF
:1026E800010591605D6000F073FA0834204603B07C
:1026F800BDE8F08F1025A942D9D900240C23204623
:10270800336003B0BDE8F08F5FEA552C00F08A8093
:10271800BCF1040F00F260814FEA951C0CF1380CF3
:102728004FEA4C01A64F07EB8101CC68A14205D1C5
:102738000CE0002B7ADAE468A14207D0626822F044
:102748000302531B0F2BF4DD0CF1FF3C0CF1010CC1
:102758009B4B3C6903F1080E744500F07E8161686B
:1027680021F003014A1B0F2A00F36481002AC3F8F1
:1027780014E0C3F810E06ADAB1F5007F80F03A811E
:10278800C90803EBC1004FEAA1085A688168A16033
:102798004FF0010909FA08F848EA0202E0605A60B5
:1027A8008460CC604FEAAC030120984090425BD82B
:1027B800024206D12CF0030C400002420CF1040C3A
:1027C800FAD007EBCC084446E146E3689C4207D1BF
:1027D80045E1002A80F25681DB689C4200F03F8187
:1027E800596821F003014A1B0F2AF2DD1C46D3F871
:1027F8000CC054F8088F591945F0010942F0010539
:10280800C3F804903046C8F80CC0CCF80880796149
:102818003961C1F80CE0C1F808E04D608A5000F059
:10282800D7F963E77E214FF03F0C7BE72244E3684A
:102838005068A16840F00105CB603046996055604A
:1028480000F0C6F90834204603B0BDE8F08F2144F3
:1028580030464B6843F001034B6000F0B9F9083487
:10286800204603B0BDE8F08FBC68636823F0030915
:10287800A94504D3C5EB09030F2B00F39180514BF5
:10288800514A19681368013305EB010A04EB090B77
:1028980000F061810AF5805A0AF10F0A2AF47F6A6A
:1028A8002AF00F0A30465146019200F093F9B0F130
:1028B800FF3F8046019A00F00081834500F2FA80CC
:1028C800DFF810C1DCF80030C3455344CCF80030C1
:1028D80000F04A8112683C4901321BBFCBEB080B60
:1028E8005B44C1F80080CCF8003018F0070300F012
:1028F8001381C3F10802C3F5805390440833C244DE
:10290800CAF30B0ACAEB030A51463046CDF804C095
:1029180000F060F9431CDDF804C000F03581C8EB15
:102928000002524442F00102DCF80030C7F8088087
:102938005344BC42C8F80420CCF80030DFF894A017
:1029480015D0B9F10F0F40F2EA806168A9F10C02C5
:1029580022F0070201F0010EA118052042EA0E0E2E
:102968000F2AC4F804E04860886000F21181174A11
:10297800BC6811688B4288BF1360154A11688B4286
:1029880088BF1360626822F003029542C5EB020318
:1029980001D80F2B04DC304600F01AF90024A5E614
:1029A800621943F0010345F0010565603046BA60DD
:1029B800536000F00DF90834204603B0BDE8F08FED
:1029C80064050020540A002070090020500A0020E5
:1029D8004C0A0020580A0020BCF1140F61D9BCF140
:1029E800540F00F28F804FEA153C0CF16E0C4FEA41
:1029F8004C0197E64B0A042B58D9142B00F2AE80F1
:102A080003F15B02500007EB8000DFF8BC818368AC
:102A1800834200F08A805A6822F00302914202D26F
:102A28009B689842F7D1D9687A68E160A3608C60A6
:102A3800DC60B7E6611942F0010745F00105656001
:102A4800304659611961C1F80CE0C1F808E04F60DF
:102A58008A50083400F0BCF848E65A68A2E609F142
:102A6800010919F0030F04F108047FF4AEAE2DE05C
:102A780004F108036469A34208BF0CF1020C3FF497
:102A880067AE23E619441C464868DB6854F8082FEB
:102A980040F001054D603046D3609A6000F098F828
:102AA80024E60CF15B0C4FEA4C013BE68A0938320C
:102AB8005000A8E7BC423FF403AFBC68626822F04C
:102AC800030262E7D8F8008098457BD11CF0030F19
:102AD800A8F108030CF1FF3CF4D17B6823EA00035A
:102AE8007B60400098423FF6BFAE00283FF4BCAE82
:102AF8000342CC467FF465AE400003420CF1040C5F
:102B0800FAD05EE6BCF5AA7F1AD84FEAD53C0CF19C
:102B1800770C4FEA4C0105E64FF48053EFE60123AA
:102B2800C8F80430444600222FE791100120D8F855
:102B3800042000FA01F10A43C8F80420194674E792
:102B480040F254539C451BD84FEA954C0CF17C0C31
:102B58004FEA4C01E6E50AF1100AA3E6542B1FD808
:102B68000A0B6E3250004EE7CBF30B0100297FF4BD
:102B7800B1AE0AEB0901BA6841F001015160F6E60D
:102B8800FC214FF07E0CCDE501224FF0000ACBE688
:102B980004F10801304600F031FADAF80030E6E6D0
:102BA800B3F5AA7F03D8CA0B773250002BE740F25F
:102BB8005452934203D88A0C7C32500023E7FC20FD
:102BC8007E2220E77B688CE764050020704700BF01
:102BD800704700BF38B5074C0023054608462360F8
:102BE800FFF732FA431C00D038BD2368002BFBD016
:102BF8002B6038BD800A002010B50C46B1F90E10C4
:102C080000F0DEFA002803DB236D0344236510BDC2
:102C1800A38923F48053A38110BD00BF002070470F
:102C28002DE9F0410C4689891D46CB051646074615
:102C380006D5B4F90E100022022300F0ADFAA189DE
:102C480021F48051A1813846B4F90E1032462B4642
:102C5800BDE8F04100F044B810B50C46B1F90E10CB
:102C680000F09AFAA389421C0EBF23F4805343F460
:102C780080532065A38110BDB1F90E1000F044B84F
:102C880020F0030110F00300C0F1000051F8043BEC
:102C980000F1040C4FEACC0C6FF000021CBF22FAC2
:102CA8000CF213434FF0010C4CEA0C2C4CEA0C4C80
:102CB800A3EB0C0222EA030212EACC1204BF51F879
:102CC800043B0430F4D013F0FF0F1FBF013013F49E
:102CD8007F4F013013F47F0F18BF0130704700BFDA
:102CE80070B5084C06460025084611461A46256068
:102CF800FFF734F9431C00D070BD2368002BFBD0CC
:102D0800336070BD800A002038B5074C00230546A3
:102D180008462360FFF762F9431C00D038BD2368DA
:102D2800002BFBD02B6038BD800A002070B50C4604
:102D3800054631B110B1836B002B2FD0B4F90C309C
:102D48000BB9002070BD2846214600F0E1F8E36A7F
:102D5800064633B12846E16998470028B8BF4FF0C6
:102D6800FF36A3891B061CD4216B41B104F1400333
:102D7800994202D0284600F041F900232363616C90
:102D880021B1284600F03AF900236364FFF718FCE4
:102D98000023A381FFF716FC304670BDFFF750FBF8
:102DA800CCE72846216900F029F9DDE7024B014606
:102DB8001868FFF7BBBF00BF600500208B899AB277
:102DC8002DE9F0410D46110780463CD46A6843F46A
:102DD8000063002AAB8159DDAC6A002C4BD09BB252
:102DE80003F48052002192B2D8F80060C8F80010AD
:102DF800002A4FD02A6D5F0705D569682B6B521AD8
:102E08000BB1EB6BD21A4046E9690023A047441C7A
:102E18004AD0AA892B692B6022F400639BB2002256
:102E28006A60DA04AB814CD4296BC8F8006011B32E
:102E380005F14003994202D0404600F0DFF8002037
:102E48002863BDE8F0812E69AEB12C682E60910729
:102E58000CBF6B690023A41BAB600AE03246234613
:102E68006F6AE9694046B8470028C0EB0404064485
:102E780004DD002CF2DC0020BDE8F081AB8943F0D2
:102E88004003AB814FF0FF30BDE8F081EA6B002AC8
:102E9800A2DCF0E701234046E969A047431C02464B
:102EA8001ED0AB89AC6AA6E7D8F800305BB9A9890F
:102EB8006B6021F400639BB22A69AB81DB042A6052
:102EC800B2D52865B0E71D2B01D0162B19D1AA89D8
:102ED8002B692B6022F400620023AA816B60A3E7B0
:102EE800D8F80030002BDCD01D2B07D0162B05D0CE
:102EF800AB8943F04003AB81BDE8F081C8F80060BE
:102F0800B9E7AB8943F04003AB81BDE8F08100BF6E
:102F180010B5044682B008B1836B53B1B1F90C0007
:102F280008B902B010BD204602B0BDE81040FFF756
:102F380045BF0191FFF784FA0199EFE720B1054BEE
:102F480001461868FFF7E4BF034B04491868FFF708
:102F580079BB00BF60050020A4320008192F0008C3
:102F6800F8B5234D0F460446FFF730FEAB685E68A0
:102F780026F00306F11B01F6EF7121F47F6121F0C1
:102F88000F01A1F58057B7F5805F07DB20460021C8
:102F9800FFF720FEAB683344984204D02046FFF781
:102FA80017FE0020F8BD20467942FFF713FE0130D6
:102FB8000DD0104BAA681968F61B46F0010620468A
:102FC800C91B56601960FFF703FE0120F8BD2046B3
:102FD8000021FFF7FFFDAB68C21A0F2ADEDD064DA0
:102FE80004492D6842F00102401B5A600860D5E789
:102FF80064050020580A0020700900202DE9F041DE
:103008000D460646002955D0FFF7E0FD55F8041C8B
:10301800DFF874C121F00103A5F10804E218DCF817
:1030280008005768904227F0030769D011F00101A2
:10303800576032D00021D0194068C00706D43B44FD
:10304800906800294ED0D268C260906043F00102B7
:103058006260E350E1B9B3F5007F2DD35A0A042A20
:103068006AD89809383041000CEB810C4649DCF8E5
:103078000820624566D0516821F003018B4202D2D4
:1030880092689445F7D1D368E360A2609C60D460ED
:103098003046BDE8F041FFF79BBD55F8085C641B5E
:1030A8000CF10808A06840452B4443D0E568C5608A
:1030B800A860C0E7BDE8F081DB080CEBC30201257E
:1030C800DCF804009168A1609B1005FA03F318432B
:1030D800E260CCF8040094603046CC60BDE8F04172
:1030E800FFF776BD294DA842ADD143F00102CCF8D7
:1030F8001440CCF81040E060A0606260E350C7E77D
:103108001F44CB0707D455F8083CE41A1F44A268AB
:10311800E368D3609A601E4B1B6847F001029F4228
:103128006260CCF80840B3D31A4B30461968FFF7F1
:1031380017FFADE701217EE7142A0CD802F15B00E6
:10314800410091E74B688010012505FA00F0034320
:103158004B60134698E7542A03D8180B6E30410089
:1031680082E7B2F5AA7F03D8D80B773041007BE716
:1031780040F254518A4203D8980C7C30410073E7DE
:10318800FC217E2070E700BF640500206C0500204C
:103198006C090020540A002070B5084C064600252A
:1031A800084611461A462560FEF7C2FE431C00D0A9
:1031B80070BD2368002BFBD0336070BD800A0020EF
:1031C80070B5084C06460025084611461A46256083
:1031D800FEF74AFE431C00D070BD2368002BFBD0CD
:1031E800336070BD800A002038B50C460968054672
:1031F80009B1FFF7F9FF28462146BDE83840FFF737
:10320800FDBE00BF224B1B68984270B5054632D000
:10321800C26CAAB100231E4652F8231009B907E070
:1032280021460C682846FFF7E9FE002CF8D1EA6C25
:103238000136202E3346EFD111462846FFF7DEFE31
:10324800296C11B12846FFF7D9FED5F8481159B1B4
:1032580005F5A676B14201D106E021460C6828465C
:10326800FFF7CCFEA642F8D1696D11B12846FFF7E9
:10327800C5FEAB6B03B970BDEB6B28469847D5F814
:10328800E0120029F7D02846BDE87040FFF7ACBF30
:103298006005002000F00100430000003801002014
:1032A8003A74740000000000F8B500BFF8BC08BC10
:1032B8009E467047F8B500BFF8BC08BC9E467047EC
:0832C80014CFFF7F010000009C
:0832D000691B0008AD010008B4
:0432D8008901000860
:1032DC0000000000000000000000000000000000E2
:1032EC0000000000000000000000000000000000D2
:1032FC0000000000000000000000000000000000C2
:10330C0000000000000000000000000000000000B1
:10331C0000000000000000000000000000000000A1
:10332C000000000000000000000000000000000091
:10333C000000000000000000000000000000000081
:10334C000000000000000000000000000000000071
:10335C000000000000000000000000000000000061
:10336C000000000000000000000000000000000051
:10337C000000000000000000000000000000000041
:10338C000000000000000000000000000000000031
:10339C000000000000000000000000000000000021
:1033AC000000000000000000000000000000000011
:1033BC000000000000000000000000000000000001
:1033CC0000000000000000000000000000000000F1
:1033DC0000000000000000000000000000000000E1
:1033EC0000000000007A030A00000000000000004A
:1033FC00010203040607080900000000010203048F
:10340C000102030406070809000000002404002040
:10341C008C040020F40400200000000000000000D8
:10342C000000000000000000000000000000000090
:10343C00000000000000000000000000A0320008A6
:10344C000000000000000000000000000000000070
:10345C000000000000000000000000000000000060
:10346C000000000000000000000000000000000050
:10347C000000000000000000000000000000000040
:10348C000000000000000000000000000000000030
:10349C000000000000000000000000000000000020
:1034AC000000000000000000000000000000000010
:1034BC0001000000000000000E33CDAB34126DE6AD
:1034CC00ECDE05000B000000000000000000000016
:1034DC0000000000000000000000000000000000E0
:1034EC0000000000000000000000000000000000D0
:1034FC0000000000000000000000000000000000C0
:10350C0000000000000000000000000000000000AF
:10383C00380100200000000000000000640500209A
:10384C00640500206C0500206C0500207405002028
:10385C00740500207C0500207C05002084050020D8
:10386C00840500208C0500208C0500209405002088
:10387C00940500209C0500209C050020A405002038
:10388C00A4050020AC050020AC050020B4050020E8
:10389C00B4050020BC050020BC050020C405002098
:1038AC00C4050020CC050020CC050020D405002048
:1038BC00D4050020DC050020DC050020E4050020F8
:1038CC00E4050020EC050020EC050020F4050020A8
:1038DC00F4050020FC050020FC0500200406002057
:1038EC00040600200C0600200C0600201406002004
:1038FC00140600201C0600201C06002024060020B4
:10390C00240600202C0600202C0600203406002063
:10391C00340600203C0600203C0600204406002013
:10392C00440600204C0600204C06002054060020C3
:10393C00540600205C0600205C0600206406002073
:10394C00640600206C0600206C0600207406002023
:10395C00740600207C0600207C06002084060020D3
:10396C00840600208C0600208C0600209406002083
:10397C00940600209C0600209C060020A406002033
:10398C00A4060020AC060020AC060020B4060020E3
:10399C00B4060020BC060020BC060020C406002093
:1039AC00C4060020CC060020CC060020D406002043
:1039BC00D4060020DC060020DC060020E4060020F3
:1039CC00E4060020EC060020EC060020F4060020A3
:1039DC00F4060020FC060020FC0600200407002052
:1039EC00040700200C0700200C07002014070020FF
:1039FC00140700201C0700201C07002024070020AF
:103A0C00240700202C0700202C070020340700205E
:103A1C00340700203C0700203C070020440700200E
:103A2C00440700204C0700204C07002054070020BE
:103A3C00540700205C0700205C070020640700206E
:103A4C00640700206C0700206C070020740700201E
:103A5C00740700207C0700207C07002084070020CE
:103A6C00840700208C0700208C070020940700207E
:103A7C00940700209C0700209C070020A40700202E
:103A8C00A4070020AC070020AC070020B4070020DE
:103A9C00B4070020BC070020BC070020C40700208E
:103AAC00C4070020CC070020CC070020D40700203E
:103ABC00D4070020DC070020DC070020E4070020EE
:103ACC00E4070020EC070020EC070020F40700209E
:103ADC00F4070020FC070020FC070020040800204D
:103AEC00040800200C0800200C08002014080020FA
:103AFC00140800201C0800201C08002024080020AA
:103B0C00240800202C0800202C0800203408002059
:103B1C00340800203C0800203C0800204408002009
:103B2C00440800204C0800204C08002054080020B9
:103B3C00540800205C0800205C0800206408002069
:103B4C00640800206C0800206C0800207408002019
:103B5C00740800207C0800207C08002084080020C9
:103B6C00840800208C0800208C0800209408002079
:103B7C00940800209C0800209C080020A408002029
:103B8C00A4080020AC080020AC080020B4080020D9
:103B9C00B4080020BC080020BC080020C408002089
:103BAC00C4080020CC080020CC080020D408002039
:103BBC00D4080020DC080020DC080020E4080020E9
:103BCC00E4080020EC080020EC080020F408002099
:103BDC00F4080020FC080020FC0800200409002048
:103BEC00040900200C0900200C09002014090020F5
:103BFC00140900201C0900201C09002024090020A5
:103C0C00240900202C0900202C0900203409002054
:103C1C00340900203C0900203C0900204409002004
:103C2C00440900204C0900204C09002054090020B4
:103C3C00540900205C0900205C09002000000200EF
:043C4C00FFFFFFFF78
:043C50000000000070
:040000050800239537
:00000001FF
