ARM GAS  /tmp/ccpaRMqF.s 			page 1


   1              		.syntax unified
   2              		.cpu cortex-m4
   3              		.fpu softvfp
   4              		.eabi_attribute 20, 1
   5              		.eabi_attribute 21, 1
   6              		.eabi_attribute 23, 3
   7              		.eabi_attribute 24, 1
   8              		.eabi_attribute 25, 1
   9              		.eabi_attribute 26, 1
  10              		.eabi_attribute 30, 2
  11              		.eabi_attribute 34, 1
  12              		.eabi_attribute 18, 4
  13              		.thumb
  14              		.file	"crt0.c"
  15              		.text
  16              	.Ltext0:
  17              		.cfi_sections	.debug_frame
  18              		.section	.text.__early_init,"ax",%progbits
  19              		.align	2
  20              		.p2align 4,,15
  21              		.weak	__early_init
  22              		.thumb
  23              		.thumb_func
  24              		.type	__early_init, %function
  25              	__early_init:
  26              	.LFB0:
  27              		.file 1 "../ChibiOS_2.6.7_minified/os/ports/GCC/ARMCMx/crt0.c"
  28              		.loc 1 234 0
  29              		.cfi_startproc
  30              		@ args = 0, pretend = 0, frame = 0
  31              		@ frame_needed = 0, uses_anonymous_args = 0
  32              		@ link register save eliminated.
  33 0000 7047     		bx	lr
  34              		.cfi_endproc
  35              	.LFE0:
  36              		.size	__early_init, .-__early_init
  37 0002 00BFAFF3 		.section	.text.__late_init,"ax",%progbits
  37      0080AFF3 
  37      0080AFF3 
  37      0080
  38              		.align	2
  39              		.p2align 4,,15
  40              		.weak	__late_init
  41              		.thumb
  42              		.thumb_func
  43              		.type	__late_init, %function
  44              	__late_init:
  45              	.LFB1:
  46              		.loc 1 246 0
  47              		.cfi_startproc
  48              		@ args = 0, pretend = 0, frame = 0
  49              		@ frame_needed = 0, uses_anonymous_args = 0
  50              		@ link register save eliminated.
  51 0000 7047     		bx	lr
  52              		.cfi_endproc
  53              	.LFE1:
  54              		.size	__late_init, .-__late_init
ARM GAS  /tmp/ccpaRMqF.s 			page 2


  55 0002 00BFAFF3 		.section	.text._default_exit,"ax",%progbits
  55      0080AFF3 
  55      0080AFF3 
  55      0080
  56              		.align	2
  57              		.p2align 4,,15
  58              		.weak	_default_exit
  59              		.thumb
  60              		.thumb_func
  61              		.type	_default_exit, %function
  62              	_default_exit:
  63              	.LFB2:
  64              		.loc 1 257 0
  65              		.cfi_startproc
  66              		@ Naked Function: prologue and epilogue provided by programmer.
  67              		@ args = 0, pretend = 0, frame = 0
  68              		@ frame_needed = 0, uses_anonymous_args = 0
  69              	.L4:
  70 0000 FEE7     		b	.L4
  71              		.cfi_endproc
  72              	.LFE2:
  73              		.size	_default_exit, .-_default_exit
  74 0002 00BFAFF3 		.section	.text.ResetHandler,"ax",%progbits
  74      0080AFF3 
  74      0080AFF3 
  74      0080
  75              		.align	2
  76              		.p2align 4,,15
  77              		.global	ResetHandler
  78              		.thumb
  79              		.thumb_func
  80              		.type	ResetHandler, %function
  81              	ResetHandler:
  82              	.LFB3:
  83              		.loc 1 268 0
  84              		.cfi_startproc
  85              		@ Naked Function: prologue and epilogue provided by programmer.
  86              		@ args = 0, pretend = 0, frame = 0
  87              		@ frame_needed = 0, uses_anonymous_args = 0
  88              		.loc 1 274 0
  89              	@ 274 "../ChibiOS_2.6.7_minified/os/ports/GCC/ARMCMx/crt0.c" 1
  90 0000 72B6     		cpsid   i
  91              	@ 0 "" 2
  92              		.loc 1 275 0
  93              		.thumb
  94 0002 3048     		ldr	r0, .L27
  95              	.LVL0:
  96              		.loc 1 276 0
  97              	@ 276 "../ChibiOS_2.6.7_minified/os/ports/GCC/ARMCMx/crt0.c" 1
  98 0004 80F30988 		msr     PSP, r0
  99              	@ 0 "" 2
 100              	.LVL1:
 101              		.loc 1 296 0
 102              		.thumb
 103 0008 0223     		movs	r3, #2
 104              	@ 296 "../ChibiOS_2.6.7_minified/os/ports/GCC/ARMCMx/crt0.c" 1
 105 000a 83F31488 		msr     CONTROL, r3
ARM GAS  /tmp/ccpaRMqF.s 			page 3


 106              	@ 0 "" 2
 107              		.loc 1 297 0
 108              	@ 297 "../ChibiOS_2.6.7_minified/os/ports/GCC/ARMCMx/crt0.c" 1
 109 000e BFF36F8F 		isb
 110              	@ 0 "" 2
 111              	.LVL2:
 112              		.thumb
 113              	.LBB2:
 114              		.loc 1 301 0
 115 0012 2D4B     		ldr	r3, .L27+4
 116 0014 2D4A     		ldr	r2, .L27+8
 117 0016 9342     		cmp	r3, r2
 118 0018 0BD2     		bcs	.L9
 119 001a D943     		mvns	r1, r3
 120 001c 1144     		add	r1, r1, r2
 121 001e 21F00301 		bic	r1, r1, #3
 122 0022 1944     		add	r1, r1, r3
 123 0024 4FF05532 		mov	r2, #1431655765
 124 0028 043B     		subs	r3, r3, #4
 125              	.LVL3:
 126              	.L10:
 127              		.loc 1 301 0 is_stmt 0 discriminator 2
 128 002a 43F8042F 		str	r2, [r3, #4]!
 129              	.LVL4:
 130 002e 8B42     		cmp	r3, r1
 131 0030 FBD1     		bne	.L10
 132              	.LVL5:
 133              	.L9:
 134              	.LBE2:
 135              	.LBB3:
 136              		.loc 1 304 0 is_stmt 1
 137 0032 274B     		ldr	r3, .L27+12
 138 0034 8342     		cmp	r3, r0
 139 0036 0CD2     		bcs	.L8
 140 0038 2649     		ldr	r1, .L27+16
 141 003a 1A1D     		adds	r2, r3, #4
 142 003c 891A     		subs	r1, r1, r2
 143 003e 21F00301 		bic	r1, r1, #3
 144 0042 1944     		add	r1, r1, r3
 145 0044 4FF05532 		mov	r2, #1431655765
 146 0048 043B     		subs	r3, r3, #4
 147              	.LVL6:
 148              	.L13:
 149              		.loc 1 304 0 is_stmt 0 discriminator 2
 150 004a 43F8042F 		str	r2, [r3, #4]!
 151              	.LVL7:
 152 004e 8B42     		cmp	r3, r1
 153 0050 FBD1     		bne	.L13
 154              	.LVL8:
 155              	.L8:
 156              	.LBE3:
 157              		.loc 1 310 0 is_stmt 1
 158 0052 FFF7FEFF 		bl	__early_init
 159              	.LVL9:
 160              	.LBB4:
 161              		.loc 1 319 0
 162 0056 2049     		ldr	r1, .L27+20
ARM GAS  /tmp/ccpaRMqF.s 			page 4


 163 0058 204B     		ldr	r3, .L27+24
 164 005a 9942     		cmp	r1, r3
 165 005c 0BD2     		bcs	.L12
 166 005e C843     		mvns	r0, r1
 167 0060 1844     		add	r0, r0, r3
 168 0062 20F00300 		bic	r0, r0, #3
 169 0066 1E4C     		ldr	r4, .L27+28
 170 0068 0430     		adds	r0, r0, #4
 171 006a 0023     		movs	r3, #0
 172              	.LVL10:
 173              	.L16:
 174              		.loc 1 320 0
 175 006c E258     		ldr	r2, [r4, r3]
 176 006e CA50     		str	r2, [r1, r3]
 177 0070 0433     		adds	r3, r3, #4
 178              	.LVL11:
 179              		.loc 1 319 0
 180 0072 8342     		cmp	r3, r0
 181 0074 FAD1     		bne	.L16
 182              	.LVL12:
 183              	.L12:
 184              	.LBE4:
 185              	.LBB5:
 186              		.loc 1 326 0
 187 0076 1B4B     		ldr	r3, .L27+32
 188 0078 1B4A     		ldr	r2, .L27+36
 189 007a 9342     		cmp	r3, r2
 190 007c 0AD2     		bcs	.L15
 191 007e D943     		mvns	r1, r3
 192 0080 1144     		add	r1, r1, r2
 193 0082 21F00301 		bic	r1, r1, #3
 194 0086 1944     		add	r1, r1, r3
 195 0088 0022     		movs	r2, #0
 196 008a 043B     		subs	r3, r3, #4
 197              	.LVL13:
 198              	.L19:
 199              		.loc 1 326 0 is_stmt 0 discriminator 2
 200 008c 43F8042F 		str	r2, [r3, #4]!
 201              	.LVL14:
 202 0090 8B42     		cmp	r3, r1
 203 0092 FBD1     		bne	.L19
 204              	.LVL15:
 205              	.L15:
 206              	.LBE5:
 207              	.LBB6:
 208              		.loc 1 336 0 is_stmt 1
 209 0094 154D     		ldr	r5, .L27+40
 210 0096 164C     		ldr	r4, .L27+44
 211              	.LBE6:
 212              		.loc 1 330 0
 213 0098 FFF7FEFF 		bl	__late_init
 214              	.LVL16:
 215              	.LBB7:
 216              		.loc 1 336 0
 217 009c AC42     		cmp	r4, r5
 218 009e 04D2     		bcs	.L18
 219              	.LVL17:
ARM GAS  /tmp/ccpaRMqF.s 			page 5


 220              	.L22:
 221              		.loc 1 337 0
 222 00a0 54F8043B 		ldr	r3, [r4], #4
 223              	.LVL18:
 224 00a4 9847     		blx	r3
 225              	.LVL19:
 226              		.loc 1 336 0
 227 00a6 AC42     		cmp	r4, r5
 228 00a8 FAD3     		bcc	.L22
 229              	.LVL20:
 230              	.L18:
 231              	.LBE7:
 232              	.LBB8:
 233              		.loc 1 350 0
 234 00aa 124D     		ldr	r5, .L27+48
 235 00ac 124C     		ldr	r4, .L27+52
 236              	.LBE8:
 237              		.loc 1 344 0
 238 00ae FFF7FEFF 		bl	main
 239              	.LVL21:
 240              	.LBB9:
 241              		.loc 1 350 0
 242 00b2 AC42     		cmp	r4, r5
 243 00b4 04D2     		bcs	.L21
 244              	.LVL22:
 245              	.L23:
 246              		.loc 1 351 0
 247 00b6 54F8043B 		ldr	r3, [r4], #4
 248              	.LVL23:
 249 00ba 9847     		blx	r3
 250              	.LVL24:
 251              		.loc 1 350 0
 252 00bc AC42     		cmp	r4, r5
 253 00be FAD3     		bcc	.L23
 254              	.LVL25:
 255              	.L21:
 256              	.LBE9:
 257              		.loc 1 358 0
 258 00c0 FFF7FEFF 		bl	_default_exit
 259              	.LVL26:
 260              		.loc 1 359 0
 261              	.L28:
 262              		.align	2
 263              	.L27:
 264 00c4 00000000 		.word	__process_stack_end__
 265 00c8 00000000 		.word	__main_stack_base__
 266 00cc 00000000 		.word	__main_stack_end__
 267 00d0 00000000 		.word	__process_stack_base__
 268 00d4 03000000 		.word	__process_stack_end__+3
 269 00d8 00000000 		.word	_data
 270 00dc 00000000 		.word	_edata
 271 00e0 00000000 		.word	_textdata
 272 00e4 00000000 		.word	_bss_start
 273 00e8 00000000 		.word	_bss_end
 274 00ec 00000000 		.word	__init_array_end
 275 00f0 00000000 		.word	__init_array_start
 276 00f4 00000000 		.word	__fini_array_end
ARM GAS  /tmp/ccpaRMqF.s 			page 6


 277 00f8 00000000 		.word	__fini_array_start
 278              		.cfi_endproc
 279              	.LFE3:
 280              		.size	ResetHandler, .-ResetHandler
 281 00fc AFF30080 		.text
 282              	.Letext0:
 283              		.file 2 "/usr/arm-none-eabi/include/machine/_default_types.h"
 284              		.file 3 "/usr/arm-none-eabi/include/stdint.h"
