ARM GAS  /tmp/cca2j70e.s 			page 1


   1              		.syntax unified
   2              		.cpu cortex-m4
   3              		.fpu softvfp
   4              		.eabi_attribute 20, 1
   5              		.eabi_attribute 21, 1
   6              		.eabi_attribute 23, 3
   7              		.eabi_attribute 24, 1
   8              		.eabi_attribute 25, 1
   9              		.eabi_attribute 26, 1
  10              		.eabi_attribute 30, 2
  11              		.eabi_attribute 34, 1
  12              		.eabi_attribute 18, 4
  13              		.thumb
  14              		.file	"chregistry.c"
  15              		.text
  16              	.Ltext0:
  17              		.cfi_sections	.debug_frame
  18              		.section	.text.chRegFirstThread,"ax",%progbits
  19              		.align	2
  20              		.p2align 4,,15
  21              		.global	chRegFirstThread
  22              		.thumb
  23              		.thumb_func
  24              		.type	chRegFirstThread, %function
  25              	chRegFirstThread:
  26              	.LFB7:
  27              		.file 1 "../ChibiOS_2.6.7_minified/os/kernel/src/chregistry.c"
  28              		.loc 1 117 0
  29              		.cfi_startproc
  30              		@ args = 0, pretend = 0, frame = 0
  31              		@ frame_needed = 0, uses_anonymous_args = 0
  32              		@ link register save eliminated.
  33              	.LBB2:
  34              		.loc 1 120 0
  35 0000 2023     		movs	r3, #32
  36              	@ 120 "../ChibiOS_2.6.7_minified/os/kernel/src/chregistry.c" 1
  37 0002 83F31188 		msr     BASEPRI, r3
  38              	@ 0 "" 2
  39              		.thumb
  40              	.LBE2:
  41              		.loc 1 121 0
  42 0006 044B     		ldr	r3, .L2
  43 0008 1869     		ldr	r0, [r3, #16]
  44              	.LVL0:
  45              		.loc 1 123 0
  46 000a 837F     		ldrb	r3, [r0, #30]	@ zero_extendqisi2
  47 000c 0133     		adds	r3, r3, #1
  48 000e 8377     		strb	r3, [r0, #30]
  49              	.LBB3:
  50              		.loc 1 125 0
  51 0010 0023     		movs	r3, #0
  52              	@ 125 "../ChibiOS_2.6.7_minified/os/kernel/src/chregistry.c" 1
  53 0012 83F31188 		msr     BASEPRI, r3
  54              	@ 0 "" 2
  55              		.thumb
  56              	.LBE3:
  57              		.loc 1 127 0
ARM GAS  /tmp/cca2j70e.s 			page 2


  58 0016 7047     		bx	lr
  59              	.L3:
  60              		.align	2
  61              	.L2:
  62 0018 00000000 		.word	rlist
  63              		.cfi_endproc
  64              	.LFE7:
  65              		.size	chRegFirstThread, .-chRegFirstThread
  66 001c AFF30080 		.section	.text.chRegNextThread,"ax",%progbits
  67              		.align	2
  68              		.p2align 4,,15
  69              		.global	chRegNextThread
  70              		.thumb
  71              		.thumb_func
  72              		.type	chRegNextThread, %function
  73              	chRegNextThread:
  74              	.LFB8:
  75              		.loc 1 140 0
  76              		.cfi_startproc
  77              		@ args = 0, pretend = 0, frame = 0
  78              		@ frame_needed = 0, uses_anonymous_args = 0
  79              	.LVL1:
  80 0000 10B5     		push	{r4, lr}
  81              		.cfi_def_cfa_offset 8
  82              		.cfi_offset 4, -8
  83              		.cfi_offset 14, -4
  84              	.LBB4:
  85              		.loc 1 143 0
  86 0002 2023     		movs	r3, #32
  87              	@ 143 "../ChibiOS_2.6.7_minified/os/kernel/src/chregistry.c" 1
  88 0004 83F31188 		msr     BASEPRI, r3
  89              	@ 0 "" 2
  90              		.thumb
  91              	.LBE4:
  92              		.loc 1 145 0
  93 0008 074B     		ldr	r3, .L7
  94              		.loc 1 144 0
  95 000a 0469     		ldr	r4, [r0, #16]
  96              	.LVL2:
  97              		.loc 1 145 0
  98 000c 9C42     		cmp	r4, r3
  99              		.loc 1 151 0
 100 000e 1DBF     		ittte	ne
 101 0010 A37F     		ldrbne	r3, [r4, #30]	@ zero_extendqisi2
 102 0012 0133     		addne	r3, r3, #1
 103 0014 A377     		strbne	r3, [r4, #30]
 104              		.loc 1 146 0
 105 0016 0024     		moveq	r4, #0
 106              	.LVL3:
 107              	.LBB5:
 108              		.loc 1 154 0
 109 0018 0023     		movs	r3, #0
 110              	@ 154 "../ChibiOS_2.6.7_minified/os/kernel/src/chregistry.c" 1
 111 001a 83F31188 		msr     BASEPRI, r3
 112              	@ 0 "" 2
 113              		.thumb
 114              	.LBE5:
ARM GAS  /tmp/cca2j70e.s 			page 3


 115              		.loc 1 156 0
 116 001e FFF7FEFF 		bl	chThdRelease
 117              	.LVL4:
 118              		.loc 1 159 0
 119 0022 2046     		mov	r0, r4
 120 0024 10BD     		pop	{r4, pc}
 121              	.LVL5:
 122              	.L8:
 123 0026 00BF     		.align	2
 124              	.L7:
 125 0028 00000000 		.word	rlist
 126              		.cfi_endproc
 127              	.LFE8:
 128              		.size	chRegNextThread, .-chRegNextThread
 129              		.global	ch_debug
 130 002c AFF30080 		.section	.rodata.ch_debug,"a",%progbits
 131              		.align	2
 132              		.type	ch_debug, %object
 133              		.size	ch_debug, 22
 134              	ch_debug:
 135 0000 6D61696E 		.ascii	"main"
 136 0004 00       		.byte	0
 137 0005 16       		.byte	22
 138 0006 8711     		.short	4487
 139 0008 04       		.byte	4
 140 0009 04       		.byte	4
 141 000a 48       		.byte	72
 142 000b 08       		.byte	8
 143 000c 0C       		.byte	12
 144 000d 10       		.byte	16
 145 000e 14       		.byte	20
 146 000f 18       		.byte	24
 147 0010 00       		.byte	0
 148 0011 1C       		.byte	28
 149 0012 1D       		.byte	29
 150 0013 1E       		.byte	30
 151 0014 1F       		.byte	31
 152 0015 20       		.byte	32
 153 0016 0000     		.text
 154              	.Letext0:
 155              		.file 2 "/usr/lib/gcc/arm-none-eabi/4.8.4/include/stddef.h"
 156              		.file 3 "/usr/arm-none-eabi/include/machine/_default_types.h"
 157              		.file 4 "/usr/arm-none-eabi/include/stdint.h"
 158              		.file 5 "../ChibiOS_2.6.7_minified/os/ports/GCC/ARMCMx/chtypes.h"
 159              		.file 6 "../ChibiOS_2.6.7_minified/os/kernel/include/chlists.h"
 160              		.file 7 "../ChibiOS_2.6.7_minified/os/kernel/include/chthreads.h"
 161              		.file 8 "../ChibiOS_2.6.7_minified/os/ports/GCC/ARMCMx/chcore_v7m.h"
 162              		.file 9 "../ChibiOS_2.6.7_minified/os/kernel/include/chschd.h"
 163              		.file 10 "../ChibiOS_2.6.7_minified/os/kernel/include/chmtx.h"
 164              		.file 11 "../ChibiOS_2.6.7_minified/os/kernel/include/chregistry.h"
 165              		.file 12 "../ChibiOS_2.6.7_minified/os/kernel/include/chdynamic.h"
