:020000040800F2
:1000000000040020010C0008010D0008010D00088B
:10001000010D0008010D0008010D0008010D000888
:10002000010D0008010D0008010D0008210D000858
:10003000010D0008010D0008010D0008E10D000888
:10004000010D0008010D0008010D0008010D000858
:10005000010D0008010D0008010D0008010D000848
:10006000010D0008010D0008010D0008010D000838
:10007000010D0008010D0008010D0008010D000828
:10008000010D0008010D0008010D0008010D000818
:10009000010D0008010D0008010D0008010D000808
:1000A000010D0008010D0008010D0008010D0008F8
:1000B000010D0008010D0008010D0008010D0008E8
:1000C000010D0008010D0008010D0008010D0008D8
:1000D000010D0008010D0008010D0008010D0008C8
:1000E000010D0008010D0008010D0008010D0008B8
:1000F000010D0008010D0008010D0008010D0008A8
:10010000010D0008010D0008010D0008010D000897
:10011000010D0008010D0008010D0008010D000887
:10012000010D0008010D0008010D0008010D000877
:10013000010D0008010D0008010D0008010D000867
:10014000010D0008010D0008010D00083133000801
:10015000010D0008010D0008010D0008010D000847
:10016000010D0008010D0008010D0008010D000837
:10017000010D0008010D0008010D0008010D000827
:10018000010D0008010D0008010D0008010D000817
:10019000010D0008010D0008010D0008010D000807
:0C01A000010D0008010D0008010D000811
:1001B000F8B5134C134D01F003FD274600F080FE07
:1001C000002604F01DF806E0037F0E2B14D04FF438
:1001D0007A7001F0F5F820680028F5D1D5F854328E
:1001E0001B681B78042BEFD107484FF43471402271
:1001F00003F02EFC3860EAE701F03AF92660E6E702
:10020000AC0B0020C80B002020480008AFF3008092
:1002100081F0004102E000BF83F0004330B54FEAB7
:1002200041044FEA430594EA050F08BF90EA020F24
:100230001FBF54EA000C55EA020C7FEA645C7FEAB7
:10024000655C00F0E2804FEA5454D4EB5555B8BFDA
:100250006D420CDD2C4480EA020281EA030382EA4B
:10026000000083EA010180EA020281EA0303362DDD
:1002700088BF30BD11F0004F4FEA01314FF4801CB0
:100280004CEA113102D0404261EB410113F0004FC2
:100290004FEA03334CEA133302D0524263EB430379
:1002A00094EA050F00F0A780A4F10104D5F1200E17
:1002B0000DDB02FA0EFC22FA05F2801841F1000172
:1002C00003FA0EF2801843FA05F359410EE0A5F146
:1002D00020050EF1200E012A03FA0EFC28BF4CF077
:1002E000020C43FA05F3C01851EBE37101F000452D
:1002F00007D54FF0000EDCF1000C7EEB00006EEB3A
:100300000101B1F5801F1BD3B1F5001F0CD34908C3
:100310005FEA30004FEA3C0C04F101044FEA44521A
:1003200012F5800F80F09A80BCF1004F08BF5FEAA1
:10033000500C50F1000041EB045141EA050130BD81
:100340005FEA4C0C404141EB010111F4801FA4F124
:100350000104E9D191F0000F04BF01460020B1FA79
:1003600081F308BF2033A3F10B03B3F120020CDAB1
:100370000C3208DD02F1140CC2F10C0201FA0CF08F
:1003800021FA02F10CE002F11402D8BFC2F1200CF4
:1003900001FA02F120FA0CFCDCBF41EA0C019040AA
:1003A000E41AA2BF01EB0451294330BD6FEA0404F3
:1003B0001F3C1CDA0C340EDC04F11404C4F12002DE
:1003C00020FA04F001FA02F340EA030021FA04F3F0
:1003D00045EA030130BDC4F10C04C4F1200220FA47
:1003E00002F001FA04F340EA0300294630BD21FA85
:1003F00004F0294630BD94F0000F83F4801306BF4B
:1004000081F480110134013D4EE77FEA645C18BF3E
:100410007FEA655C29D094EA050F08BF90EA020FD5
:1004200005D054EA000C04BF1946104630BD91EACD
:10043000030F1EBF0021002030BD5FEA545C05D1D0
:100440004000494128BF41F0004130BD14F580040F
:100450003CBF01F5801130BD01F0004545F0FE4183
:1004600041F470014FF0000030BD7FEA645C1ABFB8
:10047000194610467FEA655C1CBF0B46024650EAEF
:10048000013406BF52EA033591EA030F41F400211B
:1004900030BD00BF90F0000F04BF0021704730B5A1
:1004A0004FF4806404F132044FF000054FF0000176
:1004B00050E700BF90F0000F04BF0021704730B537
:1004C0004FF4806404F1320410F0004548BF40420C
:1004D0004FF000013EE700BF42004FEAE2014FEA61
:1004E00031014FEA02701FBF12F07F4393F07F4F3C
:1004F00081F06051704792F0000F14BF93F07F4F6E
:10050000704730B54FF4607401F0004521F00041B0
:1005100020E700BF50EA010208BF704730B54FF036
:1005200000050AE050EA010208BF704730B511F03B
:10053000004502D5404261EB41014FF4806404F173
:1005400032045FEA915C3FF4DCAE4FF003025FEAF5
:10055000DC0C18BF03325FEADC0C18BF033202EB7D
:10056000DC02C2F1200300FA03FC20FA02F001FAD7
:1005700003FE40EA0E0021FA02F11444C1E600BF76
:1005800070B54FF0FF0C4CF4E06C1CEA11541DBF29
:100590001CEA135594EA0C0F95EA0C0F00F0DEF8F4
:1005A0002C4481EA030621EA4C5123EA4C5350EAD9
:1005B000013518BF52EA033541F4801143F480132A
:1005C00038D0A0FB02CE4FF00005E1FB02E506F0BB
:1005D0000042E0FB03E54FF00006E1FB03569CF010
:1005E000000F18BF4EF0010EA4F1FF04B6F5007F16
:1005F00064F5407404D25FEA4E0E6D4146EB060688
:1006000042EAC62141EA55514FEAC52040EA5E5010
:100610004FEACE2EB4F1FD0C88BFBCF5E06F1ED8BA
:10062000BEF1004F08BF5FEA500E50F1000041EBF1
:10063000045170BD06F0004646EA010140EA02009E
:1006400081EA0301B4EB5C04C2BFD4EB0C0541EAC0
:10065000045170BD41F480114FF0000E013C00F3D5
:10066000AB8014F1360FDEBF002001F0004170BDF9
:10067000C4F10004203C35DA0C341BDC04F1140412
:10068000C4F1200500FA05F320FA04F001FA05F29E
:1006900040EA020001F0004221F0004110EBD3706B
:1006A00021FA04F642EB06015EEA430E08BF20EA97
:1006B000D37070BDC4F10C04C4F1200500FA04F33A
:1006C00020FA05F001FA04F240EA020001F00041CC
:1006D00010EBD37041F100015EEA430E08BF20EA3F
:1006E000D37070BDC4F1200500FA05F24EEA020E87
:1006F00020FA04F301FA05F243EA020321FA04F0B6
:1007000001F0004121FA04F220EA020000EBD3706C
:100710005EEA430E08BF20EAD37070BD94F0000F6C
:100720000FD101F00046400041EB010111F4801FA0
:1007300008BF013CF7D041EA060195F0000F18BF51
:10074000704703F00046520043EB030313F4801F8D
:1007500008BF013DF7D043EA0603704794EA0C0F47
:100760000CEA135518BF95EA0C0F0CD050EA41065D
:1007700018BF52EA4306D1D181EA030101F00041DA
:100780004FF0000070BD50EA410606BF1046194602
:1007900052EA430619D094EA0C0F02D150EA01360E
:1007A00013D195EA0C0F05D152EA03361CBF10464F
:1007B00019460AD181EA030101F0004141F0FE41EE
:1007C00041F470014FF0000070BD41F0FE4141F472
:1007D000780170BD70B54FF0FF0C4CF4E06C1CEA72
:1007E00011541DBF1CEA135594EA0C0F95EA0C0F27
:1007F00000F0A7F8A4EB050481EA030E52EA0335E2
:100800004FEA013100F088804FEA03334FF0805502
:1008100045EA131343EA12634FEA022245EA11152F
:1008200045EA10654FEA00260EF000419D4208BFE0
:10083000964244F1FD0404F5407402D25B084FEA8D
:100840003202B61A65EB03055B084FEA32024FF439
:1008500080104FF4002CB6EB020E75EB030E22BF96
:10086000B61A754640EA0C005B084FEA3202B6EB56
:10087000020E75EB030E22BFB61A754640EA5C0005
:100880005B084FEA3202B6EB020E75EB030E22BF95
:10089000B61A754640EA9C005B084FEA3202B6EB96
:1008A000020E75EB030E22BFB61A754640EADC0055
:1008B00055EA060E18D04FEA051545EA16754FEAB7
:1008C00006164FEAC30343EA52734FEAC2025FEAD5
:1008D0001C1CC0D111F4801F0BD141EA00014FF064
:1008E00000004FF0004CB6E711F4801F04BF014335
:1008F0000020B4F1FD0C88BFBCF5E06F3FF6AFAE51
:10090000B5EB030C04BFB6EB020C5FEA500C50F1E0
:10091000000041EB045170BD0EF0004E4EEA113163
:1009200014EB5C04C2BFD4EB0C0541EA045170BD6A
:1009300041F480114FF0000E013C90E645EA060EAE
:100940008DE60CEA135594EA0C0F08BF95EA0C0FDC
:100950003FF43BAF94EA0C0F0AD150EA01347FF424
:1009600034AF95EA0C0F7FF425AF104619462CE7FB
:1009700095EA0C0F06D152EA03353FF4FDAE10465E
:10098000194622E750EA410618BF52EA43067FF4AF
:10099000C5AE50EA41047FF40DAF52EA43057FF43F
:1009A000EBAE12E7000000000000000000000000B5
:1009B0004FEA410212F5001215D211D56FF4787387
:1009C000B3EB625212D94FEAC12343F0004343EA2A
:1009D000505311F0004F23FA02F018BF4042704705
:1009E0004FF00000704750EA013005D111F000408F
:1009F00008BF6FF0004070474FF00000704700BF25
:100A00004FEA4102B2F1E04324BFB3F5001CDCF130
:100A1000FE5C0DD901F0004C4FEAC0024CEA507068
:100A2000B2F1004F40EB830008BF20F00100704797
:100A300011F0804F21D113F13872BCBF01F000409A
:100A4000704741F480114FEA5252C2F11802C2F1CC
:100A5000200C10FA0CF320FA02F018BF40F001004D
:100A60004FEAC1234FEAD32303FA0CFC40EA0C00FF
:100A700023FA02F34FEA4303CCE77FEA625307D13C
:100A800050EA01331EBF4FF0FE4040F44000704773
:100A900001F0004040F0FE4040F40000704700BF0D
:100AA0004FF0FF3C06E000BF4FF0010C02E000BF3A
:100AB0004FF0010C4DF804CD4FEA40024FEA4103DC
:100AC0007FEA226C18BF7FEA236C11D001B052EA92
:100AD000530C18BF90EA010F58BFB2EB030088BF58
:100AE000C81738BF6FEAE17018BF40F001007047C7
:100AF0007FEA226C02D15FEA402C05D17FEA236CA9
:100B0000E4D15FEA412CE1D05DF8040B704700BFEF
:100B1000844608466146FFE70FB5FFF7C9FF002886
:100B200048BF10F1000F0FBD4DF808EDFFF7F4FFBF
:100B30000CBF012000205DF808FB00BF4DF808ED58
:100B4000FFF7EAFF34BF012000205DF808FB00BF7B
:100B50004DF808EDFFF7E0FF94BF012000205DF89D
:100B600008FB00BF4DF808EDFFF7D2FF94BF01204E
:100B700000205DF808FB00BF4DF808EDFFF7C8FF47
:100B800034BF012000205DF808FB00BF000000001A
:100B90004FEA4002B2F1FE4F0FD34FF09E03B3EB8A
:100BA00012620DD94FEA002343F0004310F0004FCA
:100BB00023FA02F018BF404270474FF00000704720
:100BC00012F1610F01D1420205D110F0004008BFBF
:100BD0006FF0004070474FF00000704700000000C9
:100BE000704700BFAFF30080AFF30080AFF3008029
:100BF000FEE700BFAFF30080AFF30080AFF30080EB
:100C000072B6304880F30988022383F31488BFF357
:100C10006F8F2D4B2D4A93420BD2D943114421F0B3
:100C2000030119444FF05532043B43F8042F8B4223
:100C3000FBD1274B83420CD226491A1D891A21F079
:100C4000030119444FF05532043B43F8042F8B4203
:100C5000FBD102F05DFC2049204B99420BD2C843E6
:100C6000184420F003001E4C04300023E258CA5000
:100C700004338342FAD11B4B1B4A93420AD2D94315
:100C8000114421F0030119440022043B43F8042FCE
:100C90008B42FBD1154D164CFFF7A2FFAC4204D29C
:100CA00054F8043B9847AC42FAD3124D124CFFF76C
:100CB0007FFAAC4204D254F8043B9847AC42FAD3D2
:100CC000FFF796FF0008002000000020000400202D
:100CD0000004002003080020000800202408002051
:100CE000784D000824080020480E0020AC010008C0
:100CF000AC010008AC010008AC010008AFF30080B3
:100D0000FEE700BFAFF30080AFF30080AFF30080D9
:100D100000F09EFA00DF00BFAFF30080AFF3008069
:100D2000EFF30983203383F30988002383F31188C9
:100D3000704700BFAFF30080AFF30080AFF30080D7
:100D400008B5094B094A002199600720DA60102193
:100D500000F08EF80A20202100F08AF80B20802174
:100D6000BDE8084000F084B800ED00E00003FA059B
:100D7000202383F31188164B5B6813F4006319D0AA
:100D8000EFF309834FF0807243F8042CA3F12002A3
:100D900082F309880F498A690968D07F8968926857
:100DA00058B1914294BF0022012262B10A4A43F82D
:100DB000082C704783F311887047914234BF00229A
:100DC0000122002AF2D1054A43F8082C704700BFDF
:100DD00000ED00E060090020110D0008140D00086E
:100DE00008B5202383F3118800F09AF8002383F3D9
:100DF0001188BDE80840FFF7BBBF00BFAFF300801C
:100E00002DE9F04FC1F80CD0D0F80CD0BDE8F08F30
:100E1000002383F311882846A04700F001FB7047A8
:100E200020F0030202F1604202F56142F0B443098E
:100E300000F00304D2F80053E400FF269B00A64014
:100E400003F1604325EA060503F561430127A1404C
:100E500000F01F0007FA00F045EA0104C2F8004361
:100E6000C3F88001F0BC1860704700BFAFF300808A
:100E700020F0030303F1604303F56D4300F003002A
:100E800010B4C0009A69FF24844022EA0402814021
:100E90000A439A615DF8044B704700BFAFF30080CE
:100EA000024B034A9B699A61FEE700BF600900207C
:100EB000D0430008AFF30080AFF30080AFF30080B1
:100EC00000B583B0FFF73CFF00F0DAF800F058F807
:100ED00000F05EFD00F0A4FD40210B4800F0C8F9D1
:100EE0000A49012288610277002383F3118862B6E0
:100EF0008969074888610093E021064B064800F0A5
:100F000017FA03B05DF804FB2408002060090020F4
:100F1000E0430008A10E000870080020AFF3008035
:100F200070B5134B9B69DA7F0AB1013ADA771A6A16
:100F3000104C01321A62E36822680133A242E36076
:100F400014D09668013E966086B91168D568216014
:100F5000D66000234C6083F311881069A8472023D2
:100F600083F3118822689368002BEED070BD00BF18
:100F70006009002050090020AFF30080AFF300802B
:100F8000044B4FF0FF3100225B601B609960DA6018
:100F9000704700BF50090020AFF30080AFF300801E
:100FA00070B40C4E3468A5680361A942C26004D9CC
:100FB0002468491BA5688D42FAD363684360B44234
:100FC000046060601860816002D0A368591AA16053
:100FD00070BC704750090020AFF30080AFF3008071
:100FE000074A0368934203D0996882680A449A606A
:100FF00042681360036800215A60C160704700BFF7
:1010000050090020AFF30080AFF30080AFF3008001
:1010100010B4202383F31188037F0D2B11D8DFE850
:1010200003F026101007100B101010101010100BEA
:10103000436A9A6801329A6090E80C001A6002686C
:1010400053604FF0FF34002381680C4A44620377F9
:10105000126893688B42FBD25168416002600023A2
:101060005060086083F311885DF8044B70470023DB
:1010700083F311885DF8044B704700BF60090020BE
:10108000034B00225B601B605B611B619A607047D1
:1010900060090020AFF30080AFF30080AFF3008061
:1010A00000228168084B10B4044602771B689A68D6
:1010B0008A42FBD25A686260236020465C601460FA
:1010C0005DF8044B704700BF60090020AFF300805B
:1010D000084B30B41A6899691468087701250A200A
:1010E000C877636015771C60104630BC9A61FFF7C3
:1010F00087BE00BF60090020AFF30080AFF300801F
:1011000030B54B1C87B0054611D00C4C0C4AA36976
:1011100001A8FFF745FF2846FFF7DAFF049B13B14C
:1011200001A8FFF75DFFA369586A07B030BD034C03
:10113000FFF7CEFFA369586A07B030BD60090020F1
:1011400011100008AFF30080AFF30080AFF3008010
:10115000DFF858C0F0B4DCF818708568BC684162EC
:10116000A54206460DD80022634602771B689A689E
:101170009542FBD95A68726033605E601660F0BCBD
:10118000704700233B7763461B689A689442FBD9FB
:101190005A687A6001243B605F6017603477394693
:1011A0003046CCF81860F0BCFFF72ABE600900207A
:1011B0000E4A1068F0B403689569136001270A2687
:1011C0000021AC685A60077703469061EE77297773
:1011D00000E01B689A68A242FBD25A686A602B60E2
:1011E00029465D601560F0BCFFF70ABE600900206B
:1011F0000D4A106870B403689569136001260021D8
:10120000AC685A60067703469061297700E01B6856
:101210009A68A242FBD85A686A602B6029465D60D2
:10122000156070BCFFF7ECBD60090020AFF30080D3
:10123000044B1A689B6992689B689A4200D8704771
:10124000FFF7D6BF60090020AFF30080AFF3008046
:10125000034B9B69DB7F0BB1FFF7CABFFFF7A8BF4A
:1012600060090020AFF30080AFF30080AFF300808F
:101270002DE9F003114C016465694561002200F11C
:101280002C064FF002094FF00A0800F128074FF032
:10129000010C0461816080F81C90606180F81F80FF
:1012A00080F81EC04277C263826302628261286155
:1012B00087620663C662BDE8F003704760090020DC
:1012C0002DE9F00F184D089FD5F814C0DFF85C80A9
:1012D00024394618C6604FF0020B43504FF00A0AFB
:1012E0007760002300F12C074FF0010900F128017D
:1012F000C6F820800561826080F81CB080F81FA0CD
:1013000080F81E90C0F814C0026468614377C3631C
:10131000836303628361CCF810000763C762816254
:10132000BDE8F00F704700BF60090020110E0008F3
:101330002DE9F84F1D460446202383F311881C4EE7
:10134000DFF870B0D6F814E024394718C76000F110
:101350002C03455000F1280C00250A9979604FF0C4
:10136000020A4FF00A094FF00108C7F820B02946D9
:1013700082600661C0F814E0026480F81CA080F866
:101380001F9080F81E8045777061C5638563056294
:101390008561CEF810000363C362C0F828C0FFF770
:1013A000D7FE2B4683F311882046BDE8F88F00BF97
:1013B00060090020110E0008AFF30080AFF3008039
:1013C00008B50146202383F311880620FFF798FE15
:1013D000002383F3118808BDAFF30080AFF30080D2
:1013E00038B50E4B9C692546606255F8280FA84217
:1013F00006D00368A362FFF753FEA06AA842F8D1A3
:10140000637F9B0704D1636922691A612269536172
:101410000E20BDE83840FFF75BBE00BF600900202A
:10142000202383F31188FFF7DBBF00BFAFF30080F9
:1014300038B50446202383F31188037F0E2B07D091
:10144000084B826A9B6907201A60A362FFF740FE7F
:10145000656A002383F31188204600F009F82846C6
:1014600038BD00BF60090020AFF30080AFF30080FB
:101470000146202383F31188827F013AD2B282771A
:10148000002383F3118812B9037F0E2B00D070471D
:10149000437F03F00303012B02D0022B07D07047D8
:1014A000436902691A610269536100F009BB43692B
:1014B00002691A610269406C536100F071BB00BFA0
:1014C000F0B583B017461D460E4600F0B9FA98B144
:1014D000202383F31188089B009331463A462B461C
:1014E000FFF7EEFE0123437700210446FFF730FEAD
:1014F000002383F31188204603B0F0BDAFF30080D2
:10150000202383F31188044B1869837F0133837789
:10151000002383F31188704760090020AFF3008037
:1015200010B5202383F31188074B04699C421DBF2B
:10153000A37F0133A3770024002383F31188FFF7EF
:1015400097FF204610BD00BF60090020AFF3008068
:101550000023406000608360704700BFAFF30080ED
:1015600070B52F4B054680689C69002853D0A2684F
:1015700083689A4206D9037F8260042B32D0052B00
:101580001CD09BB12B4603E09968A268914202D31C
:101590001B689D42F8D15A68626023605C601460E9
:1015A00065620420BDE87040FFF792BD90E80C0032
:1015B0001A6002685360FFF773FDE3E790E80A00E2
:1015C0001960466A01684B60334602E099688A42B6
:1015D00002D81B689E42F9D15A6842600360586085
:1015E0001060CFE790E80A001960466A01684B6016
:1015F000334602E09968914202D31B689E42F9D1BA
:101600005A684260036058601060B068A2688368DE
:101610009342B0D3B6E7E36BEB60AC60E56370BDBB
:1016200060090020AFF30080AFF30080AFF30080CB
:1016300008B5202383F31188FFF792FF002383F37B
:10164000118808BDAFF30080AFF30080AFF30080D6
:10165000174A38B59069202383F31188C46B256835
:10166000E368C363A5421CD0016C4BB11A689A426F
:1016700003D09268914238BF1146DB68002BF5D148
:101680002B68EA6B8160236028465C600021A560BE
:10169000E260EC63FFF75CFD002383F311882046D2
:1016A00038BD0023A360002383F31188204638BD92
:1016B00060090020AFF30080AFF30080AFF300803B
:1016C00008B5826B037F1143082B81630BD0092B74
:1016D00000D008BD436A19408B42FAD1FFF7E0FC05
:1016E0000023436208BD436A1942F7D108BD00BF19
:1016F00070B50468A04205460E4608D0201D0BC8F0
:101700003343E360FFF7DCFF2468A542F6D170BDE8
:1017100010B4024661B1094B9B69586244680D20C0
:1017200083E81400536023605DF8044BFFF7E8BCC6
:101730004FF0FF305DF8044B704700BF6009002098
:1017400030B4029C046200250A4485600261406056
:10175000006041618161C160C36130BC704700BFFE
:1017600038B504460068E36863610022A042A260C5
:10177000A3610AD06FF00105036823605C60FFF786
:101780008FFC45622068A042F6D138BDAFF30080DF
:1017900070B520230E46044683F31188C3692BB12C
:1017A000984703E0FFF7B4FF002815DBA568204643
:1017B0003146002DF6D0A2692169531C8B4205F1F8
:1017C000FF35A361A56028BFE368107828BFA36137
:1017D000002383F3118870BD2B4683F3118870BDFD
:1017E0002DE9F0471E460446D0F81C80202383F3E1
:1017F00011884FF0000901EB020A4F1CB8F1000FED
:1018000005D02046C04702E0FFF782FFF0B9A56887
:1018100020463146002DF7D0A369013D5A1CA26134
:10182000A5601B7807F8013C2369A2699A4224BF8E
:10183000E368A361002383F31188574509F1010987
:1018400007D0202383F311880137D7E72B4683F392
:1018500011884846BDE8F087AFF30080AFF3008001
:1018600030B4029C04628D180561406000608260A3
:1018700041618161C160C36130BC7047AFF30080DA
:1018800038B50269C368044600686361D21AA04291
:10189000A361A2600AD06FF00105036823605C6059
:1018A000FFF7FEFB45622068A042F6D138BD00BFBD
:1018B000F8B504460F461646202383F3118803E04B
:1018C000FFF726FF002819DBA56820463146002DCA
:1018D000F6D06369013D5A1C6261A5601F702369DF
:1018E00062699A4224BFE3686361E3690BB12046F1
:1018F0009847002383F311881846F8BD2B4683F3DD
:101900001188F8BDAFF30080AFF30080AFF3008023
:101910002DE9F84F9A4604460E461746D0F81C901B
:10192000202383F311884FF00008A56806F1010B0E
:1019300020466B1EDDB16269A360531C636133787E
:101940001370236962699A4224BFE3686361B9F145
:10195000000F00D0C847002383F31188013F08F12E
:1019600001080DD0202383F311885E46DDE7204671
:101970005146FFF7CDFE0028D7D02B4683F31188C0
:101980004046BDE8F88F00BFAFF30080AFF30080A2
:101990000548064A0649074B20F0070022F00702D7
:1019A00008601A60704700BF4F0E002000C0012081
:1019B000800900207C090020AFF30080AFF3008095
:1019C000202383F31188094A0949136809680730FD
:1019D00020F00700C91A88429BBFC0181060002081
:1019E0001846002383F31188704700BF8009002048
:1019F0007C090020AFF30080AFF30080AFF30080DC
:101A0000024A034B10681B68C01A70477C0900200B
:101A100080090020AFF30080AFF30080AFF30080B7
:101A2000044B054A1A6003F1100000229A60DA6044
:101A3000FFF78EBD88090020C1190008AFF30080B0
:101A4000F8B51E4E002818BF0646073106F11000F3
:101A500021F0070506F10804FFF7EAFD03E05A68E4
:101A6000954211D91C462368002BF8D1FFF7F0FDF1
:101A700033680BB305F108009847E8B1066045608C
:101A800000F108042046F8BD05F10801914208D98B
:101A90001A6822601C4644F8086BFFF7D9FD2046FF
:101AA000F8BD6FF00700401B5F18024418685850DB
:101AB0007A6027605D60EDE70024E3E78809002095
:101AC00070B50646A0F1080450F8080C00F10805AE
:101AD0001030FFF7ADFD2B46AB4204D0A34202D33A
:101AE0001B68AB42FAD11A681AB1944201D313466B
:101AF000F2E756F8041C46F8082C1C6001F10802B5
:101B000056F8085CA018A84209D05A6802F10801EA
:101B100019448C4211D0BDE87040FFF799BD406870
:101B2000A25846F8082C0A18083246F8042C5A68BD
:101B300002F1080119448C42EDD156F8040C56F814
:101B4000081C1960024408325A60BDE87040FFF773
:101B50007FBD00BFAFF30080AFF30080AFF3008024
:101B600038B50E4C002818BF044604F110000D468D
:101B7000FFF75EFDA3686BB10022144658681B682E
:101B800001340244002BF9D105B12A60FFF760FD52
:101B9000204638BD1A461C46F6E700BF88090020DB
:101BA000202383F3118803680B600023016083F313
:101BB00011887047AFF30080AFF30080AFF300806F
:101BC00008B500F04DFD00F01BFA054800F000FEDE
:101BD00000F036FA00F0D4F8BDE8084001F0A0BCEF
:101BE000A0440008AFF30080AFF30080AFF30080A3
:101BF0000C494A68104482424B680CD29A4203D97D
:101C00000023002BF7D17047984294BF0023012393
:101C1000002BF0D1F7E79A42F6D80123002BEAD146
:101C2000F1E700BF001000E0AFF30080AFF30080E9
:101C300010B5046AD4F854321A681178042900D017
:101C400010BD217A0229FBD112891B7942FA03F3D4
:101C500013F00103F4D1206CE16BA26B411A8A1AD4
:101C6000EED083F31188D4F854121346086809792A
:101C700004F1300200F044FA202383F31188D4F8F1
:101C80005432BDE810401868197900F061BA00BFFD
:101C900038B5046AD4F8542213681978042900D09E
:101CA00038BD217A0229FBD15279598903EB82038D
:101CB00041FA02F2DB68598A12F00103F0D1E569BA
:101CC000A0696269281A801A8142E9D883F31188D1
:101CD000D4F85422B0FBF1F301FB03F310685179FF
:101CE00004F10C0200F0FCF9202383F31188D4F8EE
:101CF000543218685979BDE8384000F011BA00BF75
:101D00000C30FFF76DBD00BFAFF30080AFF3008074
:101D10000C304FF0FF33FFF763BD00BFAFF300801F
:101D20003030FFF7F5BD00BFAFF30080AFF30080A8
:101D300030304FF0FF33FFF7EBBD00BFAFF3008053
:101D40000C30FFF725BD00BFAFF30080AFF300807C
:101D50000C304FF0FF31FFF71BBD00BFAFF3008029
:101D60003030FFF7A5BD00BFAFF30080AFF30080B8
:101D700030304FF0FF32FFF79BBD00BFAFF3008064
:101D8000704700BFAFF30080AFF30080AFF3008077
:101D900010B503460E4A43F8042B82B004460122D4
:101DA000009004F15401436002720A4B0C304FF46E
:101DB0008072FFF7C5FC009404F1300004F5AA71AD
:101DC0004FF48072044BFFF74BFD02B010BD00BF13
:101DD00000440008911C0008311C0008AFF300808B
:101DE00030B40A68202383F311880B7902EB830354
:101DF000022498614D790935002342F825008D7938
:101E000002EB85029061C0F85412047283F31188CA
:101E100030BC7047AFF30080AFF30080AFF30080B9
:101E200070B5D0F8543200F10C06044630461D68F7
:101E3000FFF796FC04F13000FFF722FD201D012181
:101E4000FFF756FCD4F85432597905EB8103284644
:101E5000DB6832465B8A00F043F9D4F854322846F6
:101E60005979BDE8704000F05BB900BFAFF3008066
:101E700090F8443003F06003202B01D0002070471D
:101E800090F84530212B03D0222B09D0202BF5D1FF
:101E9000064B836307220023C2630364012070475B
:101EA00000238363C363036401207047000800209C
:101EB00000EB810370B59C6906460D46ACB120234A
:101EC00083F311880821201DFFF712FC216CE26BBF
:101ED000A36B8A1AD11A12D106EB8503DA6853690B
:101EE0005B681BB9002383F3118870BD128A013A25
:101EF0001340F7D183F3118804F1300205E0002389
:101F000083F3118804F130020B463046294600F075
:101F1000F7F8202383F311883046294600F018F99A
:101F2000E0E700BFAFF30080AFF30080AFF30080C5
:101F300001F1090370B550F823400D460646A4B1DF
:101F4000202383F3118804216018FFF7D1FB06EBEF
:101F50008503E069DA68A1696369528A411AC91A7E
:101F60008A4203D9002383F3118870BD002383F3D1
:101F70001188B1FBF2F302FB03F3304604F10C02CB
:101F8000294600F0ADF8202383F311883046294616
:101F900000F0C6F8E6E700BFAFF30080AFF30080C3
:101FA000704700BFAFF30080AFF30080AFF3008055
:101FB000014B5B6883607047001000E0AFF3008066
:101FC0000B4B0C4A81685B6810B41468C2685B1ADA
:101FD0001B1B9342836006D802695DF8044B934251
:101FE00038BF03617047C3605DF8044B704700BFA2
:101FF000001000E0A8090020AFF30080AFF30080DC
:1020000010B586B00A4C0B4B0B4901934FF0FF30D3
:1020100000230590236004934B68084A039301A8AA
:102020000292FFF7CDFF039B236006B010BD00BFF7
:10203000A8090020B11F0008001000E0C11F00081F
:1020400000F096BEAFF30080AFF30080AFF30080E6
:102050000023012202704360C36183620362C36292
:102060004362036303814381704700BFAFF3008085
:1020700038B50446202383F3118800254160C560EC
:1020800005614561856100F08BFE02222B462270BE
:1020900083F3118838BD00BFAFF30080AFF3008039
:1020A00070B50646506914460D4618B10021142239
:1020B00002F0CEF8A06918B10021142202F0C8F88D
:1020C00006EB85033046DC602946BDE8704000F031
:1020D00047BF00BFAFF30080AFF30080AFF30080D5
:1020E00070B400EB81040126E468A4690025E26075
:1020F00063602670A56070BC01F01AB8AFF3008071
:1021000070B400EB81040126E46864690025E26094
:1021100063602670A56070BC01F07AB8AFF30080F0
:1021200070B5448944FA01F313F0010601D001208F
:1021300070BD012303FA01F52C43448101F080F9BD
:10214000304670BDAFF30080AFF30080AFF3008086
:1021500070B5048944FA01F313F0010601D001209F
:1021600070BD012303FA01F52C43048101F078F9D5
:10217000304670BDAFF30080AFF30080AFF3008056
:10218000002202210170A0F84C2080F84E2080F837
:102190004F2002814281C26002614261826180F807
:1021A000342000F06DBE00BFAFF30080AFF30080BD
:1021B000F8B50023044680F8343000F1440200F002
:1021C000A7FF63689B68002B2DD02046984750B32B
:1021D000E56B94F8443094F84B1094F84A2042EAA6
:1021E0000122AA423CBFE263154613F0800FE36868
:1021F00040F08A80002D6ED15B69052284F834207E
:1022000020461D70DD605D609D60294601F000F88C
:10221000202383F3118820462946FFF799FF2B4698
:1022200083F31188F8BD94F8443013F0600711D09F
:102230002046002101F03CF92046002101F028F958
:1022400063681B6813B1204605219847062384F86C
:102250003430F8BD94F8456003F07F0242EA062668
:10226000B6F5407F00F0038117DDB6F5C06F00F0D2
:10227000E5807ADDB6F5106F00F08A8040F6024204
:10228000964200F00781B6F5006FD1D104F14F02FC
:1022900001252764A263E5639DE7022E00F0B78065
:1022A00040F3AC80B6F5807F00F09880B6F5817F72
:1022B000BED194F84620002ABAD194F8482012F0F2
:1022C0000F0160D01206204600F10C8101F000F9E8
:1022D00094F8443057E09B69A26B0026042184F8EF
:1022E00034102046DA605D601E709E60314600F05A
:1022F0001FFF202383F3118820463146FFF710FF8C
:10230000334683F31188F8BDC5B15B69A26B002623
:10231000012184F834102046DA605D601E709E60F2
:10232000314600F075FF202383F3118820463146A3
:10233000FFF70EFF334683F31188F8BD9B69032234
:1023400084F8342020461D70DD605D609D60294664
:1023500000F0EEFE202383F3118820462946FFF784
:10236000DFFE2B4683F31188F8BD40F2023296421D
:1023700021D0B6F5A06F7FF45BAFB4F84420B2F57E
:10238000A06F00F09D800025A563E563256422E72A
:1023900094F8462084F84F20002A40F082800322DF
:1023A000227062681268002AEDD020460221904710
:1023B00094F84430E7E794F84620002A7FF438AFD9
:1023C00094F8482012F00F01DDD01306204600F1EA
:1023D0008E8001F05DF894F84430D4E794F84620FC
:1023E000012A7FF425AFB4F84C20A76322F0020243
:1023F000E76327643D46A4F84C20ECE6002E46D166
:1024000004F14C0202252664A263E563E3E694F836
:10241000481011F0800F204601F00F0144D100F068
:1024200057FE012844D002287FF402AF324BA36349
:10243000E0632764054694F84430CCE6626894F87B
:10244000490094F84830556894F8471094F84620AD
:1024500043EA00232046A84700283FF4E9AE43683A
:102460000568E563A363276494F84430B3E694F801
:102470004620012A7FF4DCAEB4F84C20A76342F07A
:102480000202E76327643D46A4F84C20A3E6012E30
:102490007FF4CEAE194AA26302250022E5632264CE
:1024A00099E6042222707CE700F022FE0128BAD1CE
:1024B000134BA363E6632764354694F844308AE6F9
:1024C00094F8463084F84E30204600F039FD6368B9
:1024D0001B6813B1204601219847032294F8443029
:1024E000227050E701F004F894F844304BE700F014
:1024F000DFFF94F8443046E73044000820440008E9
:1025000040440008AFF30080AFF30080AFF30080D9
:1025100038B590F83430022B044643D0052B3AD01E
:10252000012B10D0002100F0C3FF2046002100F055
:10253000AFFF63681B6813B1204605219847062347
:1025400084F8343038BD90F84B2090F84A30C56B91
:1025500043EA0223AB42C26805D9138AB5FBF3F103
:1025600003FB115505B393690025032284F8342039
:1025700029461D70DD605D609D60204600F0D8FD3D
:10258000202383F3118820462946FFF7C9FD2B46F7
:1025900083F3118838BD036C03B19847002384F896
:1025A000343038BDC268DEE7536929461D70DD60EE
:1025B0005D609D6000F02CFE202383F3118820468F
:1025C0002946FFF7C5FD2B4683F31188022384F8C3
:1025D000343038BDAFF30080AFF30080AFF300803C
:1025E00038B590F83430032B04462BD0042B11D08F
:1025F0002046002100F05CFF2046002100F048FF4B
:1026000063681B6813B1204605219847062384F8A8
:10261000343038BDC3685B690025052280F834205A
:1026200029461D70DD605D609D6000F0F1FD202396
:1026300083F3118820462946FFF78AFD2B4683F352
:10264000118838BDC3689B699B68002BD0D1036C8F
:1026500003B19847002384F8343038BDAFF30080CD
:10266000204B21491A694FF0FF3000222DE9F0017B
:1026700018611A615F6958615A611F6A1B4E1C4DCF
:102680001C4C67F080571F6244F29F1C1A62072798
:10269000D3F8248058625A62C1F804C08A600F607F
:1026A000F16841F08071F160296841F00101296011
:1026B000196C41F080511964216841F480712160E6
:1026C000196F01F44071B1F5007F03D04FF48031F0
:1026D00019671A67074B5A6822F400725A60BDE8FE
:1026E000F00170470038024010E000E0F0ED00E03B
:1026F000001000E000700040AFF30080AFF30080F6
:102700002C492D4B4FF080504FF4404208641A6022
:102710000B6843F001030B600B68264A9807FBD552
:10272000936823F0030393609368936011468B686A
:10273000204A13F00C03FAD1116801F0F90111607D
:102740009360136843F480331360136819499B0343
:10275000FBD54B6F43F001034B674B6F154A98074E
:10276000FBD5164B53601368134943F08073136015
:102770004B685A04FCD50F490B680E4A9B01FBD5E8
:102780000F4B1049916040F205711960936843F056
:102790000203936011468B68064A03F00C03082B72
:1027A000F9D1536C43F480435364536E43F4804334
:1027B00053667047003802400070004008544007DC
:1027C000003C024000940838AFF30080AFF3008073
:1027D0002DE9F00FDFF8AC91DFF8AC81D9F830B01B
:1027E000DFF8A8C1604F614E614D624C6249634A97
:1027F00040F2FF1A4BEA0A0BC9F830B0D9F850B0D2
:102800004BEA0A0AC9F850A04368C8F80430836844
:10281000C8F80830C368C8F80C300369C8F8143029
:102820004369C8F820308369C8F824300368C8F8C1
:102830000030036ACCF80430436ACCF80830836A6D
:10284000CCF80C30C36ACCF81430036BCCF82030D1
:10285000436BCCF82430C369CCF80030C36B7B6089
:10286000036CBB60436CFB60836C7B61C36C3B623D
:10287000036D7B62836B3B60876D7760C76DB7606C
:10288000076EF760476E7761876E3762C76E776253
:10289000476D3760466F6E60866FAE60C66FEE60E4
:1028A000D0F880606E61D0F884602E62D0F88860C5
:1028B0006E62066F2E60D0F890506560D0F894502C
:1028C000A560D0F89850E560D0F89C506561D0F8CC
:1028D000A0502562D0F8A4506562D0F88C502560D5
:1028E000D0F8AC404C60D0F8B0408C60D0F8B44028
:1028F000CC60D0F8B8404C61D0F8BC400C62D0F845
:10290000C0404C62D0F8A8400C60D0F8C8105160AC
:10291000D0F8CC109160D0F8D010D160D0F8D4109D
:102920005161D0F8D8101162D0F8DC105162D0F8A3
:10293000C4101160124BD0F8E4205A60D0F8E8209F
:102940009A60D0F8EC20DA60D0F8F0205A61D0F824
:10295000F4201A62D0F8F8205A62D0F8E0201A6009
:10296000BDE8F00F704700BF00080240000C0240B5
:10297000001002400014024000180240001C0240F7
:1029800000200240003802400000024000040240E3
:102990002DE9F04FAF4BB0499A69D0F85090916152
:1029A00085B08346202383F3118800264F469BF889
:1029B0000030012B05D0DBF85C306BB97B69DB069E
:1029C0000AD4BA69A34C42F01002A369BA6102208A
:1029D000CBF86430FEF77CFB002383F311889A4622
:1029E0007B6913F0100223D0DBF85000056A05F470
:1029F000F013B3F5802F30D0B3F5402FF0D105F0B0
:102A00000F030BEB8303C5F30A15DA68EB1C9B0875
:102A1000146AE5D000F580500222016812B144F832
:102A2000041B013A013BF8D17B6913F01002DBD1A2
:102A30000121DBF85C3001FA0AF11942019178D1E9
:102A40000AF1010ADBF854309B685FFA8AFA9A456A
:102A5000C6D9202383F31188A9E705F00F080BEBF3
:102A60008808C5F30A15D8F80C3099690B78EBB9CA
:102A70000A1D92E80C400332D21AEB1C9B084FEA65
:102A8000920209D000F58050F446046812B14CF867
:102A9000044B013A013BF8D10EEB0504CC60D8F8A9
:102AA0000C309B699A6815449D6099E7CC6845B3E2
:102AB000626900F58050AE46BEF1030F07D9236965
:102AC0009A4204D3E2686261BEF1030FF7D8D0F8EE
:102AD00000C0002302F101092CFA03F1C4F814909C
:102AE000117022696169914224BFE2686261BEF19E
:102AF000010E06D0182B02D008336269EAE762693A
:102B0000DAE7202383F31188A36820682B44A042CE
:102B1000A36008D0036823605C60FEF7C1FA4662D8
:102B20002068A042F6D1FEF783FB002383F31188CF
:102B3000B5E7202383F31188DBF85C30B868019D8A
:102B400020F0010023EA0501B8601346CBF85C10C1
:102B500083F311880BEB8A0CDCF80C406069836806
:102B600041688B4280F0BC80DBF85020248A4FEA19
:102B70004A1500951544C91AD5F81839A14234BF31
:102B80000D4625469BB2B5EB830F0AF1010A2ED8FC
:102B9000039767460378002B3CD1EB1CC4689B0865
:102BA00002EB0A3E18BF224605D052F8041BCEF8AD
:102BB0000010013BF9D12C44C460FC686069836853
:102BC00041682B449942836040F28780DBF85020B3
:102BD000DDF800E0248A9644CD1ADEF81839A542C3
:102BE00028BF25469BB2B5EB830FD3D9039F0022A4
:102BF000202383F31188BB6843F00103BB602AB92B
:102C0000D7F8343801990B43C7F83438002383F3DD
:102C1000118817E702EB0A3EC46825B3D4F8108088
:102C200002952A46910836D1A36900218C46581C8A
:102C3000A0611B78804503FA01F34CEA030C9CBFAA
:102C4000E368A361013A09D0182907D00831A369C4
:102C5000EDE700BF6009002060440008CEF800C026
:102C6000002ADFD1029D202383F31188A368206806
:102C70002B44A042A36008D0036823605C60FEF789
:102C80000FFA46622068A042F6D1FEF7D1FA00237F
:102C900083F3118891E7A569B8EB050348BF0333B7
:102CA0009B10994238BF0B464FEA8309C9EB0202D9
:102CB0003BB1294651F8040BCEF80000013BF9D195
:102CC0004D444545A56104D3E368A361002AA9D119
:102CD000C8E7002AC6D02B46A7E7039F012287E753
:102CE0000AF1010AFAE700BFAFF30080AFF30080FA
:102CF000D1F808C000212DE9F0010D464FF08048C1
:102D00004FF0FF3714E0C2F800590319C3F8105907
:102D1000C3F80879D2F8006B002E17DBC2F8005B0D
:102D2000044401316145C4F8105BC4F8087B15D830
:102D30004C010219D2F80039002BE4DAC2F80089FC
:102D40001646D6F808399B07FBD5DEE7C2F8008B9C
:102D50001A46D2F8083BDB06FBD5E1E74FF001133A
:102D6000C0F81C38BDE8F001704700BFAFF3008029
:102D700010B5064C2046FFF76BF94FF0A043044A0C
:102D80002365002362652366636610BDB0090020D9
:102D900050440008AFF30080AFF30080AFF3008031
:102DA00070B50378066D012B82B0054601D002B0E4
:102DB00070BD2E4B984249D02B6E0022EA65002B45
:102DC00038D02B4BF3602B49C6F800184FF4502332
:102DD0000022C6F8002EB3632C6D2020FEF708FFFA
:102DE000012323612369DB07FCD40C20FEF700FFDD
:102DF0002369002BFCDA0024B460286D696DFFF7AD
:102E000077FF6B68C6F81048DB68C6F81448C6F848
:102E10001C485BB143F20803B3614FF0FF337361A9
:102E2000B36843F00103B36002B070BD4FF4405388
:102E3000B361F2E7009505F168004FF4A871022232
:102E40000D4BFEF73DFA68662866BAE70B4B5A6BE6
:102E500042F080025A635969002241F080015961B1
:102E600043205A61E021FDF7DBFFA5E7B009002010
:102E7000401400400300200291290008003802405D
:102E8000F8B5046D202307462361226912F020055E
:102E9000FBD10C20FEF7ACFE7B6D9E682A46FF211D
:102EA0004FF0006504EB42130132B242C3F80059FF
:102EB000C3F8005BC3F80819C3F8081BF2D94FF038
:102EC000FF324FF00113C4F81828C4F81C387B6D8A
:102ED0001A68BA651B6863623A6D1023136113693F
:102EE00013F01005FBD10C20FEF782FED4F8003859
:102EF000104A114823F4FE63C4F80038A36943F470
:102F0000402343F010030921A361C4F81018C4F84A
:102F10001418F860C4F8105BC4F8002BC4F81059FA
:102F2000C4F80029BB6D03F1100243F48013BA65A5
:102F3000A362F8BD4080001070440008AFF3008029
:102F4000036D90F84E10D3F8002822F4FE6242EA96
:102F50000112C3F800287047AFF30080AFF3008080
:102F60002DE9F0410FFA81F800EB88060D46F36871
:102F7000046D1A6802F00302022A5ED0032A5ED0B2
:102F80004C4F4D49012A18BF0F46690104EB010E51
:102F9000DA684FF0000CCEF810CB002A75D0B3F8E9
:102FA00012E005F15802520147EA0E0E44F802E021
:102FB0004FF0010CD4F81C2805F1100E0CFA0EFE8F
:102FC0004EEA0202C4F81C2821449A684FF0000E11
:102FD000C1F810E9002A34D09A8B198A012A4FEAE5
:102FE000910388BF534305F13F01826D04EB8101DA
:102FF00003EB020E42EA0343C0F858E04B60026D57
:10300000AB0143F02003136113699906FCD40C2033
:10301000FEF7EEFDF3681A8A05F1480342EA85528D
:103020005B011743E7500122D4F81C3802FA05F57A
:103030001D43C4F81C58BDE8F081204FA5E7204F80
:10304000A3E705F13F0304EB83031E4A5A60026DB8
:10305000AB0143F02003136113699B06FCD404EB1E
:1030600048180C20FEF7C4FDD8F8003923F40043BB
:10307000C8F80039D4F81C38012202FA05F523EA11
:103080000503C4F81C38BDE8F08104EB481205F1D3
:10309000100ED2F800CB2CF4004CC2F800CBD4F8C0
:1030A0001C284FF0010C0CFA0EFE22EA0E02C4F8A6
:1030B0001C2889E7008004100080001000800810A0
:1030C00000800C1000040002AFF30080AFF300801A
:1030D0005831036D49015B5813F4004004D013F4D8
:1030E000001F0CBF02200120704700BFAFF300801B
:1030F0004831036D49015B5813F4004004D013F4C8
:10310000001F0CBF02200120704700BFAFF30080FA
:1031100000EB8101CB681B6A19685B685360116022
:10312000704700BFAFF30080AFF30080AFF30080C3
:1031300000EB810330B4DC68A2695368136131B9D4
:10314000402B04D940255560094B3F2502E05D1E08
:1031500043F0C043628A006DAC18B4FBF2F200EB9E
:10316000411143EAC242C1F8102B30BC704700BF86
:1031700040000060AFF30080AFF30080AFF3008049
:10318000F8B5076D07EB41130546D3F8084BC3F8B4
:10319000084B22070E4603D5D7F814381B0718D45E
:1031A000E20715D5D7F81438DB0711D505EB8603F0
:1031B000DB689A6951681069814210D36989DB68BC
:1031C0000122B24021EA02026A813146284698472C
:1031D000F8BD00EB8103DB685B689847E0E7411AC4
:1031E00000245160946028463146FFF7A1FF202358
:1031F00083F311882B6D03EB46162346D6F8002B7C
:1032000042F08062C6F8002B83F31188F8BD00BF3E
:1032100000EB810330B4DC68626953681361A3B1C9
:1032200069B15D1E228A006DAC18B4FBF2F200EBAE
:10323000411143EAC243C1F8103930BC7047402BFA
:10324000EFD9402353603F25ECE7036D03EB4111B9
:103250004FF40023C1F8103930BC7047AFF3008041
:103260002DE9F041066D06EB41130446D3F80859E9
:10327000C3F80859EB070F4603D5D6F81038DA071C
:103280001FD42B061BD50122D6F8343802FA07F7D3
:103290001F4214D0202383F31188E36DD6F834281D
:1032A000606E3B4322EA0707E365C6F8347818B13D
:1032B000FDF7F6FE00236366002383F31188BDE863
:1032C000F08100EB8103DB685A69D2F804E0D2F8A0
:1032D00010C0E6451FD2CEEB0C034FF00008536040
:1032E000C2F80880FFF794FF202383F31188226D32
:1032F00002EB47130121D3F8000940F00440C3F862
:103300000009D2F83438B9401943C2F8341843469A
:1033100083F31188B5E7B0F808E09B6801228A4082
:103320002EEA020202819847ABE700BFAFF30080AC
:1033300070B53F4E356D6B69AC691C40E0046C6143
:103340003FD4A10448BFD5F80838220704D57368D4
:10335000DB680BB136489847E30610D5202383F38A
:103360001188AB69706E324E23F01003AB6118B157
:10337000FDF796FE00237366002383F31188600334
:10338000D5F8185807D5E9073AD4AA073ED46B07F1
:1033900042D42E0746D4240307D5E80323D4A90337
:1033A00027D46A0318D42B0303D4BDE87040FDF77B
:1033B000DFBC1F480321FFF7E3FEBDE87040FDF7C7
:1033C000D7BC3046FEF7DCFE73681B68002BB8D014
:1033D000304600219847B4E715480221FFF7D0FE98
:1033E0002B03E2D5E5E700211148FFF7C9FEA90349
:1033F000D7D50F480121FFF7C3FE6A03D3D5EBE70A
:103400000B480021FFF72CFFAA07C0D5084801216F
:10341000FFF726FF6B07BCD505480221FFF720FF09
:103420002E07B8D502480321FFF71AFFB3E700BF04
:10343000B0090020AFF30080AFF30080AFF300804D
:10344000036D03EB4111D1F8003B43F08063C1F8F9
:10345000003B7047AFF30080AFF30080AFF3008014
:10346000036D03EB411210B4D2F8004944F0044458
:10347000C2F80049D3F834285DF8044B012000FA63
:1034800001F11143C3F83418704700BFAFF3008057
:10349000036D03EB4111D1F8003B43F40013C1F875
:1034A000003B7047AFF30080AFF30080AFF30080C4
:1034B000036D03EB4111D1F8003943F40013C1F857
:1034C00000397047AFF30080AFF30080AFF30080A6
:1034D000036D03EB4111D1F8003B23F40013C1F855
:1034E000003B7047AFF30080AFF30080AFF3008084
:1034F000036D03EB4111D1F8003923F40013C1F837
:1035000000397047AFF30080AFF30080AFF3008065
:10351000FFF7F6B8AFF30080AFF30080AFF30080A1
:10352000704700BFAFF30080AFF30080AFF30080BF
:10353000F0B4002B08BF0B4600F10B0700F10A05A1
:10354000B1FBF2F602FB161101F13004392CC8BFB1
:1035500001F13704E4B2B3FBF2F331462E4605F82D
:103560000149002BECD1BA1B3346024401E013F8A9
:10357000014F00F8014B9042F9D1F0BC704700BFF9
:103580002DE9F04F06468BB00C4617462178631C98
:1035900051B125290BD032681C46926830469047BD
:1035A0002178631C0029F4D10BB0BDE8F08F62785C
:1035B0002D2A03BFA278A31C4FF0010A4FF0000A86
:1035C0002E2A00F04681302A00F043814FF0200877
:1035D0001C46002506E03B78043705EB850522787C
:1035E00003EB4505A2F13003DBB2092B04F1010422
:1035F000F3D92A2AEFD02E2A4FF0000145D002F04D
:10360000DF034C2B4ED0A2F14403342B00F2168181
:10361000DFE813F003011401140114011401030184
:103620001401140114011401140101011401140105
:103630001401140114014E00140114018800140136
:1036400014011401140114011401140114011401D2
:103650001401F20003011401AD001401140103016F
:1036600014011401140114011401010114011401C5
:1036700014018A0014014E001401140188003B78E3
:10368000043701EB810103EB410114F8012BA2F196
:103690003003DBB2092BF4D92A2AF0D002F0DF0381
:1036A0004C2BB0D12378002BADD001341A46AAE7B9
:1036B0000A220DF11009396848460023FFF738FF48
:1036C000C9EB0000043700F1FF3B2D1A25EAE57530
:1036D000BAF1000F0DD16D425DB199F800102D299E
:1036E00000F0BC80336830469B68414698470135FE
:1036F000F8D1BBF1000F0ADBCB4409F1FF39336885
:1037000019F8011F9B6830469847D945F7D1002D1D
:103710003FF43CAF336830469B6841469847013DD3
:10372000F8D133E71022C4E7D7F80090664BB9F11F
:10373000000F08BF994647F6FF7399F80000043759
:10374000002908BF1946002800F0B28049444B46C2
:1037500002E08B4200F08F805A780133002AF8D1C2
:10376000C9EB030000F1FF3B4FF02008ADE707373E
:1037700027F00707D7E90001FDF742F900210837D4
:103780000290FDF7DBF9002840F085800DF110096B
:10379000CB460298FDF7FCF984460A22614658465A
:1037A0000023CDF804C0FFF7C3FE83462E230BF899
:1037B000013B0298FCF790FEDDF804C0CDE9020160
:1037C0006046FCF777FE02460B46DDE90201FCF796
:1037D00023FD3BA3D3E90023FCF7D2FEFDF7E8F875
:1037E0000A22014642F210735846FFF7A1FEC9EBC8
:1037F000000000F1FF3B68E70DF128093B6809F87C
:10380000183D0DF11100C9EB0000043700F1FF3B3A
:103810004FF0200859E708224BE73968002907F1E3
:1038200004072FDB0DF1100948460A220023FFF799
:103830007FFEC9EB000000F1FF3B46E70DF12809D0
:103840000DF1110009F8182DC9EB000000F1FF3B44
:103850003BE75A784FF030080133B9E6B8F1300F42
:103860007FF440AF336830469B68984709F10109FF
:103870000BF1FF3B36E7C9EB010000F1FF3B4FF0D6
:10388000200822E72D2349428DF810300DF1110058
:103890000DF11009C9E7DDF808C02D230CF1004235
:1038A00002928DF810300DF1110B0DF1100970E737
:1038B0004FF0FF3B4FF0200807E700BFAFF3008059
:1038C00000000000006AF840A0450008AFF3008047
:1038D0000EB400B582B003AA52F8041B0192FFF7A0
:1038E0004FFE02B05DF804EB03B07047AFF3008009
:1038F000002903DD0449054AFFF7EABF044B0549E7
:10390000DA68FFF7E5BF00BFB0450008BC45000816
:1039100050090020C4450008AFF30080AFF30080D9
:1039200010B5002982B0044606DD1949194A02B0D3
:10393000BDE81040FFF7CCBF1749184AFFF7C8FF92
:1039400020461749174AFFF7C3FF20461649174A72
:10395000FFF7BEFF20461649164AFFF7B9FF20467B
:103960001549164AFFF7B4FF20461549154AFFF7D7
:10397000AFFF20461449154AFFF7AAFF144B0093E6
:1039800020461449144A154BFFF7A2FF02B010BDA0
:10399000B0450008CC450008D4450008E8450008BB
:1039A000F0450008044600084C4600086046000840
:1039B0006C460008804600088C460008A0460008B7
:1039C000B8460008CC460008004700081447000825
:1039D000644700083C470008544700086047000857
:1039E00038B504460D4690B1286020460B4900F0DA
:1039F000CFFC04442046094900F0A2FC60B1421CFF
:103A000000232A600370237823B1204638BD0C6858
:103A1000002CEAD1002038BD2860F4E77047000888
:103A2000014B1B60704700BF840B0020AFF3008088
:103A300010B52023044683F3118804480021FDF7C4
:103A400057FE2046BDE81040FDF7CABC840B00209D
:103A500000B583B0034B00900020FDF731FD03B0AB
:103A60005DF804FB113B0008AFF30080AFF300806A
:103A7000F0B5013A83B00E468F1804460D46236810
:103A800020465B680DF107010122984748B39DF875
:103A90000710042928D0082910D07F290ED00D291D
:103AA00029D01F29EBD9BD42E9D2236820469B6863
:103AB00098479DF807302B700135E0E7B542204666
:103AC000DDD023689B689847236820469B682021A7
:103AD000984723689DF807109B682046013D98474A
:103AE000CDE7012003B0F0BD20460749FFF7F0FE07
:103AF000012003B0F0BD20460449FFF7E9FE002095
:103B0000287003B0F0BD00BF7447000810470008DC
:103B10002DE9F041574B06689B69574AD0F804805D
:103B200056499A6196B03046FFF7D2FE3046544966
:103B3000FFF7CEFE304606A94022FFF799FF044664
:103B400000282FD1694606A8FFF74AFF69460746B5
:103B500000206D46FFF744FF50B1042C1BD045F800
:103B6000040F694600200134FFF73AFF0028F4D122
:103B700016AA02EB840343F8540C002FD6D0384623
:103B8000404900F0B5FBC0B984B130463E493D4ADA
:103B9000FFF79EFECAE730463C49FFF799FE002337
:103BA0000593C3E730463A49FFF792FE0020FFF73E
:103BB0003FFF002016B0BDE8F0813846354900F0DF
:103BC00097FB30B93046BCB12F49324AFFF780FE2F
:103BD000ACE7314D286820B931E055F8080F0028CE
:103BE0002DD0394600F084FB0028F6D16B682146C1
:103BF000304601AA984799E7274D2849FFF768FE04
:103C00002A682C463AB130462549FFF761FE54F840
:103C1000082F002AF7D1B8F1000F0BD0D8F80020F8
:103C200042B1444630461E49FFF752FE54F8082F71
:103C3000002AF7D130461B49FFF74AFE76E7B8F174
:103C4000000F0DD0D8F8000050B1454602E055F8FD
:103C5000080F28B1394600F04BFB0028F7D1C5E723
:103C600030463A461049FFF733FE30460F49FFF71A
:103C70002FFE5BE7600900207847000880470008B6
:103C800098470008C4470008B0450008AC47000842
:103C9000A0470008CC47000808080020D4470008C7
:103CA000EC47000810470008F0470008F4470008F8
:103CB0000EB400B582B003AA52F8041B0192FFF7BC
:103CC0005FFC02B05DF804EB03B07047AFF3008017
:103CD0002DE9F041234982B00446FFF7E9FF204671
:103CE0002149FFF7E5FF00944FF434713E221F4B4A
:103CF0000020FDF7E5FB009480464FF434713E222E
:103D00001B4B0020FDF7DCFB009407464FF4347199
:103D10003F22184B0020FDF7D3FB009406464FF4DA
:103D200034713E22144B0020FDF7CAFB4FF434716E
:103D30003E22124B009405460020FDF7C1FB0446CD
:103D40004046FDF775FB3846FDF772FB3046FDF740
:103D50006FFB2846FDF76CFB204602B0BDE8F04142
:103D6000FDF766BB704800088C4800080140000859
:103D7000613F0008C13E0008213E0008813D000867
:103D80002DE9F047DFF88CA01B4CDAF818301B49FE
:103D90009961002323601A4A2368934282B08146C6
:103DA00025D8DFF87480174F174E184D06E02268AB
:103DB000134B0132226022689A4218D82368A7FB6D
:103DC00003135B08C8F800302368A6FB0312520CEB
:103DD00005FB1233002BEAD1DAF818000C4982698E
:103DE0008368006A00904846FFF762FFDFE7002023
:103DF00002B0BDE8F08700BF9C0B0020B04800086F
:103E00007F841E00ABAAAAAA83DE1B4320A1070061
:103E1000B848000860090020940B0020AFF3008030
:103E20002DE9F047DFF88CA01B4CDAF818301B495D
:103E30009961002323601A4A2368934282B0814625
:103E400025D8DFF87480174F174E184D06E022680A
:103E5000134B0132226022689A4218D82368A7FBCC
:103E600003135B08C8F800302368A6FB0312520C4A
:103E700005FB1233002BEAD1DAF818000C498269ED
:103E80008368006A00904846FFF712FFDFE70020D2
:103E900002B0BDE8F08700BF980B0020C8480008BA
:103EA0007F841E00ABAAAAAA83DE1B4320A10700C1
:103EB000B848000860090020900B0020AFF3008094
:103EC0002DE9F047DFF88CA01B4CDAF818301B49BD
:103ED0009961002323601A4A2368934282B0814685
:103EE00025D8DFF87480174F174E184D06E022686A
:103EF000134B0132226022689A4218D82368A7FB2C
:103F000003135B08C8F800302368A6FB0312520CA9
:103F100005FB1233002BEAD1DAF818000C4982694C
:103F20008368006A00904846FFF7C2FEDFE7002082
:103F300002B0BDE8F08700BF8C0B0020D04800081D
:103F40007F841E00ABAAAAAA83DE1B4320A1070020
:103F5000B848000860090020880B0020AFF30080FB
:103F60002DE9F047DFF88CA01B4CDAF818301B491C
:103F70009961002323601A4A2368934282B08146E4
:103F800025D8DFF87480174F174E184D06E02268C9
:103F9000134B0132226022689A4218D82368A7FB8B
:103FA00003135B08C8F800302368A6FB0312520C09
:103FB00005FB1233002BEAD1DAF818000C498269AC
:103FC0008368006A00904846FFF772FEDFE7002032
:103FD00002B0BDE8F08700BFA40B0020D84800085D
:103FE0007F841E00ABAAAAAA83DE1B4320A1070080
:103FF000B848000860090020B00B0020AFF3008033
:104000002DE9F047DFF88CA01B4CDAF818301B497B
:104010009961002323601A4A2368934282B0814643
:1040200025D8DFF87480174F174E184D06E0226828
:10403000134B0132226022689A4218D82368A7FBEA
:1040400003135B08C8F800302368A6FB0312520C68
:1040500005FB1233002BEAD1DAF818000C4982690B
:104060008368006A00904846FFF722FEDFE70020E1
:1040700002B0BDE8F08700BFA80B0020E0480008B0
:104080007F841E00ABAAAAAA83DE1B4320A10700DF
:10409000B848000860090020A00B0020AFF30080A2
:1040A000F0B5002987B0064605DD164907B0BDE822
:1040B000F040FFF7FDBD1449144FFFF7F9FD3046FE
:1040C0001349FFF7F5FDFDF71BFA0446A268E36804
:1040D000256A0092A27F0F49013A0192227F57F888
:1040E00022200292A2690392304622460495FFF7ED
:1040F000DFFD2046FDF714FA04460028E6D107B09C
:10410000F0BD00BFE8480008FC480008304800083F
:104110003C4900087C490008AFF30080AFF3008001
:1041200030B5002983B0044604DD0E49FFF7C0FD19
:1041300003B030BD01A90020FDF712FD0546FDF7D3
:104140005FFC094902462046FFF7B2FD20462A4699
:104150000649FFF7ADFD20460549019AFFF7A8FD86
:1041600003B030BDA4490008B4490008D449000890
:10417000EC490008AFF30080AFF30080AFF300809C
:10418000022906D0032906D00748012918BF0020BC
:10419000704706487047032A03D8054800EBC20061
:1041A00070470020704700BF604C0008E04A0008DC
:1041B000304C0008AFF30080AFF30080AFF3008015
:1041C000022938B50C46054611D1202383F3118806
:1041D0000121074AFDF764FF28462146054AFDF7FD
:1041E0005FFF0548FDF71CFE002383F3118838BDEF
:1041F000B04A0008F04A0008C80B0020AFF3008066
:1042000038B50F4D0F4CFFF70BFC2846FDF7C0FDEE
:104210000D492846FDF7E4FD236D9A6B22F4002238
:104220009A6342F21070FDF7CBF820460749FDF77C
:104230001FFF236D9A6B42F400229A6338BD00BFC2
:10424000C80B0020B0090020504C0008204B00088B
:10425000F0B4840743D0541E002A3ED0CDB20346AA
:1042600003E0621E002C38D0144603F8015B9A0765
:10427000F7D1032C2AD9CDB245EA05250F2C45EA02
:10428000054515D9A4F110073F0903F1100606EB07
:1042900007161A46156055609560D5601032B24217
:1042A000F8D104F00F040137032C03EB07130DD9E9
:1042B0001E462246043A032A46F8045BFAD8221F17
:1042C00022F003020432134404F003042CB1C9B2F7
:1042D0001C4403F8011BA342FBD1F0BC70471446F9
:1042E0000346C6E7000000000000000000000000D8
:1042F0000F4B30B41C68054602E0D01A16D1ABB1A2
:1043000015F8013BE0181A46407800F00300012838
:1043100008BF03F1200211F8013BE018407800F0DB
:1043200003000128E9D12033D01AE9D030BC70470E
:104330002008002000000000000000000000000035
:10434000F0B404780CB30E780746C6B1A64210D07C
:104350004B1C01E094420BD01D4613F8012B002AA0
:10436000F8D144780130002CEED12E78074600E0D9
:104370002646002E14BF38460020F0BC7047447813
:104380000D460130002CDFD1EFE72046F0BC70472E
:10439000F0B40478CCB10E7807469EB10546B4421D
:1043A0000AD00A4601E09C4206D012F8013F002BD9
:1043B000F9D1281AF0BC70476C787D1C002CF8D01D
:1043C0002F46ECE73046F0BC70472046F2E700BFCE
:1043D00069646C650000000000000000000000003F
:1043E0006D61696E00168711040448080C101418DA
:1043F000001C1D1E1F200000000000000000000027
:10440000311D0008111D0008711D0008511D000814
:10441000611D0008411D0008211D0008011D000844
:10442000000000000000000000000000000000008C
:10443000000000000000000000000000000000007C
:10444000010000000000000000000000000000006B
:104450008000000040010000030000000000000098
:104460007573625F6C6C645F70756D700000000046
:1044700000000000B121000811250008E125000816
:1044800040004000680B0020680B00200100000085
:104490007C0B002000000000000000000000000075
:1044A00000AAA02A00000000FFABFFFF540001405B
:1044B000FFFF00000000565500AA0A0080200800F7
:1044C00040020000FFFFFFFF15455155FFFF0000B0
:1044D00000000004400000000180200200000000F5
:1044E000FFFFFFFF54154554FFFF00000000006070
:1044F000000606000001005500000000FFFFFFFF5E
:1045000055505500FF0F00000000000000000000A3
:104510004000000000000000FFFFFFFF000000005F
:10452000FFFF00000000000000000000000000008D
:1045300000000000FFFFFFFF00000000FFFF000081
:10454000000000000000000000000000000000006B
:10455000FFFFFFFF00000000FFFF00000000000061
:10456000000000000000000000000000FFFFFFFF4F
:1045700000000000FFFF000000000000000000003D
:104580000000000000000000FFFFFFFF000000002F
:10459000FFFF00000000000000000000000000001D
:1045A000286E756C6C2900000000000000000000FF
:1045B00055736167653A2025730D0A00737973742A
:1045C000696D6500256C750D0A000000696E666FE7
:1045D000000000004B65726E656C3A2020202020A0
:1045E000202025730D0A0000322E362E37000000E1
:1045F000436F6D70696C65723A202020202025730E
:104600000D0A000047434320342E382E3420323028
:10461000313430353236202872656C656173652916
:10462000205B41524D2F656D6265646465642D3475
:104630005F382D6272616E63682072657669736996
:104640006F6E203231313335385D0000417263685E
:1046500069746563747572653A2025730D0A0000EC
:1046600041524D76372D4D4500000000436F726575
:104670002056617269616E743A2025730D0A00003C
:10468000436F727465782D4D34000000506F727462
:1046900020496E666F3A2020202025730D0A000005
:1046A000416476616E636564206B65726E656C2033
:1046B0006D6F646500000000506C6174666F726D10
:1046C0003A202020202025730D0A000053544D333A
:1046D00032463430372F46343137204869676820F6
:1046E000506572666F726D616E636520776974687C
:1046F0002044535020616E64204650550000000055
:10470000426F6172643A20202020202020202573EF
:104710000D0A000053544D6963726F656C656374D4
:10472000726F6E6963732053544D333246342D4497
:104730006973636F76657279000000004275696C79
:10474000642074696D653A202020257325732573D4
:104750000D0A00004D6179203134203230313500AE
:10476000202D200030303A34333A3032000000003F
:10477000200900005E4400007368656C6C00000056
:104780000D0A43686962694F532F5254205368657C
:104790006C6C0D0A0000000063683E200000000001
:1047A0000D0A6C6F676F757400000000746F6F20E6
:1047B0006D616E7920617267756D656E74730D0A37
:1047C00000000000657869740000000068656C7086
:1047D00000000000436F6D6D616E64733A20686580
:1047E0006C7020657869742000000000257320003B
:1047F00025730000203F0D0A0000000000000000AB
:10480000904A000821410008944A0008A14000088D
:104810009C4A0008D13C0008000000000000000095
:10482000C80B002000480008000000000000000045
:104830000C4A0008144A00081C4A0008284A0008CC
:10484000304A0008384A0008404A00084C4A00082C
:10485000544A00085C4A0008684A0008704A000888
:10486000784A0008804A0008884A000800000000D2
:10487000746872656164202020207072696F202046
:104880007469636B73200D0A000000002D2D2D2D1F
:104890002D2D2D2D2D2D2D2D2D2D2D2D2D2D2D2D48
:1048A0002D2D2D2D2D2D2D2D2D200D0A000000003C
:1048B00074687265616435002573202020256420AA
:1048C00020202025640D0A0074687265616434003C
:1048D0007468726561643300746872656164320083
:1048E000746872656164310055736167653A20745C
:1048F0006872656164730D0A0000000020202020AA
:104900006164647220202020737461636B20707274
:10491000696F207265667320202020207374617493
:104920006520202020202020202020206E616D6521
:104930002074696D65202020200D0A002D2D2D2D5D
:104940002D2D2D2D2D2D2D2D2D2D2D2D2D2D2D2D97
:104950002D2D2D2D2D2D2D2D2D2D2D2D2D2D2D2D87
:104960002D2D2D2D2D2D2D2D2D2D2D2D2D2D2D2D77
:104970002D2D2D2D2D2D2D2D2D0D0A00252E386C94
:104980007820252E386C782025346C752025346CE1
:104990007520253973202531347320256C750D0A57
:1049A0000000000055736167653A206D656D0D0A62
:1049B00000000000636F72652066726565206D659A
:1049C0006D6F7279203A2025752062797465730DB8
:1049D0000A0000006865617020667261676D656E2F
:1049E00074732020203A2025750D0A0068656170D7
:1049F000206672656520746F74616C20203A2025F2
:104A0000752062797465730D0A00000052454144B7
:104A10005900000043555252454E540053555350CF
:104A2000454E444544000000575453454D00000096
:104A300057544D54580000005754434F4E44000003
:104A4000534C454550494E470000000057544558C7
:104A50004954000057544F52455654005754414E44
:104A60004445565400000000534E444D53475100F6
:104A7000534E444D5347000057544D5347000000D8
:104A8000575451554555450046494E414C0000008C
:104A90006D656D007468726561647300726F756E28
:104AA00064726F62696E0000000000000000000088
:104AB0000200000000000000B11E0008311F0008C5
:104AC00040004000200E0020340E002002000000B4
:104AD00000000000000000000000000000000000D6
:104AE00043000000304B0008000000000000000000
:104AF0000300000000000000A11F000800000000EB
:104B000010000000B40B00200000000001000000B5
:104B10000000000000000000000000000000000095
:104B2000C141000881410008711E0008000000001A
:104B300009024300020100C0320904000001020220
:104B400001000524001001052401000104240202D3
:104B50000524060001070582030800FF090401007F
:104B6000020A00000007050102400000070581025B
:104B700040000000000000000000000000000000F5
:104B8000120110010200004083044057000201029C
:104B90000301000000000000000000000000000011
:104BA00004030904000000000000000000000000F1
:104BB0002603530054004D006900630072006F002B
:104BC00065006C0065006300740072006F006E0089
:104BD0006900630073000000000000000000000096
:104BE0003803430068006900620069004F00530009
:104BF0002F0052005400200056006900720074001B
:104C0000750061006C00200043004F004D00200043
:104C100050006F00720074000000000000000000EF
:104C200008033200360037000000000000000000DA
:104C300004000000A04B000826000000B04B000854
:104C400038000000E04B000808000000204C00087D
:104C5000B009002001010200000000000000000077
:104C600012000000804B000800000000000000005F
:104C7000002020202020202020202828282828202C
:104C80002020202020202020202020202020202024
:104C9000208810101010101010101010101010108C
:104CA000100404040404040404040410101010107C
:104CB0001010414141414141010101010101010146
:104CC0000101010101010101010101011010101098
:104CD0001010424242424242020202020202020218
:104CE000020202020202020202020202101010106C
:104CF0002000000000000000000000000000000094
:104D000000000000000000000000000000000000A3
:104D10000000000000000000000000000000000093
:104D20000000000000000000000000000000000083
:104D30000000000000000000000000000000000073
:104D40000000000000000000000000000000000063
:104D50000000000000000000000000000000000053
:104D60000000000000000000000000000000000043
:044D7000000000003F
:104D78000096000000000800CC4500082139000812
:104D8800BC450008F13800080000000000000000E1
:044D9800704C000853
:0400000508000C01E2
:00000001FF
