ARM GAS  /tmp/cce5yTB9.s 			page 1


   1              		.syntax unified
   2              		.cpu cortex-m4
   3              		.fpu softvfp
   4              		.eabi_attribute 20, 1
   5              		.eabi_attribute 21, 1
   6              		.eabi_attribute 23, 3
   7              		.eabi_attribute 24, 1
   8              		.eabi_attribute 25, 1
   9              		.eabi_attribute 26, 1
  10              		.eabi_attribute 30, 2
  11              		.eabi_attribute 34, 1
  12              		.eabi_attribute 18, 4
  13              		.thumb
  14              		.file	"chdynamic.c"
  15              		.text
  16              	.Ltext0:
  17              		.cfi_sections	.debug_frame
  18              		.section	.text.chThdAddRef,"ax",%progbits
  19              		.align	2
  20              		.p2align 4,,15
  21              		.global	chThdAddRef
  22              		.thumb
  23              		.thumb_func
  24              		.type	chThdAddRef, %function
  25              	chThdAddRef:
  26              	.LFB7:
  27              		.file 1 "../ChibiOS_2.6.7_minified/os/kernel/src/chdynamic.c"
  28              		.loc 1 52 0
  29              		.cfi_startproc
  30              		@ args = 0, pretend = 0, frame = 0
  31              		@ frame_needed = 0, uses_anonymous_args = 0
  32              		@ link register save eliminated.
  33              	.LVL0:
  34              	.LBB2:
  35              		.loc 1 54 0
  36 0000 2023     		movs	r3, #32
  37              	@ 54 "../ChibiOS_2.6.7_minified/os/kernel/src/chdynamic.c" 1
  38 0002 83F31188 		msr     BASEPRI, r3
  39              	@ 0 "" 2
  40              		.thumb
  41              	.LBE2:
  42              		.loc 1 56 0
  43 0006 837F     		ldrb	r3, [r0, #30]	@ zero_extendqisi2
  44 0008 0133     		adds	r3, r3, #1
  45 000a 8377     		strb	r3, [r0, #30]
  46              	.LBB3:
  47              		.loc 1 57 0
  48 000c 0023     		movs	r3, #0
  49              	@ 57 "../ChibiOS_2.6.7_minified/os/kernel/src/chdynamic.c" 1
  50 000e 83F31188 		msr     BASEPRI, r3
  51              	@ 0 "" 2
  52              		.thumb
  53              	.LBE3:
  54              		.loc 1 59 0
  55 0012 7047     		bx	lr
  56              		.cfi_endproc
  57              	.LFE7:
ARM GAS  /tmp/cce5yTB9.s 			page 2


  58              		.size	chThdAddRef, .-chThdAddRef
  59 0014 AFF30080 		.section	.text.chThdRelease,"ax",%progbits
  59      AFF30080 
  59      AFF30080 
  60              		.align	2
  61              		.p2align 4,,15
  62              		.global	chThdRelease
  63              		.thumb
  64              		.thumb_func
  65              		.type	chThdRelease, %function
  66              	chThdRelease:
  67              	.LFB8:
  68              		.loc 1 74 0
  69              		.cfi_startproc
  70              		@ args = 0, pretend = 0, frame = 0
  71              		@ frame_needed = 0, uses_anonymous_args = 0
  72              		@ link register save eliminated.
  73              	.LVL1:
  74              		.loc 1 74 0
  75 0000 0146     		mov	r1, r0
  76              	.LBB4:
  77              		.loc 1 77 0
  78 0002 2023     		movs	r3, #32
  79              	@ 77 "../ChibiOS_2.6.7_minified/os/kernel/src/chdynamic.c" 1
  80 0004 83F31188 		msr     BASEPRI, r3
  81              	@ 0 "" 2
  82              		.thumb
  83              	.LBE4:
  84              		.loc 1 79 0
  85 0008 827F     		ldrb	r2, [r0, #30]	@ zero_extendqisi2
  86 000a 013A     		subs	r2, r2, #1
  87 000c D2B2     		uxtb	r2, r2
  88 000e 8277     		strb	r2, [r0, #30]
  89              	.LVL2:
  90              	.LBB5:
  91              		.loc 1 80 0
  92 0010 0023     		movs	r3, #0
  93              	@ 80 "../ChibiOS_2.6.7_minified/os/kernel/src/chdynamic.c" 1
  94 0012 83F31188 		msr     BASEPRI, r3
  95              	@ 0 "" 2
  96              		.thumb
  97              	.LBE5:
  98              		.loc 1 85 0
  99 0016 12B9     		cbnz	r2, .L2
 100              		.loc 1 85 0 is_stmt 0 discriminator 1
 101 0018 037F     		ldrb	r3, [r0, #28]	@ zero_extendqisi2
 102 001a 0E2B     		cmp	r3, #14
 103 001c 00D0     		beq	.L7
 104              	.L2:
 105 001e 7047     		bx	lr
 106              	.L7:
 107              		.loc 1 86 0 is_stmt 1
 108 0020 437F     		ldrb	r3, [r0, #29]	@ zero_extendqisi2
 109 0022 03F00303 		and	r3, r3, #3
 110 0026 012B     		cmp	r3, #1
 111 0028 02D0     		beq	.L4
 112 002a 022B     		cmp	r3, #2
ARM GAS  /tmp/cce5yTB9.s 			page 3


 113 002c 07D0     		beq	.L5
 114 002e 7047     		bx	lr
 115              	.L4:
 116              		.loc 1 90 0
 117 0030 4369     		ldr	r3, [r0, #20]
 118 0032 0269     		ldr	r2, [r0, #16]
 119              	.LVL3:
 120 0034 1A61     		str	r2, [r3, #16]
 121 0036 0269     		ldr	r2, [r0, #16]
 122 0038 5361     		str	r3, [r2, #20]
 123              		.loc 1 92 0
 124 003a FFF7FEBF 		b	chHeapFree
 125              	.LVL4:
 126              	.L5:
 127              		.loc 1 98 0
 128 003e 4369     		ldr	r3, [r0, #20]
 129 0040 0269     		ldr	r2, [r0, #16]
 130              	.LVL5:
 131 0042 1A61     		str	r2, [r3, #16]
 132 0044 0269     		ldr	r2, [r0, #16]
 133              		.loc 1 100 0
 134 0046 406C     		ldr	r0, [r0, #68]
 135              	.LVL6:
 136              		.loc 1 98 0
 137 0048 5361     		str	r3, [r2, #20]
 138              		.loc 1 100 0
 139 004a FFF7FEBF 		b	chPoolFree
 140              	.LVL7:
 141              		.cfi_endproc
 142              	.LFE8:
 143              		.size	chThdRelease, .-chThdRelease
 144 004e 00BF     		.section	.text.chThdCreateFromHeap,"ax",%progbits
 145              		.align	2
 146              		.p2align 4,,15
 147              		.global	chThdCreateFromHeap
 148              		.thumb
 149              		.thumb_func
 150              		.type	chThdCreateFromHeap, %function
 151              	chThdCreateFromHeap:
 152              	.LFB9:
 153              		.loc 1 131 0
 154              		.cfi_startproc
 155              		@ args = 4, pretend = 0, frame = 0
 156              		@ frame_needed = 0, uses_anonymous_args = 0
 157              	.LVL8:
 158 0000 F0B5     		push	{r4, r5, r6, r7, lr}
 159              		.cfi_def_cfa_offset 20
 160              		.cfi_offset 4, -20
 161              		.cfi_offset 5, -16
 162              		.cfi_offset 6, -12
 163              		.cfi_offset 7, -8
 164              		.cfi_offset 14, -4
 165 0002 83B0     		sub	sp, sp, #12
 166              		.cfi_def_cfa_offset 32
 167              		.loc 1 131 0
 168 0004 1746     		mov	r7, r2
 169 0006 1D46     		mov	r5, r3
ARM GAS  /tmp/cce5yTB9.s 			page 4


 170 0008 0E46     		mov	r6, r1
 171              		.loc 1 135 0
 172 000a FFF7FEFF 		bl	chHeapAlloc
 173              	.LVL9:
 174              		.loc 1 136 0
 175 000e 98B1     		cbz	r0, .L9
 176              	.LBB6:
 177              		.loc 1 148 0
 178 0010 2023     		movs	r3, #32
 179              	@ 148 "../ChibiOS_2.6.7_minified/os/kernel/src/chdynamic.c" 1
 180 0012 83F31188 		msr     BASEPRI, r3
 181              	@ 0 "" 2
 182              		.thumb
 183              	.LBE6:
 184              		.loc 1 149 0
 185 0016 089B     		ldr	r3, [sp, #32]
 186 0018 0093     		str	r3, [sp]
 187 001a 3146     		mov	r1, r6
 188 001c 3A46     		mov	r2, r7
 189 001e 2B46     		mov	r3, r5
 190 0020 FFF7FEFF 		bl	chThdCreateI
 191              	.LVL10:
 192              		.loc 1 150 0
 193 0024 0123     		movs	r3, #1
 194 0026 4377     		strb	r3, [r0, #29]
 195              		.loc 1 151 0
 196 0028 0021     		movs	r1, #0
 197              		.loc 1 149 0
 198 002a 0446     		mov	r4, r0
 199              	.LVL11:
 200              		.loc 1 151 0
 201 002c FFF7FEFF 		bl	chSchWakeupS
 202              	.LVL12:
 203              	.LBB7:
 204              		.loc 1 152 0
 205 0030 0023     		movs	r3, #0
 206              	@ 152 "../ChibiOS_2.6.7_minified/os/kernel/src/chdynamic.c" 1
 207 0032 83F31188 		msr     BASEPRI, r3
 208              	@ 0 "" 2
 209              		.thumb
 210              	.LBE7:
 211              		.loc 1 153 0
 212 0036 2046     		mov	r0, r4
 213              	.LVL13:
 214              	.L9:
 215              		.loc 1 154 0
 216 0038 03B0     		add	sp, sp, #12
 217              		@ sp needed
 218 003a F0BD     		pop	{r4, r5, r6, r7, pc}
 219              		.cfi_endproc
 220              	.LFE9:
 221              		.size	chThdCreateFromHeap, .-chThdCreateFromHeap
 222 003c AFF30080 		.section	.text.chThdCreateFromMemoryPool,"ax",%progbits
 223              		.align	2
 224              		.p2align 4,,15
 225              		.global	chThdCreateFromMemoryPool
 226              		.thumb
ARM GAS  /tmp/cce5yTB9.s 			page 5


 227              		.thumb_func
 228              		.type	chThdCreateFromMemoryPool, %function
 229              	chThdCreateFromMemoryPool:
 230              	.LFB10:
 231              		.loc 1 180 0
 232              		.cfi_startproc
 233              		@ args = 0, pretend = 0, frame = 0
 234              		@ frame_needed = 0, uses_anonymous_args = 0
 235              	.LVL14:
 236 0000 2DE9F041 		push	{r4, r5, r6, r7, r8, lr}
 237              		.cfi_def_cfa_offset 24
 238              		.cfi_offset 4, -24
 239              		.cfi_offset 5, -20
 240              		.cfi_offset 6, -16
 241              		.cfi_offset 7, -12
 242              		.cfi_offset 8, -8
 243              		.cfi_offset 14, -4
 244 0004 82B0     		sub	sp, sp, #8
 245              		.cfi_def_cfa_offset 32
 246              		.loc 1 180 0
 247 0006 8846     		mov	r8, r1
 248 0008 1646     		mov	r6, r2
 249 000a 1F46     		mov	r7, r3
 250 000c 0546     		mov	r5, r0
 251              		.loc 1 186 0
 252 000e FFF7FEFF 		bl	chPoolAlloc
 253              	.LVL15:
 254              		.loc 1 187 0
 255 0012 98B1     		cbz	r0, .L12
 256              	.LBB8:
 257              		.loc 1 199 0
 258 0014 2023     		movs	r3, #32
 259              	@ 199 "../ChibiOS_2.6.7_minified/os/kernel/src/chdynamic.c" 1
 260 0016 83F31188 		msr     BASEPRI, r3
 261              	@ 0 "" 2
 262              		.thumb
 263              	.LBE8:
 264              		.loc 1 200 0
 265 001a 6968     		ldr	r1, [r5, #4]
 266 001c 0097     		str	r7, [sp]
 267 001e 4246     		mov	r2, r8
 268 0020 3346     		mov	r3, r6
 269 0022 FFF7FEFF 		bl	chThdCreateI
 270              	.LVL16:
 271              		.loc 1 201 0
 272 0026 0223     		movs	r3, #2
 273 0028 4377     		strb	r3, [r0, #29]
 274              		.loc 1 202 0
 275 002a 4564     		str	r5, [r0, #68]
 276              		.loc 1 203 0
 277 002c 0021     		movs	r1, #0
 278              		.loc 1 200 0
 279 002e 0446     		mov	r4, r0
 280              	.LVL17:
 281              		.loc 1 203 0
 282 0030 FFF7FEFF 		bl	chSchWakeupS
 283              	.LVL18:
ARM GAS  /tmp/cce5yTB9.s 			page 6


 284              	.LBB9:
 285              		.loc 1 204 0
 286 0034 0023     		movs	r3, #0
 287              	@ 204 "../ChibiOS_2.6.7_minified/os/kernel/src/chdynamic.c" 1
 288 0036 83F31188 		msr     BASEPRI, r3
 289              	@ 0 "" 2
 290              		.thumb
 291              	.LBE9:
 292              		.loc 1 205 0
 293 003a 2046     		mov	r0, r4
 294              	.LVL19:
 295              	.L12:
 296              		.loc 1 206 0
 297 003c 02B0     		add	sp, sp, #8
 298              		@ sp needed
 299 003e BDE8F081 		pop	{r4, r5, r6, r7, r8, pc}
 300              		.cfi_endproc
 301              	.LFE10:
 302              		.size	chThdCreateFromMemoryPool, .-chThdCreateFromMemoryPool
 303 0042 00BFAFF3 		.text
 303      0080AFF3 
 303      0080AFF3 
 303      0080
 304              	.Letext0:
 305              		.file 2 "/usr/lib/gcc/arm-none-eabi/4.8.4/include/stddef.h"
 306              		.file 3 "/usr/arm-none-eabi/include/machine/_default_types.h"
 307              		.file 4 "/usr/arm-none-eabi/include/stdint.h"
 308              		.file 5 "../ChibiOS_2.6.7_minified/os/ports/GCC/ARMCMx/chtypes.h"
 309              		.file 6 "../ChibiOS_2.6.7_minified/os/kernel/include/chlists.h"
 310              		.file 7 "../ChibiOS_2.6.7_minified/os/kernel/include/chthreads.h"
 311              		.file 8 "../ChibiOS_2.6.7_minified/os/ports/GCC/ARMCMx/chcore_v7m.h"
 312              		.file 9 "../ChibiOS_2.6.7_minified/os/kernel/include/chmtx.h"
 313              		.file 10 "../ChibiOS_2.6.7_minified/os/kernel/include/chmemcore.h"
 314              		.file 11 "../ChibiOS_2.6.7_minified/os/kernel/include/chheap.h"
 315              		.file 12 "../ChibiOS_2.6.7_minified/os/kernel/include/chmempools.h"
 316              		.file 13 "../ChibiOS_2.6.7_minified/os/kernel/include/chschd.h"
