ARM GAS  /tmp/cc9nFK9E.s 			page 1


   1              		.syntax unified
   2              		.cpu cortex-m4
   3              		.fpu softvfp
   4              		.eabi_attribute 20, 1
   5              		.eabi_attribute 21, 1
   6              		.eabi_attribute 23, 3
   7              		.eabi_attribute 24, 1
   8              		.eabi_attribute 25, 1
   9              		.eabi_attribute 26, 1
  10              		.eabi_attribute 30, 2
  11              		.eabi_attribute 34, 1
  12              		.eabi_attribute 18, 4
  13              		.thumb
  14              		.file	"chmemcore.c"
  15              		.text
  16              	.Ltext0:
  17              		.cfi_sections	.debug_frame
  18              		.section	.text._core_init,"ax",%progbits
  19              		.align	2
  20              		.p2align 4,,15
  21              		.global	_core_init
  22              		.thumb
  23              		.thumb_func
  24              		.type	_core_init, %function
  25              	_core_init:
  26              	.LFB7:
  27              		.file 1 "../ChibiOS_2.6.7_minified/os/kernel/src/chmemcore.c"
  28              		.loc 1 66 0
  29              		.cfi_startproc
  30              		@ args = 0, pretend = 0, frame = 0
  31              		@ frame_needed = 0, uses_anonymous_args = 0
  32              		@ link register save eliminated.
  33              		.loc 1 70 0
  34 0000 0548     		ldr	r0, .L2
  35              		.loc 1 71 0
  36 0002 064A     		ldr	r2, .L2+4
  37              		.loc 1 70 0
  38 0004 0649     		ldr	r1, .L2+8
  39              		.loc 1 71 0
  40 0006 074B     		ldr	r3, .L2+12
  41              		.loc 1 70 0
  42 0008 20F00700 		bic	r0, r0, #7
  43              		.loc 1 71 0
  44 000c 22F00702 		bic	r2, r2, #7
  45              		.loc 1 70 0
  46 0010 0860     		str	r0, [r1]
  47              		.loc 1 71 0
  48 0012 1A60     		str	r2, [r3]
  49 0014 7047     		bx	lr
  50              	.L3:
  51 0016 00BF     		.align	2
  52              	.L2:
  53 0018 07000000 		.word	__heap_base__+7
  54 001c 00000000 		.word	__heap_end__
  55 0020 00000000 		.word	.LANCHOR0
  56 0024 00000000 		.word	.LANCHOR1
  57              		.cfi_endproc
ARM GAS  /tmp/cc9nFK9E.s 			page 2


  58              	.LFE7:
  59              		.size	_core_init, .-_core_init
  60 0028 AFF30080 		.section	.text.chCoreAlloc,"ax",%progbits
  60      AFF30080 
  61              		.align	2
  62              		.p2align 4,,15
  63              		.global	chCoreAlloc
  64              		.thumb
  65              		.thumb_func
  66              		.type	chCoreAlloc, %function
  67              	chCoreAlloc:
  68              	.LFB8:
  69              		.loc 1 91 0
  70              		.cfi_startproc
  71              		@ args = 0, pretend = 0, frame = 0
  72              		@ frame_needed = 0, uses_anonymous_args = 0
  73              		@ link register save eliminated.
  74              	.LVL0:
  75              	.LBB6:
  76              		.loc 1 94 0
  77 0000 2023     		movs	r3, #32
  78              	@ 94 "../ChibiOS_2.6.7_minified/os/kernel/src/chmemcore.c" 1
  79 0002 83F31188 		msr     BASEPRI, r3
  80              	@ 0 "" 2
  81              	.LVL1:
  82              		.thumb
  83              	.LBE6:
  84              	.LBB7:
  85              	.LBB8:
  86              		.loc 1 118 0
  87 0006 094A     		ldr	r2, .L7
  88 0008 0949     		ldr	r1, .L7+4
  89 000a 1368     		ldr	r3, [r2]
  90 000c 0968     		ldr	r1, [r1]
  91              		.loc 1 117 0
  92 000e 0730     		adds	r0, r0, #7
  93              	.LVL2:
  94 0010 20F00700 		bic	r0, r0, #7
  95              	.LVL3:
  96              		.loc 1 118 0
  97 0014 C91A     		subs	r1, r1, r3
  98 0016 8842     		cmp	r0, r1
  99              	.LVL4:
 100              		.loc 1 121 0
 101 0018 9BBF     		ittet	ls
 102 001a C018     		addls	r0, r0, r3
 103              	.LVL5:
 104 001c 1060     		strls	r0, [r2]
 105              		.loc 1 119 0
 106 001e 0020     		movhi	r0, #0
 107              		.loc 1 122 0
 108 0020 1846     		movls	r0, r3
 109              	.LBE8:
 110              	.LBE7:
 111              	.LBB9:
 112              		.loc 1 96 0
 113 0022 0023     		movs	r3, #0
ARM GAS  /tmp/cc9nFK9E.s 			page 3


 114              	.LVL6:
 115              	@ 96 "../ChibiOS_2.6.7_minified/os/kernel/src/chmemcore.c" 1
 116 0024 83F31188 		msr     BASEPRI, r3
 117              	@ 0 "" 2
 118              		.thumb
 119              	.LBE9:
 120              		.loc 1 98 0
 121 0028 7047     		bx	lr
 122              	.L8:
 123 002a 00BF     		.align	2
 124              	.L7:
 125 002c 00000000 		.word	.LANCHOR0
 126 0030 00000000 		.word	.LANCHOR1
 127              		.cfi_endproc
 128              	.LFE8:
 129              		.size	chCoreAlloc, .-chCoreAlloc
 130 0034 AFF30080 		.section	.text.chCoreAllocI,"ax",%progbits
 130      AFF30080 
 130      AFF30080 
 131              		.align	2
 132              		.p2align 4,,15
 133              		.global	chCoreAllocI
 134              		.thumb
 135              		.thumb_func
 136              		.type	chCoreAllocI, %function
 137              	chCoreAllocI:
 138              	.LFB9:
 139              		.loc 1 112 0
 140              		.cfi_startproc
 141              		@ args = 0, pretend = 0, frame = 0
 142              		@ frame_needed = 0, uses_anonymous_args = 0
 143              		@ link register save eliminated.
 144              	.LVL7:
 145              		.loc 1 118 0
 146 0000 074A     		ldr	r2, .L12
 147 0002 0849     		ldr	r1, .L12+4
 148 0004 1368     		ldr	r3, [r2]
 149 0006 0968     		ldr	r1, [r1]
 150              		.loc 1 117 0
 151 0008 0730     		adds	r0, r0, #7
 152              	.LVL8:
 153 000a 20F00700 		bic	r0, r0, #7
 154              	.LVL9:
 155              		.loc 1 118 0
 156 000e C91A     		subs	r1, r1, r3
 157 0010 8842     		cmp	r0, r1
 158              	.LVL10:
 159              		.loc 1 121 0
 160 0012 9DBF     		ittte	ls
 161 0014 C018     		addls	r0, r0, r3
 162              	.LVL11:
 163 0016 1060     		strls	r0, [r2]
 164              		.loc 1 122 0
 165 0018 1846     		movls	r0, r3
 166              		.loc 1 119 0
 167 001a 0020     		movhi	r0, #0
 168              		.loc 1 123 0
ARM GAS  /tmp/cc9nFK9E.s 			page 4


 169 001c 7047     		bx	lr
 170              	.L13:
 171 001e 00BF     		.align	2
 172              	.L12:
 173 0020 00000000 		.word	.LANCHOR0
 174 0024 00000000 		.word	.LANCHOR1
 175              		.cfi_endproc
 176              	.LFE9:
 177              		.size	chCoreAllocI, .-chCoreAllocI
 178 0028 AFF30080 		.section	.text.chCoreStatus,"ax",%progbits
 178      AFF30080 
 179              		.align	2
 180              		.p2align 4,,15
 181              		.global	chCoreStatus
 182              		.thumb
 183              		.thumb_func
 184              		.type	chCoreStatus, %function
 185              	chCoreStatus:
 186              	.LFB10:
 187              		.loc 1 132 0
 188              		.cfi_startproc
 189              		@ args = 0, pretend = 0, frame = 0
 190              		@ frame_needed = 0, uses_anonymous_args = 0
 191              		@ link register save eliminated.
 192              		.loc 1 134 0
 193 0000 024A     		ldr	r2, .L15
 194 0002 034B     		ldr	r3, .L15+4
 195 0004 1068     		ldr	r0, [r2]
 196 0006 1B68     		ldr	r3, [r3]
 197              		.loc 1 135 0
 198 0008 C01A     		subs	r0, r0, r3
 199 000a 7047     		bx	lr
 200              	.L16:
 201              		.align	2
 202              	.L15:
 203 000c 00000000 		.word	.LANCHOR1
 204 0010 00000000 		.word	.LANCHOR0
 205              		.cfi_endproc
 206              	.LFE10:
 207              		.size	chCoreStatus, .-chCoreStatus
 208 0014 AFF30080 		.section	.bss.endmem,"aw",%nobits
 208      AFF30080 
 208      AFF30080 
 209              		.align	2
 210              		.set	.LANCHOR1,. + 0
 211              		.type	endmem, %object
 212              		.size	endmem, 4
 213              	endmem:
 214 0000 00000000 		.space	4
 215              		.section	.bss.nextmem,"aw",%nobits
 216              		.align	2
 217              		.set	.LANCHOR0,. + 0
 218              		.type	nextmem, %object
 219              		.size	nextmem, 4
 220              	nextmem:
 221 0000 00000000 		.space	4
 222              		.text
ARM GAS  /tmp/cc9nFK9E.s 			page 5


 223              	.Letext0:
 224              		.file 2 "/usr/lib/gcc/arm-none-eabi/4.8.4/include/stddef.h"
 225              		.file 3 "/usr/arm-none-eabi/include/machine/_default_types.h"
 226              		.file 4 "/usr/arm-none-eabi/include/stdint.h"
