ARM GAS  /tmp/ccUUkQ1e.s 			page 1


   1              		.syntax unified
   2              		.cpu cortex-m4
   3              		.fpu softvfp
   4              		.eabi_attribute 20, 1
   5              		.eabi_attribute 21, 1
   6              		.eabi_attribute 23, 3
   7              		.eabi_attribute 24, 1
   8              		.eabi_attribute 25, 1
   9              		.eabi_attribute 26, 1
  10              		.eabi_attribute 30, 2
  11              		.eabi_attribute 34, 1
  12              		.eabi_attribute 18, 4
  13              		.thumb
  14              		.file	"shell.c"
  15              		.text
  16              	.Ltext0:
  17              		.cfi_sections	.debug_frame
  18              		.section	.text.chprintf,"ax",%progbits
  19              		.align	2
  20              		.p2align 4,,15
  21              		.thumb
  22              		.thumb_func
  23              		.type	chprintf, %function
  24              	chprintf:
  25              	.LFB118:
  26              		.file 1 "../ChibiOS_2.6.7_minified/os/various/chprintf.h"
  27              		.loc 1 69 0
  28              		.cfi_startproc
  29              		@ args = 4, pretend = 12, frame = 8
  30              		@ frame_needed = 0, uses_anonymous_args = 1
  31              	.LVL0:
  32 0000 0EB4     		push	{r1, r2, r3}
  33              		.cfi_def_cfa_offset 12
  34              		.cfi_offset 1, -12
  35              		.cfi_offset 2, -8
  36              		.cfi_offset 3, -4
  37 0002 00B5     		push	{lr}
  38              		.cfi_def_cfa_offset 16
  39              		.cfi_offset 14, -16
  40 0004 82B0     		sub	sp, sp, #8
  41              		.cfi_def_cfa_offset 24
  42              		.loc 1 69 0
  43 0006 03AA     		add	r2, sp, #12
  44 0008 52F8041B 		ldr	r1, [r2], #4
  45              		.loc 1 72 0
  46 000c 0192     		str	r2, [sp, #4]
  47              		.loc 1 73 0
  48 000e FFF7FEFF 		bl	chvprintf
  49              	.LVL1:
  50              		.loc 1 75 0
  51 0012 02B0     		add	sp, sp, #8
  52              		@ sp needed
  53 0014 5DF804EB 		ldr	lr, [sp], #4
  54 0018 03B0     		add	sp, sp, #12
  55 001a 7047     		bx	lr
  56              		.cfi_endproc
  57              	.LFE118:
ARM GAS  /tmp/ccUUkQ1e.s 			page 2


  58              		.size	chprintf, .-chprintf
  59 001c AFF30080 		.section	.text.cmd_systime,"ax",%progbits
  60              		.align	2
  61              		.p2align 4,,15
  62              		.thumb
  63              		.thumb_func
  64              		.type	cmd_systime, %function
  65              	cmd_systime:
  66              	.LFB123:
  67              		.file 2 "../ChibiOS_2.6.7_minified/os/various/shell.c"
  68              		.loc 2 99 0
  69              		.cfi_startproc
  70              		@ args = 0, pretend = 0, frame = 0
  71              		@ frame_needed = 0, uses_anonymous_args = 0
  72              		@ link register save eliminated.
  73              	.LVL2:
  74              		.loc 2 102 0
  75 0000 0029     		cmp	r1, #0
  76 0002 03DD     		ble	.L3
  77              	.LVL3:
  78              	.LBB24:
  79              	.LBB25:
  80              		.loc 2 56 0
  81 0004 0449     		ldr	r1, .L5
  82              	.LVL4:
  83 0006 054A     		ldr	r2, .L5+4
  84              	.LVL5:
  85 0008 FFF7FEBF 		b	chprintf
  86              	.LVL6:
  87              	.L3:
  88              	.LBE25:
  89              	.LBE24:
  90              	.LBB26:
  91              	.LBB27:
  92              		.loc 2 106 0
  93 000c 044B     		ldr	r3, .L5+8
  94 000e 0549     		ldr	r1, .L5+12
  95              	.LVL7:
  96 0010 DA68     		ldr	r2, [r3, #12]
  97              	.LVL8:
  98 0012 FFF7FEBF 		b	chprintf
  99              	.LVL9:
 100              	.L6:
 101 0016 00BF     		.align	2
 102              	.L5:
 103 0018 00000000 		.word	.LC0
 104 001c 0C000000 		.word	.LC1
 105 0020 00000000 		.word	vtlist
 106 0024 14000000 		.word	.LC2
 107              	.LBE27:
 108              	.LBE26:
 109              		.cfi_endproc
 110              	.LFE123:
 111              		.size	cmd_systime, .-cmd_systime
 112 0028 AFF30080 		.section	.text.cmd_info,"ax",%progbits
 112      AFF30080 
 113              		.align	2
ARM GAS  /tmp/ccUUkQ1e.s 			page 3


 114              		.p2align 4,,15
 115              		.thumb
 116              		.thumb_func
 117              		.type	cmd_info, %function
 118              	cmd_info:
 119              	.LFB122:
 120              		.loc 2 67 0
 121              		.cfi_startproc
 122              		@ args = 0, pretend = 0, frame = 0
 123              		@ frame_needed = 0, uses_anonymous_args = 0
 124              	.LVL10:
 125 0000 10B5     		push	{r4, lr}
 126              		.cfi_def_cfa_offset 8
 127              		.cfi_offset 4, -8
 128              		.cfi_offset 14, -4
 129              		.loc 2 70 0
 130 0002 0029     		cmp	r1, #0
 131              		.loc 2 67 0
 132 0004 82B0     		sub	sp, sp, #8
 133              		.cfi_def_cfa_offset 16
 134              		.loc 2 67 0
 135 0006 0446     		mov	r4, r0
 136              		.loc 2 70 0
 137 0008 06DD     		ble	.L8
 138              	.LVL11:
 139              	.LBB34:
 140              	.LBB35:
 141              		.loc 2 56 0
 142 000a 1949     		ldr	r1, .L9
 143              	.LVL12:
 144 000c 194A     		ldr	r2, .L9+4
 145              	.LVL13:
 146              	.LBE35:
 147              	.LBE34:
 148              		.loc 2 97 0
 149 000e 02B0     		add	sp, sp, #8
 150              		@ sp needed
 151 0010 BDE81040 		pop	{r4, lr}
 152              	.LBB37:
 153              	.LBB36:
 154              		.loc 2 56 0
 155 0014 FFF7FEBF 		b	chprintf
 156              	.LVL14:
 157              	.L8:
 158              	.LBE36:
 159              	.LBE37:
 160              	.LBB38:
 161              	.LBB39:
 162              		.loc 2 75 0
 163 0018 1749     		ldr	r1, .L9+8
 164              	.LVL15:
 165 001a 184A     		ldr	r2, .L9+12
 166              	.LVL16:
 167 001c FFF7FEFF 		bl	chprintf
 168              	.LVL17:
 169              		.loc 2 77 0
 170 0020 2046     		mov	r0, r4
ARM GAS  /tmp/ccUUkQ1e.s 			page 4


 171 0022 1749     		ldr	r1, .L9+16
 172 0024 174A     		ldr	r2, .L9+20
 173 0026 FFF7FEFF 		bl	chprintf
 174              	.LVL18:
 175              		.loc 2 79 0
 176 002a 2046     		mov	r0, r4
 177 002c 1649     		ldr	r1, .L9+24
 178 002e 174A     		ldr	r2, .L9+28
 179 0030 FFF7FEFF 		bl	chprintf
 180              	.LVL19:
 181              		.loc 2 81 0
 182 0034 2046     		mov	r0, r4
 183 0036 1649     		ldr	r1, .L9+32
 184 0038 164A     		ldr	r2, .L9+36
 185 003a FFF7FEFF 		bl	chprintf
 186              	.LVL20:
 187              		.loc 2 84 0
 188 003e 2046     		mov	r0, r4
 189 0040 1549     		ldr	r1, .L9+40
 190 0042 164A     		ldr	r2, .L9+44
 191 0044 FFF7FEFF 		bl	chprintf
 192              	.LVL21:
 193              		.loc 2 87 0
 194 0048 2046     		mov	r0, r4
 195 004a 1549     		ldr	r1, .L9+48
 196 004c 154A     		ldr	r2, .L9+52
 197 004e FFF7FEFF 		bl	chprintf
 198              	.LVL22:
 199              		.loc 2 90 0
 200 0052 2046     		mov	r0, r4
 201 0054 1449     		ldr	r1, .L9+56
 202 0056 154A     		ldr	r2, .L9+60
 203 0058 FFF7FEFF 		bl	chprintf
 204              	.LVL23:
 205              		.loc 2 94 0
 206 005c 144B     		ldr	r3, .L9+64
 207 005e 0093     		str	r3, [sp]
 208 0060 2046     		mov	r0, r4
 209 0062 1449     		ldr	r1, .L9+68
 210 0064 144A     		ldr	r2, .L9+72
 211 0066 154B     		ldr	r3, .L9+76
 212 0068 FFF7FEFF 		bl	chprintf
 213              	.LVL24:
 214              	.LBE39:
 215              	.LBE38:
 216              		.loc 2 97 0
 217 006c 02B0     		add	sp, sp, #8
 218              		@ sp needed
 219 006e 10BD     		pop	{r4, pc}
 220              	.LVL25:
 221              	.L10:
 222              		.align	2
 223              	.L9:
 224 0070 00000000 		.word	.LC0
 225 0074 1C000000 		.word	.LC3
 226 0078 24000000 		.word	.LC4
 227 007c 38000000 		.word	.LC5
ARM GAS  /tmp/ccUUkQ1e.s 			page 5


 228 0080 40000000 		.word	.LC6
 229 0084 54000000 		.word	.LC7
 230 0088 9C000000 		.word	.LC8
 231 008c B0000000 		.word	.LC9
 232 0090 BC000000 		.word	.LC10
 233 0094 D0000000 		.word	.LC11
 234 0098 DC000000 		.word	.LC12
 235 009c F0000000 		.word	.LC13
 236 00a0 08010000 		.word	.LC14
 237 00a4 1C010000 		.word	.LC15
 238 00a8 50010000 		.word	.LC16
 239 00ac 64010000 		.word	.LC17
 240 00b0 B4010000 		.word	.LC21
 241 00b4 8C010000 		.word	.LC18
 242 00b8 A4010000 		.word	.LC19
 243 00bc B0010000 		.word	.LC20
 244              		.cfi_endproc
 245              	.LFE122:
 246              		.size	cmd_info, .-cmd_info
 247              		.section	.text._strtok.constprop.2,"ax",%progbits
 248              		.align	2
 249              		.p2align 4,,15
 250              		.thumb
 251              		.thumb_func
 252              		.type	_strtok.constprop.2, %function
 253              	_strtok.constprop.2:
 254              	.LFB133:
 255              		.loc 2 37 0
 256              		.cfi_startproc
 257              		@ args = 0, pretend = 0, frame = 0
 258              		@ frame_needed = 0, uses_anonymous_args = 0
 259              	.LVL26:
 260 0000 38B5     		push	{r3, r4, r5, lr}
 261              		.cfi_def_cfa_offset 16
 262              		.cfi_offset 3, -16
 263              		.cfi_offset 4, -12
 264              		.cfi_offset 5, -8
 265              		.cfi_offset 14, -4
 266              		.loc 2 39 0
 267 0002 0446     		mov	r4, r0
 268              		.loc 2 37 0
 269 0004 0D46     		mov	r5, r1
 270              		.loc 2 39 0
 271 0006 90B1     		cbz	r0, .L12
 272              		.loc 2 40 0
 273 0008 2860     		str	r0, [r5]
 274              	.LVL27:
 275              	.L13:
 276              		.loc 2 46 0
 277 000a 2046     		mov	r0, r4
 278              	.LVL28:
 279 000c 0B49     		ldr	r1, .L22
 280              	.LVL29:
 281 000e FFF7FEFF 		bl	strspn
 282              	.LVL30:
 283 0012 0444     		add	r4, r4, r0
 284              	.LVL31:
ARM GAS  /tmp/ccUUkQ1e.s 			page 6


 285              		.loc 2 47 0
 286 0014 2046     		mov	r0, r4
 287 0016 0949     		ldr	r1, .L22
 288 0018 FFF7FEFF 		bl	strpbrk
 289              	.LVL32:
 290              		.loc 2 48 0
 291 001c 60B1     		cbz	r0, .L21
 292              		.loc 2 49 0
 293 001e 421C     		adds	r2, r0, #1
 294 0020 0023     		movs	r3, #0
 295 0022 2A60     		str	r2, [r5]
 296 0024 0370     		strb	r3, [r0]
 297              	.L16:
 298              		.loc 2 51 0
 299 0026 2378     		ldrb	r3, [r4]	@ zero_extendqisi2
 300 0028 23B1     		cbz	r3, .L17
 301 002a 2046     		mov	r0, r4
 302              		.loc 2 52 0
 303 002c 38BD     		pop	{r3, r4, r5, pc}
 304              	.LVL33:
 305              	.L12:
 306              		.loc 2 41 0
 307 002e 0C68     		ldr	r4, [r1]
 308              	.LVL34:
 309              		.loc 2 43 0
 310 0030 002C     		cmp	r4, #0
 311 0032 EAD1     		bne	.L13
 312              	.LVL35:
 313              	.L17:
 314              		.loc 2 44 0
 315 0034 0020     		movs	r0, #0
 316 0036 38BD     		pop	{r3, r4, r5, pc}
 317              	.LVL36:
 318              	.L21:
 319              		.loc 2 47 0
 320 0038 2860     		str	r0, [r5]
 321 003a F4E7     		b	.L16
 322              	.L23:
 323              		.align	2
 324              	.L22:
 325 003c C0010000 		.word	.LC22
 326              		.cfi_endproc
 327              	.LFE133:
 328              		.size	_strtok.constprop.2, .-_strtok.constprop.2
 329              		.section	.text.shellInit,"ax",%progbits
 330              		.align	2
 331              		.p2align 4,,15
 332              		.global	shellInit
 333              		.thumb
 334              		.thumb_func
 335              		.type	shellInit, %function
 336              	shellInit:
 337              	.LFB126:
 338              		.loc 2 204 0
 339              		.cfi_startproc
 340              		@ args = 0, pretend = 0, frame = 0
 341              		@ frame_needed = 0, uses_anonymous_args = 0
ARM GAS  /tmp/ccUUkQ1e.s 			page 7


 342              		@ link register save eliminated.
 343              		.loc 2 206 0
 344 0000 014B     		ldr	r3, .L25
 345 0002 1B60     		str	r3, [r3]
 346 0004 7047     		bx	lr
 347              	.L26:
 348 0006 00BF     		.align	2
 349              	.L25:
 350 0008 00000000 		.word	.LANCHOR0
 351              		.cfi_endproc
 352              	.LFE126:
 353              		.size	shellInit, .-shellInit
 354 000c AFF30080 		.section	.text.shellExit,"ax",%progbits
 355              		.align	2
 356              		.p2align 4,,15
 357              		.global	shellExit
 358              		.thumb
 359              		.thumb_func
 360              		.type	shellExit, %function
 361              	shellExit:
 362              	.LFB127:
 363              		.loc 2 218 0
 364              		.cfi_startproc
 365              		@ args = 0, pretend = 0, frame = 0
 366              		@ frame_needed = 0, uses_anonymous_args = 0
 367              	.LVL37:
 368 0000 10B5     		push	{r4, lr}
 369              		.cfi_def_cfa_offset 8
 370              		.cfi_offset 4, -8
 371              		.cfi_offset 14, -4
 372              	.LBB40:
 373              		.loc 2 222 0
 374 0002 2023     		movs	r3, #32
 375              	.LBE40:
 376              		.loc 2 218 0
 377 0004 0446     		mov	r4, r0
 378              	.LBB41:
 379              		.loc 2 222 0
 380              	@ 222 "../ChibiOS_2.6.7_minified/os/various/shell.c" 1
 381 0006 83F31188 		msr     BASEPRI, r3
 382              	@ 0 "" 2
 383              		.thumb
 384              	.LBE41:
 385              		.loc 2 223 0
 386 000a 0448     		ldr	r0, .L28
 387              	.LVL38:
 388 000c 0021     		movs	r1, #0
 389 000e FFF7FEFF 		bl	chEvtBroadcastFlagsI
 390              	.LVL39:
 391              		.loc 2 224 0
 392 0012 2046     		mov	r0, r4
 393              		.loc 2 225 0
 394 0014 BDE81040 		pop	{r4, lr}
 395              	.LVL40:
 396              		.loc 2 224 0
 397 0018 FFF7FEBF 		b	chThdExitS
 398              	.LVL41:
ARM GAS  /tmp/ccUUkQ1e.s 			page 8


 399              	.L29:
 400              		.align	2
 401              	.L28:
 402 001c 00000000 		.word	.LANCHOR0
 403              		.cfi_endproc
 404              	.LFE127:
 405              		.size	shellExit, .-shellExit
 406              		.section	.text.shellCreate,"ax",%progbits
 407              		.align	2
 408              		.p2align 4,,15
 409              		.global	shellCreate
 410              		.thumb
 411              		.thumb_func
 412              		.type	shellCreate, %function
 413              	shellCreate:
 414              	.LFB128:
 415              		.loc 2 240 0
 416              		.cfi_startproc
 417              		@ args = 0, pretend = 0, frame = 0
 418              		@ frame_needed = 0, uses_anonymous_args = 0
 419              	.LVL42:
 420 0000 00B5     		push	{lr}
 421              		.cfi_def_cfa_offset 4
 422              		.cfi_offset 14, -4
 423 0002 83B0     		sub	sp, sp, #12
 424              		.cfi_def_cfa_offset 16
 425              		.loc 2 242 0
 426 0004 034B     		ldr	r3, .L31
 427 0006 0090     		str	r0, [sp]
 428 0008 0020     		movs	r0, #0
 429              	.LVL43:
 430 000a FFF7FEFF 		bl	chThdCreateFromHeap
 431              	.LVL44:
 432              		.loc 2 243 0
 433 000e 03B0     		add	sp, sp, #12
 434              		@ sp needed
 435 0010 5DF804FB 		ldr	pc, [sp], #4
 436              	.L32:
 437              		.align	2
 438              	.L31:
 439 0014 00000000 		.word	shell_thread
 440              		.cfi_endproc
 441              	.LFE128:
 442              		.size	shellCreate, .-shellCreate
 443 0018 AFF30080 		.section	.text.shellCreateStatic,"ax",%progbits
 443      AFF30080 
 444              		.align	2
 445              		.p2align 4,,15
 446              		.global	shellCreateStatic
 447              		.thumb
 448              		.thumb_func
 449              		.type	shellCreateStatic, %function
 450              	shellCreateStatic:
 451              	.LFB129:
 452              		.loc 2 258 0
 453              		.cfi_startproc
 454              		@ args = 0, pretend = 0, frame = 0
ARM GAS  /tmp/ccUUkQ1e.s 			page 9


 455              		@ frame_needed = 0, uses_anonymous_args = 0
 456              	.LVL45:
 457 0000 00B5     		push	{lr}
 458              		.cfi_def_cfa_offset 4
 459              		.cfi_offset 14, -4
 460 0002 83B0     		sub	sp, sp, #12
 461              		.cfi_def_cfa_offset 16
 462              		.loc 2 260 0
 463 0004 0090     		str	r0, [sp]
 464 0006 0846     		mov	r0, r1
 465              	.LVL46:
 466 0008 1146     		mov	r1, r2
 467              	.LVL47:
 468 000a 1A46     		mov	r2, r3
 469              	.LVL48:
 470 000c 024B     		ldr	r3, .L34
 471              	.LVL49:
 472 000e FFF7FEFF 		bl	chThdCreateStatic
 473              	.LVL50:
 474              		.loc 2 261 0
 475 0012 03B0     		add	sp, sp, #12
 476              		@ sp needed
 477 0014 5DF804FB 		ldr	pc, [sp], #4
 478              	.L35:
 479              		.align	2
 480              	.L34:
 481 0018 00000000 		.word	shell_thread
 482              		.cfi_endproc
 483              	.LFE129:
 484              		.size	shellCreateStatic, .-shellCreateStatic
 485 001c AFF30080 		.section	.text.shellGetLine,"ax",%progbits
 486              		.align	2
 487              		.p2align 4,,15
 488              		.global	shellGetLine
 489              		.thumb
 490              		.thumb_func
 491              		.type	shellGetLine, %function
 492              	shellGetLine:
 493              	.LFB130:
 494              		.loc 2 275 0
 495              		.cfi_startproc
 496              		@ args = 0, pretend = 0, frame = 8
 497              		@ frame_needed = 0, uses_anonymous_args = 0
 498              	.LVL51:
 499 0000 F0B5     		push	{r4, r5, r6, r7, lr}
 500              		.cfi_def_cfa_offset 20
 501              		.cfi_offset 4, -20
 502              		.cfi_offset 5, -16
 503              		.cfi_offset 6, -12
 504              		.cfi_offset 7, -8
 505              		.cfi_offset 14, -4
 506              	.LBB42:
 507              		.loc 2 303 0
 508 0002 013A     		subs	r2, r2, #1
 509              	.LVL52:
 510              	.LBE42:
 511              		.loc 2 275 0
ARM GAS  /tmp/ccUUkQ1e.s 			page 10


 512 0004 83B0     		sub	sp, sp, #12
 513              		.cfi_def_cfa_offset 32
 514              		.loc 2 275 0
 515 0006 0E46     		mov	r6, r1
 516              	.LVL53:
 517              	.LBB43:
 518              		.loc 2 303 0
 519 0008 8F18     		adds	r7, r1, r2
 520              	.LBE43:
 521              		.loc 2 275 0
 522 000a 0446     		mov	r4, r0
 523              		.loc 2 276 0
 524 000c 0D46     		mov	r5, r1
 525              	.LVL54:
 526              	.L37:
 527              	.LBB44:
 528              		.loc 2 281 0
 529 000e 2368     		ldr	r3, [r4]
 530 0010 2046     		mov	r0, r4
 531 0012 5B68     		ldr	r3, [r3, #4]
 532 0014 0DF10701 		add	r1, sp, #7
 533 0018 0122     		movs	r2, #1
 534 001a 9847     		blx	r3
 535              	.LVL55:
 536 001c 48B3     		cbz	r0, .L46
 537              		.loc 2 283 0
 538 001e 9DF80710 		ldrb	r1, [sp, #7]	@ zero_extendqisi2
 539 0022 0429     		cmp	r1, #4
 540 0024 28D0     		beq	.L50
 541              		.loc 2 287 0
 542 0026 0829     		cmp	r1, #8
 543 0028 10D0     		beq	.L40
 544              		.loc 2 287 0 is_stmt 0 discriminator 1
 545 002a 7F29     		cmp	r1, #127
 546 002c 0ED0     		beq	.L40
 547              		.loc 2 296 0 is_stmt 1
 548 002e 0D29     		cmp	r1, #13
 549 0030 29D0     		beq	.L51
 550              		.loc 2 301 0
 551 0032 1F29     		cmp	r1, #31
 552 0034 EBD9     		bls	.L37
 553              		.loc 2 303 0
 554 0036 BD42     		cmp	r5, r7
 555 0038 E9D2     		bcs	.L37
 556              		.loc 2 304 0
 557 003a 2368     		ldr	r3, [r4]
 558 003c 2046     		mov	r0, r4
 559 003e 9B68     		ldr	r3, [r3, #8]
 560 0040 9847     		blx	r3
 561              	.LVL56:
 562              		.loc 2 305 0
 563 0042 9DF80730 		ldrb	r3, [sp, #7]	@ zero_extendqisi2
 564 0046 2B70     		strb	r3, [r5]
 565 0048 0135     		adds	r5, r5, #1
 566              	.LVL57:
 567 004a E0E7     		b	.L37
 568              	.L40:
ARM GAS  /tmp/ccUUkQ1e.s 			page 11


 569              		.loc 2 288 0
 570 004c B542     		cmp	r5, r6
 571              		.loc 2 289 0
 572 004e 2046     		mov	r0, r4
 573              		.loc 2 288 0
 574 0050 DDD0     		beq	.L37
 575              	.LVL58:
 576              		.loc 2 289 0
 577 0052 2368     		ldr	r3, [r4]
 578 0054 9B68     		ldr	r3, [r3, #8]
 579 0056 9847     		blx	r3
 580              	.LVL59:
 581              		.loc 2 290 0
 582 0058 2368     		ldr	r3, [r4]
 583 005a 2046     		mov	r0, r4
 584 005c 9B68     		ldr	r3, [r3, #8]
 585 005e 2021     		movs	r1, #32
 586 0060 9847     		blx	r3
 587              	.LVL60:
 588              		.loc 2 291 0
 589 0062 2368     		ldr	r3, [r4]
 590 0064 9DF80710 		ldrb	r1, [sp, #7]	@ zero_extendqisi2
 591 0068 9B68     		ldr	r3, [r3, #8]
 592 006a 2046     		mov	r0, r4
 593              		.loc 2 292 0
 594 006c 013D     		subs	r5, r5, #1
 595              	.LVL61:
 596              		.loc 2 291 0
 597 006e 9847     		blx	r3
 598              	.LVL62:
 599 0070 CDE7     		b	.L37
 600              	.L46:
 601              		.loc 2 282 0
 602 0072 0120     		movs	r0, #1
 603              	.LBE44:
 604              		.loc 2 308 0
 605 0074 03B0     		add	sp, sp, #12
 606              		@ sp needed
 607 0076 F0BD     		pop	{r4, r5, r6, r7, pc}
 608              	.LVL63:
 609              	.L50:
 610              	.LBB45:
 611              		.loc 2 284 0
 612 0078 2046     		mov	r0, r4
 613 007a 0749     		ldr	r1, .L52
 614 007c FFF7FEFF 		bl	chprintf
 615              	.LVL64:
 616              		.loc 2 285 0
 617 0080 0120     		movs	r0, #1
 618              	.LBE45:
 619              		.loc 2 308 0
 620 0082 03B0     		add	sp, sp, #12
 621              		@ sp needed
 622 0084 F0BD     		pop	{r4, r5, r6, r7, pc}
 623              	.LVL65:
 624              	.L51:
 625              	.LBB46:
ARM GAS  /tmp/ccUUkQ1e.s 			page 12


 626              		.loc 2 297 0
 627 0086 2046     		mov	r0, r4
 628 0088 0449     		ldr	r1, .L52+4
 629 008a FFF7FEFF 		bl	chprintf
 630              	.LVL66:
 631              		.loc 2 298 0
 632 008e 0020     		movs	r0, #0
 633 0090 2870     		strb	r0, [r5]
 634              	.LBE46:
 635              		.loc 2 308 0
 636 0092 03B0     		add	sp, sp, #12
 637              		@ sp needed
 638 0094 F0BD     		pop	{r4, r5, r6, r7, pc}
 639              	.LVL67:
 640              	.L53:
 641 0096 00BF     		.align	2
 642              	.L52:
 643 0098 C4010000 		.word	.LC23
 644 009c C8010000 		.word	.LC24
 645              		.cfi_endproc
 646              	.LFE130:
 647              		.size	shellGetLine, .-shellGetLine
 648              		.section	.text.shell_thread,"ax",%progbits
 649              		.align	2
 650              		.p2align 4,,15
 651              		.thumb
 652              		.thumb_func
 653              		.type	shell_thread, %function
 654              	shell_thread:
 655              	.LFB125:
 656              		.loc 2 141 0
 657              		.cfi_startproc
 658              		@ args = 0, pretend = 0, frame = 88
 659              		@ frame_needed = 0, uses_anonymous_args = 0
 660              	.LVL68:
 661 0000 2DE9F041 		push	{r4, r5, r6, r7, r8, lr}
 662              		.cfi_def_cfa_offset 24
 663              		.cfi_offset 4, -24
 664              		.cfi_offset 5, -20
 665              		.cfi_offset 6, -16
 666              		.cfi_offset 7, -12
 667              		.cfi_offset 8, -8
 668              		.cfi_offset 14, -4
 669              		.loc 2 148 0
 670 0004 574B     		ldr	r3, .L110
 671              		.loc 2 143 0
 672 0006 0668     		ldr	r6, [r0]
 673              	.LVL69:
 674              		.loc 2 148 0
 675 0008 9B69     		ldr	r3, [r3, #24]
 676 000a 574A     		ldr	r2, .L110+4
 677              		.loc 2 144 0
 678 000c D0F80480 		ldr	r8, [r0, #4]
 679              	.LVL70:
 680              		.loc 2 149 0
 681 0010 5649     		ldr	r1, .L110+8
 682              		.loc 2 148 0
ARM GAS  /tmp/ccUUkQ1e.s 			page 13


 683 0012 9A61     		str	r2, [r3, #24]
 684              		.loc 2 141 0
 685 0014 96B0     		sub	sp, sp, #88
 686              		.cfi_def_cfa_offset 112
 687              		.loc 2 149 0
 688 0016 3046     		mov	r0, r6
 689              	.LVL71:
 690 0018 FFF7FEFF 		bl	chprintf
 691              	.LVL72:
 692              	.L55:
 693              		.loc 2 151 0
 694 001c 3046     		mov	r0, r6
 695 001e 5449     		ldr	r1, .L110+12
 696 0020 FFF7FEFF 		bl	chprintf
 697              	.LVL73:
 698              		.loc 2 152 0
 699 0024 3046     		mov	r0, r6
 700 0026 06A9     		add	r1, sp, #24
 701 0028 4022     		movs	r2, #64
 702 002a FFF7FEFF 		bl	shellGetLine
 703              	.LVL74:
 704 002e 0446     		mov	r4, r0
 705 0030 0028     		cmp	r0, #0
 706 0032 2FD1     		bne	.L106
 707              		.loc 2 156 0
 708 0034 6946     		mov	r1, sp
 709 0036 06A8     		add	r0, sp, #24
 710 0038 FFF7FEFF 		bl	_strtok.constprop.2
 711              	.LVL75:
 712              		.loc 2 159 0
 713 003c 6946     		mov	r1, sp
 714              		.loc 2 156 0
 715 003e 0746     		mov	r7, r0
 716              	.LVL76:
 717              		.loc 2 159 0
 718 0040 0020     		movs	r0, #0
 719              	.LVL77:
 720 0042 6D46     		mov	r5, sp
 721 0044 FFF7FEFF 		bl	_strtok.constprop.2
 722              	.LVL78:
 723 0048 50B1     		cbz	r0, .L107
 724              	.L61:
 725              		.loc 2 160 0
 726 004a 042C     		cmp	r4, #4
 727 004c 1BD0     		beq	.L108
 728              		.loc 2 165 0
 729 004e 45F8040F 		str	r0, [r5, #4]!
 730              		.loc 2 159 0
 731 0052 6946     		mov	r1, sp
 732 0054 0020     		movs	r0, #0
 733              	.LVL79:
 734              		.loc 2 165 0
 735 0056 0134     		adds	r4, r4, #1
 736              	.LVL80:
 737              		.loc 2 159 0
 738 0058 FFF7FEFF 		bl	_strtok.constprop.2
 739              	.LVL81:
ARM GAS  /tmp/ccUUkQ1e.s 			page 14


 740 005c 0028     		cmp	r0, #0
 741 005e F4D1     		bne	.L61
 742              	.L107:
 743              		.loc 2 167 0
 744 0060 16AA     		add	r2, sp, #88
 745 0062 02EB8403 		add	r3, r2, r4, lsl #2
 746 0066 43F8540C 		str	r0, [r3, #-84]
 747              		.loc 2 168 0
 748 006a 002F     		cmp	r7, #0
 749 006c D6D0     		beq	.L55
 750              		.loc 2 169 0
 751 006e 3846     		mov	r0, r7
 752              	.LVL82:
 753 0070 4049     		ldr	r1, .L110+16
 754 0072 FFF7FEFF 		bl	strcasecmp
 755              	.LVL83:
 756 0076 C0B9     		cbnz	r0, .L62
 757              		.loc 2 170 0
 758 0078 84B1     		cbz	r4, .L57
 759              	.LVL84:
 760              	.LBB59:
 761              	.LBB60:
 762              		.loc 2 56 0
 763 007a 3046     		mov	r0, r6
 764 007c 3E49     		ldr	r1, .L110+20
 765 007e 3D4A     		ldr	r2, .L110+16
 766 0080 FFF7FEFF 		bl	chprintf
 767              	.LVL85:
 768              	.LBE60:
 769              	.LBE59:
 770              		.loc 2 172 0
 771 0084 CAE7     		b	.L55
 772              	.LVL86:
 773              	.L108:
 774              		.loc 2 161 0
 775 0086 3046     		mov	r0, r6
 776              	.LVL87:
 777 0088 3C49     		ldr	r1, .L110+24
 778 008a FFF7FEFF 		bl	chprintf
 779              	.LVL88:
 780              		.loc 2 167 0
 781 008e 0023     		movs	r3, #0
 782 0090 0593     		str	r3, [sp, #20]
 783 0092 C3E7     		b	.L55
 784              	.LVL89:
 785              	.L106:
 786              		.loc 2 153 0
 787 0094 3046     		mov	r0, r6
 788 0096 3A49     		ldr	r1, .L110+28
 789 0098 FFF7FEFF 		bl	chprintf
 790              	.LVL90:
 791              	.L57:
 792              		.loc 2 194 0
 793 009c 0020     		movs	r0, #0
 794 009e FFF7FEFF 		bl	shellExit
 795              	.LVL91:
 796              		.loc 2 197 0
ARM GAS  /tmp/ccUUkQ1e.s 			page 15


 797 00a2 0020     		movs	r0, #0
 798 00a4 16B0     		add	sp, sp, #88
 799              		@ sp needed
 800 00a6 BDE8F081 		pop	{r4, r5, r6, r7, r8, pc}
 801              	.LVL92:
 802              	.L62:
 803              		.loc 2 176 0
 804 00aa 3846     		mov	r0, r7
 805 00ac 3549     		ldr	r1, .L110+32
 806 00ae FFF7FEFF 		bl	strcasecmp
 807              	.LVL93:
 808 00b2 30B9     		cbnz	r0, .L109
 809              	.LBB61:
 810              	.LBB62:
 811              		.loc 2 56 0
 812 00b4 3046     		mov	r0, r6
 813              	.LBE62:
 814              	.LBE61:
 815              		.loc 2 177 0
 816 00b6 BCB1     		cbz	r4, .L67
 817              	.LVL94:
 818              	.LBB64:
 819              	.LBB63:
 820              		.loc 2 56 0
 821 00b8 2F49     		ldr	r1, .L110+20
 822 00ba 324A     		ldr	r2, .L110+32
 823 00bc FFF7FEFF 		bl	chprintf
 824              	.LVL95:
 825              	.LBE63:
 826              	.LBE64:
 827              		.loc 2 179 0
 828 00c0 ACE7     		b	.L55
 829              	.LVL96:
 830              	.L109:
 831              	.LBB65:
 832              	.LBB66:
 833              		.loc 2 121 0
 834 00c2 314D     		ldr	r5, .L110+36
 835 00c4 2868     		ldr	r0, [r5]
 836 00c6 20B9     		cbnz	r0, .L75
 837 00c8 31E0     		b	.L66
 838              	.LVL97:
 839              	.L74:
 840 00ca 55F8080F 		ldr	r0, [r5, #8]!
 841              	.LVL98:
 842 00ce 0028     		cmp	r0, #0
 843 00d0 2DD0     		beq	.L66
 844              	.LVL99:
 845              	.L75:
 846              		.loc 2 122 0
 847 00d2 3946     		mov	r1, r7
 848 00d4 FFF7FEFF 		bl	strcasecmp
 849              	.LVL100:
 850 00d8 0028     		cmp	r0, #0
 851 00da F6D1     		bne	.L74
 852              	.LVL101:
 853              	.L105:
ARM GAS  /tmp/ccUUkQ1e.s 			page 16


 854              	.LBE66:
 855              	.LBE65:
 856              	.LBB67:
 857              	.LBB68:
 858              		.loc 2 123 0
 859 00dc 6B68     		ldr	r3, [r5, #4]
 860 00de 2146     		mov	r1, r4
 861 00e0 3046     		mov	r0, r6
 862 00e2 01AA     		add	r2, sp, #4
 863 00e4 9847     		blx	r3
 864              	.LVL102:
 865 00e6 99E7     		b	.L55
 866              	.LVL103:
 867              	.L67:
 868              	.LBE68:
 869              	.LBE67:
 870              	.LBB70:
 871              	.LBB71:
 872              		.loc 2 61 0
 873 00e8 274D     		ldr	r5, .L110+36
 874              	.LBE71:
 875              	.LBE70:
 876              		.loc 2 181 0
 877 00ea 2849     		ldr	r1, .L110+40
 878 00ec FFF7FEFF 		bl	chprintf
 879              	.LVL104:
 880              	.LBB73:
 881              	.LBB72:
 882              		.loc 2 61 0
 883 00f0 2A68     		ldr	r2, [r5]
 884 00f2 2C46     		mov	r4, r5
 885              	.LVL105:
 886 00f4 3AB1     		cbz	r2, .L71
 887              	.LVL106:
 888              	.L72:
 889              		.loc 2 62 0
 890 00f6 3046     		mov	r0, r6
 891 00f8 2549     		ldr	r1, .L110+44
 892 00fa FFF7FEFF 		bl	chprintf
 893              	.LVL107:
 894              		.loc 2 61 0
 895 00fe 54F8082F 		ldr	r2, [r4, #8]!
 896              	.LVL108:
 897 0102 002A     		cmp	r2, #0
 898 0104 F7D1     		bne	.L72
 899              	.LVL109:
 900              	.L71:
 901              	.LBE72:
 902              	.LBE73:
 903              		.loc 2 183 0
 904 0106 B8F1000F 		cmp	r8, #0
 905 010a 0BD0     		beq	.L70
 906              	.LVL110:
 907              	.LBB74:
 908              	.LBB75:
 909              		.loc 2 61 0
 910 010c D8F80020 		ldr	r2, [r8]
ARM GAS  /tmp/ccUUkQ1e.s 			page 17


 911 0110 42B1     		cbz	r2, .L70
 912 0112 4446     		mov	r4, r8
 913              	.LVL111:
 914              	.L73:
 915              		.loc 2 62 0
 916 0114 3046     		mov	r0, r6
 917 0116 1E49     		ldr	r1, .L110+44
 918 0118 FFF7FEFF 		bl	chprintf
 919              	.LVL112:
 920              		.loc 2 61 0
 921 011c 54F8082F 		ldr	r2, [r4, #8]!
 922              	.LVL113:
 923 0120 002A     		cmp	r2, #0
 924 0122 F7D1     		bne	.L73
 925              	.LVL114:
 926              	.L70:
 927              	.LBE75:
 928              	.LBE74:
 929              		.loc 2 185 0
 930 0124 3046     		mov	r0, r6
 931 0126 1B49     		ldr	r1, .L110+48
 932 0128 FFF7FEFF 		bl	chprintf
 933              	.LVL115:
 934 012c 76E7     		b	.L55
 935              	.LVL116:
 936              	.L66:
 937              		.loc 2 187 0
 938 012e B8F1000F 		cmp	r8, #0
 939 0132 0DD0     		beq	.L78
 940              	.LVL117:
 941              	.LBB76:
 942              	.LBB69:
 943              		.loc 2 121 0
 944 0134 D8F80000 		ldr	r0, [r8]
 945 0138 50B1     		cbz	r0, .L78
 946 013a 4546     		mov	r5, r8
 947 013c 02E0     		b	.L79
 948              	.LVL118:
 949              	.L76:
 950 013e 55F8080F 		ldr	r0, [r5, #8]!
 951              	.LVL119:
 952 0142 28B1     		cbz	r0, .L78
 953              	.LVL120:
 954              	.L79:
 955              		.loc 2 122 0
 956 0144 3946     		mov	r1, r7
 957 0146 FFF7FEFF 		bl	strcasecmp
 958              	.LVL121:
 959 014a 0028     		cmp	r0, #0
 960 014c F7D1     		bne	.L76
 961 014e C5E7     		b	.L105
 962              	.LVL122:
 963              	.L78:
 964              	.LBE69:
 965              	.LBE76:
 966              		.loc 2 189 0
 967 0150 3046     		mov	r0, r6
ARM GAS  /tmp/ccUUkQ1e.s 			page 18


 968 0152 3A46     		mov	r2, r7
 969 0154 1049     		ldr	r1, .L110+52
 970 0156 FFF7FEFF 		bl	chprintf
 971              	.LVL123:
 972              		.loc 2 190 0
 973 015a 3046     		mov	r0, r6
 974 015c 0F49     		ldr	r1, .L110+56
 975 015e FFF7FEFF 		bl	chprintf
 976              	.LVL124:
 977 0162 5BE7     		b	.L55
 978              	.L111:
 979              		.align	2
 980              	.L110:
 981 0164 00000000 		.word	rlist
 982 0168 CC010000 		.word	.LC25
 983 016c D4010000 		.word	.LC26
 984 0170 EC010000 		.word	.LC27
 985 0174 18020000 		.word	.LC30
 986 0178 00000000 		.word	.LC0
 987 017c 00020000 		.word	.LC29
 988 0180 F4010000 		.word	.LC28
 989 0184 20020000 		.word	.LC31
 990 0188 00000000 		.word	.LANCHOR1
 991 018c 28020000 		.word	.LC32
 992 0190 40020000 		.word	.LC33
 993 0194 C8010000 		.word	.LC24
 994 0198 44020000 		.word	.LC34
 995 019c 48020000 		.word	.LC35
 996              		.cfi_endproc
 997              	.LFE125:
 998              		.size	shell_thread, .-shell_thread
 999              		.global	shell_terminated
 1000              		.section	.data.local_commands,"aw",%progbits
 1001              		.align	2
 1002              		.set	.LANCHOR1,. + 0
 1003              		.type	local_commands, %object
 1004              		.size	local_commands, 24
 1005              	local_commands:
 1006 0000 1C000000 		.word	.LC3
 1007 0004 00000000 		.word	cmd_info
 1008 0008 0C000000 		.word	.LC1
 1009 000c 00000000 		.word	cmd_systime
 1010 0010 00000000 		.word	0
 1011 0014 00000000 		.word	0
 1012              		.section	.rodata.str1.4,"aMS",%progbits,1
 1013              		.align	2
 1014              	.LC0:
 1015 0000 55736167 		.ascii	"Usage: %s\015\012\000"
 1015      653A2025 
 1015      730D0A00 
 1016              	.LC1:
 1017 000c 73797374 		.ascii	"systime\000"
 1017      696D6500 
 1018              	.LC2:
 1019 0014 256C750D 		.ascii	"%lu\015\012\000"
 1019      0A00
 1020 001a 0000     		.space	2
ARM GAS  /tmp/ccUUkQ1e.s 			page 19


 1021              	.LC3:
 1022 001c 696E666F 		.ascii	"info\000"
 1022      00
 1023 0021 000000   		.space	3
 1024              	.LC4:
 1025 0024 4B65726E 		.ascii	"Kernel:       %s\015\012\000"
 1025      656C3A20 
 1025      20202020 
 1025      20202573 
 1025      0D0A00
 1026 0037 00       		.space	1
 1027              	.LC5:
 1028 0038 322E362E 		.ascii	"2.6.7\000"
 1028      3700
 1029 003e 0000     		.space	2
 1030              	.LC6:
 1031 0040 436F6D70 		.ascii	"Compiler:     %s\015\012\000"
 1031      696C6572 
 1031      3A202020 
 1031      20202573 
 1031      0D0A00
 1032 0053 00       		.space	1
 1033              	.LC7:
 1034 0054 47434320 		.ascii	"GCC 4.8.4 20140526 (release) [ARM/embedded-4_8-bran"
 1034      342E382E 
 1034      34203230 
 1034      31343035 
 1034      32362028 
 1035 0087 63682072 		.ascii	"ch revision 211358]\000"
 1035      65766973 
 1035      696F6E20 
 1035      32313133 
 1035      35385D00 
 1036 009b 00       		.space	1
 1037              	.LC8:
 1038 009c 41726368 		.ascii	"Architecture: %s\015\012\000"
 1038      69746563 
 1038      74757265 
 1038      3A202573 
 1038      0D0A00
 1039 00af 00       		.space	1
 1040              	.LC9:
 1041 00b0 41524D76 		.ascii	"ARMv7-ME\000"
 1041      372D4D45 
 1041      00
 1042 00b9 000000   		.space	3
 1043              	.LC10:
 1044 00bc 436F7265 		.ascii	"Core Variant: %s\015\012\000"
 1044      20566172 
 1044      69616E74 
 1044      3A202573 
 1044      0D0A00
 1045 00cf 00       		.space	1
 1046              	.LC11:
 1047 00d0 436F7274 		.ascii	"Cortex-M4\000"
 1047      65782D4D 
 1047      3400
ARM GAS  /tmp/ccUUkQ1e.s 			page 20


 1048 00da 0000     		.space	2
 1049              	.LC12:
 1050 00dc 506F7274 		.ascii	"Port Info:    %s\015\012\000"
 1050      20496E66 
 1050      6F3A2020 
 1050      20202573 
 1050      0D0A00
 1051 00ef 00       		.space	1
 1052              	.LC13:
 1053 00f0 41647661 		.ascii	"Advanced kernel mode\000"
 1053      6E636564 
 1053      206B6572 
 1053      6E656C20 
 1053      6D6F6465 
 1054 0105 000000   		.space	3
 1055              	.LC14:
 1056 0108 506C6174 		.ascii	"Platform:     %s\015\012\000"
 1056      666F726D 
 1056      3A202020 
 1056      20202573 
 1056      0D0A00
 1057 011b 00       		.space	1
 1058              	.LC15:
 1059 011c 53544D33 		.ascii	"STM32F407/F417 High Performance with DSP and FPU\000"
 1059      32463430 
 1059      372F4634 
 1059      31372048 
 1059      69676820 
 1060 014d 000000   		.space	3
 1061              	.LC16:
 1062 0150 426F6172 		.ascii	"Board:        %s\015\012\000"
 1062      643A2020 
 1062      20202020 
 1062      20202573 
 1062      0D0A00
 1063 0163 00       		.space	1
 1064              	.LC17:
 1065 0164 53544D69 		.ascii	"STMicroelectronics STM32F4-Discovery\000"
 1065      63726F65 
 1065      6C656374 
 1065      726F6E69 
 1065      63732053 
 1066 0189 000000   		.space	3
 1067              	.LC18:
 1068 018c 4275696C 		.ascii	"Build time:   %s%s%s\015\012\000"
 1068      64207469 
 1068      6D653A20 
 1068      20202573 
 1068      25732573 
 1069 01a3 00       		.space	1
 1070              	.LC19:
 1071 01a4 4D617920 		.ascii	"May 12 2015\000"
 1071      31322032 
 1071      30313500 
 1072              	.LC20:
 1073 01b0 202D2000 		.ascii	" - \000"
 1074              	.LC21:
ARM GAS  /tmp/ccUUkQ1e.s 			page 21


 1075 01b4 30313A33 		.ascii	"01:39:47\000"
 1075      393A3437 
 1075      00
 1076 01bd 000000   		.space	3
 1077              	.LC22:
 1078 01c0 200900   		.ascii	" \011\000"
 1079 01c3 00       		.space	1
 1080              	.LC23:
 1081 01c4 5E4400   		.ascii	"^D\000"
 1082 01c7 00       		.space	1
 1083              	.LC24:
 1084 01c8 0D0A00   		.ascii	"\015\012\000"
 1085 01cb 00       		.space	1
 1086              	.LC25:
 1087 01cc 7368656C 		.ascii	"shell\000"
 1087      6C00
 1088 01d2 0000     		.space	2
 1089              	.LC26:
 1090 01d4 0D0A4368 		.ascii	"\015\012ChibiOS/RT Shell\015\012\000"
 1090      6962694F 
 1090      532F5254 
 1090      20536865 
 1090      6C6C0D0A 
 1091 01e9 000000   		.space	3
 1092              	.LC27:
 1093 01ec 63683E20 		.ascii	"ch> \000"
 1093      00
 1094 01f1 000000   		.space	3
 1095              	.LC28:
 1096 01f4 0D0A6C6F 		.ascii	"\015\012logout\000"
 1096      676F7574 
 1096      00
 1097 01fd 000000   		.space	3
 1098              	.LC29:
 1099 0200 746F6F20 		.ascii	"too many arguments\015\012\000"
 1099      6D616E79 
 1099      20617267 
 1099      756D656E 
 1099      74730D0A 
 1100 0215 000000   		.space	3
 1101              	.LC30:
 1102 0218 65786974 		.ascii	"exit\000"
 1102      00
 1103 021d 000000   		.space	3
 1104              	.LC31:
 1105 0220 68656C70 		.ascii	"help\000"
 1105      00
 1106 0225 000000   		.space	3
 1107              	.LC32:
 1108 0228 436F6D6D 		.ascii	"Commands: help exit \000"
 1108      616E6473 
 1108      3A206865 
 1108      6C702065 
 1108      78697420 
 1109 023d 000000   		.space	3
 1110              	.LC33:
 1111 0240 25732000 		.ascii	"%s \000"
ARM GAS  /tmp/ccUUkQ1e.s 			page 22


 1112              	.LC34:
 1113 0244 257300   		.ascii	"%s\000"
 1114 0247 00       		.space	1
 1115              	.LC35:
 1116 0248 203F0D0A 		.ascii	" ?\015\012\000"
 1116      00
 1117 024d 000000   		.section	.bss.shell_terminated,"aw",%nobits
 1118              		.align	2
 1119              		.set	.LANCHOR0,. + 0
 1120              		.type	shell_terminated, %object
 1121              		.size	shell_terminated, 4
 1122              	shell_terminated:
 1123 0000 00000000 		.space	4
 1124              		.text
 1125              	.Letext0:
 1126              		.file 3 "/usr/lib/gcc/arm-none-eabi/4.8.4/include/stddef.h"
 1127              		.file 4 "/usr/arm-none-eabi/include/machine/_default_types.h"
 1128              		.file 5 "/usr/arm-none-eabi/include/stdint.h"
 1129              		.file 6 "../ChibiOS_2.6.7_minified/os/ports/GCC/ARMCMx/chtypes.h"
 1130              		.file 7 "../ChibiOS_2.6.7_minified/os/kernel/include/chlists.h"
 1131              		.file 8 "../ChibiOS_2.6.7_minified/os/kernel/include/chthreads.h"
 1132              		.file 9 "../ChibiOS_2.6.7_minified/os/ports/GCC/ARMCMx/chcore_v7m.h"
 1133              		.file 10 "../ChibiOS_2.6.7_minified/os/kernel/include/chvt.h"
 1134              		.file 11 "../ChibiOS_2.6.7_minified/os/kernel/include/chschd.h"
 1135              		.file 12 "../ChibiOS_2.6.7_minified/os/kernel/include/chmtx.h"
 1136              		.file 13 "../ChibiOS_2.6.7_minified/os/kernel/include/chevents.h"
 1137              		.file 14 "../ChibiOS_2.6.7_minified/os/kernel/include/chmemcore.h"
 1138              		.file 15 "../ChibiOS_2.6.7_minified/os/kernel/include/chheap.h"
 1139              		.file 16 "../ChibiOS_2.6.7_minified/os/kernel/include/chstreams.h"
 1140              		.file 17 "../ChibiOS_2.6.7_minified/os/various/shell.h"
 1141              		.file 18 "/usr/lib/gcc/arm-none-eabi/4.8.4/include/stdarg.h"
 1142              		.file 19 "<built-in>"
 1143              		.file 20 "../ChibiOS_2.6.7_minified/os/ports/common/ARMCMx/CMSIS/include/core_cm4.h"
 1144              		.file 21 "/usr/arm-none-eabi/include/string.h"
 1145              		.file 22 "../ChibiOS_2.6.7_minified/os/kernel/include/chdynamic.h"
